{"contracts/StockySimple.sol":{"StockySimple":{"abi":[{"inputs":[],"stateMutability":"nonpayable","type":"constructor"},{"anonymous":false,"inputs":[{"indexed":true,"internalType":"string","name":"businessId","type":"string"},{"indexed":false,"internalType":"string","name":"name","type":"string"},{"indexed":false,"internalType":"address","name":"owner","type":"address"}],"name":"BusinessRegistered","type":"event"},{"anonymous":false,"inputs":[{"indexed":true,"internalType":"string","name":"productId","type":"string"},{"indexed":false,"internalType":"string","name":"businessId","type":"string"},{"indexed":false,"internalType":"address","name":"creator","type":"address"}],"name":"ProductCreated","type":"event"},{"anonymous":false,"inputs":[{"indexed":true,"internalType":"string","name":"productId","type":"string"},{"indexed":false,"internalType":"address","name":"buyer","type":"address"},{"indexed":false,"internalType":"uint256","name":"price","type":"uint256"}],"name":"ProductSold","type":"event"},{"inputs":[{"internalType":"uint256","name":"","type":"uint256"}],"name":"businessList","outputs":[{"internalType":"string","name":"","type":"string"}],"stateMutability":"view","type":"function"},{"inputs":[{"internalType":"string","name":"","type":"string"}],"name":"businesses","outputs":[{"internalType":"string","name":"id","type":"string"},{"internalType":"string","name":"name","type":"string"},{"internalType":"address","name":"owner","type":"address"},{"internalType":"bool","name":"verified","type":"bool"},{"internalType":"uint256","name":"registrationDate","type":"uint256"}],"stateMutability":"view","type":"function"},{"inputs":[{"internalType":"string","name":"_productId","type":"string"}],"name":"buyProduct","outputs":[],"stateMutability":"payable","type":"function"},{"inputs":[{"internalType":"string","name":"_productId","type":"string"},{"internalType":"string","name":"_name","type":"string"},{"internalType":"string","name":"_businessId","type":"string"},{"internalType":"uint256","name":"_price","type":"uint256"}],"name":"createProduct","outputs":[],"stateMutability":"nonpayable","type":"function"},{"inputs":[],"name":"getAllBusinesses","outputs":[{"internalType":"string[]","name":"","type":"string[]"}],"stateMutability":"view","type":"function"},{"inputs":[],"name":"getAllProducts","outputs":[{"internalType":"string[]","name":"","type":"string[]"}],"stateMutability":"view","type":"function"},{"inputs":[{"internalType":"string","name":"_businessId","type":"string"}],"name":"getBusiness","outputs":[{"internalType":"string","name":"id","type":"string"},{"internalType":"string","name":"name","type":"string"},{"internalType":"address","name":"owner","type":"address"},{"internalType":"bool","name":"verified","type":"bool"},{"internalType":"uint256","name":"registrationDate","type":"uint256"}],"stateMutability":"view","type":"function"},{"inputs":[{"internalType":"string","name":"_productId","type":"string"}],"name":"getProduct","outputs":[{"internalType":"string","name":"id","type":"string"},{"internalType":"string","name":"name","type":"string"},{"internalType":"string","name":"businessId","type":"string"},{"internalType":"uint256","name":"price","type":"uint256"},{"internalType":"uint256","name":"timestamp","type":"uint256"},{"internalType":"address","name":"creator","type":"address"},{"internalType":"bool","name":"active","type":"bool"}],"stateMutability":"view","type":"function"},{"inputs":[],"name":"owner","outputs":[{"internalType":"address","name":"","type":"address"}],"stateMutability":"view","type":"function"},{"inputs":[{"internalType":"uint256","name":"","type":"uint256"}],"name":"productList","outputs":[{"internalType":"string","name":"","type":"string"}],"stateMutability":"view","type":"function"},{"inputs":[{"internalType":"string","name":"","type":"string"}],"name":"products","outputs":[{"internalType":"string","name":"id","type":"string"},{"internalType":"string","name":"name","type":"string"},{"internalType":"string","name":"businessId","type":"string"},{"internalType":"uint256","name":"price","type":"uint256"},{"internalType":"uint256","name":"timestamp","type":"uint256"},{"internalType":"address","name":"creator","type":"address"},{"internalType":"bool","name":"active","type":"bool"}],"stateMutability":"view","type":"function"},{"inputs":[{"internalType":"string","name":"_businessId","type":"string"},{"internalType":"string","name":"_name","type":"string"}],"name":"registerBusiness","outputs":[],"stateMutability":"nonpayable","type":"function"},{"inputs":[],"name":"totalBusinesses","outputs":[{"internalType":"uint256","name":"","type":"uint256"}],"stateMutability":"view","type":"function"},{"inputs":[],"name":"totalProducts","outputs":[{"internalType":"uint256","name":"","type":"uint256"}],"stateMutability":"view","type":"function"},{"inputs":[{"internalType":"address","name":"","type":"address"}],"name":"userBusiness","outputs":[{"internalType":"string","name":"","type":"string"}],"stateMutability":"view","type":"function"},{"inputs":[{"internalType":"string","name":"_businessId","type":"string"}],"name":"verifyBusiness","outputs":[],"stateMutability":"nonpayable","type":"function"}],"evm":{"bytecode":{"linkReferences":{},"object":"6080806040523461002857600580546001600160a01b0319163317905561126d908161002e8239f35b600080fdfe60406080815260048036101561001457600080fd5b6000803560e01c80630186a42314610d1f57806302ee3a5214610c775780631b61040d146109bc578063364e022f146107ca578063528c87d2146107795780635d910ec11461055657806360d20431146105375780636757876c1461049057806368111cce146103b657806368c8add8146103065780638be80142146102b15780638da5cb5b14610288578063919a86c81461023457806398c461831461018e5780639b9d326d1461016b5763b45e1c4e146100cf57600080fd5b34610168576020366003190112610168578135906001600160401b038211610168575061010461011692602092369101610e30565b81845193828580945193849201610e8b565b8101600181520301902061016461012c82610ee8565b9261013960018401610ee8565b6002840154600390940154915194859460a081901c60ff16926001600160a01b039091169186611075565b0390f35b80fd5b50823461018a578160031936011261018a576020906006549051908152f35b5080fd5b50346101685780600319360112610168578154906001600160401b03821161022157918351926020906101c6828560051b0186610e0f565b8385529182527f8a35acfbc15ff81a39ae7d344fd709f28e8600b4aa8c65c6b64bfe7fe36bd19b8185015b848410610205578651806101648882611013565b600183819261021385610ee8565b8152019201930192906101f1565b634e487b7160e01b815260418352602490fd5b5091903461028457602036600319011261028457356001600160a01b03811690819003610284578183610271926101649552600260205220610ee8565b9051918291602083526020830190610f8e565b8280fd5b50823461018a578160031936011261018a5760055490516001600160a01b039091168152602090f35b5091903461028457602036600319011261028457803590805482101561030257906102719161016494527f8a35acfbc15ff81a39ae7d344fd709f28e8600b4aa8c65c6b64bfe7fe36bd19b01610ee8565b8380fd5b5091346102845760203660031901126102845781356001600160401b038111610302576103369036908401610e30565b6005549092906001600160a01b031633036103875750602060029281610366935193828580945193849201610e8b565b60019082019081520301902001805460ff60a01b1916600160a01b17905580f35b6020606492519162461bcd60e51b8352820152600a60248201526927b7363c9037bbb732b960b11b6044820152fd5b50346101685760203660031901126101685781356001600160401b03811161018a576020610164926103ee6104019336908701610e30565b9082875194838680955193849201610e8b565b8201908152030190209183519061041782610dc3565b61042084610ee8565b825261042e60018501610ee8565b936020830194855261044260028201610ee8565b91828785015260056003830154918260608701528301549283608087015201549260ff60018060a01b038516948560a088015260a01c161515948560c0820152519651975197889788610fb3565b5034610168576020366003190112610168578135906001600160401b03821161016857506101046104c692602092369101610e30565b810160018152030190209061016481516104df81610df4565b6104e884610ee8565b81526104f660018501610ee8565b938460208301526002810154600360ff60018060a01b03831692838887015260a01c1615159283606086015201549283608082015251945195869586611075565b50823461018a578160031936011261018a576020906007549051908152f35b50823461018a578060031936011261018a576001600160401b038335818111610302576105869036908601610e30565b906024359081116103025761059e9036908601610e30565b90825181516105ca6020928381818701946105ba818388610e8b565b8101600181520301902054610eae565b6107445790600291600386610670868a61063b8a61063161061f8a88519a6105f18c610df4565b878c52818c01948552898c019733895260608d0197885260808d019a428c5251938492839251928391610e8b565b810160018152030190209851896110bb565b51600188016110bb565b90518786018054925160ff60a01b90151560a01b166001600160a01b039092166001600160a81b031990931692909217179055565b5191015533865252610684818486206110bb565b8454600160401b811015610731576001810180875581101561071e579161070b826106f8610718947f683c95e74f23a58ebacad1072881d776869526afd974063423b60e665ae8e952968a8a527f8a35acfbc15ff81a39ae7d344fd709f28e8600b4aa8c65c6b64bfe7fe36bd19b016110bb565b6107036007546111ca565b6007556111ef565b935191829133908361120f565b0390a280f35b634e487b7160e01b855260328652602485fd5b634e487b7160e01b855260418652602485fd5b845162461bcd60e51b8152808801839052600f60248201526e427573696e6573732065786973747360881b6044820152606490fd5b5091903461028457602036600319011261028457356003548110156102845761027190600361016494527fc2575a0e9e593c00f959f8c92f12db2869c3395a3b0502d05e2516446f71f85b01610ee8565b5091602091826003193601126103025780356001600160401b0381116109b8576107f79036908301610e30565b9082518481845161080b8183858901610e8b565b81018881520301902090600582019081549060ff8260a01c16156109805760038401543410610946575060ff60a01b191690558251600290910180548692839290919061085782610eae565b9060019286848216918260001461092d5750506001146108f1575b5050825290819003850190206002015481908190819081906001600160a01b031634156108e7575b3491f1156108dd57906108cd7fd0597de7b4841220d83e82517ef6d92df0c5edab071069f65a89c2c66ca407aa926111ef565b928151903382523490820152a280f35b81513d85823e3d90fd5b6108fc915061089a565b909194809450528683208784915b8383106109185750939491830193508190506002610872565b8054858401528a9550910190889086016108ff565b60ff191686525050508015150282019250806002610872565b855162461bcd60e51b81529081018790526014602482015273125b9cdd59999a58da595b9d081c185e5b595b9d60621b6044820152606490fd5b855162461bcd60e51b8152908101879052601260248201527150726f64756374206e6f742061637469766560701b6044820152606490fd5b8480fd5b50919034610284576080366003190112610284576001600160401b039080358281116109b8576109ef9036908301610e30565b90602435838111610c7357610a079036908301610e30565b92604435908111610c7357610a1f9036908301610e30565b928451908451602090610a358185848a01610e8b565b8301600181526002848360018060a01b03968794030190200154163303610c3b578651610a7e8651918381818a0194610a6f818388610e8b565b81018d81520301902054610eae565b610c0757918893918893845192610a9484610dc3565b888452828401908152858401908a82526060850192606435845260808601944286528b60a088019a338c5260c089019a60018c525180948193518092610ad992610e8b565b8201908152030190209451610aee90866110bb565b51610afc90600186016110bb565b51610b0a90600285016110bb565b51600383015551858201556005019251166bffffffffffffffffffffffff60a01b835416178255511515610b55919081549060ff60a01b90151560a01b169060ff60a01b1916179055565b60035490600160401b821015610bf4576001820180600355821015610be157509161070b82610bce610718947f4478fdb5cca1a28d79052038c209db14519451af9c6bc6e753a2614e5ea43f1a9660038a527fc2575a0e9e593c00f959f8c92f12db2869c3395a3b0502d05e2516446f71f85b016110bb565b610bd96006546111ca565b6006556111ef565b634e487b7160e01b865260329052602485fd5b634e487b7160e01b865260419052602485fd5b875162461bcd60e51b8152808601839052600e60248201526d50726f647563742065786973747360901b6044820152606490fd5b8360649188519162461bcd60e51b8352820152601360248201527227b7363c90313ab9b4b732b9b99037bbb732b960691b6044820152fd5b8580fd5b50903461018a578160031936011261018a57600354906001600160401b038211610d0c57508251916020610cb0818460051b0185610e0f565b828452600382527fc2575a0e9e593c00f959f8c92f12db2869c3395a3b0502d05e2516446f71f85b8185015b848410610cf0578651806101648882611013565b6001838192610cfe85610ee8565b815201920193019290610cdc565b634e487b7160e01b835260419052602482fd5b508290346101685760203660031901126101685782356001600160401b03811161018a57602061016492610d59610d6c9336908801610e30565b9082865194838680955193849201610e8b565b82019081520301902091610d7f83610ee8565b610d8b60018501610ee8565b93610d9860028201610ee8565b956005600383015491830154920154935196879660ff8660a01c169560018060a01b03169488610fb3565b60e081019081106001600160401b03821117610dde57604052565b634e487b7160e01b600052604160045260246000fd5b60a081019081106001600160401b03821117610dde57604052565b90601f801991011681019081106001600160401b03821117610dde57604052565b81601f82011215610e86578035906001600160401b038211610dde5760405192610e64601f8401601f191660200185610e0f565b82845260208383010111610e8657816000926020809301838601378301015290565b600080fd5b60005b838110610e9e5750506000910152565b8181015183820152602001610e8e565b90600182811c92168015610ede575b6020831014610ec857565b634e487b7160e01b600052602260045260246000fd5b91607f1691610ebd565b9060405191826000825492610efc84610eae565b908184526001948581169081600014610f6b5750600114610f28575b5050610f2692500383610e0f565b565b9093915060005260209081600020936000915b818310610f53575050610f2693508201013880610f18565b85548884018501529485019487945091830191610f3b565b915050610f2694506020925060ff191682840152151560051b8201013880610f18565b90602091610fa781518092818552858086019101610e8b565b601f01601f1916010190565b9592610fe360c09693610fd5610ff1949b9a979b60e08b5260e08b0190610f8e565b9089820360208b0152610f8e565b908782036040890152610f8e565b606086019790975260808501526001600160a01b031660a08401521515910152565b602080820190808352835180925260408301928160408460051b8301019501936000915b8483106110475750505050505090565b9091929394958480611065600193603f198682030187528a51610f8e565b9801930193019194939290611037565b916110a0906110926080959897969360a0865260a0860190610f8e565b908482036020860152610f8e565b6001600160a01b039096166040830152151560608201520152565b91909182516001600160401b038111610dde576110d88254610eae565b601f8111611182575b50602080601f831160011461111e575081929394600092611113575b50508160011b916000199060031b1c1916179055565b0151905038806110fd565b90601f198316958460005282600020926000905b88821061116a57505083600195969710611151575b505050811b019055565b015160001960f88460031b161c19169055388080611147565b80600185968294968601518155019501930190611132565b600083815260208120601f840160051c810192602085106111c0575b601f0160051c01915b8281106111b55750506110e1565b8181556001016111a7565b909250829061119e565b60001981146111d95760010190565b634e487b7160e01b600052601160045260246000fd5b61120790602060405192828480945193849201610e8b565b810103902090565b90611227602091949394604084526040840190610f8e565b6001600160a01b0390941691015256fea2646970667358221220383704a846d29fd4cc29f5ece3e25b7293b542b0ba2ad13efb8e454bee86d70164736f6c63430008140033","opcodes":"PUSH1 0x80 DUP1 PUSH1 0x40 MSTORE CALLVALUE PUSH2 0x28 JUMPI PUSH1 0x5 DUP1 SLOAD PUSH1 0x1 PUSH1 0x1 PUSH1 0xA0 SHL SUB NOT AND CALLER OR SWAP1 SSTORE PUSH2 0x126D SWAP1 DUP2 PUSH2 0x2E DUP3 CODECOPY RETURN JUMPDEST PUSH1 0x0 DUP1 REVERT INVALID PUSH1 0x40 PUSH1 0x80 DUP2 MSTORE PUSH1 0x4 DUP1 CALLDATASIZE LT ISZERO PUSH2 0x14 JUMPI PUSH1 0x0 DUP1 REVERT JUMPDEST PUSH1 0x0 DUP1 CALLDATALOAD PUSH1 0xE0 SHR DUP1 PUSH4 0x186A423 EQ PUSH2 0xD1F JUMPI DUP1 PUSH4 0x2EE3A52 EQ PUSH2 0xC77 JUMPI DUP1 PUSH4 0x1B61040D EQ PUSH2 0x9BC JUMPI DUP1 PUSH4 0x364E022F EQ PUSH2 0x7CA JUMPI DUP1 PUSH4 0x528C87D2 EQ PUSH2 0x779 JUMPI DUP1 PUSH4 0x5D910EC1 EQ PUSH2 0x556 JUMPI DUP1 PUSH4 0x60D20431 EQ PUSH2 0x537 JUMPI DUP1 PUSH4 0x6757876C EQ PUSH2 0x490 JUMPI DUP1 PUSH4 0x68111CCE EQ PUSH2 0x3B6 JUMPI DUP1 PUSH4 0x68C8ADD8 EQ PUSH2 0x306 JUMPI DUP1 PUSH4 0x8BE80142 EQ PUSH2 0x2B1 JUMPI DUP1 PUSH4 0x8DA5CB5B EQ PUSH2 0x288 JUMPI DUP1 PUSH4 0x919A86C8 EQ PUSH2 0x234 JUMPI DUP1 PUSH4 0x98C46183 EQ PUSH2 0x18E JUMPI DUP1 PUSH4 0x9B9D326D EQ PUSH2 0x16B JUMPI PUSH4 0xB45E1C4E EQ PUSH2 0xCF JUMPI PUSH1 0x0 DUP1 REVERT JUMPDEST CALLVALUE PUSH2 0x168 JUMPI PUSH1 0x20 CALLDATASIZE PUSH1 0x3 NOT ADD SLT PUSH2 0x168 JUMPI DUP2 CALLDATALOAD SWAP1 PUSH1 0x1 PUSH1 0x1 PUSH1 0x40 SHL SUB DUP3 GT PUSH2 0x168 JUMPI POP PUSH2 0x104 PUSH2 0x116 SWAP3 PUSH1 0x20 SWAP3 CALLDATASIZE SWAP2 ADD PUSH2 0xE30 JUMP JUMPDEST DUP2 DUP5 MLOAD SWAP4 DUP3 DUP6 DUP1 SWAP5 MLOAD SWAP4 DUP5 SWAP3 ADD PUSH2 0xE8B JUMP JUMPDEST DUP2 ADD PUSH1 0x1 DUP2 MSTORE SUB ADD SWAP1 KECCAK256 PUSH2 0x164 PUSH2 0x12C DUP3 PUSH2 0xEE8 JUMP JUMPDEST SWAP3 PUSH2 0x139 PUSH1 0x1 DUP5 ADD PUSH2 0xEE8 JUMP JUMPDEST PUSH1 0x2 DUP5 ADD SLOAD PUSH1 0x3 SWAP1 SWAP5 ADD SLOAD SWAP2 MLOAD SWAP5 DUP6 SWAP5 PUSH1 0xA0 DUP2 SWAP1 SHR PUSH1 0xFF AND SWAP3 PUSH1 0x1 PUSH1 0x1 PUSH1 0xA0 SHL SUB SWAP1 SWAP2 AND SWAP2 DUP7 PUSH2 0x1075 JUMP JUMPDEST SUB SWAP1 RETURN JUMPDEST DUP1 REVERT JUMPDEST POP DUP3 CALLVALUE PUSH2 0x18A JUMPI DUP2 PUSH1 0x3 NOT CALLDATASIZE ADD SLT PUSH2 0x18A JUMPI PUSH1 0x20 SWAP1 PUSH1 0x6 SLOAD SWAP1 MLOAD SWAP1 DUP2 MSTORE RETURN JUMPDEST POP DUP1 REVERT JUMPDEST POP CALLVALUE PUSH2 0x168 JUMPI DUP1 PUSH1 0x3 NOT CALLDATASIZE ADD SLT PUSH2 0x168 JUMPI DUP2 SLOAD SWAP1 PUSH1 0x1 PUSH1 0x1 PUSH1 0x40 SHL SUB DUP3 GT PUSH2 0x221 JUMPI SWAP2 DUP4 MLOAD SWAP3 PUSH1 0x20 SWAP1 PUSH2 0x1C6 DUP3 DUP6 PUSH1 0x5 SHL ADD DUP7 PUSH2 0xE0F JUMP JUMPDEST DUP4 DUP6 MSTORE SWAP2 DUP3 MSTORE PUSH32 0x8A35ACFBC15FF81A39AE7D344FD709F28E8600B4AA8C65C6B64BFE7FE36BD19B DUP2 DUP6 ADD JUMPDEST DUP5 DUP5 LT PUSH2 0x205 JUMPI DUP7 MLOAD DUP1 PUSH2 0x164 DUP9 DUP3 PUSH2 0x1013 JUMP JUMPDEST PUSH1 0x1 DUP4 DUP2 SWAP3 PUSH2 0x213 DUP6 PUSH2 0xEE8 JUMP JUMPDEST DUP2 MSTORE ADD SWAP3 ADD SWAP4 ADD SWAP3 SWAP1 PUSH2 0x1F1 JUMP JUMPDEST PUSH4 0x4E487B71 PUSH1 0xE0 SHL DUP2 MSTORE PUSH1 0x41 DUP4 MSTORE PUSH1 0x24 SWAP1 REVERT JUMPDEST POP SWAP2 SWAP1 CALLVALUE PUSH2 0x284 JUMPI PUSH1 0x20 CALLDATASIZE PUSH1 0x3 NOT ADD SLT PUSH2 0x284 JUMPI CALLDATALOAD PUSH1 0x1 PUSH1 0x1 PUSH1 0xA0 SHL SUB DUP2 AND SWAP1 DUP2 SWAP1 SUB PUSH2 0x284 JUMPI DUP2 DUP4 PUSH2 0x271 SWAP3 PUSH2 0x164 SWAP6 MSTORE PUSH1 0x2 PUSH1 0x20 MSTORE KECCAK256 PUSH2 0xEE8 JUMP JUMPDEST SWAP1 MLOAD SWAP2 DUP3 SWAP2 PUSH1 0x20 DUP4 MSTORE PUSH1 0x20 DUP4 ADD SWAP1 PUSH2 0xF8E JUMP JUMPDEST DUP3 DUP1 REVERT JUMPDEST POP DUP3 CALLVALUE PUSH2 0x18A JUMPI DUP2 PUSH1 0x3 NOT CALLDATASIZE ADD SLT PUSH2 0x18A JUMPI PUSH1 0x5 SLOAD SWAP1 MLOAD PUSH1 0x1 PUSH1 0x1 PUSH1 0xA0 SHL SUB SWAP1 SWAP2 AND DUP2 MSTORE PUSH1 0x20 SWAP1 RETURN JUMPDEST POP SWAP2 SWAP1 CALLVALUE PUSH2 0x284 JUMPI PUSH1 0x20 CALLDATASIZE PUSH1 0x3 NOT ADD SLT PUSH2 0x284 JUMPI DUP1 CALLDATALOAD SWAP1 DUP1 SLOAD DUP3 LT ISZERO PUSH2 0x302 JUMPI SWAP1 PUSH2 0x271 SWAP2 PUSH2 0x164 SWAP5 MSTORE PUSH32 0x8A35ACFBC15FF81A39AE7D344FD709F28E8600B4AA8C65C6B64BFE7FE36BD19B ADD PUSH2 0xEE8 JUMP JUMPDEST DUP4 DUP1 REVERT JUMPDEST POP SWAP2 CALLVALUE PUSH2 0x284 JUMPI PUSH1 0x20 CALLDATASIZE PUSH1 0x3 NOT ADD SLT PUSH2 0x284 JUMPI DUP2 CALLDATALOAD PUSH1 0x1 PUSH1 0x1 PUSH1 0x40 SHL SUB DUP2 GT PUSH2 0x302 JUMPI PUSH2 0x336 SWAP1 CALLDATASIZE SWAP1 DUP5 ADD PUSH2 0xE30 JUMP JUMPDEST PUSH1 0x5 SLOAD SWAP1 SWAP3 SWAP1 PUSH1 0x1 PUSH1 0x1 PUSH1 0xA0 SHL SUB AND CALLER SUB PUSH2 0x387 JUMPI POP PUSH1 0x20 PUSH1 0x2 SWAP3 DUP2 PUSH2 0x366 SWAP4 MLOAD SWAP4 DUP3 DUP6 DUP1 SWAP5 MLOAD SWAP4 DUP5 SWAP3 ADD PUSH2 0xE8B JUMP JUMPDEST PUSH1 0x1 SWAP1 DUP3 ADD SWAP1 DUP2 MSTORE SUB ADD SWAP1 KECCAK256 ADD DUP1 SLOAD PUSH1 0xFF PUSH1 0xA0 SHL NOT AND PUSH1 0x1 PUSH1 0xA0 SHL OR SWAP1 SSTORE DUP1 RETURN JUMPDEST PUSH1 0x20 PUSH1 0x64 SWAP3 MLOAD SWAP2 PUSH3 0x461BCD PUSH1 0xE5 SHL DUP4 MSTORE DUP3 ADD MSTORE PUSH1 0xA PUSH1 0x24 DUP3 ADD MSTORE PUSH10 0x27B7363C9037BBB732B9 PUSH1 0xB1 SHL PUSH1 0x44 DUP3 ADD MSTORE REVERT JUMPDEST POP CALLVALUE PUSH2 0x168 JUMPI PUSH1 0x20 CALLDATASIZE PUSH1 0x3 NOT ADD SLT PUSH2 0x168 JUMPI DUP2 CALLDATALOAD PUSH1 0x1 PUSH1 0x1 PUSH1 0x40 SHL SUB DUP2 GT PUSH2 0x18A JUMPI PUSH1 0x20 PUSH2 0x164 SWAP3 PUSH2 0x3EE PUSH2 0x401 SWAP4 CALLDATASIZE SWAP1 DUP8 ADD PUSH2 0xE30 JUMP JUMPDEST SWAP1 DUP3 DUP8 MLOAD SWAP5 DUP4 DUP7 DUP1 SWAP6 MLOAD SWAP4 DUP5 SWAP3 ADD PUSH2 0xE8B JUMP JUMPDEST DUP3 ADD SWAP1 DUP2 MSTORE SUB ADD SWAP1 KECCAK256 SWAP2 DUP4 MLOAD SWAP1 PUSH2 0x417 DUP3 PUSH2 0xDC3 JUMP JUMPDEST PUSH2 0x420 DUP5 PUSH2 0xEE8 JUMP JUMPDEST DUP3 MSTORE PUSH2 0x42E PUSH1 0x1 DUP6 ADD PUSH2 0xEE8 JUMP JUMPDEST SWAP4 PUSH1 0x20 DUP4 ADD SWAP5 DUP6 MSTORE PUSH2 0x442 PUSH1 0x2 DUP3 ADD PUSH2 0xEE8 JUMP JUMPDEST SWAP2 DUP3 DUP8 DUP6 ADD MSTORE PUSH1 0x5 PUSH1 0x3 DUP4 ADD SLOAD SWAP2 DUP3 PUSH1 0x60 DUP8 ADD MSTORE DUP4 ADD SLOAD SWAP3 DUP4 PUSH1 0x80 DUP8 ADD MSTORE ADD SLOAD SWAP3 PUSH1 0xFF PUSH1 0x1 DUP1 PUSH1 0xA0 SHL SUB DUP6 AND SWAP5 DUP6 PUSH1 0xA0 DUP9 ADD MSTORE PUSH1 0xA0 SHR AND ISZERO ISZERO SWAP5 DUP6 PUSH1 0xC0 DUP3 ADD MSTORE MLOAD SWAP7 MLOAD SWAP8 MLOAD SWAP8 DUP9 SWAP8 DUP9 PUSH2 0xFB3 JUMP JUMPDEST POP CALLVALUE PUSH2 0x168 JUMPI PUSH1 0x20 CALLDATASIZE PUSH1 0x3 NOT ADD SLT PUSH2 0x168 JUMPI DUP2 CALLDATALOAD SWAP1 PUSH1 0x1 PUSH1 0x1 PUSH1 0x40 SHL SUB DUP3 GT PUSH2 0x168 JUMPI POP PUSH2 0x104 PUSH2 0x4C6 SWAP3 PUSH1 0x20 SWAP3 CALLDATASIZE SWAP2 ADD PUSH2 0xE30 JUMP JUMPDEST DUP2 ADD PUSH1 0x1 DUP2 MSTORE SUB ADD SWAP1 KECCAK256 SWAP1 PUSH2 0x164 DUP2 MLOAD PUSH2 0x4DF DUP2 PUSH2 0xDF4 JUMP JUMPDEST PUSH2 0x4E8 DUP5 PUSH2 0xEE8 JUMP JUMPDEST DUP2 MSTORE PUSH2 0x4F6 PUSH1 0x1 DUP6 ADD PUSH2 0xEE8 JUMP JUMPDEST SWAP4 DUP5 PUSH1 0x20 DUP4 ADD MSTORE PUSH1 0x2 DUP2 ADD SLOAD PUSH1 0x3 PUSH1 0xFF PUSH1 0x1 DUP1 PUSH1 0xA0 SHL SUB DUP4 AND SWAP3 DUP4 DUP9 DUP8 ADD MSTORE PUSH1 0xA0 SHR AND ISZERO ISZERO SWAP3 DUP4 PUSH1 0x60 DUP7 ADD MSTORE ADD SLOAD SWAP3 DUP4 PUSH1 0x80 DUP3 ADD MSTORE MLOAD SWAP5 MLOAD SWAP6 DUP7 SWAP6 DUP7 PUSH2 0x1075 JUMP JUMPDEST POP DUP3 CALLVALUE PUSH2 0x18A JUMPI DUP2 PUSH1 0x3 NOT CALLDATASIZE ADD SLT PUSH2 0x18A JUMPI PUSH1 0x20 SWAP1 PUSH1 0x7 SLOAD SWAP1 MLOAD SWAP1 DUP2 MSTORE RETURN JUMPDEST POP DUP3 CALLVALUE PUSH2 0x18A JUMPI DUP1 PUSH1 0x3 NOT CALLDATASIZE ADD SLT PUSH2 0x18A JUMPI PUSH1 0x1 PUSH1 0x1 PUSH1 0x40 SHL SUB DUP4 CALLDATALOAD DUP2 DUP2 GT PUSH2 0x302 JUMPI PUSH2 0x586 SWAP1 CALLDATASIZE SWAP1 DUP7 ADD PUSH2 0xE30 JUMP JUMPDEST SWAP1 PUSH1 0x24 CALLDATALOAD SWAP1 DUP2 GT PUSH2 0x302 JUMPI PUSH2 0x59E SWAP1 CALLDATASIZE SWAP1 DUP7 ADD PUSH2 0xE30 JUMP JUMPDEST SWAP1 DUP3 MLOAD DUP2 MLOAD PUSH2 0x5CA PUSH1 0x20 SWAP3 DUP4 DUP2 DUP2 DUP8 ADD SWAP5 PUSH2 0x5BA DUP2 DUP4 DUP9 PUSH2 0xE8B JUMP JUMPDEST DUP2 ADD PUSH1 0x1 DUP2 MSTORE SUB ADD SWAP1 KECCAK256 SLOAD PUSH2 0xEAE JUMP JUMPDEST PUSH2 0x744 JUMPI SWAP1 PUSH1 0x2 SWAP2 PUSH1 0x3 DUP7 PUSH2 0x670 DUP7 DUP11 PUSH2 0x63B DUP11 PUSH2 0x631 PUSH2 0x61F DUP11 DUP9 MLOAD SWAP11 PUSH2 0x5F1 DUP13 PUSH2 0xDF4 JUMP JUMPDEST DUP8 DUP13 MSTORE DUP2 DUP13 ADD SWAP5 DUP6 MSTORE DUP10 DUP13 ADD SWAP8 CALLER DUP10 MSTORE PUSH1 0x60 DUP14 ADD SWAP8 DUP9 MSTORE PUSH1 0x80 DUP14 ADD SWAP11 TIMESTAMP DUP13 MSTORE MLOAD SWAP4 DUP5 SWAP3 DUP4 SWAP3 MLOAD SWAP3 DUP4 SWAP2 PUSH2 0xE8B JUMP JUMPDEST DUP2 ADD PUSH1 0x1 DUP2 MSTORE SUB ADD SWAP1 KECCAK256 SWAP9 MLOAD DUP10 PUSH2 0x10BB JUMP JUMPDEST MLOAD PUSH1 0x1 DUP9 ADD PUSH2 0x10BB JUMP JUMPDEST SWAP1 MLOAD DUP8 DUP7 ADD DUP1 SLOAD SWAP3 MLOAD PUSH1 0xFF PUSH1 0xA0 SHL SWAP1 ISZERO ISZERO PUSH1 0xA0 SHL AND PUSH1 0x1 PUSH1 0x1 PUSH1 0xA0 SHL SUB SWAP1 SWAP3 AND PUSH1 0x1 PUSH1 0x1 PUSH1 0xA8 SHL SUB NOT SWAP1 SWAP4 AND SWAP3 SWAP1 SWAP3 OR OR SWAP1 SSTORE JUMP JUMPDEST MLOAD SWAP2 ADD SSTORE CALLER DUP7 MSTORE MSTORE PUSH2 0x684 DUP2 DUP5 DUP7 KECCAK256 PUSH2 0x10BB JUMP JUMPDEST DUP5 SLOAD PUSH1 0x1 PUSH1 0x40 SHL DUP2 LT ISZERO PUSH2 0x731 JUMPI PUSH1 0x1 DUP2 ADD DUP1 DUP8 SSTORE DUP2 LT ISZERO PUSH2 0x71E JUMPI SWAP2 PUSH2 0x70B DUP3 PUSH2 0x6F8 PUSH2 0x718 SWAP5 PUSH32 0x683C95E74F23A58EBACAD1072881D776869526AFD974063423B60E665AE8E952 SWAP7 DUP11 DUP11 MSTORE PUSH32 0x8A35ACFBC15FF81A39AE7D344FD709F28E8600B4AA8C65C6B64BFE7FE36BD19B ADD PUSH2 0x10BB JUMP JUMPDEST PUSH2 0x703 PUSH1 0x7 SLOAD PUSH2 0x11CA JUMP JUMPDEST PUSH1 0x7 SSTORE PUSH2 0x11EF JUMP JUMPDEST SWAP4 MLOAD SWAP2 DUP3 SWAP2 CALLER SWAP1 DUP4 PUSH2 0x120F JUMP JUMPDEST SUB SWAP1 LOG2 DUP1 RETURN JUMPDEST PUSH4 0x4E487B71 PUSH1 0xE0 SHL DUP6 MSTORE PUSH1 0x32 DUP7 MSTORE PUSH1 0x24 DUP6 REVERT JUMPDEST PUSH4 0x4E487B71 PUSH1 0xE0 SHL DUP6 MSTORE PUSH1 0x41 DUP7 MSTORE PUSH1 0x24 DUP6 REVERT JUMPDEST DUP5 MLOAD PUSH3 0x461BCD PUSH1 0xE5 SHL DUP2 MSTORE DUP1 DUP9 ADD DUP4 SWAP1 MSTORE PUSH1 0xF PUSH1 0x24 DUP3 ADD MSTORE PUSH15 0x427573696E65737320657869737473 PUSH1 0x88 SHL PUSH1 0x44 DUP3 ADD MSTORE PUSH1 0x64 SWAP1 REVERT JUMPDEST POP SWAP2 SWAP1 CALLVALUE PUSH2 0x284 JUMPI PUSH1 0x20 CALLDATASIZE PUSH1 0x3 NOT ADD SLT PUSH2 0x284 JUMPI CALLDATALOAD PUSH1 0x3 SLOAD DUP2 LT ISZERO PUSH2 0x284 JUMPI PUSH2 0x271 SWAP1 PUSH1 0x3 PUSH2 0x164 SWAP5 MSTORE PUSH32 0xC2575A0E9E593C00F959F8C92F12DB2869C3395A3B0502D05E2516446F71F85B ADD PUSH2 0xEE8 JUMP JUMPDEST POP SWAP2 PUSH1 0x20 SWAP2 DUP3 PUSH1 0x3 NOT CALLDATASIZE ADD SLT PUSH2 0x302 JUMPI DUP1 CALLDATALOAD PUSH1 0x1 PUSH1 0x1 PUSH1 0x40 SHL SUB DUP2 GT PUSH2 0x9B8 JUMPI PUSH2 0x7F7 SWAP1 CALLDATASIZE SWAP1 DUP4 ADD PUSH2 0xE30 JUMP JUMPDEST SWAP1 DUP3 MLOAD DUP5 DUP2 DUP5 MLOAD PUSH2 0x80B DUP2 DUP4 DUP6 DUP10 ADD PUSH2 0xE8B JUMP JUMPDEST DUP2 ADD DUP9 DUP2 MSTORE SUB ADD SWAP1 KECCAK256 SWAP1 PUSH1 0x5 DUP3 ADD SWAP1 DUP2 SLOAD SWAP1 PUSH1 0xFF DUP3 PUSH1 0xA0 SHR AND ISZERO PUSH2 0x980 JUMPI PUSH1 0x3 DUP5 ADD SLOAD CALLVALUE LT PUSH2 0x946 JUMPI POP PUSH1 0xFF PUSH1 0xA0 SHL NOT AND SWAP1 SSTORE DUP3 MLOAD PUSH1 0x2 SWAP1 SWAP2 ADD DUP1 SLOAD DUP7 SWAP3 DUP4 SWAP3 SWAP1 SWAP2 SWAP1 PUSH2 0x857 DUP3 PUSH2 0xEAE JUMP JUMPDEST SWAP1 PUSH1 0x1 SWAP3 DUP7 DUP5 DUP3 AND SWAP2 DUP3 PUSH1 0x0 EQ PUSH2 0x92D JUMPI POP POP PUSH1 0x1 EQ PUSH2 0x8F1 JUMPI JUMPDEST POP POP DUP3 MSTORE SWAP1 DUP2 SWAP1 SUB DUP6 ADD SWAP1 KECCAK256 PUSH1 0x2 ADD SLOAD DUP2 SWAP1 DUP2 SWAP1 DUP2 SWAP1 DUP2 SWAP1 PUSH1 0x1 PUSH1 0x1 PUSH1 0xA0 SHL SUB AND CALLVALUE ISZERO PUSH2 0x8E7 JUMPI JUMPDEST CALLVALUE SWAP2 CALL ISZERO PUSH2 0x8DD JUMPI SWAP1 PUSH2 0x8CD PUSH32 0xD0597DE7B4841220D83E82517EF6D92DF0C5EDAB071069F65A89C2C66CA407AA SWAP3 PUSH2 0x11EF JUMP JUMPDEST SWAP3 DUP2 MLOAD SWAP1 CALLER DUP3 MSTORE CALLVALUE SWAP1 DUP3 ADD MSTORE LOG2 DUP1 RETURN JUMPDEST DUP2 MLOAD RETURNDATASIZE DUP6 DUP3 RETURNDATACOPY RETURNDATASIZE SWAP1 REVERT JUMPDEST PUSH2 0x8FC SWAP2 POP PUSH2 0x89A JUMP JUMPDEST SWAP1 SWAP2 SWAP5 DUP1 SWAP5 POP MSTORE DUP7 DUP4 KECCAK256 DUP8 DUP5 SWAP2 JUMPDEST DUP4 DUP4 LT PUSH2 0x918 JUMPI POP SWAP4 SWAP5 SWAP2 DUP4 ADD SWAP4 POP DUP2 SWAP1 POP PUSH1 0x2 PUSH2 0x872 JUMP JUMPDEST DUP1 SLOAD DUP6 DUP5 ADD MSTORE DUP11 SWAP6 POP SWAP2 ADD SWAP1 DUP9 SWAP1 DUP7 ADD PUSH2 0x8FF JUMP JUMPDEST PUSH1 0xFF NOT AND DUP7 MSTORE POP POP POP DUP1 ISZERO ISZERO MUL DUP3 ADD SWAP3 POP DUP1 PUSH1 0x2 PUSH2 0x872 JUMP JUMPDEST DUP6 MLOAD PUSH3 0x461BCD PUSH1 0xE5 SHL DUP2 MSTORE SWAP1 DUP2 ADD DUP8 SWAP1 MSTORE PUSH1 0x14 PUSH1 0x24 DUP3 ADD MSTORE PUSH20 0x125B9CDD59999A58DA595B9D081C185E5B595B9D PUSH1 0x62 SHL PUSH1 0x44 DUP3 ADD MSTORE PUSH1 0x64 SWAP1 REVERT JUMPDEST DUP6 MLOAD PUSH3 0x461BCD PUSH1 0xE5 SHL DUP2 MSTORE SWAP1 DUP2 ADD DUP8 SWAP1 MSTORE PUSH1 0x12 PUSH1 0x24 DUP3 ADD MSTORE PUSH18 0x50726F64756374206E6F7420616374697665 PUSH1 0x70 SHL PUSH1 0x44 DUP3 ADD MSTORE PUSH1 0x64 SWAP1 REVERT JUMPDEST DUP5 DUP1 REVERT JUMPDEST POP SWAP2 SWAP1 CALLVALUE PUSH2 0x284 JUMPI PUSH1 0x80 CALLDATASIZE PUSH1 0x3 NOT ADD SLT PUSH2 0x284 JUMPI PUSH1 0x1 PUSH1 0x1 PUSH1 0x40 SHL SUB SWAP1 DUP1 CALLDATALOAD DUP3 DUP2 GT PUSH2 0x9B8 JUMPI PUSH2 0x9EF SWAP1 CALLDATASIZE SWAP1 DUP4 ADD PUSH2 0xE30 JUMP JUMPDEST SWAP1 PUSH1 0x24 CALLDATALOAD DUP4 DUP2 GT PUSH2 0xC73 JUMPI PUSH2 0xA07 SWAP1 CALLDATASIZE SWAP1 DUP4 ADD PUSH2 0xE30 JUMP JUMPDEST SWAP3 PUSH1 0x44 CALLDATALOAD SWAP1 DUP2 GT PUSH2 0xC73 JUMPI PUSH2 0xA1F SWAP1 CALLDATASIZE SWAP1 DUP4 ADD PUSH2 0xE30 JUMP JUMPDEST SWAP3 DUP5 MLOAD SWAP1 DUP5 MLOAD PUSH1 0x20 SWAP1 PUSH2 0xA35 DUP2 DUP6 DUP5 DUP11 ADD PUSH2 0xE8B JUMP JUMPDEST DUP4 ADD PUSH1 0x1 DUP2 MSTORE PUSH1 0x2 DUP5 DUP4 PUSH1 0x1 DUP1 PUSH1 0xA0 SHL SUB SWAP7 DUP8 SWAP5 SUB ADD SWAP1 KECCAK256 ADD SLOAD AND CALLER SUB PUSH2 0xC3B JUMPI DUP7 MLOAD PUSH2 0xA7E DUP7 MLOAD SWAP2 DUP4 DUP2 DUP2 DUP11 ADD SWAP5 PUSH2 0xA6F DUP2 DUP4 DUP9 PUSH2 0xE8B JUMP JUMPDEST DUP2 ADD DUP14 DUP2 MSTORE SUB ADD SWAP1 KECCAK256 SLOAD PUSH2 0xEAE JUMP JUMPDEST PUSH2 0xC07 JUMPI SWAP2 DUP9 SWAP4 SWAP2 DUP9 SWAP4 DUP5 MLOAD SWAP3 PUSH2 0xA94 DUP5 PUSH2 0xDC3 JUMP JUMPDEST DUP9 DUP5 MSTORE DUP3 DUP5 ADD SWAP1 DUP2 MSTORE DUP6 DUP5 ADD SWAP1 DUP11 DUP3 MSTORE PUSH1 0x60 DUP6 ADD SWAP3 PUSH1 0x64 CALLDATALOAD DUP5 MSTORE PUSH1 0x80 DUP7 ADD SWAP5 TIMESTAMP DUP7 MSTORE DUP12 PUSH1 0xA0 DUP9 ADD SWAP11 CALLER DUP13 MSTORE PUSH1 0xC0 DUP10 ADD SWAP11 PUSH1 0x1 DUP13 MSTORE MLOAD DUP1 SWAP5 DUP2 SWAP4 MLOAD DUP1 SWAP3 PUSH2 0xAD9 SWAP3 PUSH2 0xE8B JUMP JUMPDEST DUP3 ADD SWAP1 DUP2 MSTORE SUB ADD SWAP1 KECCAK256 SWAP5 MLOAD PUSH2 0xAEE SWAP1 DUP7 PUSH2 0x10BB JUMP JUMPDEST MLOAD PUSH2 0xAFC SWAP1 PUSH1 0x1 DUP7 ADD PUSH2 0x10BB JUMP JUMPDEST MLOAD PUSH2 0xB0A SWAP1 PUSH1 0x2 DUP6 ADD PUSH2 0x10BB JUMP JUMPDEST MLOAD PUSH1 0x3 DUP4 ADD SSTORE MLOAD DUP6 DUP3 ADD SSTORE PUSH1 0x5 ADD SWAP3 MLOAD AND PUSH12 0xFFFFFFFFFFFFFFFFFFFFFFFF PUSH1 0xA0 SHL DUP4 SLOAD AND OR DUP3 SSTORE MLOAD ISZERO ISZERO PUSH2 0xB55 SWAP2 SWAP1 DUP2 SLOAD SWAP1 PUSH1 0xFF PUSH1 0xA0 SHL SWAP1 ISZERO ISZERO PUSH1 0xA0 SHL AND SWAP1 PUSH1 0xFF PUSH1 0xA0 SHL NOT AND OR SWAP1 SSTORE JUMP JUMPDEST PUSH1 0x3 SLOAD SWAP1 PUSH1 0x1 PUSH1 0x40 SHL DUP3 LT ISZERO PUSH2 0xBF4 JUMPI PUSH1 0x1 DUP3 ADD DUP1 PUSH1 0x3 SSTORE DUP3 LT ISZERO PUSH2 0xBE1 JUMPI POP SWAP2 PUSH2 0x70B DUP3 PUSH2 0xBCE PUSH2 0x718 SWAP5 PUSH32 0x4478FDB5CCA1A28D79052038C209DB14519451AF9C6BC6E753A2614E5EA43F1A SWAP7 PUSH1 0x3 DUP11 MSTORE PUSH32 0xC2575A0E9E593C00F959F8C92F12DB2869C3395A3B0502D05E2516446F71F85B ADD PUSH2 0x10BB JUMP JUMPDEST PUSH2 0xBD9 PUSH1 0x6 SLOAD PUSH2 0x11CA JUMP JUMPDEST PUSH1 0x6 SSTORE PUSH2 0x11EF JUMP JUMPDEST PUSH4 0x4E487B71 PUSH1 0xE0 SHL DUP7 MSTORE PUSH1 0x32 SWAP1 MSTORE PUSH1 0x24 DUP6 REVERT JUMPDEST PUSH4 0x4E487B71 PUSH1 0xE0 SHL DUP7 MSTORE PUSH1 0x41 SWAP1 MSTORE PUSH1 0x24 DUP6 REVERT JUMPDEST DUP8 MLOAD PUSH3 0x461BCD PUSH1 0xE5 SHL DUP2 MSTORE DUP1 DUP7 ADD DUP4 SWAP1 MSTORE PUSH1 0xE PUSH1 0x24 DUP3 ADD MSTORE PUSH14 0x50726F6475637420657869737473 PUSH1 0x90 SHL PUSH1 0x44 DUP3 ADD MSTORE PUSH1 0x64 SWAP1 REVERT JUMPDEST DUP4 PUSH1 0x64 SWAP2 DUP9 MLOAD SWAP2 PUSH3 0x461BCD PUSH1 0xE5 SHL DUP4 MSTORE DUP3 ADD MSTORE PUSH1 0x13 PUSH1 0x24 DUP3 ADD MSTORE PUSH19 0x27B7363C90313AB9B4B732B9B99037BBB732B9 PUSH1 0x69 SHL PUSH1 0x44 DUP3 ADD MSTORE REVERT JUMPDEST DUP6 DUP1 REVERT JUMPDEST POP SWAP1 CALLVALUE PUSH2 0x18A JUMPI DUP2 PUSH1 0x3 NOT CALLDATASIZE ADD SLT PUSH2 0x18A JUMPI PUSH1 0x3 SLOAD SWAP1 PUSH1 0x1 PUSH1 0x1 PUSH1 0x40 SHL SUB DUP3 GT PUSH2 0xD0C JUMPI POP DUP3 MLOAD SWAP2 PUSH1 0x20 PUSH2 0xCB0 DUP2 DUP5 PUSH1 0x5 SHL ADD DUP6 PUSH2 0xE0F JUMP JUMPDEST DUP3 DUP5 MSTORE PUSH1 0x3 DUP3 MSTORE PUSH32 0xC2575A0E9E593C00F959F8C92F12DB2869C3395A3B0502D05E2516446F71F85B DUP2 DUP6 ADD JUMPDEST DUP5 DUP5 LT PUSH2 0xCF0 JUMPI DUP7 MLOAD DUP1 PUSH2 0x164 DUP9 DUP3 PUSH2 0x1013 JUMP JUMPDEST PUSH1 0x1 DUP4 DUP2 SWAP3 PUSH2 0xCFE DUP6 PUSH2 0xEE8 JUMP JUMPDEST DUP2 MSTORE ADD SWAP3 ADD SWAP4 ADD SWAP3 SWAP1 PUSH2 0xCDC JUMP JUMPDEST PUSH4 0x4E487B71 PUSH1 0xE0 SHL DUP4 MSTORE PUSH1 0x41 SWAP1 MSTORE PUSH1 0x24 DUP3 REVERT JUMPDEST POP DUP3 SWAP1 CALLVALUE PUSH2 0x168 JUMPI PUSH1 0x20 CALLDATASIZE PUSH1 0x3 NOT ADD SLT PUSH2 0x168 JUMPI DUP3 CALLDATALOAD PUSH1 0x1 PUSH1 0x1 PUSH1 0x40 SHL SUB DUP2 GT PUSH2 0x18A JUMPI PUSH1 0x20 PUSH2 0x164 SWAP3 PUSH2 0xD59 PUSH2 0xD6C SWAP4 CALLDATASIZE SWAP1 DUP9 ADD PUSH2 0xE30 JUMP JUMPDEST SWAP1 DUP3 DUP7 MLOAD SWAP5 DUP4 DUP7 DUP1 SWAP6 MLOAD SWAP4 DUP5 SWAP3 ADD PUSH2 0xE8B JUMP JUMPDEST DUP3 ADD SWAP1 DUP2 MSTORE SUB ADD SWAP1 KECCAK256 SWAP2 PUSH2 0xD7F DUP4 PUSH2 0xEE8 JUMP JUMPDEST PUSH2 0xD8B PUSH1 0x1 DUP6 ADD PUSH2 0xEE8 JUMP JUMPDEST SWAP4 PUSH2 0xD98 PUSH1 0x2 DUP3 ADD PUSH2 0xEE8 JUMP JUMPDEST SWAP6 PUSH1 0x5 PUSH1 0x3 DUP4 ADD SLOAD SWAP2 DUP4 ADD SLOAD SWAP3 ADD SLOAD SWAP4 MLOAD SWAP7 DUP8 SWAP7 PUSH1 0xFF DUP7 PUSH1 0xA0 SHR AND SWAP6 PUSH1 0x1 DUP1 PUSH1 0xA0 SHL SUB AND SWAP5 DUP9 PUSH2 0xFB3 JUMP JUMPDEST PUSH1 0xE0 DUP2 ADD SWAP1 DUP2 LT PUSH1 0x1 PUSH1 0x1 PUSH1 0x40 SHL SUB DUP3 GT OR PUSH2 0xDDE JUMPI PUSH1 0x40 MSTORE JUMP JUMPDEST PUSH4 0x4E487B71 PUSH1 0xE0 SHL PUSH1 0x0 MSTORE PUSH1 0x41 PUSH1 0x4 MSTORE PUSH1 0x24 PUSH1 0x0 REVERT JUMPDEST PUSH1 0xA0 DUP2 ADD SWAP1 DUP2 LT PUSH1 0x1 PUSH1 0x1 PUSH1 0x40 SHL SUB DUP3 GT OR PUSH2 0xDDE JUMPI PUSH1 0x40 MSTORE JUMP JUMPDEST SWAP1 PUSH1 0x1F DUP1 NOT SWAP2 ADD AND DUP2 ADD SWAP1 DUP2 LT PUSH1 0x1 PUSH1 0x1 PUSH1 0x40 SHL SUB DUP3 GT OR PUSH2 0xDDE JUMPI PUSH1 0x40 MSTORE JUMP JUMPDEST DUP2 PUSH1 0x1F DUP3 ADD SLT ISZERO PUSH2 0xE86 JUMPI DUP1 CALLDATALOAD SWAP1 PUSH1 0x1 PUSH1 0x1 PUSH1 0x40 SHL SUB DUP3 GT PUSH2 0xDDE JUMPI PUSH1 0x40 MLOAD SWAP3 PUSH2 0xE64 PUSH1 0x1F DUP5 ADD PUSH1 0x1F NOT AND PUSH1 0x20 ADD DUP6 PUSH2 0xE0F JUMP JUMPDEST DUP3 DUP5 MSTORE PUSH1 0x20 DUP4 DUP4 ADD ADD GT PUSH2 0xE86 JUMPI DUP2 PUSH1 0x0 SWAP3 PUSH1 0x20 DUP1 SWAP4 ADD DUP4 DUP7 ADD CALLDATACOPY DUP4 ADD ADD MSTORE SWAP1 JUMP JUMPDEST PUSH1 0x0 DUP1 REVERT JUMPDEST PUSH1 0x0 JUMPDEST DUP4 DUP2 LT PUSH2 0xE9E JUMPI POP POP PUSH1 0x0 SWAP2 ADD MSTORE JUMP JUMPDEST DUP2 DUP2 ADD MLOAD DUP4 DUP3 ADD MSTORE PUSH1 0x20 ADD PUSH2 0xE8E JUMP JUMPDEST SWAP1 PUSH1 0x1 DUP3 DUP2 SHR SWAP3 AND DUP1 ISZERO PUSH2 0xEDE JUMPI JUMPDEST PUSH1 0x20 DUP4 LT EQ PUSH2 0xEC8 JUMPI JUMP JUMPDEST PUSH4 0x4E487B71 PUSH1 0xE0 SHL PUSH1 0x0 MSTORE PUSH1 0x22 PUSH1 0x4 MSTORE PUSH1 0x24 PUSH1 0x0 REVERT JUMPDEST SWAP2 PUSH1 0x7F AND SWAP2 PUSH2 0xEBD JUMP JUMPDEST SWAP1 PUSH1 0x40 MLOAD SWAP2 DUP3 PUSH1 0x0 DUP3 SLOAD SWAP3 PUSH2 0xEFC DUP5 PUSH2 0xEAE JUMP JUMPDEST SWAP1 DUP2 DUP5 MSTORE PUSH1 0x1 SWAP5 DUP6 DUP2 AND SWAP1 DUP2 PUSH1 0x0 EQ PUSH2 0xF6B JUMPI POP PUSH1 0x1 EQ PUSH2 0xF28 JUMPI JUMPDEST POP POP PUSH2 0xF26 SWAP3 POP SUB DUP4 PUSH2 0xE0F JUMP JUMPDEST JUMP JUMPDEST SWAP1 SWAP4 SWAP2 POP PUSH1 0x0 MSTORE PUSH1 0x20 SWAP1 DUP2 PUSH1 0x0 KECCAK256 SWAP4 PUSH1 0x0 SWAP2 JUMPDEST DUP2 DUP4 LT PUSH2 0xF53 JUMPI POP POP PUSH2 0xF26 SWAP4 POP DUP3 ADD ADD CODESIZE DUP1 PUSH2 0xF18 JUMP JUMPDEST DUP6 SLOAD DUP9 DUP5 ADD DUP6 ADD MSTORE SWAP5 DUP6 ADD SWAP5 DUP8 SWAP5 POP SWAP2 DUP4 ADD SWAP2 PUSH2 0xF3B JUMP JUMPDEST SWAP2 POP POP PUSH2 0xF26 SWAP5 POP PUSH1 0x20 SWAP3 POP PUSH1 0xFF NOT AND DUP3 DUP5 ADD MSTORE ISZERO ISZERO PUSH1 0x5 SHL DUP3 ADD ADD CODESIZE DUP1 PUSH2 0xF18 JUMP JUMPDEST SWAP1 PUSH1 0x20 SWAP2 PUSH2 0xFA7 DUP2 MLOAD DUP1 SWAP3 DUP2 DUP6 MSTORE DUP6 DUP1 DUP7 ADD SWAP2 ADD PUSH2 0xE8B JUMP JUMPDEST PUSH1 0x1F ADD PUSH1 0x1F NOT AND ADD ADD SWAP1 JUMP JUMPDEST SWAP6 SWAP3 PUSH2 0xFE3 PUSH1 0xC0 SWAP7 SWAP4 PUSH2 0xFD5 PUSH2 0xFF1 SWAP5 SWAP12 SWAP11 SWAP8 SWAP12 PUSH1 0xE0 DUP12 MSTORE PUSH1 0xE0 DUP12 ADD SWAP1 PUSH2 0xF8E JUMP JUMPDEST SWAP1 DUP10 DUP3 SUB PUSH1 0x20 DUP12 ADD MSTORE PUSH2 0xF8E JUMP JUMPDEST SWAP1 DUP8 DUP3 SUB PUSH1 0x40 DUP10 ADD MSTORE PUSH2 0xF8E JUMP JUMPDEST PUSH1 0x60 DUP7 ADD SWAP8 SWAP1 SWAP8 MSTORE PUSH1 0x80 DUP6 ADD MSTORE PUSH1 0x1 PUSH1 0x1 PUSH1 0xA0 SHL SUB AND PUSH1 0xA0 DUP5 ADD MSTORE ISZERO ISZERO SWAP2 ADD MSTORE JUMP JUMPDEST PUSH1 0x20 DUP1 DUP3 ADD SWAP1 DUP1 DUP4 MSTORE DUP4 MLOAD DUP1 SWAP3 MSTORE PUSH1 0x40 DUP4 ADD SWAP3 DUP2 PUSH1 0x40 DUP5 PUSH1 0x5 SHL DUP4 ADD ADD SWAP6 ADD SWAP4 PUSH1 0x0 SWAP2 JUMPDEST DUP5 DUP4 LT PUSH2 0x1047 JUMPI POP POP POP POP POP POP SWAP1 JUMP JUMPDEST SWAP1 SWAP2 SWAP3 SWAP4 SWAP5 SWAP6 DUP5 DUP1 PUSH2 0x1065 PUSH1 0x1 SWAP4 PUSH1 0x3F NOT DUP7 DUP3 SUB ADD DUP8 MSTORE DUP11 MLOAD PUSH2 0xF8E JUMP JUMPDEST SWAP9 ADD SWAP4 ADD SWAP4 ADD SWAP2 SWAP5 SWAP4 SWAP3 SWAP1 PUSH2 0x1037 JUMP JUMPDEST SWAP2 PUSH2 0x10A0 SWAP1 PUSH2 0x1092 PUSH1 0x80 SWAP6 SWAP9 SWAP8 SWAP7 SWAP4 PUSH1 0xA0 DUP7 MSTORE PUSH1 0xA0 DUP7 ADD SWAP1 PUSH2 0xF8E JUMP JUMPDEST SWAP1 DUP5 DUP3 SUB PUSH1 0x20 DUP7 ADD MSTORE PUSH2 0xF8E JUMP JUMPDEST PUSH1 0x1 PUSH1 0x1 PUSH1 0xA0 SHL SUB SWAP1 SWAP7 AND PUSH1 0x40 DUP4 ADD MSTORE ISZERO ISZERO PUSH1 0x60 DUP3 ADD MSTORE ADD MSTORE JUMP JUMPDEST SWAP2 SWAP1 SWAP2 DUP3 MLOAD PUSH1 0x1 PUSH1 0x1 PUSH1 0x40 SHL SUB DUP2 GT PUSH2 0xDDE JUMPI PUSH2 0x10D8 DUP3 SLOAD PUSH2 0xEAE JUMP JUMPDEST PUSH1 0x1F DUP2 GT PUSH2 0x1182 JUMPI JUMPDEST POP PUSH1 0x20 DUP1 PUSH1 0x1F DUP4 GT PUSH1 0x1 EQ PUSH2 0x111E JUMPI POP DUP2 SWAP3 SWAP4 SWAP5 PUSH1 0x0 SWAP3 PUSH2 0x1113 JUMPI JUMPDEST POP POP DUP2 PUSH1 0x1 SHL SWAP2 PUSH1 0x0 NOT SWAP1 PUSH1 0x3 SHL SHR NOT AND OR SWAP1 SSTORE JUMP JUMPDEST ADD MLOAD SWAP1 POP CODESIZE DUP1 PUSH2 0x10FD JUMP JUMPDEST SWAP1 PUSH1 0x1F NOT DUP4 AND SWAP6 DUP5 PUSH1 0x0 MSTORE DUP3 PUSH1 0x0 KECCAK256 SWAP3 PUSH1 0x0 SWAP1 JUMPDEST DUP9 DUP3 LT PUSH2 0x116A JUMPI POP POP DUP4 PUSH1 0x1 SWAP6 SWAP7 SWAP8 LT PUSH2 0x1151 JUMPI JUMPDEST POP POP POP DUP2 SHL ADD SWAP1 SSTORE JUMP JUMPDEST ADD MLOAD PUSH1 0x0 NOT PUSH1 0xF8 DUP5 PUSH1 0x3 SHL AND SHR NOT AND SWAP1 SSTORE CODESIZE DUP1 DUP1 PUSH2 0x1147 JUMP JUMPDEST DUP1 PUSH1 0x1 DUP6 SWAP7 DUP3 SWAP5 SWAP7 DUP7 ADD MLOAD DUP2 SSTORE ADD SWAP6 ADD SWAP4 ADD SWAP1 PUSH2 0x1132 JUMP JUMPDEST PUSH1 0x0 DUP4 DUP2 MSTORE PUSH1 0x20 DUP2 KECCAK256 PUSH1 0x1F DUP5 ADD PUSH1 0x5 SHR DUP2 ADD SWAP3 PUSH1 0x20 DUP6 LT PUSH2 0x11C0 JUMPI JUMPDEST PUSH1 0x1F ADD PUSH1 0x5 SHR ADD SWAP2 JUMPDEST DUP3 DUP2 LT PUSH2 0x11B5 JUMPI POP POP PUSH2 0x10E1 JUMP JUMPDEST DUP2 DUP2 SSTORE PUSH1 0x1 ADD PUSH2 0x11A7 JUMP JUMPDEST SWAP1 SWAP3 POP DUP3 SWAP1 PUSH2 0x119E JUMP JUMPDEST PUSH1 0x0 NOT DUP2 EQ PUSH2 0x11D9 JUMPI PUSH1 0x1 ADD SWAP1 JUMP JUMPDEST PUSH4 0x4E487B71 PUSH1 0xE0 SHL PUSH1 0x0 MSTORE PUSH1 0x11 PUSH1 0x4 MSTORE PUSH1 0x24 PUSH1 0x0 REVERT JUMPDEST PUSH2 0x1207 SWAP1 PUSH1 0x20 PUSH1 0x40 MLOAD SWAP3 DUP3 DUP5 DUP1 SWAP5 MLOAD SWAP4 DUP5 SWAP3 ADD PUSH2 0xE8B JUMP JUMPDEST DUP2 ADD SUB SWAP1 KECCAK256 SWAP1 JUMP JUMPDEST SWAP1 PUSH2 0x1227 PUSH1 0x20 SWAP2 SWAP5 SWAP4 SWAP5 PUSH1 0x40 DUP5 MSTORE PUSH1 0x40 DUP5 ADD SWAP1 PUSH2 0xF8E JUMP JUMPDEST PUSH1 0x1 PUSH1 0x1 PUSH1 0xA0 SHL SUB SWAP1 SWAP5 AND SWAP2 ADD MSTORE JUMP INVALID LOG2 PUSH5 0x6970667358 0x22 SLT KECCAK256 CODESIZE CALLDATACOPY DIV 0xA8 CHAINID 0xD2 SWAP16 0xD4 0xCC 0x29 CREATE2 0xEC 0xE3 0xE2 JUMPDEST PUSH19 0x93B542B0BA2AD13EFB8E454BEE86D70164736F PUSH13 0x63430008140033000000000000 "},"methodIdentifiers":{"businessList(uint256)":"8be80142","businesses(string)":"b45e1c4e","buyProduct(string)":"364e022f","createProduct(string,string,string,uint256)":"1b61040d","getAllBusinesses()":"98c46183","getAllProducts()":"02ee3a52","getBusiness(string)":"6757876c","getProduct(string)":"68111cce","owner()":"8da5cb5b","productList(uint256)":"528c87d2","products(string)":"0186a423","registerBusiness(string,string)":"5d910ec1","totalBusinesses()":"60d20431","totalProducts()":"9b9d326d","userBusiness(address)":"919a86c8","verifyBusiness(string)":"68c8add8"}}}}}