{"contracts/StockyPayments.sol":{"StockyPayments":{"abi":[{"inputs":[],"stateMutability":"nonpayable","type":"constructor"},{"anonymous":false,"inputs":[{"indexed":true,"internalType":"string","name":"paymentId","type":"string"},{"indexed":false,"internalType":"string","name":"sellerId","type":"string"},{"indexed":false,"internalType":"uint256","name":"amount","type":"uint256"}],"name":"EscrowReleased","type":"event"},{"anonymous":false,"inputs":[{"indexed":true,"internalType":"string","name":"paymentId","type":"string"},{"indexed":false,"internalType":"uint256","name":"amount","type":"uint256"}],"name":"PaymentCompleted","type":"event"},{"anonymous":false,"inputs":[{"indexed":true,"internalType":"string","name":"paymentId","type":"string"},{"indexed":false,"internalType":"string","name":"orderId","type":"string"},{"indexed":false,"internalType":"uint256","name":"amount","type":"uint256"}],"name":"PaymentCreated","type":"event"},{"anonymous":false,"inputs":[{"indexed":true,"internalType":"string","name":"paymentId","type":"string"}],"name":"PaymentDisputed","type":"event"},{"anonymous":false,"inputs":[{"indexed":true,"internalType":"string","name":"paymentId","type":"string"},{"indexed":false,"internalType":"uint256","name":"releaseTime","type":"uint256"}],"name":"PaymentEscrowed","type":"event"},{"anonymous":false,"inputs":[{"indexed":true,"internalType":"string","name":"paymentId","type":"string"},{"indexed":false,"internalType":"uint256","name":"amount","type":"uint256"}],"name":"PaymentRefunded","type":"event"},{"inputs":[{"internalType":"address","name":"user","type":"address"}],"name":"addAuthorizedUser","outputs":[],"stateMutability":"nonpayable","type":"function"},{"inputs":[{"internalType":"address","name":"","type":"address"}],"name":"authorizedUsers","outputs":[{"internalType":"bool","name":"","type":"bool"}],"stateMutability":"view","type":"function"},{"inputs":[{"internalType":"string","name":"paymentId","type":"string"}],"name":"autoReleaseEscrow","outputs":[],"stateMutability":"nonpayable","type":"function"},{"inputs":[{"internalType":"string","name":"paymentId","type":"string"}],"name":"completePayment","outputs":[],"stateMutability":"nonpayable","type":"function"},{"inputs":[{"internalType":"string","name":"paymentId","type":"string"},{"internalType":"string","name":"orderId","type":"string"},{"internalType":"string","name":"buyerId","type":"string"},{"internalType":"string","name":"sellerId","type":"string"},{"internalType":"uint256","name":"amount","type":"uint256"}],"name":"createPayment","outputs":[],"stateMutability":"payable","type":"function"},{"inputs":[{"internalType":"string","name":"paymentId","type":"string"}],"name":"disputePayment","outputs":[],"stateMutability":"nonpayable","type":"function"},{"inputs":[],"name":"emergencyWithdraw","outputs":[],"stateMutability":"nonpayable","type":"function"},{"inputs":[{"internalType":"string","name":"","type":"string"}],"name":"escrowBalances","outputs":[{"internalType":"uint256","name":"","type":"uint256"}],"stateMutability":"view","type":"function"},{"inputs":[{"internalType":"string","name":"paymentId","type":"string"}],"name":"escrowPayment","outputs":[],"stateMutability":"nonpayable","type":"function"},{"inputs":[],"name":"escrowPeriod","outputs":[{"internalType":"uint256","name":"","type":"uint256"}],"stateMutability":"view","type":"function"},{"inputs":[],"name":"getAllPaymentIds","outputs":[{"internalType":"string[]","name":"","type":"string[]"}],"stateMutability":"view","type":"function"},{"inputs":[{"internalType":"string","name":"sellerId","type":"string"}],"name":"getEscrowBalance","outputs":[{"internalType":"uint256","name":"","type":"uint256"}],"stateMutability":"view","type":"function"},{"inputs":[{"internalType":"string","name":"paymentId","type":"string"}],"name":"getPayment","outputs":[{"internalType":"string","name":"orderId","type":"string"},{"internalType":"string","name":"buyerId","type":"string"},{"internalType":"string","name":"sellerId","type":"string"},{"internalType":"uint256","name":"amount","type":"uint256"},{"internalType":"uint256","name":"timestamp","type":"uint256"},{"internalType":"enum StockyPayments.PaymentStatus","name":"status","type":"uint8"},{"internalType":"uint256","name":"escrowReleaseTime","type":"uint256"}],"stateMutability":"view","type":"function"},{"inputs":[],"name":"getPlatformStats","outputs":[{"internalType":"uint256","name":"totalPaymentsCount","type":"uint256"},{"internalType":"uint256","name":"platformFeePercentage","type":"uint256"},{"internalType":"uint256","name":"escrowPeriodSeconds","type":"uint256"}],"stateMutability":"view","type":"function"},{"inputs":[],"name":"owner","outputs":[{"internalType":"address","name":"","type":"address"}],"stateMutability":"view","type":"function"},{"inputs":[{"internalType":"uint256","name":"","type":"uint256"}],"name":"paymentIds","outputs":[{"internalType":"string","name":"","type":"string"}],"stateMutability":"view","type":"function"},{"inputs":[{"internalType":"string","name":"","type":"string"}],"name":"payments","outputs":[{"internalType":"string","name":"paymentId","type":"string"},{"internalType":"string","name":"orderId","type":"string"},{"internalType":"string","name":"buyerId","type":"string"},{"internalType":"string","name":"sellerId","type":"string"},{"internalType":"uint256","name":"amount","type":"uint256"},{"internalType":"uint256","name":"timestamp","type":"uint256"},{"internalType":"enum StockyPayments.PaymentStatus","name":"status","type":"uint8"},{"internalType":"uint256","name":"escrowReleaseTime","type":"uint256"}],"stateMutability":"view","type":"function"},{"inputs":[],"name":"platformFeePercent","outputs":[{"internalType":"uint256","name":"","type":"uint256"}],"stateMutability":"view","type":"function"},{"inputs":[{"internalType":"string","name":"paymentId","type":"string"}],"name":"refundPayment","outputs":[],"stateMutability":"nonpayable","type":"function"},{"inputs":[{"internalType":"address","name":"user","type":"address"}],"name":"removeAuthorizedUser","outputs":[],"stateMutability":"nonpayable","type":"function"},{"inputs":[{"internalType":"uint256","name":"periodInSeconds","type":"uint256"}],"name":"setEscrowPeriod","outputs":[],"stateMutability":"nonpayable","type":"function"},{"inputs":[{"internalType":"uint256","name":"feePercent","type":"uint256"}],"name":"setPlatformFee","outputs":[],"stateMutability":"nonpayable","type":"function"},{"inputs":[],"name":"totalPayments","outputs":[{"internalType":"uint256","name":"","type":"uint256"}],"stateMutability":"view","type":"function"},{"stateMutability":"payable","type":"receive"}],"evm":{"bytecode":{"linkReferences":{},"object":"608080604052346100535760fa60065562015180600755600480546001600160a01b031916339081179091556000908152600260205260408120805460ff191660011790556005556118f990816100598239f35b600080fdfe6080604081815260049081361015610022575b505050361561002057600080fd5b005b60009260e0908435821c9081625b4487146113465750806311b5a16d14610a9c57806312e8e2c3146112c7578063136d888314611297578063177d2a74146112495780631828983a14611209578063225bc08a146110b357806328569d2b14610f545780634291d6dc14610de05780634dd3426014610cd75780635863646014610af95780636719702314610a9c57806389fabc8014610a515780638c639a8514610a325780638da5cb5b14610a095780639ba6737c1461099c578063b46f08bb1461096d578063b6b895281461077f578063c69207a3146105f657848163db2e21bc146105a157508063debf8e2914610291578063f16b51c11461026e5763f9468713146101315750610012565b3461026a57602036600319011261026a5782356001600160401b038111610266576020610221949561016961017c93369089016113b5565b9082865194838680955193849201611410565b8201908152030190209061025f8351926101a18461019a81846114df565b0385611394565b8451966101bc886101b581600186016114df565b0389611394565b61024a8651916101da836101d381600288016114df565b0384611394565b61023c8851916101f1836101d38160038a016114df565b8501549860058601549461022f600760ff60068a0154169801549a83519e8f9e8f92610100808552840190611433565b916020818403910152611433565b918c8303908d0152611433565b9089820360608b0152611433565b95608088015260a087015260c0860190611575565b8301520390f35b8480fd5b8380fd5b84833461028d578160031936011261028d576020906007549051908152f35b5080fd5b5090929160a036600319011261059d576001600160401b03938135858111610266576102c090369084016113b5565b946024928335828111610599576102da90369083016113b5565b93604435838111610595576102f290369084016113b5565b926064359081116105955761030a90369084016113b5565b95608435963389526020946002865260ff878b2054168015610582575b610330906115f7565b8a61035a8b888a51809282865196019561034b818489611410565b820190815203019020546114a5565b61054757893410610505578988938d95938b8e948b88519961037b8b611362565b808b52818b01938452898b0194855260608b0195865260808b0196875260a08b019742895260c08c0199818b528c019a818c5251809481935180926103bf92611410565b82019081520301902097516103d49089611634565b516103e29060018901611634565b516103f09060028801611634565b516103fe9060038701611634565b518685015551600584015560068301905160058110156104f357906007929160ff8019835416911617905551910155600354680100000000000000008110156104e1578060016104519201600355611458565b6104d0578861045f91611634565b6005549160001983146104bf5750507f53bbf8776057c1a5986046c4cc42351f24709eb089d97ef0432390bc7ecdfb4794959660016104a19201600555611743565b946104b58351948486958652850190611433565b918301520390a280f35b634e487b7160e01b88526011905286fd5b50634e487b7160e01b875286825286fd5b50634e487b7160e01b87526041825286fd5b634e487b7160e01b8b5260218652848bfd5b875162461bcd60e51b8152808701889052601b818701527f496e73756666696369656e74207061796d656e7420616d6f756e7400000000006044820152606490fd5b875162461bcd60e51b8152808701889052601681870152755061796d656e7420616c72656164792065786973747360501b6044820152606490fd5b5084546001600160a01b03163314610327565b8780fd5b8680fd5b8280fd5b8381863461028d578160031936011261028d57548190819081906001600160a01b03166105cf338214611598565b47908282156105ed575bf1156105e3575080f35b51903d90823e3d90fd5b506108fc6105d9565b5091923461077c57602036600319011261077c5783356001600160401b03811161028d57602061062c61063e92369088016113b5565b81855193828580945193849201611410565b8101848152030190209180519061065482611362565b805161066b8161066481886114df565b0382611394565b8252805191610681836101d381600189016114df565b6020810192835281519261069c8461019a8160028a016114df565b8282019384528251906106bd826106b68160038b016114df565b0383611394565b6060830191825288870154926080810193845260058801549760a0820198895260ff6006820154169760058910156107695750899a5061074b9361073089979484600761073e958f9d60c06107609e9c99015201549b8c910152519651915193519a519685519d8e9d8e528d0190611433565b908b820360208d0152611433565b91898303908a0152611433565b946060870152608086015260a0850190611575565b60c08301520390f35b634e487b7160e01b815260218c52602490fd5b80fd5b8385843461028d5760208060031936011261059d5783356001600160401b03811161026a576107b190369086016113b5565b3384526002825260ff8385205416801561095a575b6107cf906115f7565b6108158284516108056107fe8551928481818901956107ef818389611410565b81018c815203019020546114a5565b1515611763565b8551809381928651928391611410565b8101878152030190206006810160ff81541660058110158061094757600182148092811561093b575b50156108f8576108e557966108a39261089d927fce3281d5d90ebcde67ad5ce7e7a3e962efb181f365d3ee7121394a22a983ed6b9798996108ac575b600260ff198254161790550154612710610896600654836118b0565b04906118a3565b91611743565b9351908152a280f35b600382016108de6108d66108bf836117cb565b54926108d18787015480951015611857565b6117cb565b9182546118a3565b905561087a565b634e487b7160e01b875260218852602487fd5b865162461bcd60e51b8152808a01879052601b60248201527f5061796d656e74206e6f7420696e2076616c69642073746174757300000000006044820152606490fd5b9150508790158a61083e565b634e487b7160e01b885260218952602488fd5b5084546001600160a01b031633146107c6565b5050503461028d57602036600319011261028d5761099560018060a01b038254163314611598565b3560075580f35b5050913461077c57602036600319011261077c57813560035481101561028d576109c590611458565b9290926109f75783516109f390856109e1826106b681896114df565b51918291602083526020830190611433565b0390f35b634e487b7160e01b8252819052602490fd5b5050903461059d578260031936011261059d575490516001600160a01b03909116815260209150f35b84833461028d578160031936011261028d576020906006549051908152f35b5050903461059d57602036600319011261059d5780356001600160a01b03818116929183900361026657610a889154163314611598565b825260026020528120805460ff1916905580f35b5050823461077c57602036600319011261077c578235906001600160401b03821161077c57506020610ad58194610ae7933691016113b5565b81845193828580945193849201611410565b81016001815203019020549051908152f35b5050903461059d576020908160031936011261026a5780356001600160401b03811161026657610b2c90369083016113b5565b610b6b838551610b5b6107fe855192848181890195610b4c818389611410565b81018d815203019020546114a5565b8651809381928651928391611410565b81018881520301902091600683019060ff8254166005811015610cc457600103610c895760078401544210610c465791610bf96108a39285947fce3281d5d90ebcde67ad5ce7e7a3e962efb181f365d3ee7121394a22a983ed6b9796019060038254960195610bdc6108d6886117cb565b9055600260ff1982541617905554612710610896600654836118b0565b927fc82e29ba0155114b2b45ec9183ab7909b7fd0d6676808752e363dbd9b9d0583d610c39610c2784611743565b9289519182918b83528b8301906114df565b87898301520390a2611743565b855162461bcd60e51b8152908101859052601b60248201527f457363726f7720706572696f64206e6f742079657420656e64656400000000006044820152606490fd5b855162461bcd60e51b815290810185905260156024820152745061796d656e74206e6f7420696e20657363726f7760581b6044820152606490fd5b634e487b7160e01b885260218252602488fd5b8285853461028d578160031936011261028d57600354906001600160401b038211610dcd5750825191602092610d12848460051b0182611394565b8281526003825283810192827fc2575a0e9e593c00f959f8c92f12db2869c3395a3b0502d05e2516446f71f85b855b838310610da257505050508451938085019181865251809252858501958260051b8601019392955b828710610d765785850386f35b909192938280610d92600193603f198a82030186528851611433565b9601920196019592919092610d69565b60018881928b9a97989a51610dbb8161066481896114df565b81520192019201919096949396610d41565b634e487b7160e01b835260419052602482fd5b5050903461059d576020908160031936011261026a5780356001600160401b03811161026657610e1390369083016113b5565b903385526002835260ff84862054168015610f41575b610e32906115f7565b610e62838551610e526107fe8651928481818a0195610b4c818389611410565b8651809381928751928391611410565b81018881520301902060068101805460ff81166005811015610f2e57610eeb57917ef58a264cc8fa10818564c95d1f2c8897831497a5acb8694295e64327b9d2049594939160016108a39460ff1916179055610ee2610eda6003610ec8600754426117a8565b946007850195865584015493016117cb565b9182546117a8565b90555491611743565b865162461bcd60e51b8152808501879052601d60248201527f5061796d656e74206e6f7420696e2070656e64696e67207374617475730000006044820152606490fd5b634e487b7160e01b895260218552602489fd5b5080546001600160a01b03163314610e29565b8385843461028d5760208060031936011261059d5783356001600160401b03811161026a57610f8690369086016113b5565b3384526002825260ff838520541680156110a0575b610fa4906115f7565b610fc48284516108056107fe8551928481818901956107ef818389611410565b8101878152030190206006810160ff8154166005811015806109475781158015611094575b15611051576108e557917f0ee7daba6a0ff4fdb4eaa2ff504e0a3e47c693428f603620aca8e11ab7ab03329596979160016108a39414611037575b805460ff19166003179055015491611743565b6003820161104a6108d66108bf836117cb565b9055611024565b865162461bcd60e51b8152808a01879052601a60248201527f5061796d656e742063616e6e6f7420626520726566756e6465640000000000006044820152606490fd5b50508660018214610fe9565b5084546001600160a01b03163314610f9b565b8285853461028d5760208060031936011261059d5781356001600160401b03811161026a576110e590369084016113b5565b913384526002825260ff858520541680156111f6575b611104906115f7565b60066111368387516111266107fe8851928481818c0195610b4c818389611410565b8851809381928951928391611410565b810188815203019020019182549060ff821660058110156111e357600103611192575061116b94955060ff1916179055611743565b7f91c26a99a0a4d117c4d67f42c08c4c42d13094fbef4b6a53a9dd88e5c22563868280a280f35b8260849188519162461bcd60e51b8352820152602660248201527f4f6e6c7920657363726f776564207061796d656e74732063616e2062652064696044820152651cdc1d5d195960d21b6064820152fd5b634e487b7160e01b875260218452602487fd5b5080546001600160a01b031633146110fb565b5050903461059d57602036600319011261059d57356001600160a01b0381169081900361059d57818360ff92602095526002855220541690519015158152f35b5050903461059d57602036600319011261059d5780356001600160a01b038181169291839003610266576112809154163314611598565b825260026020528120805460ff1916600117905580f35b84833461028d578160031936011261028d5760609060055490600654906007549181519384526020840152820152f35b5050903461059d57602036600319011261059d578035916112f260018060a01b038354163314611598565b6103e8831161130357505060065580f35b906020606492519162461bcd60e51b8352820152601e60248201527f506c6174666f726d206665652063616e6e6f74206578636565642031302500006044820152fd5b85903461028d578160031936011261028d576020906005548152f35b61010081019081106001600160401b0382111761137e57604052565b634e487b7160e01b600052604160045260246000fd5b90601f801991011681019081106001600160401b0382111761137e57604052565b81601f8201121561140b578035906001600160401b03821161137e57604051926113e9601f8401601f191660200185611394565b8284526020838301011161140b57816000926020809301838601378301015290565b600080fd5b60005b8381106114235750506000910152565b8181015183820152602001611413565b9060209161144c81518092818552858086019101611410565b601f01601f1916010190565b60035481101561148f5760036000527fc2575a0e9e593c00f959f8c92f12db2869c3395a3b0502d05e2516446f71f85b0190600090565b634e487b7160e01b600052603260045260246000fd5b90600182811c921680156114d5575b60208310146114bf57565b634e487b7160e01b600052602260045260246000fd5b91607f16916114b4565b90600092918054916114f0836114a5565b9182825260019384811690816000146115525750600114611512575b50505050565b90919394506000526020928360002092846000945b83861061153e57505050500101903880808061150c565b805485870183015294019385908201611527565b9294505050602093945060ff191683830152151560051b0101903880808061150c565b9060058210156115825752565b634e487b7160e01b600052602160045260246000fd5b1561159f57565b60405162461bcd60e51b815260206004820152602a60248201527f4f6e6c7920636f6e7472616374206f776e65722063616e2063616c6c207468696044820152693990333ab731ba34b7b760b11b6064820152608490fd5b156115fe57565b60405162461bcd60e51b815260206004820152600e60248201526d139bdd08185d5d1a1bdc9a5e995960921b6044820152606490fd5b91909182516001600160401b03811161137e5761165182546114a5565b601f81116116fb575b50602080601f831160011461169757508192939460009261168c575b50508160011b916000199060031b1c1916179055565b015190503880611676565b90601f198316958460005282600020926000905b8882106116e3575050836001959697106116ca575b505050811b019055565b015160001960f88460031b161c191690553880806116c0565b806001859682949686015181550195019301906116ab565b600083815260208120601f840160051c81019260208510611739575b601f0160051c01915b82811061172e57505061165a565b818155600101611720565b9092508290611717565b61175b90602060405192828480945193849201611410565b810103902090565b1561176a57565b60405162461bcd60e51b815260206004820152601660248201527514185e5b595b9d08191bd95cc81b9bdd08195e1a5cdd60521b6044820152606490fd5b919082018092116117b557565b634e487b7160e01b600052601160045260246000fd5b604051908160008254926117de846114a5565b90600194858116908160001461183f5750600114611805575b505060209281520301902090565b60009081526020808220959350905b82811061182b5750506020935082019092386117f7565b855487820152948301948694508101611814565b60ff19168552505080151502820190506020386117f7565b1561185e57565b60405162461bcd60e51b815260206004820152601b60248201527f496e73756666696369656e7420657363726f772062616c616e636500000000006044820152606490fd5b919082039182116117b557565b818102929181159184041417156117b55756fea2646970667358221220d19c8336df0815c11f6a227499ca9d129401b6916d705ef43a4c4c4045c2146064736f6c63430008140033","opcodes":"PUSH1 0x80 DUP1 PUSH1 0x40 MSTORE CALLVALUE PUSH2 0x53 JUMPI PUSH1 0xFA PUSH1 0x6 SSTORE PUSH3 0x15180 PUSH1 0x7 SSTORE PUSH1 0x4 DUP1 SLOAD PUSH1 0x1 PUSH1 0x1 PUSH1 0xA0 SHL SUB NOT AND CALLER SWAP1 DUP2 OR SWAP1 SWAP2 SSTORE PUSH1 0x0 SWAP1 DUP2 MSTORE PUSH1 0x2 PUSH1 0x20 MSTORE PUSH1 0x40 DUP2 KECCAK256 DUP1 SLOAD PUSH1 0xFF NOT AND PUSH1 0x1 OR SWAP1 SSTORE PUSH1 0x5 SSTORE PUSH2 0x18F9 SWAP1 DUP2 PUSH2 0x59 DUP3 CODECOPY RETURN JUMPDEST PUSH1 0x0 DUP1 REVERT INVALID PUSH1 0x80 PUSH1 0x40 DUP2 DUP2 MSTORE PUSH1 0x4 SWAP1 DUP2 CALLDATASIZE LT ISZERO PUSH2 0x22 JUMPI JUMPDEST POP POP POP CALLDATASIZE ISZERO PUSH2 0x20 JUMPI PUSH1 0x0 DUP1 REVERT JUMPDEST STOP JUMPDEST PUSH1 0x0 SWAP3 PUSH1 0xE0 SWAP1 DUP5 CALLDATALOAD DUP3 SHR SWAP1 DUP2 PUSH3 0x5B4487 EQ PUSH2 0x1346 JUMPI POP DUP1 PUSH4 0x11B5A16D EQ PUSH2 0xA9C JUMPI DUP1 PUSH4 0x12E8E2C3 EQ PUSH2 0x12C7 JUMPI DUP1 PUSH4 0x136D8883 EQ PUSH2 0x1297 JUMPI DUP1 PUSH4 0x177D2A74 EQ PUSH2 0x1249 JUMPI DUP1 PUSH4 0x1828983A EQ PUSH2 0x1209 JUMPI DUP1 PUSH4 0x225BC08A EQ PUSH2 0x10B3 JUMPI DUP1 PUSH4 0x28569D2B EQ PUSH2 0xF54 JUMPI DUP1 PUSH4 0x4291D6DC EQ PUSH2 0xDE0 JUMPI DUP1 PUSH4 0x4DD34260 EQ PUSH2 0xCD7 JUMPI DUP1 PUSH4 0x58636460 EQ PUSH2 0xAF9 JUMPI DUP1 PUSH4 0x67197023 EQ PUSH2 0xA9C JUMPI DUP1 PUSH4 0x89FABC80 EQ PUSH2 0xA51 JUMPI DUP1 PUSH4 0x8C639A85 EQ PUSH2 0xA32 JUMPI DUP1 PUSH4 0x8DA5CB5B EQ PUSH2 0xA09 JUMPI DUP1 PUSH4 0x9BA6737C EQ PUSH2 0x99C JUMPI DUP1 PUSH4 0xB46F08BB EQ PUSH2 0x96D JUMPI DUP1 PUSH4 0xB6B89528 EQ PUSH2 0x77F JUMPI DUP1 PUSH4 0xC69207A3 EQ PUSH2 0x5F6 JUMPI DUP5 DUP2 PUSH4 0xDB2E21BC EQ PUSH2 0x5A1 JUMPI POP DUP1 PUSH4 0xDEBF8E29 EQ PUSH2 0x291 JUMPI DUP1 PUSH4 0xF16B51C1 EQ PUSH2 0x26E JUMPI PUSH4 0xF9468713 EQ PUSH2 0x131 JUMPI POP PUSH2 0x12 JUMP JUMPDEST CALLVALUE PUSH2 0x26A JUMPI PUSH1 0x20 CALLDATASIZE PUSH1 0x3 NOT ADD SLT PUSH2 0x26A JUMPI DUP3 CALLDATALOAD PUSH1 0x1 PUSH1 0x1 PUSH1 0x40 SHL SUB DUP2 GT PUSH2 0x266 JUMPI PUSH1 0x20 PUSH2 0x221 SWAP5 SWAP6 PUSH2 0x169 PUSH2 0x17C SWAP4 CALLDATASIZE SWAP1 DUP10 ADD PUSH2 0x13B5 JUMP JUMPDEST SWAP1 DUP3 DUP7 MLOAD SWAP5 DUP4 DUP7 DUP1 SWAP6 MLOAD SWAP4 DUP5 SWAP3 ADD PUSH2 0x1410 JUMP JUMPDEST DUP3 ADD SWAP1 DUP2 MSTORE SUB ADD SWAP1 KECCAK256 SWAP1 PUSH2 0x25F DUP4 MLOAD SWAP3 PUSH2 0x1A1 DUP5 PUSH2 0x19A DUP2 DUP5 PUSH2 0x14DF JUMP JUMPDEST SUB DUP6 PUSH2 0x1394 JUMP JUMPDEST DUP5 MLOAD SWAP7 PUSH2 0x1BC DUP9 PUSH2 0x1B5 DUP2 PUSH1 0x1 DUP7 ADD PUSH2 0x14DF JUMP JUMPDEST SUB DUP10 PUSH2 0x1394 JUMP JUMPDEST PUSH2 0x24A DUP7 MLOAD SWAP2 PUSH2 0x1DA DUP4 PUSH2 0x1D3 DUP2 PUSH1 0x2 DUP9 ADD PUSH2 0x14DF JUMP JUMPDEST SUB DUP5 PUSH2 0x1394 JUMP JUMPDEST PUSH2 0x23C DUP9 MLOAD SWAP2 PUSH2 0x1F1 DUP4 PUSH2 0x1D3 DUP2 PUSH1 0x3 DUP11 ADD PUSH2 0x14DF JUMP JUMPDEST DUP6 ADD SLOAD SWAP9 PUSH1 0x5 DUP7 ADD SLOAD SWAP5 PUSH2 0x22F PUSH1 0x7 PUSH1 0xFF PUSH1 0x6 DUP11 ADD SLOAD AND SWAP9 ADD SLOAD SWAP11 DUP4 MLOAD SWAP15 DUP16 SWAP15 DUP16 SWAP3 PUSH2 0x100 DUP1 DUP6 MSTORE DUP5 ADD SWAP1 PUSH2 0x1433 JUMP JUMPDEST SWAP2 PUSH1 0x20 DUP2 DUP5 SUB SWAP2 ADD MSTORE PUSH2 0x1433 JUMP JUMPDEST SWAP2 DUP13 DUP4 SUB SWAP1 DUP14 ADD MSTORE PUSH2 0x1433 JUMP JUMPDEST SWAP1 DUP10 DUP3 SUB PUSH1 0x60 DUP12 ADD MSTORE PUSH2 0x1433 JUMP JUMPDEST SWAP6 PUSH1 0x80 DUP9 ADD MSTORE PUSH1 0xA0 DUP8 ADD MSTORE PUSH1 0xC0 DUP7 ADD SWAP1 PUSH2 0x1575 JUMP JUMPDEST DUP4 ADD MSTORE SUB SWAP1 RETURN JUMPDEST DUP5 DUP1 REVERT JUMPDEST DUP4 DUP1 REVERT JUMPDEST DUP5 DUP4 CALLVALUE PUSH2 0x28D JUMPI DUP2 PUSH1 0x3 NOT CALLDATASIZE ADD SLT PUSH2 0x28D JUMPI PUSH1 0x20 SWAP1 PUSH1 0x7 SLOAD SWAP1 MLOAD SWAP1 DUP2 MSTORE RETURN JUMPDEST POP DUP1 REVERT JUMPDEST POP SWAP1 SWAP3 SWAP2 PUSH1 0xA0 CALLDATASIZE PUSH1 0x3 NOT ADD SLT PUSH2 0x59D JUMPI PUSH1 0x1 PUSH1 0x1 PUSH1 0x40 SHL SUB SWAP4 DUP2 CALLDATALOAD DUP6 DUP2 GT PUSH2 0x266 JUMPI PUSH2 0x2C0 SWAP1 CALLDATASIZE SWAP1 DUP5 ADD PUSH2 0x13B5 JUMP JUMPDEST SWAP5 PUSH1 0x24 SWAP3 DUP4 CALLDATALOAD DUP3 DUP2 GT PUSH2 0x599 JUMPI PUSH2 0x2DA SWAP1 CALLDATASIZE SWAP1 DUP4 ADD PUSH2 0x13B5 JUMP JUMPDEST SWAP4 PUSH1 0x44 CALLDATALOAD DUP4 DUP2 GT PUSH2 0x595 JUMPI PUSH2 0x2F2 SWAP1 CALLDATASIZE SWAP1 DUP5 ADD PUSH2 0x13B5 JUMP JUMPDEST SWAP3 PUSH1 0x64 CALLDATALOAD SWAP1 DUP2 GT PUSH2 0x595 JUMPI PUSH2 0x30A SWAP1 CALLDATASIZE SWAP1 DUP5 ADD PUSH2 0x13B5 JUMP JUMPDEST SWAP6 PUSH1 0x84 CALLDATALOAD SWAP7 CALLER DUP10 MSTORE PUSH1 0x20 SWAP5 PUSH1 0x2 DUP7 MSTORE PUSH1 0xFF DUP8 DUP12 KECCAK256 SLOAD AND DUP1 ISZERO PUSH2 0x582 JUMPI JUMPDEST PUSH2 0x330 SWAP1 PUSH2 0x15F7 JUMP JUMPDEST DUP11 PUSH2 0x35A DUP12 DUP9 DUP11 MLOAD DUP1 SWAP3 DUP3 DUP7 MLOAD SWAP7 ADD SWAP6 PUSH2 0x34B DUP2 DUP5 DUP10 PUSH2 0x1410 JUMP JUMPDEST DUP3 ADD SWAP1 DUP2 MSTORE SUB ADD SWAP1 KECCAK256 SLOAD PUSH2 0x14A5 JUMP JUMPDEST PUSH2 0x547 JUMPI DUP10 CALLVALUE LT PUSH2 0x505 JUMPI DUP10 DUP9 SWAP4 DUP14 SWAP6 SWAP4 DUP12 DUP15 SWAP5 DUP12 DUP9 MLOAD SWAP10 PUSH2 0x37B DUP12 PUSH2 0x1362 JUMP JUMPDEST DUP1 DUP12 MSTORE DUP2 DUP12 ADD SWAP4 DUP5 MSTORE DUP10 DUP12 ADD SWAP5 DUP6 MSTORE PUSH1 0x60 DUP12 ADD SWAP6 DUP7 MSTORE PUSH1 0x80 DUP12 ADD SWAP7 DUP8 MSTORE PUSH1 0xA0 DUP12 ADD SWAP8 TIMESTAMP DUP10 MSTORE PUSH1 0xC0 DUP13 ADD SWAP10 DUP2 DUP12 MSTORE DUP13 ADD SWAP11 DUP2 DUP13 MSTORE MLOAD DUP1 SWAP5 DUP2 SWAP4 MLOAD DUP1 SWAP3 PUSH2 0x3BF SWAP3 PUSH2 0x1410 JUMP JUMPDEST DUP3 ADD SWAP1 DUP2 MSTORE SUB ADD SWAP1 KECCAK256 SWAP8 MLOAD PUSH2 0x3D4 SWAP1 DUP10 PUSH2 0x1634 JUMP JUMPDEST MLOAD PUSH2 0x3E2 SWAP1 PUSH1 0x1 DUP10 ADD PUSH2 0x1634 JUMP JUMPDEST MLOAD PUSH2 0x3F0 SWAP1 PUSH1 0x2 DUP9 ADD PUSH2 0x1634 JUMP JUMPDEST MLOAD PUSH2 0x3FE SWAP1 PUSH1 0x3 DUP8 ADD PUSH2 0x1634 JUMP JUMPDEST MLOAD DUP7 DUP6 ADD SSTORE MLOAD PUSH1 0x5 DUP5 ADD SSTORE PUSH1 0x6 DUP4 ADD SWAP1 MLOAD PUSH1 0x5 DUP2 LT ISZERO PUSH2 0x4F3 JUMPI SWAP1 PUSH1 0x7 SWAP3 SWAP2 PUSH1 0xFF DUP1 NOT DUP4 SLOAD AND SWAP2 AND OR SWAP1 SSTORE MLOAD SWAP2 ADD SSTORE PUSH1 0x3 SLOAD PUSH9 0x10000000000000000 DUP2 LT ISZERO PUSH2 0x4E1 JUMPI DUP1 PUSH1 0x1 PUSH2 0x451 SWAP3 ADD PUSH1 0x3 SSTORE PUSH2 0x1458 JUMP JUMPDEST PUSH2 0x4D0 JUMPI DUP9 PUSH2 0x45F SWAP2 PUSH2 0x1634 JUMP JUMPDEST PUSH1 0x5 SLOAD SWAP2 PUSH1 0x0 NOT DUP4 EQ PUSH2 0x4BF JUMPI POP POP PUSH32 0x53BBF8776057C1A5986046C4CC42351F24709EB089D97EF0432390BC7ECDFB47 SWAP5 SWAP6 SWAP7 PUSH1 0x1 PUSH2 0x4A1 SWAP3 ADD PUSH1 0x5 SSTORE PUSH2 0x1743 JUMP JUMPDEST SWAP5 PUSH2 0x4B5 DUP4 MLOAD SWAP5 DUP5 DUP7 SWAP6 DUP7 MSTORE DUP6 ADD SWAP1 PUSH2 0x1433 JUMP JUMPDEST SWAP2 DUP4 ADD MSTORE SUB SWAP1 LOG2 DUP1 RETURN JUMPDEST PUSH4 0x4E487B71 PUSH1 0xE0 SHL DUP9 MSTORE PUSH1 0x11 SWAP1 MSTORE DUP7 REVERT JUMPDEST POP PUSH4 0x4E487B71 PUSH1 0xE0 SHL DUP8 MSTORE DUP7 DUP3 MSTORE DUP7 REVERT JUMPDEST POP PUSH4 0x4E487B71 PUSH1 0xE0 SHL DUP8 MSTORE PUSH1 0x41 DUP3 MSTORE DUP7 REVERT JUMPDEST PUSH4 0x4E487B71 PUSH1 0xE0 SHL DUP12 MSTORE PUSH1 0x21 DUP7 MSTORE DUP5 DUP12 REVERT JUMPDEST DUP8 MLOAD PUSH3 0x461BCD PUSH1 0xE5 SHL DUP2 MSTORE DUP1 DUP8 ADD DUP9 SWAP1 MSTORE PUSH1 0x1B DUP2 DUP8 ADD MSTORE PUSH32 0x496E73756666696369656E74207061796D656E7420616D6F756E740000000000 PUSH1 0x44 DUP3 ADD MSTORE PUSH1 0x64 SWAP1 REVERT JUMPDEST DUP8 MLOAD PUSH3 0x461BCD PUSH1 0xE5 SHL DUP2 MSTORE DUP1 DUP8 ADD DUP9 SWAP1 MSTORE PUSH1 0x16 DUP2 DUP8 ADD MSTORE PUSH22 0x5061796D656E7420616C726561647920657869737473 PUSH1 0x50 SHL PUSH1 0x44 DUP3 ADD MSTORE PUSH1 0x64 SWAP1 REVERT JUMPDEST POP DUP5 SLOAD PUSH1 0x1 PUSH1 0x1 PUSH1 0xA0 SHL SUB AND CALLER EQ PUSH2 0x327 JUMP JUMPDEST DUP8 DUP1 REVERT JUMPDEST DUP7 DUP1 REVERT JUMPDEST DUP3 DUP1 REVERT JUMPDEST DUP4 DUP2 DUP7 CALLVALUE PUSH2 0x28D JUMPI DUP2 PUSH1 0x3 NOT CALLDATASIZE ADD SLT PUSH2 0x28D JUMPI SLOAD DUP2 SWAP1 DUP2 SWAP1 DUP2 SWAP1 PUSH1 0x1 PUSH1 0x1 PUSH1 0xA0 SHL SUB AND PUSH2 0x5CF CALLER DUP3 EQ PUSH2 0x1598 JUMP JUMPDEST SELFBALANCE SWAP1 DUP3 DUP3 ISZERO PUSH2 0x5ED JUMPI JUMPDEST CALL ISZERO PUSH2 0x5E3 JUMPI POP DUP1 RETURN JUMPDEST MLOAD SWAP1 RETURNDATASIZE SWAP1 DUP3 RETURNDATACOPY RETURNDATASIZE SWAP1 REVERT JUMPDEST POP PUSH2 0x8FC PUSH2 0x5D9 JUMP JUMPDEST POP SWAP2 SWAP3 CALLVALUE PUSH2 0x77C JUMPI PUSH1 0x20 CALLDATASIZE PUSH1 0x3 NOT ADD SLT PUSH2 0x77C JUMPI DUP4 CALLDATALOAD PUSH1 0x1 PUSH1 0x1 PUSH1 0x40 SHL SUB DUP2 GT PUSH2 0x28D JUMPI PUSH1 0x20 PUSH2 0x62C PUSH2 0x63E SWAP3 CALLDATASIZE SWAP1 DUP9 ADD PUSH2 0x13B5 JUMP JUMPDEST DUP2 DUP6 MLOAD SWAP4 DUP3 DUP6 DUP1 SWAP5 MLOAD SWAP4 DUP5 SWAP3 ADD PUSH2 0x1410 JUMP JUMPDEST DUP2 ADD DUP5 DUP2 MSTORE SUB ADD SWAP1 KECCAK256 SWAP2 DUP1 MLOAD SWAP1 PUSH2 0x654 DUP3 PUSH2 0x1362 JUMP JUMPDEST DUP1 MLOAD PUSH2 0x66B DUP2 PUSH2 0x664 DUP2 DUP9 PUSH2 0x14DF JUMP JUMPDEST SUB DUP3 PUSH2 0x1394 JUMP JUMPDEST DUP3 MSTORE DUP1 MLOAD SWAP2 PUSH2 0x681 DUP4 PUSH2 0x1D3 DUP2 PUSH1 0x1 DUP10 ADD PUSH2 0x14DF JUMP JUMPDEST PUSH1 0x20 DUP2 ADD SWAP3 DUP4 MSTORE DUP2 MLOAD SWAP3 PUSH2 0x69C DUP5 PUSH2 0x19A DUP2 PUSH1 0x2 DUP11 ADD PUSH2 0x14DF JUMP JUMPDEST DUP3 DUP3 ADD SWAP4 DUP5 MSTORE DUP3 MLOAD SWAP1 PUSH2 0x6BD DUP3 PUSH2 0x6B6 DUP2 PUSH1 0x3 DUP12 ADD PUSH2 0x14DF JUMP JUMPDEST SUB DUP4 PUSH2 0x1394 JUMP JUMPDEST PUSH1 0x60 DUP4 ADD SWAP2 DUP3 MSTORE DUP9 DUP8 ADD SLOAD SWAP3 PUSH1 0x80 DUP2 ADD SWAP4 DUP5 MSTORE PUSH1 0x5 DUP9 ADD SLOAD SWAP8 PUSH1 0xA0 DUP3 ADD SWAP9 DUP10 MSTORE PUSH1 0xFF PUSH1 0x6 DUP3 ADD SLOAD AND SWAP8 PUSH1 0x5 DUP10 LT ISZERO PUSH2 0x769 JUMPI POP DUP10 SWAP11 POP PUSH2 0x74B SWAP4 PUSH2 0x730 DUP10 SWAP8 SWAP5 DUP5 PUSH1 0x7 PUSH2 0x73E SWAP6 DUP16 SWAP14 PUSH1 0xC0 PUSH2 0x760 SWAP15 SWAP13 SWAP10 ADD MSTORE ADD SLOAD SWAP12 DUP13 SWAP2 ADD MSTORE MLOAD SWAP7 MLOAD SWAP2 MLOAD SWAP4 MLOAD SWAP11 MLOAD SWAP7 DUP6 MLOAD SWAP14 DUP15 SWAP14 DUP15 MSTORE DUP14 ADD SWAP1 PUSH2 0x1433 JUMP JUMPDEST SWAP1 DUP12 DUP3 SUB PUSH1 0x20 DUP14 ADD MSTORE PUSH2 0x1433 JUMP JUMPDEST SWAP2 DUP10 DUP4 SUB SWAP1 DUP11 ADD MSTORE PUSH2 0x1433 JUMP JUMPDEST SWAP5 PUSH1 0x60 DUP8 ADD MSTORE PUSH1 0x80 DUP7 ADD MSTORE PUSH1 0xA0 DUP6 ADD SWAP1 PUSH2 0x1575 JUMP JUMPDEST PUSH1 0xC0 DUP4 ADD MSTORE SUB SWAP1 RETURN JUMPDEST PUSH4 0x4E487B71 PUSH1 0xE0 SHL DUP2 MSTORE PUSH1 0x21 DUP13 MSTORE PUSH1 0x24 SWAP1 REVERT JUMPDEST DUP1 REVERT JUMPDEST DUP4 DUP6 DUP5 CALLVALUE PUSH2 0x28D JUMPI PUSH1 0x20 DUP1 PUSH1 0x3 NOT CALLDATASIZE ADD SLT PUSH2 0x59D JUMPI DUP4 CALLDATALOAD PUSH1 0x1 PUSH1 0x1 PUSH1 0x40 SHL SUB DUP2 GT PUSH2 0x26A JUMPI PUSH2 0x7B1 SWAP1 CALLDATASIZE SWAP1 DUP7 ADD PUSH2 0x13B5 JUMP JUMPDEST CALLER DUP5 MSTORE PUSH1 0x2 DUP3 MSTORE PUSH1 0xFF DUP4 DUP6 KECCAK256 SLOAD AND DUP1 ISZERO PUSH2 0x95A JUMPI JUMPDEST PUSH2 0x7CF SWAP1 PUSH2 0x15F7 JUMP JUMPDEST PUSH2 0x815 DUP3 DUP5 MLOAD PUSH2 0x805 PUSH2 0x7FE DUP6 MLOAD SWAP3 DUP5 DUP2 DUP2 DUP10 ADD SWAP6 PUSH2 0x7EF DUP2 DUP4 DUP10 PUSH2 0x1410 JUMP JUMPDEST DUP2 ADD DUP13 DUP2 MSTORE SUB ADD SWAP1 KECCAK256 SLOAD PUSH2 0x14A5 JUMP JUMPDEST ISZERO ISZERO PUSH2 0x1763 JUMP JUMPDEST DUP6 MLOAD DUP1 SWAP4 DUP2 SWAP3 DUP7 MLOAD SWAP3 DUP4 SWAP2 PUSH2 0x1410 JUMP JUMPDEST DUP2 ADD DUP8 DUP2 MSTORE SUB ADD SWAP1 KECCAK256 PUSH1 0x6 DUP2 ADD PUSH1 0xFF DUP2 SLOAD AND PUSH1 0x5 DUP2 LT ISZERO DUP1 PUSH2 0x947 JUMPI PUSH1 0x1 DUP3 EQ DUP1 SWAP3 DUP2 ISZERO PUSH2 0x93B JUMPI JUMPDEST POP ISZERO PUSH2 0x8F8 JUMPI PUSH2 0x8E5 JUMPI SWAP7 PUSH2 0x8A3 SWAP3 PUSH2 0x89D SWAP3 PUSH32 0xCE3281D5D90EBCDE67AD5CE7E7A3E962EFB181F365D3EE7121394A22A983ED6B SWAP8 SWAP9 SWAP10 PUSH2 0x8AC JUMPI JUMPDEST PUSH1 0x2 PUSH1 0xFF NOT DUP3 SLOAD AND OR SWAP1 SSTORE ADD SLOAD PUSH2 0x2710 PUSH2 0x896 PUSH1 0x6 SLOAD DUP4 PUSH2 0x18B0 JUMP JUMPDEST DIV SWAP1 PUSH2 0x18A3 JUMP JUMPDEST SWAP2 PUSH2 0x1743 JUMP JUMPDEST SWAP4 MLOAD SWAP1 DUP2 MSTORE LOG2 DUP1 RETURN JUMPDEST PUSH1 0x3 DUP3 ADD PUSH2 0x8DE PUSH2 0x8D6 PUSH2 0x8BF DUP4 PUSH2 0x17CB JUMP JUMPDEST SLOAD SWAP3 PUSH2 0x8D1 DUP8 DUP8 ADD SLOAD DUP1 SWAP6 LT ISZERO PUSH2 0x1857 JUMP JUMPDEST PUSH2 0x17CB JUMP JUMPDEST SWAP2 DUP3 SLOAD PUSH2 0x18A3 JUMP JUMPDEST SWAP1 SSTORE PUSH2 0x87A JUMP JUMPDEST PUSH4 0x4E487B71 PUSH1 0xE0 SHL DUP8 MSTORE PUSH1 0x21 DUP9 MSTORE PUSH1 0x24 DUP8 REVERT JUMPDEST DUP7 MLOAD PUSH3 0x461BCD PUSH1 0xE5 SHL DUP2 MSTORE DUP1 DUP11 ADD DUP8 SWAP1 MSTORE PUSH1 0x1B PUSH1 0x24 DUP3 ADD MSTORE PUSH32 0x5061796D656E74206E6F7420696E2076616C6964207374617475730000000000 PUSH1 0x44 DUP3 ADD MSTORE PUSH1 0x64 SWAP1 REVERT JUMPDEST SWAP2 POP POP DUP8 SWAP1 ISZERO DUP11 PUSH2 0x83E JUMP JUMPDEST PUSH4 0x4E487B71 PUSH1 0xE0 SHL DUP9 MSTORE PUSH1 0x21 DUP10 MSTORE PUSH1 0x24 DUP9 REVERT JUMPDEST POP DUP5 SLOAD PUSH1 0x1 PUSH1 0x1 PUSH1 0xA0 SHL SUB AND CALLER EQ PUSH2 0x7C6 JUMP JUMPDEST POP POP POP CALLVALUE PUSH2 0x28D JUMPI PUSH1 0x20 CALLDATASIZE PUSH1 0x3 NOT ADD SLT PUSH2 0x28D JUMPI PUSH2 0x995 PUSH1 0x1 DUP1 PUSH1 0xA0 SHL SUB DUP3 SLOAD AND CALLER EQ PUSH2 0x1598 JUMP JUMPDEST CALLDATALOAD PUSH1 0x7 SSTORE DUP1 RETURN JUMPDEST POP POP SWAP2 CALLVALUE PUSH2 0x77C JUMPI PUSH1 0x20 CALLDATASIZE PUSH1 0x3 NOT ADD SLT PUSH2 0x77C JUMPI DUP2 CALLDATALOAD PUSH1 0x3 SLOAD DUP2 LT ISZERO PUSH2 0x28D JUMPI PUSH2 0x9C5 SWAP1 PUSH2 0x1458 JUMP JUMPDEST SWAP3 SWAP1 SWAP3 PUSH2 0x9F7 JUMPI DUP4 MLOAD PUSH2 0x9F3 SWAP1 DUP6 PUSH2 0x9E1 DUP3 PUSH2 0x6B6 DUP2 DUP10 PUSH2 0x14DF JUMP JUMPDEST MLOAD SWAP2 DUP3 SWAP2 PUSH1 0x20 DUP4 MSTORE PUSH1 0x20 DUP4 ADD SWAP1 PUSH2 0x1433 JUMP JUMPDEST SUB SWAP1 RETURN JUMPDEST PUSH4 0x4E487B71 PUSH1 0xE0 SHL DUP3 MSTORE DUP2 SWAP1 MSTORE PUSH1 0x24 SWAP1 REVERT JUMPDEST POP POP SWAP1 CALLVALUE PUSH2 0x59D JUMPI DUP3 PUSH1 0x3 NOT CALLDATASIZE ADD SLT PUSH2 0x59D JUMPI SLOAD SWAP1 MLOAD PUSH1 0x1 PUSH1 0x1 PUSH1 0xA0 SHL SUB SWAP1 SWAP2 AND DUP2 MSTORE PUSH1 0x20 SWAP2 POP RETURN JUMPDEST DUP5 DUP4 CALLVALUE PUSH2 0x28D JUMPI DUP2 PUSH1 0x3 NOT CALLDATASIZE ADD SLT PUSH2 0x28D JUMPI PUSH1 0x20 SWAP1 PUSH1 0x6 SLOAD SWAP1 MLOAD SWAP1 DUP2 MSTORE RETURN JUMPDEST POP POP SWAP1 CALLVALUE PUSH2 0x59D JUMPI PUSH1 0x20 CALLDATASIZE PUSH1 0x3 NOT ADD SLT PUSH2 0x59D JUMPI DUP1 CALLDATALOAD PUSH1 0x1 PUSH1 0x1 PUSH1 0xA0 SHL SUB DUP2 DUP2 AND SWAP3 SWAP2 DUP4 SWAP1 SUB PUSH2 0x266 JUMPI PUSH2 0xA88 SWAP2 SLOAD AND CALLER EQ PUSH2 0x1598 JUMP JUMPDEST DUP3 MSTORE PUSH1 0x2 PUSH1 0x20 MSTORE DUP2 KECCAK256 DUP1 SLOAD PUSH1 0xFF NOT AND SWAP1 SSTORE DUP1 RETURN JUMPDEST POP POP DUP3 CALLVALUE PUSH2 0x77C JUMPI PUSH1 0x20 CALLDATASIZE PUSH1 0x3 NOT ADD SLT PUSH2 0x77C JUMPI DUP3 CALLDATALOAD SWAP1 PUSH1 0x1 PUSH1 0x1 PUSH1 0x40 SHL SUB DUP3 GT PUSH2 0x77C JUMPI POP PUSH1 0x20 PUSH2 0xAD5 DUP2 SWAP5 PUSH2 0xAE7 SWAP4 CALLDATASIZE SWAP2 ADD PUSH2 0x13B5 JUMP JUMPDEST DUP2 DUP5 MLOAD SWAP4 DUP3 DUP6 DUP1 SWAP5 MLOAD SWAP4 DUP5 SWAP3 ADD PUSH2 0x1410 JUMP JUMPDEST DUP2 ADD PUSH1 0x1 DUP2 MSTORE SUB ADD SWAP1 KECCAK256 SLOAD SWAP1 MLOAD SWAP1 DUP2 MSTORE RETURN JUMPDEST POP POP SWAP1 CALLVALUE PUSH2 0x59D JUMPI PUSH1 0x20 SWAP1 DUP2 PUSH1 0x3 NOT CALLDATASIZE ADD SLT PUSH2 0x26A JUMPI DUP1 CALLDATALOAD PUSH1 0x1 PUSH1 0x1 PUSH1 0x40 SHL SUB DUP2 GT PUSH2 0x266 JUMPI PUSH2 0xB2C SWAP1 CALLDATASIZE SWAP1 DUP4 ADD PUSH2 0x13B5 JUMP JUMPDEST PUSH2 0xB6B DUP4 DUP6 MLOAD PUSH2 0xB5B PUSH2 0x7FE DUP6 MLOAD SWAP3 DUP5 DUP2 DUP2 DUP10 ADD SWAP6 PUSH2 0xB4C DUP2 DUP4 DUP10 PUSH2 0x1410 JUMP JUMPDEST DUP2 ADD DUP14 DUP2 MSTORE SUB ADD SWAP1 KECCAK256 SLOAD PUSH2 0x14A5 JUMP JUMPDEST DUP7 MLOAD DUP1 SWAP4 DUP2 SWAP3 DUP7 MLOAD SWAP3 DUP4 SWAP2 PUSH2 0x1410 JUMP JUMPDEST DUP2 ADD DUP9 DUP2 MSTORE SUB ADD SWAP1 KECCAK256 SWAP2 PUSH1 0x6 DUP4 ADD SWAP1 PUSH1 0xFF DUP3 SLOAD AND PUSH1 0x5 DUP2 LT ISZERO PUSH2 0xCC4 JUMPI PUSH1 0x1 SUB PUSH2 0xC89 JUMPI PUSH1 0x7 DUP5 ADD SLOAD TIMESTAMP LT PUSH2 0xC46 JUMPI SWAP2 PUSH2 0xBF9 PUSH2 0x8A3 SWAP3 DUP6 SWAP5 PUSH32 0xCE3281D5D90EBCDE67AD5CE7E7A3E962EFB181F365D3EE7121394A22A983ED6B SWAP8 SWAP7 ADD SWAP1 PUSH1 0x3 DUP3 SLOAD SWAP7 ADD SWAP6 PUSH2 0xBDC PUSH2 0x8D6 DUP9 PUSH2 0x17CB JUMP JUMPDEST SWAP1 SSTORE PUSH1 0x2 PUSH1 0xFF NOT DUP3 SLOAD AND OR SWAP1 SSTORE SLOAD PUSH2 0x2710 PUSH2 0x896 PUSH1 0x6 SLOAD DUP4 PUSH2 0x18B0 JUMP JUMPDEST SWAP3 PUSH32 0xC82E29BA0155114B2B45EC9183AB7909B7FD0D6676808752E363DBD9B9D0583D PUSH2 0xC39 PUSH2 0xC27 DUP5 PUSH2 0x1743 JUMP JUMPDEST SWAP3 DUP10 MLOAD SWAP2 DUP3 SWAP2 DUP12 DUP4 MSTORE DUP12 DUP4 ADD SWAP1 PUSH2 0x14DF JUMP JUMPDEST DUP8 DUP10 DUP4 ADD MSTORE SUB SWAP1 LOG2 PUSH2 0x1743 JUMP JUMPDEST DUP6 MLOAD PUSH3 0x461BCD PUSH1 0xE5 SHL DUP2 MSTORE SWAP1 DUP2 ADD DUP6 SWAP1 MSTORE PUSH1 0x1B PUSH1 0x24 DUP3 ADD MSTORE PUSH32 0x457363726F7720706572696F64206E6F742079657420656E6465640000000000 PUSH1 0x44 DUP3 ADD MSTORE PUSH1 0x64 SWAP1 REVERT JUMPDEST DUP6 MLOAD PUSH3 0x461BCD PUSH1 0xE5 SHL DUP2 MSTORE SWAP1 DUP2 ADD DUP6 SWAP1 MSTORE PUSH1 0x15 PUSH1 0x24 DUP3 ADD MSTORE PUSH21 0x5061796D656E74206E6F7420696E20657363726F77 PUSH1 0x58 SHL PUSH1 0x44 DUP3 ADD MSTORE PUSH1 0x64 SWAP1 REVERT JUMPDEST PUSH4 0x4E487B71 PUSH1 0xE0 SHL DUP9 MSTORE PUSH1 0x21 DUP3 MSTORE PUSH1 0x24 DUP9 REVERT JUMPDEST DUP3 DUP6 DUP6 CALLVALUE PUSH2 0x28D JUMPI DUP2 PUSH1 0x3 NOT CALLDATASIZE ADD SLT PUSH2 0x28D JUMPI PUSH1 0x3 SLOAD SWAP1 PUSH1 0x1 PUSH1 0x1 PUSH1 0x40 SHL SUB DUP3 GT PUSH2 0xDCD JUMPI POP DUP3 MLOAD SWAP2 PUSH1 0x20 SWAP3 PUSH2 0xD12 DUP5 DUP5 PUSH1 0x5 SHL ADD DUP3 PUSH2 0x1394 JUMP JUMPDEST DUP3 DUP2 MSTORE PUSH1 0x3 DUP3 MSTORE DUP4 DUP2 ADD SWAP3 DUP3 PUSH32 0xC2575A0E9E593C00F959F8C92F12DB2869C3395A3B0502D05E2516446F71F85B DUP6 JUMPDEST DUP4 DUP4 LT PUSH2 0xDA2 JUMPI POP POP POP POP DUP5 MLOAD SWAP4 DUP1 DUP6 ADD SWAP2 DUP2 DUP7 MSTORE MLOAD DUP1 SWAP3 MSTORE DUP6 DUP6 ADD SWAP6 DUP3 PUSH1 0x5 SHL DUP7 ADD ADD SWAP4 SWAP3 SWAP6 JUMPDEST DUP3 DUP8 LT PUSH2 0xD76 JUMPI DUP6 DUP6 SUB DUP7 RETURN JUMPDEST SWAP1 SWAP2 SWAP3 SWAP4 DUP3 DUP1 PUSH2 0xD92 PUSH1 0x1 SWAP4 PUSH1 0x3F NOT DUP11 DUP3 SUB ADD DUP7 MSTORE DUP9 MLOAD PUSH2 0x1433 JUMP JUMPDEST SWAP7 ADD SWAP3 ADD SWAP7 ADD SWAP6 SWAP3 SWAP2 SWAP1 SWAP3 PUSH2 0xD69 JUMP JUMPDEST PUSH1 0x1 DUP9 DUP2 SWAP3 DUP12 SWAP11 SWAP8 SWAP9 SWAP11 MLOAD PUSH2 0xDBB DUP2 PUSH2 0x664 DUP2 DUP10 PUSH2 0x14DF JUMP JUMPDEST DUP2 MSTORE ADD SWAP3 ADD SWAP3 ADD SWAP2 SWAP1 SWAP7 SWAP5 SWAP4 SWAP7 PUSH2 0xD41 JUMP JUMPDEST PUSH4 0x4E487B71 PUSH1 0xE0 SHL DUP4 MSTORE PUSH1 0x41 SWAP1 MSTORE PUSH1 0x24 DUP3 REVERT JUMPDEST POP POP SWAP1 CALLVALUE PUSH2 0x59D JUMPI PUSH1 0x20 SWAP1 DUP2 PUSH1 0x3 NOT CALLDATASIZE ADD SLT PUSH2 0x26A JUMPI DUP1 CALLDATALOAD PUSH1 0x1 PUSH1 0x1 PUSH1 0x40 SHL SUB DUP2 GT PUSH2 0x266 JUMPI PUSH2 0xE13 SWAP1 CALLDATASIZE SWAP1 DUP4 ADD PUSH2 0x13B5 JUMP JUMPDEST SWAP1 CALLER DUP6 MSTORE PUSH1 0x2 DUP4 MSTORE PUSH1 0xFF DUP5 DUP7 KECCAK256 SLOAD AND DUP1 ISZERO PUSH2 0xF41 JUMPI JUMPDEST PUSH2 0xE32 SWAP1 PUSH2 0x15F7 JUMP JUMPDEST PUSH2 0xE62 DUP4 DUP6 MLOAD PUSH2 0xE52 PUSH2 0x7FE DUP7 MLOAD SWAP3 DUP5 DUP2 DUP2 DUP11 ADD SWAP6 PUSH2 0xB4C DUP2 DUP4 DUP10 PUSH2 0x1410 JUMP JUMPDEST DUP7 MLOAD DUP1 SWAP4 DUP2 SWAP3 DUP8 MLOAD SWAP3 DUP4 SWAP2 PUSH2 0x1410 JUMP JUMPDEST DUP2 ADD DUP9 DUP2 MSTORE SUB ADD SWAP1 KECCAK256 PUSH1 0x6 DUP2 ADD DUP1 SLOAD PUSH1 0xFF DUP2 AND PUSH1 0x5 DUP2 LT ISZERO PUSH2 0xF2E JUMPI PUSH2 0xEEB JUMPI SWAP2 PUSH31 0xF58A264CC8FA10818564C95D1F2C8897831497A5ACB8694295E64327B9D204 SWAP6 SWAP5 SWAP4 SWAP2 PUSH1 0x1 PUSH2 0x8A3 SWAP5 PUSH1 0xFF NOT AND OR SWAP1 SSTORE PUSH2 0xEE2 PUSH2 0xEDA PUSH1 0x3 PUSH2 0xEC8 PUSH1 0x7 SLOAD TIMESTAMP PUSH2 0x17A8 JUMP JUMPDEST SWAP5 PUSH1 0x7 DUP6 ADD SWAP6 DUP7 SSTORE DUP5 ADD SLOAD SWAP4 ADD PUSH2 0x17CB JUMP JUMPDEST SWAP2 DUP3 SLOAD PUSH2 0x17A8 JUMP JUMPDEST SWAP1 SSTORE SLOAD SWAP2 PUSH2 0x1743 JUMP JUMPDEST DUP7 MLOAD PUSH3 0x461BCD PUSH1 0xE5 SHL DUP2 MSTORE DUP1 DUP6 ADD DUP8 SWAP1 MSTORE PUSH1 0x1D PUSH1 0x24 DUP3 ADD MSTORE PUSH32 0x5061796D656E74206E6F7420696E2070656E64696E6720737461747573000000 PUSH1 0x44 DUP3 ADD MSTORE PUSH1 0x64 SWAP1 REVERT JUMPDEST PUSH4 0x4E487B71 PUSH1 0xE0 SHL DUP10 MSTORE PUSH1 0x21 DUP6 MSTORE PUSH1 0x24 DUP10 REVERT JUMPDEST POP DUP1 SLOAD PUSH1 0x1 PUSH1 0x1 PUSH1 0xA0 SHL SUB AND CALLER EQ PUSH2 0xE29 JUMP JUMPDEST DUP4 DUP6 DUP5 CALLVALUE PUSH2 0x28D JUMPI PUSH1 0x20 DUP1 PUSH1 0x3 NOT CALLDATASIZE ADD SLT PUSH2 0x59D JUMPI DUP4 CALLDATALOAD PUSH1 0x1 PUSH1 0x1 PUSH1 0x40 SHL SUB DUP2 GT PUSH2 0x26A JUMPI PUSH2 0xF86 SWAP1 CALLDATASIZE SWAP1 DUP7 ADD PUSH2 0x13B5 JUMP JUMPDEST CALLER DUP5 MSTORE PUSH1 0x2 DUP3 MSTORE PUSH1 0xFF DUP4 DUP6 KECCAK256 SLOAD AND DUP1 ISZERO PUSH2 0x10A0 JUMPI JUMPDEST PUSH2 0xFA4 SWAP1 PUSH2 0x15F7 JUMP JUMPDEST PUSH2 0xFC4 DUP3 DUP5 MLOAD PUSH2 0x805 PUSH2 0x7FE DUP6 MLOAD SWAP3 DUP5 DUP2 DUP2 DUP10 ADD SWAP6 PUSH2 0x7EF DUP2 DUP4 DUP10 PUSH2 0x1410 JUMP JUMPDEST DUP2 ADD DUP8 DUP2 MSTORE SUB ADD SWAP1 KECCAK256 PUSH1 0x6 DUP2 ADD PUSH1 0xFF DUP2 SLOAD AND PUSH1 0x5 DUP2 LT ISZERO DUP1 PUSH2 0x947 JUMPI DUP2 ISZERO DUP1 ISZERO PUSH2 0x1094 JUMPI JUMPDEST ISZERO PUSH2 0x1051 JUMPI PUSH2 0x8E5 JUMPI SWAP2 PUSH32 0xEE7DABA6A0FF4FDB4EAA2FF504E0A3E47C693428F603620ACA8E11AB7AB0332 SWAP6 SWAP7 SWAP8 SWAP2 PUSH1 0x1 PUSH2 0x8A3 SWAP5 EQ PUSH2 0x1037 JUMPI JUMPDEST DUP1 SLOAD PUSH1 0xFF NOT AND PUSH1 0x3 OR SWAP1 SSTORE ADD SLOAD SWAP2 PUSH2 0x1743 JUMP JUMPDEST PUSH1 0x3 DUP3 ADD PUSH2 0x104A PUSH2 0x8D6 PUSH2 0x8BF DUP4 PUSH2 0x17CB JUMP JUMPDEST SWAP1 SSTORE PUSH2 0x1024 JUMP JUMPDEST DUP7 MLOAD PUSH3 0x461BCD PUSH1 0xE5 SHL DUP2 MSTORE DUP1 DUP11 ADD DUP8 SWAP1 MSTORE PUSH1 0x1A PUSH1 0x24 DUP3 ADD MSTORE PUSH32 0x5061796D656E742063616E6E6F7420626520726566756E646564000000000000 PUSH1 0x44 DUP3 ADD MSTORE PUSH1 0x64 SWAP1 REVERT JUMPDEST POP POP DUP7 PUSH1 0x1 DUP3 EQ PUSH2 0xFE9 JUMP JUMPDEST POP DUP5 SLOAD PUSH1 0x1 PUSH1 0x1 PUSH1 0xA0 SHL SUB AND CALLER EQ PUSH2 0xF9B JUMP JUMPDEST DUP3 DUP6 DUP6 CALLVALUE PUSH2 0x28D JUMPI PUSH1 0x20 DUP1 PUSH1 0x3 NOT CALLDATASIZE ADD SLT PUSH2 0x59D JUMPI DUP2 CALLDATALOAD PUSH1 0x1 PUSH1 0x1 PUSH1 0x40 SHL SUB DUP2 GT PUSH2 0x26A JUMPI PUSH2 0x10E5 SWAP1 CALLDATASIZE SWAP1 DUP5 ADD PUSH2 0x13B5 JUMP JUMPDEST SWAP2 CALLER DUP5 MSTORE PUSH1 0x2 DUP3 MSTORE PUSH1 0xFF DUP6 DUP6 KECCAK256 SLOAD AND DUP1 ISZERO PUSH2 0x11F6 JUMPI JUMPDEST PUSH2 0x1104 SWAP1 PUSH2 0x15F7 JUMP JUMPDEST PUSH1 0x6 PUSH2 0x1136 DUP4 DUP8 MLOAD PUSH2 0x1126 PUSH2 0x7FE DUP9 MLOAD SWAP3 DUP5 DUP2 DUP2 DUP13 ADD SWAP6 PUSH2 0xB4C DUP2 DUP4 DUP10 PUSH2 0x1410 JUMP JUMPDEST DUP9 MLOAD DUP1 SWAP4 DUP2 SWAP3 DUP10 MLOAD SWAP3 DUP4 SWAP2 PUSH2 0x1410 JUMP JUMPDEST DUP2 ADD DUP9 DUP2 MSTORE SUB ADD SWAP1 KECCAK256 ADD SWAP2 DUP3 SLOAD SWAP1 PUSH1 0xFF DUP3 AND PUSH1 0x5 DUP2 LT ISZERO PUSH2 0x11E3 JUMPI PUSH1 0x1 SUB PUSH2 0x1192 JUMPI POP PUSH2 0x116B SWAP5 SWAP6 POP PUSH1 0xFF NOT AND OR SWAP1 SSTORE PUSH2 0x1743 JUMP JUMPDEST PUSH32 0x91C26A99A0A4D117C4D67F42C08C4C42D13094FBEF4B6A53A9DD88E5C2256386 DUP3 DUP1 LOG2 DUP1 RETURN JUMPDEST DUP3 PUSH1 0x84 SWAP2 DUP9 MLOAD SWAP2 PUSH3 0x461BCD PUSH1 0xE5 SHL DUP4 MSTORE DUP3 ADD MSTORE PUSH1 0x26 PUSH1 0x24 DUP3 ADD MSTORE PUSH32 0x4F6E6C7920657363726F776564207061796D656E74732063616E206265206469 PUSH1 0x44 DUP3 ADD MSTORE PUSH6 0x1CDC1D5D1959 PUSH1 0xD2 SHL PUSH1 0x64 DUP3 ADD MSTORE REVERT JUMPDEST PUSH4 0x4E487B71 PUSH1 0xE0 SHL DUP8 MSTORE PUSH1 0x21 DUP5 MSTORE PUSH1 0x24 DUP8 REVERT JUMPDEST POP DUP1 SLOAD PUSH1 0x1 PUSH1 0x1 PUSH1 0xA0 SHL SUB AND CALLER EQ PUSH2 0x10FB JUMP JUMPDEST POP POP SWAP1 CALLVALUE PUSH2 0x59D JUMPI PUSH1 0x20 CALLDATASIZE PUSH1 0x3 NOT ADD SLT PUSH2 0x59D JUMPI CALLDATALOAD PUSH1 0x1 PUSH1 0x1 PUSH1 0xA0 SHL SUB DUP2 AND SWAP1 DUP2 SWAP1 SUB PUSH2 0x59D JUMPI DUP2 DUP4 PUSH1 0xFF SWAP3 PUSH1 0x20 SWAP6 MSTORE PUSH1 0x2 DUP6 MSTORE KECCAK256 SLOAD AND SWAP1 MLOAD SWAP1 ISZERO ISZERO DUP2 MSTORE RETURN JUMPDEST POP POP SWAP1 CALLVALUE PUSH2 0x59D JUMPI PUSH1 0x20 CALLDATASIZE PUSH1 0x3 NOT ADD SLT PUSH2 0x59D JUMPI DUP1 CALLDATALOAD PUSH1 0x1 PUSH1 0x1 PUSH1 0xA0 SHL SUB DUP2 DUP2 AND SWAP3 SWAP2 DUP4 SWAP1 SUB PUSH2 0x266 JUMPI PUSH2 0x1280 SWAP2 SLOAD AND CALLER EQ PUSH2 0x1598 JUMP JUMPDEST DUP3 MSTORE PUSH1 0x2 PUSH1 0x20 MSTORE DUP2 KECCAK256 DUP1 SLOAD PUSH1 0xFF NOT AND PUSH1 0x1 OR SWAP1 SSTORE DUP1 RETURN JUMPDEST DUP5 DUP4 CALLVALUE PUSH2 0x28D JUMPI DUP2 PUSH1 0x3 NOT CALLDATASIZE ADD SLT PUSH2 0x28D JUMPI PUSH1 0x60 SWAP1 PUSH1 0x5 SLOAD SWAP1 PUSH1 0x6 SLOAD SWAP1 PUSH1 0x7 SLOAD SWAP2 DUP2 MLOAD SWAP4 DUP5 MSTORE PUSH1 0x20 DUP5 ADD MSTORE DUP3 ADD MSTORE RETURN JUMPDEST POP POP SWAP1 CALLVALUE PUSH2 0x59D JUMPI PUSH1 0x20 CALLDATASIZE PUSH1 0x3 NOT ADD SLT PUSH2 0x59D JUMPI DUP1 CALLDATALOAD SWAP2 PUSH2 0x12F2 PUSH1 0x1 DUP1 PUSH1 0xA0 SHL SUB DUP4 SLOAD AND CALLER EQ PUSH2 0x1598 JUMP JUMPDEST PUSH2 0x3E8 DUP4 GT PUSH2 0x1303 JUMPI POP POP PUSH1 0x6 SSTORE DUP1 RETURN JUMPDEST SWAP1 PUSH1 0x20 PUSH1 0x64 SWAP3 MLOAD SWAP2 PUSH3 0x461BCD PUSH1 0xE5 SHL DUP4 MSTORE DUP3 ADD MSTORE PUSH1 0x1E PUSH1 0x24 DUP3 ADD MSTORE PUSH32 0x506C6174666F726D206665652063616E6E6F7420657863656564203130250000 PUSH1 0x44 DUP3 ADD MSTORE REVERT JUMPDEST DUP6 SWAP1 CALLVALUE PUSH2 0x28D JUMPI DUP2 PUSH1 0x3 NOT CALLDATASIZE ADD SLT PUSH2 0x28D JUMPI PUSH1 0x20 SWAP1 PUSH1 0x5 SLOAD DUP2 MSTORE RETURN JUMPDEST PUSH2 0x100 DUP2 ADD SWAP1 DUP2 LT PUSH1 0x1 PUSH1 0x1 PUSH1 0x40 SHL SUB DUP3 GT OR PUSH2 0x137E JUMPI PUSH1 0x40 MSTORE JUMP JUMPDEST PUSH4 0x4E487B71 PUSH1 0xE0 SHL PUSH1 0x0 MSTORE PUSH1 0x41 PUSH1 0x4 MSTORE PUSH1 0x24 PUSH1 0x0 REVERT JUMPDEST SWAP1 PUSH1 0x1F DUP1 NOT SWAP2 ADD AND DUP2 ADD SWAP1 DUP2 LT PUSH1 0x1 PUSH1 0x1 PUSH1 0x40 SHL SUB DUP3 GT OR PUSH2 0x137E JUMPI PUSH1 0x40 MSTORE JUMP JUMPDEST DUP2 PUSH1 0x1F DUP3 ADD SLT ISZERO PUSH2 0x140B JUMPI DUP1 CALLDATALOAD SWAP1 PUSH1 0x1 PUSH1 0x1 PUSH1 0x40 SHL SUB DUP3 GT PUSH2 0x137E JUMPI PUSH1 0x40 MLOAD SWAP3 PUSH2 0x13E9 PUSH1 0x1F DUP5 ADD PUSH1 0x1F NOT AND PUSH1 0x20 ADD DUP6 PUSH2 0x1394 JUMP JUMPDEST DUP3 DUP5 MSTORE PUSH1 0x20 DUP4 DUP4 ADD ADD GT PUSH2 0x140B JUMPI DUP2 PUSH1 0x0 SWAP3 PUSH1 0x20 DUP1 SWAP4 ADD DUP4 DUP7 ADD CALLDATACOPY DUP4 ADD ADD MSTORE SWAP1 JUMP JUMPDEST PUSH1 0x0 DUP1 REVERT JUMPDEST PUSH1 0x0 JUMPDEST DUP4 DUP2 LT PUSH2 0x1423 JUMPI POP POP PUSH1 0x0 SWAP2 ADD MSTORE JUMP JUMPDEST DUP2 DUP2 ADD MLOAD DUP4 DUP3 ADD MSTORE PUSH1 0x20 ADD PUSH2 0x1413 JUMP JUMPDEST SWAP1 PUSH1 0x20 SWAP2 PUSH2 0x144C DUP2 MLOAD DUP1 SWAP3 DUP2 DUP6 MSTORE DUP6 DUP1 DUP7 ADD SWAP2 ADD PUSH2 0x1410 JUMP JUMPDEST PUSH1 0x1F ADD PUSH1 0x1F NOT AND ADD ADD SWAP1 JUMP JUMPDEST PUSH1 0x3 SLOAD DUP2 LT ISZERO PUSH2 0x148F JUMPI PUSH1 0x3 PUSH1 0x0 MSTORE PUSH32 0xC2575A0E9E593C00F959F8C92F12DB2869C3395A3B0502D05E2516446F71F85B ADD SWAP1 PUSH1 0x0 SWAP1 JUMP JUMPDEST PUSH4 0x4E487B71 PUSH1 0xE0 SHL PUSH1 0x0 MSTORE PUSH1 0x32 PUSH1 0x4 MSTORE PUSH1 0x24 PUSH1 0x0 REVERT JUMPDEST SWAP1 PUSH1 0x1 DUP3 DUP2 SHR SWAP3 AND DUP1 ISZERO PUSH2 0x14D5 JUMPI JUMPDEST PUSH1 0x20 DUP4 LT EQ PUSH2 0x14BF JUMPI JUMP JUMPDEST PUSH4 0x4E487B71 PUSH1 0xE0 SHL PUSH1 0x0 MSTORE PUSH1 0x22 PUSH1 0x4 MSTORE PUSH1 0x24 PUSH1 0x0 REVERT JUMPDEST SWAP2 PUSH1 0x7F AND SWAP2 PUSH2 0x14B4 JUMP JUMPDEST SWAP1 PUSH1 0x0 SWAP3 SWAP2 DUP1 SLOAD SWAP2 PUSH2 0x14F0 DUP4 PUSH2 0x14A5 JUMP JUMPDEST SWAP2 DUP3 DUP3 MSTORE PUSH1 0x1 SWAP4 DUP5 DUP2 AND SWAP1 DUP2 PUSH1 0x0 EQ PUSH2 0x1552 JUMPI POP PUSH1 0x1 EQ PUSH2 0x1512 JUMPI JUMPDEST POP POP POP POP JUMP JUMPDEST SWAP1 SWAP2 SWAP4 SWAP5 POP PUSH1 0x0 MSTORE PUSH1 0x20 SWAP3 DUP4 PUSH1 0x0 KECCAK256 SWAP3 DUP5 PUSH1 0x0 SWAP5 JUMPDEST DUP4 DUP7 LT PUSH2 0x153E JUMPI POP POP POP POP ADD ADD SWAP1 CODESIZE DUP1 DUP1 DUP1 PUSH2 0x150C JUMP JUMPDEST DUP1 SLOAD DUP6 DUP8 ADD DUP4 ADD MSTORE SWAP5 ADD SWAP4 DUP6 SWAP1 DUP3 ADD PUSH2 0x1527 JUMP JUMPDEST SWAP3 SWAP5 POP POP POP PUSH1 0x20 SWAP4 SWAP5 POP PUSH1 0xFF NOT AND DUP4 DUP4 ADD MSTORE ISZERO ISZERO PUSH1 0x5 SHL ADD ADD SWAP1 CODESIZE DUP1 DUP1 DUP1 PUSH2 0x150C JUMP JUMPDEST SWAP1 PUSH1 0x5 DUP3 LT ISZERO PUSH2 0x1582 JUMPI MSTORE JUMP JUMPDEST PUSH4 0x4E487B71 PUSH1 0xE0 SHL PUSH1 0x0 MSTORE PUSH1 0x21 PUSH1 0x4 MSTORE PUSH1 0x24 PUSH1 0x0 REVERT JUMPDEST ISZERO PUSH2 0x159F JUMPI JUMP JUMPDEST PUSH1 0x40 MLOAD PUSH3 0x461BCD PUSH1 0xE5 SHL DUP2 MSTORE PUSH1 0x20 PUSH1 0x4 DUP3 ADD MSTORE PUSH1 0x2A PUSH1 0x24 DUP3 ADD MSTORE PUSH32 0x4F6E6C7920636F6E7472616374206F776E65722063616E2063616C6C20746869 PUSH1 0x44 DUP3 ADD MSTORE PUSH10 0x3990333AB731BA34B7B7 PUSH1 0xB1 SHL PUSH1 0x64 DUP3 ADD MSTORE PUSH1 0x84 SWAP1 REVERT JUMPDEST ISZERO PUSH2 0x15FE JUMPI JUMP JUMPDEST PUSH1 0x40 MLOAD PUSH3 0x461BCD PUSH1 0xE5 SHL DUP2 MSTORE PUSH1 0x20 PUSH1 0x4 DUP3 ADD MSTORE PUSH1 0xE PUSH1 0x24 DUP3 ADD MSTORE PUSH14 0x139BDD08185D5D1A1BDC9A5E9959 PUSH1 0x92 SHL PUSH1 0x44 DUP3 ADD MSTORE PUSH1 0x64 SWAP1 REVERT JUMPDEST SWAP2 SWAP1 SWAP2 DUP3 MLOAD PUSH1 0x1 PUSH1 0x1 PUSH1 0x40 SHL SUB DUP2 GT PUSH2 0x137E JUMPI PUSH2 0x1651 DUP3 SLOAD PUSH2 0x14A5 JUMP JUMPDEST PUSH1 0x1F DUP2 GT PUSH2 0x16FB JUMPI JUMPDEST POP PUSH1 0x20 DUP1 PUSH1 0x1F DUP4 GT PUSH1 0x1 EQ PUSH2 0x1697 JUMPI POP DUP2 SWAP3 SWAP4 SWAP5 PUSH1 0x0 SWAP3 PUSH2 0x168C JUMPI JUMPDEST POP POP DUP2 PUSH1 0x1 SHL SWAP2 PUSH1 0x0 NOT SWAP1 PUSH1 0x3 SHL SHR NOT AND OR SWAP1 SSTORE JUMP JUMPDEST ADD MLOAD SWAP1 POP CODESIZE DUP1 PUSH2 0x1676 JUMP JUMPDEST SWAP1 PUSH1 0x1F NOT DUP4 AND SWAP6 DUP5 PUSH1 0x0 MSTORE DUP3 PUSH1 0x0 KECCAK256 SWAP3 PUSH1 0x0 SWAP1 JUMPDEST DUP9 DUP3 LT PUSH2 0x16E3 JUMPI POP POP DUP4 PUSH1 0x1 SWAP6 SWAP7 SWAP8 LT PUSH2 0x16CA JUMPI JUMPDEST POP POP POP DUP2 SHL ADD SWAP1 SSTORE JUMP JUMPDEST ADD MLOAD PUSH1 0x0 NOT PUSH1 0xF8 DUP5 PUSH1 0x3 SHL AND SHR NOT AND SWAP1 SSTORE CODESIZE DUP1 DUP1 PUSH2 0x16C0 JUMP JUMPDEST DUP1 PUSH1 0x1 DUP6 SWAP7 DUP3 SWAP5 SWAP7 DUP7 ADD MLOAD DUP2 SSTORE ADD SWAP6 ADD SWAP4 ADD SWAP1 PUSH2 0x16AB JUMP JUMPDEST PUSH1 0x0 DUP4 DUP2 MSTORE PUSH1 0x20 DUP2 KECCAK256 PUSH1 0x1F DUP5 ADD PUSH1 0x5 SHR DUP2 ADD SWAP3 PUSH1 0x20 DUP6 LT PUSH2 0x1739 JUMPI JUMPDEST PUSH1 0x1F ADD PUSH1 0x5 SHR ADD SWAP2 JUMPDEST DUP3 DUP2 LT PUSH2 0x172E JUMPI POP POP PUSH2 0x165A JUMP JUMPDEST DUP2 DUP2 SSTORE PUSH1 0x1 ADD PUSH2 0x1720 JUMP JUMPDEST SWAP1 SWAP3 POP DUP3 SWAP1 PUSH2 0x1717 JUMP JUMPDEST PUSH2 0x175B SWAP1 PUSH1 0x20 PUSH1 0x40 MLOAD SWAP3 DUP3 DUP5 DUP1 SWAP5 MLOAD SWAP4 DUP5 SWAP3 ADD PUSH2 0x1410 JUMP JUMPDEST DUP2 ADD SUB SWAP1 KECCAK256 SWAP1 JUMP JUMPDEST ISZERO PUSH2 0x176A JUMPI JUMP JUMPDEST PUSH1 0x40 MLOAD PUSH3 0x461BCD PUSH1 0xE5 SHL DUP2 MSTORE PUSH1 0x20 PUSH1 0x4 DUP3 ADD MSTORE PUSH1 0x16 PUSH1 0x24 DUP3 ADD MSTORE PUSH22 0x14185E5B595B9D08191BD95CC81B9BDD08195E1A5CDD PUSH1 0x52 SHL PUSH1 0x44 DUP3 ADD MSTORE PUSH1 0x64 SWAP1 REVERT JUMPDEST SWAP2 SWAP1 DUP3 ADD DUP1 SWAP3 GT PUSH2 0x17B5 JUMPI JUMP JUMPDEST PUSH4 0x4E487B71 PUSH1 0xE0 SHL PUSH1 0x0 MSTORE PUSH1 0x11 PUSH1 0x4 MSTORE PUSH1 0x24 PUSH1 0x0 REVERT JUMPDEST PUSH1 0x40 MLOAD SWAP1 DUP2 PUSH1 0x0 DUP3 SLOAD SWAP3 PUSH2 0x17DE DUP5 PUSH2 0x14A5 JUMP JUMPDEST SWAP1 PUSH1 0x1 SWAP5 DUP6 DUP2 AND SWAP1 DUP2 PUSH1 0x0 EQ PUSH2 0x183F JUMPI POP PUSH1 0x1 EQ PUSH2 0x1805 JUMPI JUMPDEST POP POP PUSH1 0x20 SWAP3 DUP2 MSTORE SUB ADD SWAP1 KECCAK256 SWAP1 JUMP JUMPDEST PUSH1 0x0 SWAP1 DUP2 MSTORE PUSH1 0x20 DUP1 DUP3 KECCAK256 SWAP6 SWAP4 POP SWAP1 JUMPDEST DUP3 DUP2 LT PUSH2 0x182B JUMPI POP POP PUSH1 0x20 SWAP4 POP DUP3 ADD SWAP1 SWAP3 CODESIZE PUSH2 0x17F7 JUMP JUMPDEST DUP6 SLOAD DUP8 DUP3 ADD MSTORE SWAP5 DUP4 ADD SWAP5 DUP7 SWAP5 POP DUP2 ADD PUSH2 0x1814 JUMP JUMPDEST PUSH1 0xFF NOT AND DUP6 MSTORE POP POP DUP1 ISZERO ISZERO MUL DUP3 ADD SWAP1 POP PUSH1 0x20 CODESIZE PUSH2 0x17F7 JUMP JUMPDEST ISZERO PUSH2 0x185E JUMPI JUMP JUMPDEST PUSH1 0x40 MLOAD PUSH3 0x461BCD PUSH1 0xE5 SHL DUP2 MSTORE PUSH1 0x20 PUSH1 0x4 DUP3 ADD MSTORE PUSH1 0x1B PUSH1 0x24 DUP3 ADD MSTORE PUSH32 0x496E73756666696369656E7420657363726F772062616C616E63650000000000 PUSH1 0x44 DUP3 ADD MSTORE PUSH1 0x64 SWAP1 REVERT JUMPDEST SWAP2 SWAP1 DUP3 SUB SWAP2 DUP3 GT PUSH2 0x17B5 JUMPI JUMP JUMPDEST DUP2 DUP2 MUL SWAP3 SWAP2 DUP2 ISZERO SWAP2 DUP5 DIV EQ OR ISZERO PUSH2 0x17B5 JUMPI JUMP INVALID LOG2 PUSH5 0x6970667358 0x22 SLT KECCAK256 0xD1 SWAP13 DUP4 CALLDATASIZE 0xDF ADDMOD ISZERO 0xC1 0x1F PUSH11 0x227499CA9D129401B6916D PUSH17 0x5EF43A4C4C4045C2146064736F6C634300 ADDMOD EQ STOP CALLER "},"methodIdentifiers":{"addAuthorizedUser(address)":"177d2a74","authorizedUsers(address)":"1828983a","autoReleaseEscrow(string)":"58636460","completePayment(string)":"b6b89528","createPayment(string,string,string,string,uint256)":"debf8e29","disputePayment(string)":"225bc08a","emergencyWithdraw()":"db2e21bc","escrowBalances(string)":"67197023","escrowPayment(string)":"4291d6dc","escrowPeriod()":"f16b51c1","getAllPaymentIds()":"4dd34260","getEscrowBalance(string)":"11b5a16d","getPayment(string)":"c69207a3","getPlatformStats()":"136d8883","owner()":"8da5cb5b","paymentIds(uint256)":"9ba6737c","payments(string)":"f9468713","platformFeePercent()":"8c639a85","refundPayment(string)":"28569d2b","removeAuthorizedUser(address)":"89fabc80","setEscrowPeriod(uint256)":"b46f08bb","setPlatformFee(uint256)":"12e8e2c3","totalPayments()":"005b4487"}}}}}