{"contracts/StockyCarbonCredits.sol":{"StockyCarbonCredits":{"abi":[{"inputs":[],"stateMutability":"nonpayable","type":"constructor"},{"inputs":[{"internalType":"address","name":"sender","type":"address"},{"internalType":"uint256","name":"tokenId","type":"uint256"},{"internalType":"address","name":"owner","type":"address"}],"name":"ERC721IncorrectOwner","type":"error"},{"inputs":[{"internalType":"address","name":"operator","type":"address"},{"internalType":"uint256","name":"tokenId","type":"uint256"}],"name":"ERC721InsufficientApproval","type":"error"},{"inputs":[{"internalType":"address","name":"approver","type":"address"}],"name":"ERC721InvalidApprover","type":"error"},{"inputs":[{"internalType":"address","name":"operator","type":"address"}],"name":"ERC721InvalidOperator","type":"error"},{"inputs":[{"internalType":"address","name":"owner","type":"address"}],"name":"ERC721InvalidOwner","type":"error"},{"inputs":[{"internalType":"address","name":"receiver","type":"address"}],"name":"ERC721InvalidReceiver","type":"error"},{"inputs":[{"internalType":"address","name":"sender","type":"address"}],"name":"ERC721InvalidSender","type":"error"},{"inputs":[{"internalType":"uint256","name":"tokenId","type":"uint256"}],"name":"ERC721NonexistentToken","type":"error"},{"inputs":[{"internalType":"address","name":"owner","type":"address"}],"name":"OwnableInvalidOwner","type":"error"},{"inputs":[{"internalType":"address","name":"account","type":"address"}],"name":"OwnableUnauthorizedAccount","type":"error"},{"anonymous":false,"inputs":[{"indexed":true,"internalType":"address","name":"owner","type":"address"},{"indexed":true,"internalType":"address","name":"approved","type":"address"},{"indexed":true,"internalType":"uint256","name":"tokenId","type":"uint256"}],"name":"Approval","type":"event"},{"anonymous":false,"inputs":[{"indexed":true,"internalType":"address","name":"owner","type":"address"},{"indexed":true,"internalType":"address","name":"operator","type":"address"},{"indexed":false,"internalType":"bool","name":"approved","type":"bool"}],"name":"ApprovalForAll","type":"event"},{"anonymous":false,"inputs":[{"indexed":true,"internalType":"uint256","name":"tokenId","type":"uint256"},{"indexed":true,"internalType":"address","name":"to","type":"address"},{"indexed":false,"internalType":"uint256","name":"amount","type":"uint256"},{"indexed":false,"internalType":"string","name":"projectId","type":"string"},{"indexed":false,"internalType":"string","name":"metadataURI","type":"string"}],"name":"CreditMinted","type":"event"},{"anonymous":false,"inputs":[{"indexed":true,"internalType":"uint256","name":"tokenId","type":"uint256"},{"indexed":true,"internalType":"address","name":"owner","type":"address"},{"indexed":false,"internalType":"uint256","name":"timestamp","type":"uint256"}],"name":"CreditRetired","type":"event"},{"anonymous":false,"inputs":[{"indexed":true,"internalType":"address","name":"previousOwner","type":"address"},{"indexed":true,"internalType":"address","name":"newOwner","type":"address"}],"name":"OwnershipTransferred","type":"event"},{"anonymous":false,"inputs":[{"indexed":true,"internalType":"address","name":"from","type":"address"},{"indexed":true,"internalType":"address","name":"to","type":"address"},{"indexed":true,"internalType":"uint256","name":"tokenId","type":"uint256"}],"name":"Transfer","type":"event"},{"inputs":[],"name":"allTokenIds","outputs":[{"internalType":"uint256[]","name":"","type":"uint256[]"}],"stateMutability":"view","type":"function"},{"inputs":[{"internalType":"address","name":"to","type":"address"},{"internalType":"uint256","name":"tokenId","type":"uint256"}],"name":"approve","outputs":[],"stateMutability":"nonpayable","type":"function"},{"inputs":[{"internalType":"address","name":"owner","type":"address"}],"name":"balanceOf","outputs":[{"internalType":"uint256","name":"","type":"uint256"}],"stateMutability":"view","type":"function"},{"inputs":[{"internalType":"uint256","name":"tokenId","type":"uint256"}],"name":"getApproved","outputs":[{"internalType":"address","name":"","type":"address"}],"stateMutability":"view","type":"function"},{"inputs":[{"internalType":"uint256","name":"tokenId","type":"uint256"}],"name":"getCredit","outputs":[{"internalType":"uint256","name":"amount","type":"uint256"},{"internalType":"string","name":"projectId","type":"string"},{"internalType":"uint256","name":"issuedAt","type":"uint256"},{"internalType":"bool","name":"retired","type":"bool"},{"internalType":"uint256","name":"retiredAt","type":"uint256"},{"internalType":"string","name":"metadataURI","type":"string"}],"stateMutability":"view","type":"function"},{"inputs":[{"internalType":"address","name":"owner","type":"address"},{"internalType":"address","name":"operator","type":"address"}],"name":"isApprovedForAll","outputs":[{"internalType":"bool","name":"","type":"bool"}],"stateMutability":"view","type":"function"},{"inputs":[{"internalType":"address","name":"to","type":"address"},{"internalType":"uint256","name":"amount","type":"uint256"},{"internalType":"string","name":"projectId","type":"string"},{"internalType":"string","name":"metadataURI","type":"string"}],"name":"mintCredit","outputs":[{"internalType":"uint256","name":"tokenId","type":"uint256"}],"stateMutability":"nonpayable","type":"function"},{"inputs":[],"name":"name","outputs":[{"internalType":"string","name":"","type":"string"}],"stateMutability":"view","type":"function"},{"inputs":[],"name":"owner","outputs":[{"internalType":"address","name":"","type":"address"}],"stateMutability":"view","type":"function"},{"inputs":[{"internalType":"uint256","name":"tokenId","type":"uint256"}],"name":"ownerOf","outputs":[{"internalType":"address","name":"","type":"address"}],"stateMutability":"view","type":"function"},{"inputs":[],"name":"renounceOwnership","outputs":[],"stateMutability":"nonpayable","type":"function"},{"inputs":[{"internalType":"uint256","name":"tokenId","type":"uint256"}],"name":"retire","outputs":[],"stateMutability":"nonpayable","type":"function"},{"inputs":[{"internalType":"address","name":"from","type":"address"},{"internalType":"address","name":"to","type":"address"},{"internalType":"uint256","name":"tokenId","type":"uint256"}],"name":"safeTransferFrom","outputs":[],"stateMutability":"nonpayable","type":"function"},{"inputs":[{"internalType":"address","name":"from","type":"address"},{"internalType":"address","name":"to","type":"address"},{"internalType":"uint256","name":"tokenId","type":"uint256"},{"internalType":"bytes","name":"data","type":"bytes"}],"name":"safeTransferFrom","outputs":[],"stateMutability":"nonpayable","type":"function"},{"inputs":[{"internalType":"address","name":"operator","type":"address"},{"internalType":"bool","name":"approved","type":"bool"}],"name":"setApprovalForAll","outputs":[],"stateMutability":"nonpayable","type":"function"},{"inputs":[{"internalType":"bytes4","name":"interfaceId","type":"bytes4"}],"name":"supportsInterface","outputs":[{"internalType":"bool","name":"","type":"bool"}],"stateMutability":"view","type":"function"},{"inputs":[],"name":"symbol","outputs":[{"internalType":"string","name":"","type":"string"}],"stateMutability":"view","type":"function"},{"inputs":[{"internalType":"uint256","name":"tokenId","type":"uint256"}],"name":"tokenURI","outputs":[{"internalType":"string","name":"","type":"string"}],"stateMutability":"view","type":"function"},{"inputs":[],"name":"totalMinted","outputs":[{"internalType":"uint256","name":"","type":"uint256"}],"stateMutability":"view","type":"function"},{"inputs":[{"internalType":"address","name":"from","type":"address"},{"internalType":"address","name":"to","type":"address"},{"internalType":"uint256","name":"tokenId","type":"uint256"}],"name":"transferFrom","outputs":[],"stateMutability":"nonpayable","type":"function"},{"inputs":[{"internalType":"address","name":"newOwner","type":"address"}],"name":"transferOwnership","outputs":[],"stateMutability":"nonpayable","type":"function"}],"evm":{"bytecode":{"linkReferences":{},"object":"60803462000389576001600160401b039060408181018381118382101762000373578152601482526020917f53746f636b7920436172626f6e20437265646974000000000000000000000000838201528151938285018581108282111762000373578352600385526253434360e81b84860152815181811162000373576000948554916001948584811c9416801562000368575b8385101462000354578190601f9485811162000301575b5083908583116001146200029d57899262000291575b5050600019600383901b1c191690851b1786555b86519283116200027d5783548481811c9116801562000272575b828210146200025e5782811162000216575b5080918311600114620001af575084958293949592620001a3575b5050600019600383901b1c191690821b1790555b33156200018b5760068054336001600160a01b03198216811790925591519290916001600160a01b0316907f8be0079c531659141344cd1fd0a4f28419497f9722a3daafe3b4186f6b6457e09080a36118b890816200038f8239f35b51631e4fbdf760e01b81526004810191909152602490fd5b0151905038806200011b565b90601f198316968487528287209287905b898210620001fe575050838596979810620001e4575b505050811b0190556200012f565b015160001960f88460031b161c19169055388080620001d6565b808785968294968601518155019501930190620001c0565b8487528187208380860160051c82019284871062000254575b0160051c019085905b8281106200024857505062000100565b88815501859062000238565b925081926200022f565b634e487b7160e01b87526022600452602487fd5b90607f1690620000ee565b634e487b7160e01b86526041600452602486fd5b015190503880620000c0565b898052848a208894509190601f1984168b5b87828210620002ea5750508411620002d0575b505050811b018655620000d4565b015160001960f88460031b161c19169055388080620002c2565b8385015186558b97909501949384019301620002af565b9091508880528389208580850160051c8201928686106200034a575b918991869594930160051c01915b8281106200033b575050620000aa565b8b81558594508991016200032b565b925081926200031d565b634e487b7160e01b88526022600452602488fd5b93607f169362000093565b634e487b7160e01b600052604160045260246000fd5b600080fdfe608080604052600436101561001357600080fd5b60003560e01c90816301ffc9a7146112645750806306fdde03146111c1578063081812fc14611183578063095ea7b31461109c57806323b872dd146110855780633790cf5714610e9b57806342842e0e14610e6d5780636352211e14610e3d57806370a0823114610de4578063715018a614610d875780638da5cb5b14610d5e57806395d89b4114610c7f578063a22cb46514610bd1578063a2309ff814610bb3578063b88d4fde14610b46578063c87b56dd14610af3578063da304e4d146109d6578063e7619fad14610920578063e985e9c5146108ca578063f2fde38b1461083c5763fe5d816f1461010657600080fd5b346107475760803660031901126107475761011f61130f565b60443567ffffffffffffffff81116107475761013f90369060040161141d565b9160643567ffffffffffffffff81116107475761016090369060040161141d565b9161016961144b565b6001600160a01b0381161561080357602435156107c957600954936001850185116107b357600185016009556040516101a18161138c565b6000808252600187018152600260205260409020546001600160a01b0316801515908161076d575b6001600160a01b0385166000818152600360209081526040808320805460019081019091558c018084526002909252822080546001600160a01b0319168417905592907fddf252ad1be2c89b69c2b068fc378daa952ba7f163c4a11628f55a4df523b3ef9080a461075457823b61060b575b5060405161024881611370565b600186018152602081019060243582526102633689856113e6565b6040820190815242606083015260006080830152600060a08301526102893688886113e6565b60c0830152600188016000526007602052604060002092825184555160018401555180519067ffffffffffffffff8211610470576102ca6002850154611477565b601f81116105c4575b50602090601f83116001146105515760c093929160009183610546575b50508160011b916000199060031b1c19161760028401555b6060810151600384015561033160808201511515600485019060ff801983541691151516179055565b60a08101516005840155015180519067ffffffffffffffff82116104705761035c6006840154611477565b601f81116104ff575b50602090601f8311600114610491576006929160009183610486575b50508160011b916000199060031b1c1916179101555b600854956801000000000000000087101561047057600187018060085587101561045a5761044c7f992f04ff6879e938d29b99899747750ac446ae3933f078654e8e26d884fe5a0a93602098600860005260018901907ff3f7a9fe364faab93b216da50a3214154f22a0a2b415b23a84c8169e8b636ee3015561042e604051948594602435865260608c8701526060860191611861565b83810360408501526001600160a01b03909116966001890196611861565b0390a3600160405191018152f35b634e487b7160e01b600052603260045260246000fd5b634e487b7160e01b600052604160045260246000fd5b015190503880610381565b90601f198316916006850160005260206000209260005b8181106104e7575091600193918560069694106104ce575b505050811b01910155610397565b015160001960f88460031b161c191690553880806104c0565b929360206001819287860151815501950193016104a8565b600684016000526020600020601f840160051c81016020851061053f575b601f830160051c82018110610533575050610365565b6000815560010161051d565b508061051d565b0151905038806102f0565b906002850160005260206000209160005b601f19851681106105ac575091839160019360c09695601f19811610610593575b505050811b016002840155610308565b015160001960f88460031b161c19169055388080610583565b91926020600181928685015181550194019201610562565b600285016000526020600020601f840160051c810160208510610604575b601f830160051c820181106105f85750506102d3565b600081556001016105e2565b50806105e2565b6040969594939296516020818061064e630a85bd0160e11b958683523360048401526000602484015260018b0160448401526080606484015260848301906112cf565b038160006001600160a01b038d165af16000918161070a575b506106cf57873d156106c7573d9061067e826113ca565b9161068c60405193846113a8565b82523d6000602084013e5b815191826106c057604051633250574960e11b81526001600160a01b0383166004820152602490fd5b9050602001fd5b606090610697565b63ffffffff60e09894959697981b16036106e9573861023b565b604051633250574960e11b81526001600160a01b0383166004820152602490fd5b9091506020813d60201161074c575b81610726602093836113a8565b8101031261074757516001600160e01b031981168103610747579038610667565b600080fd5b3d9150610719565b6040516339e3563760e11b815260006004820152602490fd5b61079860018901600052600460205260406000206bffffffffffffffffffffffff60a01b8154169055565b806000526003602052604060002060001981540190556101c9565b634e487b7160e01b600052601160045260246000fd5b60405162461bcd60e51b81526020600482015260126024820152710416d6f756e74206d757374206265203e20360741b6044820152606490fd5b60405162461bcd60e51b8152602060048201526011602482015270125b9d985b1a59081c9958da5c1a595b9d607a1b6044820152606490fd5b346107475760203660031901126107475761085561130f565b61085d61144b565b6001600160a01b039081169081156108b157600654826bffffffffffffffffffffffff60a01b821617600655167f8be0079c531659141344cd1fd0a4f28419497f9722a3daafe3b4186f6b6457e0600080a3005b604051631e4fbdf760e01b815260006004820152602490fd5b34610747576040366003190112610747576108e361130f565b6108eb611325565b9060018060a01b03809116600052600560205260406000209116600052602052602060ff604060002054166040519015158152f35b3461074757600036600319011261074757604051806008548083526020809301809160086000527ff3f7a9fe364faab93b216da50a3214154f22a0a2b415b23a84c8169e8b636ee39060005b868282106109c2578686610982828803836113a8565b604051928392818401908285525180915260408401929160005b8281106109ab57505050500390f35b83518552869550938101939281019260010161099c565b83548552909301926001928301920161096c565b346107475760203660031901126107475760043560005260076020526040600020604051610a0381611370565b81548152600182015460208201908152610a1f600284016114b1565b91604081019283526003840154936060820194855260ff60048201541691608081019215158352610a5e600660058401549360a08401948552016114b1565b9060c081019182525115610abb57610ab7935194519551925115159151905191610a9a604051978897885260c0602089015260c08801906112cf565b9360408701526060860152608085015283820360a08501526112cf565b0390f35b60405162461bcd60e51b815260206004820152601060248201526f10dc99591a5d081b9bdd08199bdd5b9960821b6044820152606490fd5b3461074757602036600319011261074757610b0f6004356116f6565b506000604051610b1e8161138c565b52610ab7604051610b2e8161138c565b600081526040519182916020835260208301906112cf565b3461074757608036600319011261074757610b5f61130f565b610b67611325565b906044356064359267ffffffffffffffff8411610747573660238501121561074757610ba0610bb19436906024816004013591016113e6565b92610bac838383611557565b611719565b005b34610747576000366003190112610747576020600854604051908152f35b3461074757604036600319011261074757610bea61130f565b6024359081151590818303610747576001600160a01b0316918215610c6657610c389033600052600560205260406000208460005260205260406000209060ff801983541691151516179055565b6040519081527f17307eab39ab6107e8899845ad3d59bd9653f200f220920489ca2b5937696c3160203392a3005b604051630b61174360e31b815260048101849052602490fd5b346107475760003660031901126107475760405160006001805490610ca382611477565b80855291818116908115610d375750600114610cde575b610ab784610cca818603826113a8565b6040519182916020835260208301906112cf565b600081815292507fb10e2d527612073b26eecdfd717e6a320cf44b4afac2b0732d9fcbe2b7fa0cf65b828410610d1f575050508101602001610cca82610cba565b80546020858701810191909152909301928101610d07565b60ff191660208087019190915292151560051b85019092019250610cca9150839050610cba565b34610747576000366003190112610747576006546040516001600160a01b039091168152602090f35b3461074757600036600319011261074757610da061144b565b600680546001600160a01b031981169091556000906001600160a01b03167f8be0079c531659141344cd1fd0a4f28419497f9722a3daafe3b4186f6b6457e08280a3005b34610747576020366003190112610747576001600160a01b03610e0561130f565b168015610e245760005260036020526020604060002054604051908152f35b6040516322718ad960e21b815260006004820152602490fd5b34610747576020366003190112610747576020610e5b6004356116f6565b6040516001600160a01b039091168152f35b3461074757610bb1610e7e3661133b565b9060405192610e8c8461138c565b60008452610bac838383611557565b34610747576020806003193601126107475760043580600052600782526040600020541561104c57610ecc816116f6565b6001600160a01b03903390821603611015578160005260078352604060002060048101805460ff8116610fde5760019060ff19161790556005429101558160005260028352604060002054168160008215928315610fab575b828252600286526040822080546001600160a01b03191690557fddf252ad1be2c89b69c2b068fc378daa952ba7f163c4a11628f55a4df523b3ef8280a4610f93577f480a76602f881eef8c7fd7402787f2e9065d323d5a6a120586b17a7b44c716ff604051924284523393a3005b60249060405190637e27328960e01b82526004820152fd5b600083815260046020526040902080546001600160a01b0319169055808252600386526040822082198154019055610f25565b60405162461bcd60e51b815260048101879052600f60248201526e105b1c9958591e481c995d1a5c9959608a1b6044820152606490fd5b60405162461bcd60e51b815260048101849052600f60248201526e2737ba103a37b5b2b71037bbb732b960891b6044820152606490fd5b60405162461bcd60e51b81526004810183905260116024820152702737b732bc34b9ba32b73a103a37b5b2b760791b6044820152606490fd5b3461074757610bb16110963661133b565b91611557565b34610747576040366003190112610747576110b561130f565b6024356110c1816116f6565b33151580611170575b80611143575b61112b576001600160a01b039283169282918491167f8c5be1e5ebec7d5bd14f71427d1e84f3dd0314c0f7b2291e5b200ac8c7c3b925600080a4600090815260046020526040902080546001600160a01b0319169091179055005b60405163a9fbf51f60e01b8152336004820152602490fd5b5060018060a01b038116600052600560205260406000203360005260205260ff60406000205416156110d0565b506001600160a01b0381163314156110ca565b34610747576020366003190112610747576004356111a0816116f6565b506000526004602052602060018060a01b0360406000205416604051908152f35b3461074757600036600319011261074757604051600080546111e281611477565b80845290600190818116908115610d37575060011461120b57610ab784610cca818603826113a8565b600080805292507f290decd9548b62a8d60345a988386fc84ba6bc95484008f6362f93160ef3e5635b82841061124c575050508101602001610cca82610cba565b80546020858701810191909152909301928101611234565b34610747576020366003190112610747576004359063ffffffff60e01b8216809203610747576020916380ac58cd60e01b81149081156112be575b81156112ad575b5015158152f35b6301ffc9a760e01b149050836112a6565b635b5e139f60e01b8114915061129f565b919082519283825260005b8481106112fb575050826000602080949584010152601f8019910116010190565b6020818301810151848301820152016112da565b600435906001600160a01b038216820361074757565b602435906001600160a01b038216820361074757565b6060906003190112610747576001600160a01b0390600435828116810361074757916024359081168103610747579060443590565b60e0810190811067ffffffffffffffff82111761047057604052565b6020810190811067ffffffffffffffff82111761047057604052565b90601f8019910116810190811067ffffffffffffffff82111761047057604052565b67ffffffffffffffff811161047057601f01601f191660200190565b9291926113f2826113ca565b9161140060405193846113a8565b829481845281830111610747578281602093846000960137010152565b9181601f840112156107475782359167ffffffffffffffff8311610747576020838186019501011161074757565b6006546001600160a01b0316330361145f57565b60405163118cdaa760e01b8152336004820152602490fd5b90600182811c921680156114a7575b602083101461149157565b634e487b7160e01b600052602260045260246000fd5b91607f1691611486565b90604051918260008254926114c584611477565b90818452600194858116908160001461153457506001146114f1575b50506114ef925003836113a8565b565b9093915060005260209081600020936000915b81831061151c5750506114ef935082010138806114e1565b85548884018501529485019487945091830191611504565b9150506114ef94506020925060ff191682840152151560051b82010138806114e1565b6001600160a01b0391821692909183156116dd57600092828452826020956002875260409684888820541696879133151580611647575b509060027fddf252ad1be2c89b69c2b068fc378daa952ba7f163c4a11628f55a4df523b3ef9284611614575b858352600381528b8320805460010190558683525289812080546001600160a01b0319168517905580a416928383036115f35750505050565b6064945051926364283d7b60e01b8452600484015260248301526044820152fd5b600087815260046020526040902080546001600160a01b0319169055848352600381528b832080546000190190556115ba565b9193945091508061169c575b156116635785929187913861158e565b878688611680576024915190637e27328960e01b82526004820152fd5b604491519063177e802f60e01b82523360048301526024820152fd5b5033871480156116c1575b806116535750858252600481523385898420541614611653565b5086825260058152878220338352815260ff88832054166116a7565b604051633250574960e11b815260006004820152602490fd5b6000818152600260205260409020546001600160a01b0316908115610f93575090565b813b611726575b50505050565b604051630a85bd0160e11b8082523360048301526001600160a01b039283166024830152604482019490945260806064820152602095929091169390929083906117749060848301906112cf565b039285816000958187895af184918161181d575b506117e8575050503d6000146117e0573d6117a2816113ca565b906117b060405192836113a8565b81528091843d92013e5b805192836117db57604051633250574960e11b815260048101849052602490fd5b019050fd5b5060606117ba565b919450915063ffffffff60e01b1603611805575038808080611720565b60249060405190633250574960e11b82526004820152fd5b9091508681813d831161185a575b61183581836113a8565b8101031261185657516001600160e01b031981168103611856579038611788565b8480fd5b503d61182b565b908060209392818452848401376000828201840152601f01601f191601019056fea2646970667358221220866a9c31041225352593a2b55fa6ed06591c6f4b4883c8c9d8b99ba6fca66b0264736f6c63430008140033","opcodes":"PUSH1 0x80 CALLVALUE PUSH3 0x389 JUMPI PUSH1 0x1 PUSH1 0x1 PUSH1 0x40 SHL SUB SWAP1 PUSH1 0x40 DUP2 DUP2 ADD DUP4 DUP2 GT DUP4 DUP3 LT OR PUSH3 0x373 JUMPI DUP2 MSTORE PUSH1 0x14 DUP3 MSTORE PUSH1 0x20 SWAP2 PUSH32 0x53746F636B7920436172626F6E20437265646974000000000000000000000000 DUP4 DUP3 ADD MSTORE DUP2 MLOAD SWAP4 DUP3 DUP6 ADD DUP6 DUP2 LT DUP3 DUP3 GT OR PUSH3 0x373 JUMPI DUP4 MSTORE PUSH1 0x3 DUP6 MSTORE PUSH3 0x534343 PUSH1 0xE8 SHL DUP5 DUP7 ADD MSTORE DUP2 MLOAD DUP2 DUP2 GT PUSH3 0x373 JUMPI PUSH1 0x0 SWAP5 DUP6 SLOAD SWAP2 PUSH1 0x1 SWAP5 DUP6 DUP5 DUP2 SHR SWAP5 AND DUP1 ISZERO PUSH3 0x368 JUMPI JUMPDEST DUP4 DUP6 LT EQ PUSH3 0x354 JUMPI DUP2 SWAP1 PUSH1 0x1F SWAP5 DUP6 DUP2 GT PUSH3 0x301 JUMPI JUMPDEST POP DUP4 SWAP1 DUP6 DUP4 GT PUSH1 0x1 EQ PUSH3 0x29D JUMPI DUP10 SWAP3 PUSH3 0x291 JUMPI JUMPDEST POP POP PUSH1 0x0 NOT PUSH1 0x3 DUP4 SWAP1 SHL SHR NOT AND SWAP1 DUP6 SHL OR DUP7 SSTORE JUMPDEST DUP7 MLOAD SWAP3 DUP4 GT PUSH3 0x27D JUMPI DUP4 SLOAD DUP5 DUP2 DUP2 SHR SWAP2 AND DUP1 ISZERO PUSH3 0x272 JUMPI JUMPDEST DUP3 DUP3 LT EQ PUSH3 0x25E JUMPI DUP3 DUP2 GT PUSH3 0x216 JUMPI JUMPDEST POP DUP1 SWAP2 DUP4 GT PUSH1 0x1 EQ PUSH3 0x1AF JUMPI POP DUP5 SWAP6 DUP3 SWAP4 SWAP5 SWAP6 SWAP3 PUSH3 0x1A3 JUMPI JUMPDEST POP POP PUSH1 0x0 NOT PUSH1 0x3 DUP4 SWAP1 SHL SHR NOT AND SWAP1 DUP3 SHL OR SWAP1 SSTORE JUMPDEST CALLER ISZERO PUSH3 0x18B JUMPI PUSH1 0x6 DUP1 SLOAD CALLER PUSH1 0x1 PUSH1 0x1 PUSH1 0xA0 SHL SUB NOT DUP3 AND DUP2 OR SWAP1 SWAP3 SSTORE SWAP2 MLOAD SWAP3 SWAP1 SWAP2 PUSH1 0x1 PUSH1 0x1 PUSH1 0xA0 SHL SUB AND SWAP1 PUSH32 0x8BE0079C531659141344CD1FD0A4F28419497F9722A3DAAFE3B4186F6B6457E0 SWAP1 DUP1 LOG3 PUSH2 0x18B8 SWAP1 DUP2 PUSH3 0x38F DUP3 CODECOPY RETURN JUMPDEST MLOAD PUSH4 0x1E4FBDF7 PUSH1 0xE0 SHL DUP2 MSTORE PUSH1 0x4 DUP2 ADD SWAP2 SWAP1 SWAP2 MSTORE PUSH1 0x24 SWAP1 REVERT JUMPDEST ADD MLOAD SWAP1 POP CODESIZE DUP1 PUSH3 0x11B JUMP JUMPDEST SWAP1 PUSH1 0x1F NOT DUP4 AND SWAP7 DUP5 DUP8 MSTORE DUP3 DUP8 KECCAK256 SWAP3 DUP8 SWAP1 JUMPDEST DUP10 DUP3 LT PUSH3 0x1FE JUMPI POP POP DUP4 DUP6 SWAP7 SWAP8 SWAP9 LT PUSH3 0x1E4 JUMPI JUMPDEST POP POP POP DUP2 SHL ADD SWAP1 SSTORE PUSH3 0x12F JUMP JUMPDEST ADD MLOAD PUSH1 0x0 NOT PUSH1 0xF8 DUP5 PUSH1 0x3 SHL AND SHR NOT AND SWAP1 SSTORE CODESIZE DUP1 DUP1 PUSH3 0x1D6 JUMP JUMPDEST DUP1 DUP8 DUP6 SWAP7 DUP3 SWAP5 SWAP7 DUP7 ADD MLOAD DUP2 SSTORE ADD SWAP6 ADD SWAP4 ADD SWAP1 PUSH3 0x1C0 JUMP JUMPDEST DUP5 DUP8 MSTORE DUP2 DUP8 KECCAK256 DUP4 DUP1 DUP7 ADD PUSH1 0x5 SHR DUP3 ADD SWAP3 DUP5 DUP8 LT PUSH3 0x254 JUMPI JUMPDEST ADD PUSH1 0x5 SHR ADD SWAP1 DUP6 SWAP1 JUMPDEST DUP3 DUP2 LT PUSH3 0x248 JUMPI POP POP PUSH3 0x100 JUMP JUMPDEST DUP9 DUP2 SSTORE ADD DUP6 SWAP1 PUSH3 0x238 JUMP JUMPDEST SWAP3 POP DUP2 SWAP3 PUSH3 0x22F JUMP JUMPDEST PUSH4 0x4E487B71 PUSH1 0xE0 SHL DUP8 MSTORE PUSH1 0x22 PUSH1 0x4 MSTORE PUSH1 0x24 DUP8 REVERT JUMPDEST SWAP1 PUSH1 0x7F AND SWAP1 PUSH3 0xEE JUMP JUMPDEST PUSH4 0x4E487B71 PUSH1 0xE0 SHL DUP7 MSTORE PUSH1 0x41 PUSH1 0x4 MSTORE PUSH1 0x24 DUP7 REVERT JUMPDEST ADD MLOAD SWAP1 POP CODESIZE DUP1 PUSH3 0xC0 JUMP JUMPDEST DUP10 DUP1 MSTORE DUP5 DUP11 KECCAK256 DUP9 SWAP5 POP SWAP2 SWAP1 PUSH1 0x1F NOT DUP5 AND DUP12 JUMPDEST DUP8 DUP3 DUP3 LT PUSH3 0x2EA JUMPI POP POP DUP5 GT PUSH3 0x2D0 JUMPI JUMPDEST POP POP POP DUP2 SHL ADD DUP7 SSTORE PUSH3 0xD4 JUMP JUMPDEST ADD MLOAD PUSH1 0x0 NOT PUSH1 0xF8 DUP5 PUSH1 0x3 SHL AND SHR NOT AND SWAP1 SSTORE CODESIZE DUP1 DUP1 PUSH3 0x2C2 JUMP JUMPDEST DUP4 DUP6 ADD MLOAD DUP7 SSTORE DUP12 SWAP8 SWAP1 SWAP6 ADD SWAP5 SWAP4 DUP5 ADD SWAP4 ADD PUSH3 0x2AF JUMP JUMPDEST SWAP1 SWAP2 POP DUP9 DUP1 MSTORE DUP4 DUP10 KECCAK256 DUP6 DUP1 DUP6 ADD PUSH1 0x5 SHR DUP3 ADD SWAP3 DUP7 DUP7 LT PUSH3 0x34A JUMPI JUMPDEST SWAP2 DUP10 SWAP2 DUP7 SWAP6 SWAP5 SWAP4 ADD PUSH1 0x5 SHR ADD SWAP2 JUMPDEST DUP3 DUP2 LT PUSH3 0x33B JUMPI POP POP PUSH3 0xAA JUMP JUMPDEST DUP12 DUP2 SSTORE DUP6 SWAP5 POP DUP10 SWAP2 ADD PUSH3 0x32B JUMP JUMPDEST SWAP3 POP DUP2 SWAP3 PUSH3 0x31D JUMP JUMPDEST PUSH4 0x4E487B71 PUSH1 0xE0 SHL DUP9 MSTORE PUSH1 0x22 PUSH1 0x4 MSTORE PUSH1 0x24 DUP9 REVERT JUMPDEST SWAP4 PUSH1 0x7F AND SWAP4 PUSH3 0x93 JUMP JUMPDEST PUSH4 0x4E487B71 PUSH1 0xE0 SHL PUSH1 0x0 MSTORE PUSH1 0x41 PUSH1 0x4 MSTORE PUSH1 0x24 PUSH1 0x0 REVERT JUMPDEST PUSH1 0x0 DUP1 REVERT INVALID PUSH1 0x80 DUP1 PUSH1 0x40 MSTORE PUSH1 0x4 CALLDATASIZE LT ISZERO PUSH2 0x13 JUMPI PUSH1 0x0 DUP1 REVERT JUMPDEST PUSH1 0x0 CALLDATALOAD PUSH1 0xE0 SHR SWAP1 DUP2 PUSH4 0x1FFC9A7 EQ PUSH2 0x1264 JUMPI POP DUP1 PUSH4 0x6FDDE03 EQ PUSH2 0x11C1 JUMPI DUP1 PUSH4 0x81812FC EQ PUSH2 0x1183 JUMPI DUP1 PUSH4 0x95EA7B3 EQ PUSH2 0x109C JUMPI DUP1 PUSH4 0x23B872DD EQ PUSH2 0x1085 JUMPI DUP1 PUSH4 0x3790CF57 EQ PUSH2 0xE9B JUMPI DUP1 PUSH4 0x42842E0E EQ PUSH2 0xE6D JUMPI DUP1 PUSH4 0x6352211E EQ PUSH2 0xE3D JUMPI DUP1 PUSH4 0x70A08231 EQ PUSH2 0xDE4 JUMPI DUP1 PUSH4 0x715018A6 EQ PUSH2 0xD87 JUMPI DUP1 PUSH4 0x8DA5CB5B EQ PUSH2 0xD5E JUMPI DUP1 PUSH4 0x95D89B41 EQ PUSH2 0xC7F JUMPI DUP1 PUSH4 0xA22CB465 EQ PUSH2 0xBD1 JUMPI DUP1 PUSH4 0xA2309FF8 EQ PUSH2 0xBB3 JUMPI DUP1 PUSH4 0xB88D4FDE EQ PUSH2 0xB46 JUMPI DUP1 PUSH4 0xC87B56DD EQ PUSH2 0xAF3 JUMPI DUP1 PUSH4 0xDA304E4D EQ PUSH2 0x9D6 JUMPI DUP1 PUSH4 0xE7619FAD EQ PUSH2 0x920 JUMPI DUP1 PUSH4 0xE985E9C5 EQ PUSH2 0x8CA JUMPI DUP1 PUSH4 0xF2FDE38B EQ PUSH2 0x83C JUMPI PUSH4 0xFE5D816F EQ PUSH2 0x106 JUMPI PUSH1 0x0 DUP1 REVERT JUMPDEST CALLVALUE PUSH2 0x747 JUMPI PUSH1 0x80 CALLDATASIZE PUSH1 0x3 NOT ADD SLT PUSH2 0x747 JUMPI PUSH2 0x11F PUSH2 0x130F JUMP JUMPDEST PUSH1 0x44 CALLDATALOAD PUSH8 0xFFFFFFFFFFFFFFFF DUP2 GT PUSH2 0x747 JUMPI PUSH2 0x13F SWAP1 CALLDATASIZE SWAP1 PUSH1 0x4 ADD PUSH2 0x141D JUMP JUMPDEST SWAP2 PUSH1 0x64 CALLDATALOAD PUSH8 0xFFFFFFFFFFFFFFFF DUP2 GT PUSH2 0x747 JUMPI PUSH2 0x160 SWAP1 CALLDATASIZE SWAP1 PUSH1 0x4 ADD PUSH2 0x141D JUMP JUMPDEST SWAP2 PUSH2 0x169 PUSH2 0x144B JUMP JUMPDEST PUSH1 0x1 PUSH1 0x1 PUSH1 0xA0 SHL SUB DUP2 AND ISZERO PUSH2 0x803 JUMPI PUSH1 0x24 CALLDATALOAD ISZERO PUSH2 0x7C9 JUMPI PUSH1 0x9 SLOAD SWAP4 PUSH1 0x1 DUP6 ADD DUP6 GT PUSH2 0x7B3 JUMPI PUSH1 0x1 DUP6 ADD PUSH1 0x9 SSTORE PUSH1 0x40 MLOAD PUSH2 0x1A1 DUP2 PUSH2 0x138C JUMP JUMPDEST PUSH1 0x0 DUP1 DUP3 MSTORE PUSH1 0x1 DUP8 ADD DUP2 MSTORE PUSH1 0x2 PUSH1 0x20 MSTORE PUSH1 0x40 SWAP1 KECCAK256 SLOAD PUSH1 0x1 PUSH1 0x1 PUSH1 0xA0 SHL SUB AND DUP1 ISZERO ISZERO SWAP1 DUP2 PUSH2 0x76D JUMPI JUMPDEST PUSH1 0x1 PUSH1 0x1 PUSH1 0xA0 SHL SUB DUP6 AND PUSH1 0x0 DUP2 DUP2 MSTORE PUSH1 0x3 PUSH1 0x20 SWAP1 DUP2 MSTORE PUSH1 0x40 DUP1 DUP4 KECCAK256 DUP1 SLOAD PUSH1 0x1 SWAP1 DUP2 ADD SWAP1 SWAP2 SSTORE DUP13 ADD DUP1 DUP5 MSTORE PUSH1 0x2 SWAP1 SWAP3 MSTORE DUP3 KECCAK256 DUP1 SLOAD PUSH1 0x1 PUSH1 0x1 PUSH1 0xA0 SHL SUB NOT AND DUP5 OR SWAP1 SSTORE SWAP3 SWAP1 PUSH32 0xDDF252AD1BE2C89B69C2B068FC378DAA952BA7F163C4A11628F55A4DF523B3EF SWAP1 DUP1 LOG4 PUSH2 0x754 JUMPI DUP3 EXTCODESIZE PUSH2 0x60B JUMPI JUMPDEST POP PUSH1 0x40 MLOAD PUSH2 0x248 DUP2 PUSH2 0x1370 JUMP JUMPDEST PUSH1 0x1 DUP7 ADD DUP2 MSTORE PUSH1 0x20 DUP2 ADD SWAP1 PUSH1 0x24 CALLDATALOAD DUP3 MSTORE PUSH2 0x263 CALLDATASIZE DUP10 DUP6 PUSH2 0x13E6 JUMP JUMPDEST PUSH1 0x40 DUP3 ADD SWAP1 DUP2 MSTORE TIMESTAMP PUSH1 0x60 DUP4 ADD MSTORE PUSH1 0x0 PUSH1 0x80 DUP4 ADD MSTORE PUSH1 0x0 PUSH1 0xA0 DUP4 ADD MSTORE PUSH2 0x289 CALLDATASIZE DUP9 DUP9 PUSH2 0x13E6 JUMP JUMPDEST PUSH1 0xC0 DUP4 ADD MSTORE PUSH1 0x1 DUP9 ADD PUSH1 0x0 MSTORE PUSH1 0x7 PUSH1 0x20 MSTORE PUSH1 0x40 PUSH1 0x0 KECCAK256 SWAP3 DUP3 MLOAD DUP5 SSTORE MLOAD PUSH1 0x1 DUP5 ADD SSTORE MLOAD DUP1 MLOAD SWAP1 PUSH8 0xFFFFFFFFFFFFFFFF DUP3 GT PUSH2 0x470 JUMPI PUSH2 0x2CA PUSH1 0x2 DUP6 ADD SLOAD PUSH2 0x1477 JUMP JUMPDEST PUSH1 0x1F DUP2 GT PUSH2 0x5C4 JUMPI JUMPDEST POP PUSH1 0x20 SWAP1 PUSH1 0x1F DUP4 GT PUSH1 0x1 EQ PUSH2 0x551 JUMPI PUSH1 0xC0 SWAP4 SWAP3 SWAP2 PUSH1 0x0 SWAP2 DUP4 PUSH2 0x546 JUMPI JUMPDEST POP POP DUP2 PUSH1 0x1 SHL SWAP2 PUSH1 0x0 NOT SWAP1 PUSH1 0x3 SHL SHR NOT AND OR PUSH1 0x2 DUP5 ADD SSTORE JUMPDEST PUSH1 0x60 DUP2 ADD MLOAD PUSH1 0x3 DUP5 ADD SSTORE PUSH2 0x331 PUSH1 0x80 DUP3 ADD MLOAD ISZERO ISZERO PUSH1 0x4 DUP6 ADD SWAP1 PUSH1 0xFF DUP1 NOT DUP4 SLOAD AND SWAP2 ISZERO ISZERO AND OR SWAP1 SSTORE JUMP JUMPDEST PUSH1 0xA0 DUP2 ADD MLOAD PUSH1 0x5 DUP5 ADD SSTORE ADD MLOAD DUP1 MLOAD SWAP1 PUSH8 0xFFFFFFFFFFFFFFFF DUP3 GT PUSH2 0x470 JUMPI PUSH2 0x35C PUSH1 0x6 DUP5 ADD SLOAD PUSH2 0x1477 JUMP JUMPDEST PUSH1 0x1F DUP2 GT PUSH2 0x4FF JUMPI JUMPDEST POP PUSH1 0x20 SWAP1 PUSH1 0x1F DUP4 GT PUSH1 0x1 EQ PUSH2 0x491 JUMPI PUSH1 0x6 SWAP3 SWAP2 PUSH1 0x0 SWAP2 DUP4 PUSH2 0x486 JUMPI JUMPDEST POP POP DUP2 PUSH1 0x1 SHL SWAP2 PUSH1 0x0 NOT SWAP1 PUSH1 0x3 SHL SHR NOT AND OR SWAP2 ADD SSTORE JUMPDEST PUSH1 0x8 SLOAD SWAP6 PUSH9 0x10000000000000000 DUP8 LT ISZERO PUSH2 0x470 JUMPI PUSH1 0x1 DUP8 ADD DUP1 PUSH1 0x8 SSTORE DUP8 LT ISZERO PUSH2 0x45A JUMPI PUSH2 0x44C PUSH32 0x992F04FF6879E938D29B99899747750AC446AE3933F078654E8E26D884FE5A0A SWAP4 PUSH1 0x20 SWAP9 PUSH1 0x8 PUSH1 0x0 MSTORE PUSH1 0x1 DUP10 ADD SWAP1 PUSH32 0xF3F7A9FE364FAAB93B216DA50A3214154F22A0A2B415B23A84C8169E8B636EE3 ADD SSTORE PUSH2 0x42E PUSH1 0x40 MLOAD SWAP5 DUP6 SWAP5 PUSH1 0x24 CALLDATALOAD DUP7 MSTORE PUSH1 0x60 DUP13 DUP8 ADD MSTORE PUSH1 0x60 DUP7 ADD SWAP2 PUSH2 0x1861 JUMP JUMPDEST DUP4 DUP2 SUB PUSH1 0x40 DUP6 ADD MSTORE PUSH1 0x1 PUSH1 0x1 PUSH1 0xA0 SHL SUB SWAP1 SWAP2 AND SWAP7 PUSH1 0x1 DUP10 ADD SWAP7 PUSH2 0x1861 JUMP JUMPDEST SUB SWAP1 LOG3 PUSH1 0x1 PUSH1 0x40 MLOAD SWAP2 ADD DUP2 MSTORE RETURN JUMPDEST PUSH4 0x4E487B71 PUSH1 0xE0 SHL PUSH1 0x0 MSTORE PUSH1 0x32 PUSH1 0x4 MSTORE PUSH1 0x24 PUSH1 0x0 REVERT JUMPDEST PUSH4 0x4E487B71 PUSH1 0xE0 SHL PUSH1 0x0 MSTORE PUSH1 0x41 PUSH1 0x4 MSTORE PUSH1 0x24 PUSH1 0x0 REVERT JUMPDEST ADD MLOAD SWAP1 POP CODESIZE DUP1 PUSH2 0x381 JUMP JUMPDEST SWAP1 PUSH1 0x1F NOT DUP4 AND SWAP2 PUSH1 0x6 DUP6 ADD PUSH1 0x0 MSTORE PUSH1 0x20 PUSH1 0x0 KECCAK256 SWAP3 PUSH1 0x0 JUMPDEST DUP2 DUP2 LT PUSH2 0x4E7 JUMPI POP SWAP2 PUSH1 0x1 SWAP4 SWAP2 DUP6 PUSH1 0x6 SWAP7 SWAP5 LT PUSH2 0x4CE JUMPI JUMPDEST POP POP POP DUP2 SHL ADD SWAP2 ADD SSTORE PUSH2 0x397 JUMP JUMPDEST ADD MLOAD PUSH1 0x0 NOT PUSH1 0xF8 DUP5 PUSH1 0x3 SHL AND SHR NOT AND SWAP1 SSTORE CODESIZE DUP1 DUP1 PUSH2 0x4C0 JUMP JUMPDEST SWAP3 SWAP4 PUSH1 0x20 PUSH1 0x1 DUP2 SWAP3 DUP8 DUP7 ADD MLOAD DUP2 SSTORE ADD SWAP6 ADD SWAP4 ADD PUSH2 0x4A8 JUMP JUMPDEST PUSH1 0x6 DUP5 ADD PUSH1 0x0 MSTORE PUSH1 0x20 PUSH1 0x0 KECCAK256 PUSH1 0x1F DUP5 ADD PUSH1 0x5 SHR DUP2 ADD PUSH1 0x20 DUP6 LT PUSH2 0x53F JUMPI JUMPDEST PUSH1 0x1F DUP4 ADD PUSH1 0x5 SHR DUP3 ADD DUP2 LT PUSH2 0x533 JUMPI POP POP PUSH2 0x365 JUMP JUMPDEST PUSH1 0x0 DUP2 SSTORE PUSH1 0x1 ADD PUSH2 0x51D JUMP JUMPDEST POP DUP1 PUSH2 0x51D JUMP JUMPDEST ADD MLOAD SWAP1 POP CODESIZE DUP1 PUSH2 0x2F0 JUMP JUMPDEST SWAP1 PUSH1 0x2 DUP6 ADD PUSH1 0x0 MSTORE PUSH1 0x20 PUSH1 0x0 KECCAK256 SWAP2 PUSH1 0x0 JUMPDEST PUSH1 0x1F NOT DUP6 AND DUP2 LT PUSH2 0x5AC JUMPI POP SWAP2 DUP4 SWAP2 PUSH1 0x1 SWAP4 PUSH1 0xC0 SWAP7 SWAP6 PUSH1 0x1F NOT DUP2 AND LT PUSH2 0x593 JUMPI JUMPDEST POP POP POP DUP2 SHL ADD PUSH1 0x2 DUP5 ADD SSTORE PUSH2 0x308 JUMP JUMPDEST ADD MLOAD PUSH1 0x0 NOT PUSH1 0xF8 DUP5 PUSH1 0x3 SHL AND SHR NOT AND SWAP1 SSTORE CODESIZE DUP1 DUP1 PUSH2 0x583 JUMP JUMPDEST SWAP2 SWAP3 PUSH1 0x20 PUSH1 0x1 DUP2 SWAP3 DUP7 DUP6 ADD MLOAD DUP2 SSTORE ADD SWAP5 ADD SWAP3 ADD PUSH2 0x562 JUMP JUMPDEST PUSH1 0x2 DUP6 ADD PUSH1 0x0 MSTORE PUSH1 0x20 PUSH1 0x0 KECCAK256 PUSH1 0x1F DUP5 ADD PUSH1 0x5 SHR DUP2 ADD PUSH1 0x20 DUP6 LT PUSH2 0x604 JUMPI JUMPDEST PUSH1 0x1F DUP4 ADD PUSH1 0x5 SHR DUP3 ADD DUP2 LT PUSH2 0x5F8 JUMPI POP POP PUSH2 0x2D3 JUMP JUMPDEST PUSH1 0x0 DUP2 SSTORE PUSH1 0x1 ADD PUSH2 0x5E2 JUMP JUMPDEST POP DUP1 PUSH2 0x5E2 JUMP JUMPDEST PUSH1 0x40 SWAP7 SWAP6 SWAP5 SWAP4 SWAP3 SWAP7 MLOAD PUSH1 0x20 DUP2 DUP1 PUSH2 0x64E PUSH4 0xA85BD01 PUSH1 0xE1 SHL SWAP6 DUP7 DUP4 MSTORE CALLER PUSH1 0x4 DUP5 ADD MSTORE PUSH1 0x0 PUSH1 0x24 DUP5 ADD MSTORE PUSH1 0x1 DUP12 ADD PUSH1 0x44 DUP5 ADD MSTORE PUSH1 0x80 PUSH1 0x64 DUP5 ADD MSTORE PUSH1 0x84 DUP4 ADD SWAP1 PUSH2 0x12CF JUMP JUMPDEST SUB DUP2 PUSH1 0x0 PUSH1 0x1 PUSH1 0x1 PUSH1 0xA0 SHL SUB DUP14 AND GAS CALL PUSH1 0x0 SWAP2 DUP2 PUSH2 0x70A JUMPI JUMPDEST POP PUSH2 0x6CF JUMPI DUP8 RETURNDATASIZE ISZERO PUSH2 0x6C7 JUMPI RETURNDATASIZE SWAP1 PUSH2 0x67E DUP3 PUSH2 0x13CA JUMP JUMPDEST SWAP2 PUSH2 0x68C PUSH1 0x40 MLOAD SWAP4 DUP5 PUSH2 0x13A8 JUMP JUMPDEST DUP3 MSTORE RETURNDATASIZE PUSH1 0x0 PUSH1 0x20 DUP5 ADD RETURNDATACOPY JUMPDEST DUP2 MLOAD SWAP2 DUP3 PUSH2 0x6C0 JUMPI PUSH1 0x40 MLOAD PUSH4 0x32505749 PUSH1 0xE1 SHL DUP2 MSTORE PUSH1 0x1 PUSH1 0x1 PUSH1 0xA0 SHL SUB DUP4 AND PUSH1 0x4 DUP3 ADD MSTORE PUSH1 0x24 SWAP1 REVERT JUMPDEST SWAP1 POP PUSH1 0x20 ADD REVERT JUMPDEST PUSH1 0x60 SWAP1 PUSH2 0x697 JUMP JUMPDEST PUSH4 0xFFFFFFFF PUSH1 0xE0 SWAP9 SWAP5 SWAP6 SWAP7 SWAP8 SWAP9 SHL AND SUB PUSH2 0x6E9 JUMPI CODESIZE PUSH2 0x23B JUMP JUMPDEST PUSH1 0x40 MLOAD PUSH4 0x32505749 PUSH1 0xE1 SHL DUP2 MSTORE PUSH1 0x1 PUSH1 0x1 PUSH1 0xA0 SHL SUB DUP4 AND PUSH1 0x4 DUP3 ADD MSTORE PUSH1 0x24 SWAP1 REVERT JUMPDEST SWAP1 SWAP2 POP PUSH1 0x20 DUP2 RETURNDATASIZE PUSH1 0x20 GT PUSH2 0x74C JUMPI JUMPDEST DUP2 PUSH2 0x726 PUSH1 0x20 SWAP4 DUP4 PUSH2 0x13A8 JUMP JUMPDEST DUP2 ADD SUB SLT PUSH2 0x747 JUMPI MLOAD PUSH1 0x1 PUSH1 0x1 PUSH1 0xE0 SHL SUB NOT DUP2 AND DUP2 SUB PUSH2 0x747 JUMPI SWAP1 CODESIZE PUSH2 0x667 JUMP JUMPDEST PUSH1 0x0 DUP1 REVERT JUMPDEST RETURNDATASIZE SWAP2 POP PUSH2 0x719 JUMP JUMPDEST PUSH1 0x40 MLOAD PUSH4 0x39E35637 PUSH1 0xE1 SHL DUP2 MSTORE PUSH1 0x0 PUSH1 0x4 DUP3 ADD MSTORE PUSH1 0x24 SWAP1 REVERT JUMPDEST PUSH2 0x798 PUSH1 0x1 DUP10 ADD PUSH1 0x0 MSTORE PUSH1 0x4 PUSH1 0x20 MSTORE PUSH1 0x40 PUSH1 0x0 KECCAK256 PUSH12 0xFFFFFFFFFFFFFFFFFFFFFFFF PUSH1 0xA0 SHL DUP2 SLOAD AND SWAP1 SSTORE JUMP JUMPDEST DUP1 PUSH1 0x0 MSTORE PUSH1 0x3 PUSH1 0x20 MSTORE PUSH1 0x40 PUSH1 0x0 KECCAK256 PUSH1 0x0 NOT DUP2 SLOAD ADD SWAP1 SSTORE PUSH2 0x1C9 JUMP JUMPDEST PUSH4 0x4E487B71 PUSH1 0xE0 SHL PUSH1 0x0 MSTORE PUSH1 0x11 PUSH1 0x4 MSTORE PUSH1 0x24 PUSH1 0x0 REVERT JUMPDEST PUSH1 0x40 MLOAD PUSH3 0x461BCD PUSH1 0xE5 SHL DUP2 MSTORE PUSH1 0x20 PUSH1 0x4 DUP3 ADD MSTORE PUSH1 0x12 PUSH1 0x24 DUP3 ADD MSTORE PUSH18 0x416D6F756E74206D757374206265203E203 PUSH1 0x74 SHL PUSH1 0x44 DUP3 ADD MSTORE PUSH1 0x64 SWAP1 REVERT JUMPDEST PUSH1 0x40 MLOAD PUSH3 0x461BCD PUSH1 0xE5 SHL DUP2 MSTORE PUSH1 0x20 PUSH1 0x4 DUP3 ADD MSTORE PUSH1 0x11 PUSH1 0x24 DUP3 ADD MSTORE PUSH17 0x125B9D985B1A59081C9958DA5C1A595B9D PUSH1 0x7A SHL PUSH1 0x44 DUP3 ADD MSTORE PUSH1 0x64 SWAP1 REVERT JUMPDEST CALLVALUE PUSH2 0x747 JUMPI PUSH1 0x20 CALLDATASIZE PUSH1 0x3 NOT ADD SLT PUSH2 0x747 JUMPI PUSH2 0x855 PUSH2 0x130F JUMP JUMPDEST PUSH2 0x85D PUSH2 0x144B JUMP JUMPDEST PUSH1 0x1 PUSH1 0x1 PUSH1 0xA0 SHL SUB SWAP1 DUP2 AND SWAP1 DUP2 ISZERO PUSH2 0x8B1 JUMPI PUSH1 0x6 SLOAD DUP3 PUSH12 0xFFFFFFFFFFFFFFFFFFFFFFFF PUSH1 0xA0 SHL DUP3 AND OR PUSH1 0x6 SSTORE AND PUSH32 0x8BE0079C531659141344CD1FD0A4F28419497F9722A3DAAFE3B4186F6B6457E0 PUSH1 0x0 DUP1 LOG3 STOP JUMPDEST PUSH1 0x40 MLOAD PUSH4 0x1E4FBDF7 PUSH1 0xE0 SHL DUP2 MSTORE PUSH1 0x0 PUSH1 0x4 DUP3 ADD MSTORE PUSH1 0x24 SWAP1 REVERT JUMPDEST CALLVALUE PUSH2 0x747 JUMPI PUSH1 0x40 CALLDATASIZE PUSH1 0x3 NOT ADD SLT PUSH2 0x747 JUMPI PUSH2 0x8E3 PUSH2 0x130F JUMP JUMPDEST PUSH2 0x8EB PUSH2 0x1325 JUMP JUMPDEST SWAP1 PUSH1 0x1 DUP1 PUSH1 0xA0 SHL SUB DUP1 SWAP2 AND PUSH1 0x0 MSTORE PUSH1 0x5 PUSH1 0x20 MSTORE PUSH1 0x40 PUSH1 0x0 KECCAK256 SWAP2 AND PUSH1 0x0 MSTORE PUSH1 0x20 MSTORE PUSH1 0x20 PUSH1 0xFF PUSH1 0x40 PUSH1 0x0 KECCAK256 SLOAD AND PUSH1 0x40 MLOAD SWAP1 ISZERO ISZERO DUP2 MSTORE RETURN JUMPDEST CALLVALUE PUSH2 0x747 JUMPI PUSH1 0x0 CALLDATASIZE PUSH1 0x3 NOT ADD SLT PUSH2 0x747 JUMPI PUSH1 0x40 MLOAD DUP1 PUSH1 0x8 SLOAD DUP1 DUP4 MSTORE PUSH1 0x20 DUP1 SWAP4 ADD DUP1 SWAP2 PUSH1 0x8 PUSH1 0x0 MSTORE PUSH32 0xF3F7A9FE364FAAB93B216DA50A3214154F22A0A2B415B23A84C8169E8B636EE3 SWAP1 PUSH1 0x0 JUMPDEST DUP7 DUP3 DUP3 LT PUSH2 0x9C2 JUMPI DUP7 DUP7 PUSH2 0x982 DUP3 DUP9 SUB DUP4 PUSH2 0x13A8 JUMP JUMPDEST PUSH1 0x40 MLOAD SWAP3 DUP4 SWAP3 DUP2 DUP5 ADD SWAP1 DUP3 DUP6 MSTORE MLOAD DUP1 SWAP2 MSTORE PUSH1 0x40 DUP5 ADD SWAP3 SWAP2 PUSH1 0x0 JUMPDEST DUP3 DUP2 LT PUSH2 0x9AB JUMPI POP POP POP POP SUB SWAP1 RETURN JUMPDEST DUP4 MLOAD DUP6 MSTORE DUP7 SWAP6 POP SWAP4 DUP2 ADD SWAP4 SWAP3 DUP2 ADD SWAP3 PUSH1 0x1 ADD PUSH2 0x99C JUMP JUMPDEST DUP4 SLOAD DUP6 MSTORE SWAP1 SWAP4 ADD SWAP3 PUSH1 0x1 SWAP3 DUP4 ADD SWAP3 ADD PUSH2 0x96C JUMP JUMPDEST CALLVALUE PUSH2 0x747 JUMPI PUSH1 0x20 CALLDATASIZE PUSH1 0x3 NOT ADD SLT PUSH2 0x747 JUMPI PUSH1 0x4 CALLDATALOAD PUSH1 0x0 MSTORE PUSH1 0x7 PUSH1 0x20 MSTORE PUSH1 0x40 PUSH1 0x0 KECCAK256 PUSH1 0x40 MLOAD PUSH2 0xA03 DUP2 PUSH2 0x1370 JUMP JUMPDEST DUP2 SLOAD DUP2 MSTORE PUSH1 0x1 DUP3 ADD SLOAD PUSH1 0x20 DUP3 ADD SWAP1 DUP2 MSTORE PUSH2 0xA1F PUSH1 0x2 DUP5 ADD PUSH2 0x14B1 JUMP JUMPDEST SWAP2 PUSH1 0x40 DUP2 ADD SWAP3 DUP4 MSTORE PUSH1 0x3 DUP5 ADD SLOAD SWAP4 PUSH1 0x60 DUP3 ADD SWAP5 DUP6 MSTORE PUSH1 0xFF PUSH1 0x4 DUP3 ADD SLOAD AND SWAP2 PUSH1 0x80 DUP2 ADD SWAP3 ISZERO ISZERO DUP4 MSTORE PUSH2 0xA5E PUSH1 0x6 PUSH1 0x5 DUP5 ADD SLOAD SWAP4 PUSH1 0xA0 DUP5 ADD SWAP5 DUP6 MSTORE ADD PUSH2 0x14B1 JUMP JUMPDEST SWAP1 PUSH1 0xC0 DUP2 ADD SWAP2 DUP3 MSTORE MLOAD ISZERO PUSH2 0xABB JUMPI PUSH2 0xAB7 SWAP4 MLOAD SWAP5 MLOAD SWAP6 MLOAD SWAP3 MLOAD ISZERO ISZERO SWAP2 MLOAD SWAP1 MLOAD SWAP2 PUSH2 0xA9A PUSH1 0x40 MLOAD SWAP8 DUP9 SWAP8 DUP9 MSTORE PUSH1 0xC0 PUSH1 0x20 DUP10 ADD MSTORE PUSH1 0xC0 DUP9 ADD SWAP1 PUSH2 0x12CF JUMP JUMPDEST SWAP4 PUSH1 0x40 DUP8 ADD MSTORE PUSH1 0x60 DUP7 ADD MSTORE PUSH1 0x80 DUP6 ADD MSTORE DUP4 DUP3 SUB PUSH1 0xA0 DUP6 ADD MSTORE PUSH2 0x12CF JUMP JUMPDEST SUB SWAP1 RETURN JUMPDEST PUSH1 0x40 MLOAD PUSH3 0x461BCD PUSH1 0xE5 SHL DUP2 MSTORE PUSH1 0x20 PUSH1 0x4 DUP3 ADD MSTORE PUSH1 0x10 PUSH1 0x24 DUP3 ADD MSTORE PUSH16 0x10DC99591A5D081B9BDD08199BDD5B99 PUSH1 0x82 SHL PUSH1 0x44 DUP3 ADD MSTORE PUSH1 0x64 SWAP1 REVERT JUMPDEST CALLVALUE PUSH2 0x747 JUMPI PUSH1 0x20 CALLDATASIZE PUSH1 0x3 NOT ADD SLT PUSH2 0x747 JUMPI PUSH2 0xB0F PUSH1 0x4 CALLDATALOAD PUSH2 0x16F6 JUMP JUMPDEST POP PUSH1 0x0 PUSH1 0x40 MLOAD PUSH2 0xB1E DUP2 PUSH2 0x138C JUMP JUMPDEST MSTORE PUSH2 0xAB7 PUSH1 0x40 MLOAD PUSH2 0xB2E DUP2 PUSH2 0x138C JUMP JUMPDEST PUSH1 0x0 DUP2 MSTORE PUSH1 0x40 MLOAD SWAP2 DUP3 SWAP2 PUSH1 0x20 DUP4 MSTORE PUSH1 0x20 DUP4 ADD SWAP1 PUSH2 0x12CF JUMP JUMPDEST CALLVALUE PUSH2 0x747 JUMPI PUSH1 0x80 CALLDATASIZE PUSH1 0x3 NOT ADD SLT PUSH2 0x747 JUMPI PUSH2 0xB5F PUSH2 0x130F JUMP JUMPDEST PUSH2 0xB67 PUSH2 0x1325 JUMP JUMPDEST SWAP1 PUSH1 0x44 CALLDATALOAD PUSH1 0x64 CALLDATALOAD SWAP3 PUSH8 0xFFFFFFFFFFFFFFFF DUP5 GT PUSH2 0x747 JUMPI CALLDATASIZE PUSH1 0x23 DUP6 ADD SLT ISZERO PUSH2 0x747 JUMPI PUSH2 0xBA0 PUSH2 0xBB1 SWAP5 CALLDATASIZE SWAP1 PUSH1 0x24 DUP2 PUSH1 0x4 ADD CALLDATALOAD SWAP2 ADD PUSH2 0x13E6 JUMP JUMPDEST SWAP3 PUSH2 0xBAC DUP4 DUP4 DUP4 PUSH2 0x1557 JUMP JUMPDEST PUSH2 0x1719 JUMP JUMPDEST STOP JUMPDEST CALLVALUE PUSH2 0x747 JUMPI PUSH1 0x0 CALLDATASIZE PUSH1 0x3 NOT ADD SLT PUSH2 0x747 JUMPI PUSH1 0x20 PUSH1 0x8 SLOAD PUSH1 0x40 MLOAD SWAP1 DUP2 MSTORE RETURN JUMPDEST CALLVALUE PUSH2 0x747 JUMPI PUSH1 0x40 CALLDATASIZE PUSH1 0x3 NOT ADD SLT PUSH2 0x747 JUMPI PUSH2 0xBEA PUSH2 0x130F JUMP JUMPDEST PUSH1 0x24 CALLDATALOAD SWAP1 DUP2 ISZERO ISZERO SWAP1 DUP2 DUP4 SUB PUSH2 0x747 JUMPI PUSH1 0x1 PUSH1 0x1 PUSH1 0xA0 SHL SUB AND SWAP2 DUP3 ISZERO PUSH2 0xC66 JUMPI PUSH2 0xC38 SWAP1 CALLER PUSH1 0x0 MSTORE PUSH1 0x5 PUSH1 0x20 MSTORE PUSH1 0x40 PUSH1 0x0 KECCAK256 DUP5 PUSH1 0x0 MSTORE PUSH1 0x20 MSTORE PUSH1 0x40 PUSH1 0x0 KECCAK256 SWAP1 PUSH1 0xFF DUP1 NOT DUP4 SLOAD AND SWAP2 ISZERO ISZERO AND OR SWAP1 SSTORE JUMP JUMPDEST PUSH1 0x40 MLOAD SWAP1 DUP2 MSTORE PUSH32 0x17307EAB39AB6107E8899845AD3D59BD9653F200F220920489CA2B5937696C31 PUSH1 0x20 CALLER SWAP3 LOG3 STOP JUMPDEST PUSH1 0x40 MLOAD PUSH4 0xB611743 PUSH1 0xE3 SHL DUP2 MSTORE PUSH1 0x4 DUP2 ADD DUP5 SWAP1 MSTORE PUSH1 0x24 SWAP1 REVERT JUMPDEST CALLVALUE PUSH2 0x747 JUMPI PUSH1 0x0 CALLDATASIZE PUSH1 0x3 NOT ADD SLT PUSH2 0x747 JUMPI PUSH1 0x40 MLOAD PUSH1 0x0 PUSH1 0x1 DUP1 SLOAD SWAP1 PUSH2 0xCA3 DUP3 PUSH2 0x1477 JUMP JUMPDEST DUP1 DUP6 MSTORE SWAP2 DUP2 DUP2 AND SWAP1 DUP2 ISZERO PUSH2 0xD37 JUMPI POP PUSH1 0x1 EQ PUSH2 0xCDE JUMPI JUMPDEST PUSH2 0xAB7 DUP5 PUSH2 0xCCA DUP2 DUP7 SUB DUP3 PUSH2 0x13A8 JUMP JUMPDEST PUSH1 0x40 MLOAD SWAP2 DUP3 SWAP2 PUSH1 0x20 DUP4 MSTORE PUSH1 0x20 DUP4 ADD SWAP1 PUSH2 0x12CF JUMP JUMPDEST PUSH1 0x0 DUP2 DUP2 MSTORE SWAP3 POP PUSH32 0xB10E2D527612073B26EECDFD717E6A320CF44B4AFAC2B0732D9FCBE2B7FA0CF6 JUMPDEST DUP3 DUP5 LT PUSH2 0xD1F JUMPI POP POP POP DUP2 ADD PUSH1 0x20 ADD PUSH2 0xCCA DUP3 PUSH2 0xCBA JUMP JUMPDEST DUP1 SLOAD PUSH1 0x20 DUP6 DUP8 ADD DUP2 ADD SWAP2 SWAP1 SWAP2 MSTORE SWAP1 SWAP4 ADD SWAP3 DUP2 ADD PUSH2 0xD07 JUMP JUMPDEST PUSH1 0xFF NOT AND PUSH1 0x20 DUP1 DUP8 ADD SWAP2 SWAP1 SWAP2 MSTORE SWAP3 ISZERO ISZERO PUSH1 0x5 SHL DUP6 ADD SWAP1 SWAP3 ADD SWAP3 POP PUSH2 0xCCA SWAP2 POP DUP4 SWAP1 POP PUSH2 0xCBA JUMP JUMPDEST CALLVALUE PUSH2 0x747 JUMPI PUSH1 0x0 CALLDATASIZE PUSH1 0x3 NOT ADD SLT PUSH2 0x747 JUMPI PUSH1 0x6 SLOAD PUSH1 0x40 MLOAD PUSH1 0x1 PUSH1 0x1 PUSH1 0xA0 SHL SUB SWAP1 SWAP2 AND DUP2 MSTORE PUSH1 0x20 SWAP1 RETURN JUMPDEST CALLVALUE PUSH2 0x747 JUMPI PUSH1 0x0 CALLDATASIZE PUSH1 0x3 NOT ADD SLT PUSH2 0x747 JUMPI PUSH2 0xDA0 PUSH2 0x144B JUMP JUMPDEST PUSH1 0x6 DUP1 SLOAD PUSH1 0x1 PUSH1 0x1 PUSH1 0xA0 SHL SUB NOT DUP2 AND SWAP1 SWAP2 SSTORE PUSH1 0x0 SWAP1 PUSH1 0x1 PUSH1 0x1 PUSH1 0xA0 SHL SUB AND PUSH32 0x8BE0079C531659141344CD1FD0A4F28419497F9722A3DAAFE3B4186F6B6457E0 DUP3 DUP1 LOG3 STOP JUMPDEST CALLVALUE PUSH2 0x747 JUMPI PUSH1 0x20 CALLDATASIZE PUSH1 0x3 NOT ADD SLT PUSH2 0x747 JUMPI PUSH1 0x1 PUSH1 0x1 PUSH1 0xA0 SHL SUB PUSH2 0xE05 PUSH2 0x130F JUMP JUMPDEST AND DUP1 ISZERO PUSH2 0xE24 JUMPI PUSH1 0x0 MSTORE PUSH1 0x3 PUSH1 0x20 MSTORE PUSH1 0x20 PUSH1 0x40 PUSH1 0x0 KECCAK256 SLOAD PUSH1 0x40 MLOAD SWAP1 DUP2 MSTORE RETURN JUMPDEST PUSH1 0x40 MLOAD PUSH4 0x22718AD9 PUSH1 0xE2 SHL DUP2 MSTORE PUSH1 0x0 PUSH1 0x4 DUP3 ADD MSTORE PUSH1 0x24 SWAP1 REVERT JUMPDEST CALLVALUE PUSH2 0x747 JUMPI PUSH1 0x20 CALLDATASIZE PUSH1 0x3 NOT ADD SLT PUSH2 0x747 JUMPI PUSH1 0x20 PUSH2 0xE5B PUSH1 0x4 CALLDATALOAD PUSH2 0x16F6 JUMP JUMPDEST PUSH1 0x40 MLOAD PUSH1 0x1 PUSH1 0x1 PUSH1 0xA0 SHL SUB SWAP1 SWAP2 AND DUP2 MSTORE RETURN JUMPDEST CALLVALUE PUSH2 0x747 JUMPI PUSH2 0xBB1 PUSH2 0xE7E CALLDATASIZE PUSH2 0x133B JUMP JUMPDEST SWAP1 PUSH1 0x40 MLOAD SWAP3 PUSH2 0xE8C DUP5 PUSH2 0x138C JUMP JUMPDEST PUSH1 0x0 DUP5 MSTORE PUSH2 0xBAC DUP4 DUP4 DUP4 PUSH2 0x1557 JUMP JUMPDEST CALLVALUE PUSH2 0x747 JUMPI PUSH1 0x20 DUP1 PUSH1 0x3 NOT CALLDATASIZE ADD SLT PUSH2 0x747 JUMPI PUSH1 0x4 CALLDATALOAD DUP1 PUSH1 0x0 MSTORE PUSH1 0x7 DUP3 MSTORE PUSH1 0x40 PUSH1 0x0 KECCAK256 SLOAD ISZERO PUSH2 0x104C JUMPI PUSH2 0xECC DUP2 PUSH2 0x16F6 JUMP JUMPDEST PUSH1 0x1 PUSH1 0x1 PUSH1 0xA0 SHL SUB SWAP1 CALLER SWAP1 DUP3 AND SUB PUSH2 0x1015 JUMPI DUP2 PUSH1 0x0 MSTORE PUSH1 0x7 DUP4 MSTORE PUSH1 0x40 PUSH1 0x0 KECCAK256 PUSH1 0x4 DUP2 ADD DUP1 SLOAD PUSH1 0xFF DUP2 AND PUSH2 0xFDE JUMPI PUSH1 0x1 SWAP1 PUSH1 0xFF NOT AND OR SWAP1 SSTORE PUSH1 0x5 TIMESTAMP SWAP2 ADD SSTORE DUP2 PUSH1 0x0 MSTORE PUSH1 0x2 DUP4 MSTORE PUSH1 0x40 PUSH1 0x0 KECCAK256 SLOAD AND DUP2 PUSH1 0x0 DUP3 ISZERO SWAP3 DUP4 ISZERO PUSH2 0xFAB JUMPI JUMPDEST DUP3 DUP3 MSTORE PUSH1 0x2 DUP7 MSTORE PUSH1 0x40 DUP3 KECCAK256 DUP1 SLOAD PUSH1 0x1 PUSH1 0x1 PUSH1 0xA0 SHL SUB NOT AND SWAP1 SSTORE PUSH32 0xDDF252AD1BE2C89B69C2B068FC378DAA952BA7F163C4A11628F55A4DF523B3EF DUP3 DUP1 LOG4 PUSH2 0xF93 JUMPI PUSH32 0x480A76602F881EEF8C7FD7402787F2E9065D323D5A6A120586B17A7B44C716FF PUSH1 0x40 MLOAD SWAP3 TIMESTAMP DUP5 MSTORE CALLER SWAP4 LOG3 STOP JUMPDEST PUSH1 0x24 SWAP1 PUSH1 0x40 MLOAD SWAP1 PUSH4 0x7E273289 PUSH1 0xE0 SHL DUP3 MSTORE PUSH1 0x4 DUP3 ADD MSTORE REVERT JUMPDEST PUSH1 0x0 DUP4 DUP2 MSTORE PUSH1 0x4 PUSH1 0x20 MSTORE PUSH1 0x40 SWAP1 KECCAK256 DUP1 SLOAD PUSH1 0x1 PUSH1 0x1 PUSH1 0xA0 SHL SUB NOT AND SWAP1 SSTORE DUP1 DUP3 MSTORE PUSH1 0x3 DUP7 MSTORE PUSH1 0x40 DUP3 KECCAK256 DUP3 NOT DUP2 SLOAD ADD SWAP1 SSTORE PUSH2 0xF25 JUMP JUMPDEST PUSH1 0x40 MLOAD PUSH3 0x461BCD PUSH1 0xE5 SHL DUP2 MSTORE PUSH1 0x4 DUP2 ADD DUP8 SWAP1 MSTORE PUSH1 0xF PUSH1 0x24 DUP3 ADD MSTORE PUSH15 0x105B1C9958591E481C995D1A5C9959 PUSH1 0x8A SHL PUSH1 0x44 DUP3 ADD MSTORE PUSH1 0x64 SWAP1 REVERT JUMPDEST PUSH1 0x40 MLOAD PUSH3 0x461BCD PUSH1 0xE5 SHL DUP2 MSTORE PUSH1 0x4 DUP2 ADD DUP5 SWAP1 MSTORE PUSH1 0xF PUSH1 0x24 DUP3 ADD MSTORE PUSH15 0x2737BA103A37B5B2B71037BBB732B9 PUSH1 0x89 SHL PUSH1 0x44 DUP3 ADD MSTORE PUSH1 0x64 SWAP1 REVERT JUMPDEST PUSH1 0x40 MLOAD PUSH3 0x461BCD PUSH1 0xE5 SHL DUP2 MSTORE PUSH1 0x4 DUP2 ADD DUP4 SWAP1 MSTORE PUSH1 0x11 PUSH1 0x24 DUP3 ADD MSTORE PUSH17 0x2737B732BC34B9BA32B73A103A37B5B2B7 PUSH1 0x79 SHL PUSH1 0x44 DUP3 ADD MSTORE PUSH1 0x64 SWAP1 REVERT JUMPDEST CALLVALUE PUSH2 0x747 JUMPI PUSH2 0xBB1 PUSH2 0x1096 CALLDATASIZE PUSH2 0x133B JUMP JUMPDEST SWAP2 PUSH2 0x1557 JUMP JUMPDEST CALLVALUE PUSH2 0x747 JUMPI PUSH1 0x40 CALLDATASIZE PUSH1 0x3 NOT ADD SLT PUSH2 0x747 JUMPI PUSH2 0x10B5 PUSH2 0x130F JUMP JUMPDEST PUSH1 0x24 CALLDATALOAD PUSH2 0x10C1 DUP2 PUSH2 0x16F6 JUMP JUMPDEST CALLER ISZERO ISZERO DUP1 PUSH2 0x1170 JUMPI JUMPDEST DUP1 PUSH2 0x1143 JUMPI JUMPDEST PUSH2 0x112B JUMPI PUSH1 0x1 PUSH1 0x1 PUSH1 0xA0 SHL SUB SWAP3 DUP4 AND SWAP3 DUP3 SWAP2 DUP5 SWAP2 AND PUSH32 0x8C5BE1E5EBEC7D5BD14F71427D1E84F3DD0314C0F7B2291E5B200AC8C7C3B925 PUSH1 0x0 DUP1 LOG4 PUSH1 0x0 SWAP1 DUP2 MSTORE PUSH1 0x4 PUSH1 0x20 MSTORE PUSH1 0x40 SWAP1 KECCAK256 DUP1 SLOAD PUSH1 0x1 PUSH1 0x1 PUSH1 0xA0 SHL SUB NOT AND SWAP1 SWAP2 OR SWAP1 SSTORE STOP JUMPDEST PUSH1 0x40 MLOAD PUSH4 0xA9FBF51F PUSH1 0xE0 SHL DUP2 MSTORE CALLER PUSH1 0x4 DUP3 ADD MSTORE PUSH1 0x24 SWAP1 REVERT JUMPDEST POP PUSH1 0x1 DUP1 PUSH1 0xA0 SHL SUB DUP2 AND PUSH1 0x0 MSTORE PUSH1 0x5 PUSH1 0x20 MSTORE PUSH1 0x40 PUSH1 0x0 KECCAK256 CALLER PUSH1 0x0 MSTORE PUSH1 0x20 MSTORE PUSH1 0xFF PUSH1 0x40 PUSH1 0x0 KECCAK256 SLOAD AND ISZERO PUSH2 0x10D0 JUMP JUMPDEST POP PUSH1 0x1 PUSH1 0x1 PUSH1 0xA0 SHL SUB DUP2 AND CALLER EQ ISZERO PUSH2 0x10CA JUMP JUMPDEST CALLVALUE PUSH2 0x747 JUMPI PUSH1 0x20 CALLDATASIZE PUSH1 0x3 NOT ADD SLT PUSH2 0x747 JUMPI PUSH1 0x4 CALLDATALOAD PUSH2 0x11A0 DUP2 PUSH2 0x16F6 JUMP JUMPDEST POP PUSH1 0x0 MSTORE PUSH1 0x4 PUSH1 0x20 MSTORE PUSH1 0x20 PUSH1 0x1 DUP1 PUSH1 0xA0 SHL SUB PUSH1 0x40 PUSH1 0x0 KECCAK256 SLOAD AND PUSH1 0x40 MLOAD SWAP1 DUP2 MSTORE RETURN JUMPDEST CALLVALUE PUSH2 0x747 JUMPI PUSH1 0x0 CALLDATASIZE PUSH1 0x3 NOT ADD SLT PUSH2 0x747 JUMPI PUSH1 0x40 MLOAD PUSH1 0x0 DUP1 SLOAD PUSH2 0x11E2 DUP2 PUSH2 0x1477 JUMP JUMPDEST DUP1 DUP5 MSTORE SWAP1 PUSH1 0x1 SWAP1 DUP2 DUP2 AND SWAP1 DUP2 ISZERO PUSH2 0xD37 JUMPI POP PUSH1 0x1 EQ PUSH2 0x120B JUMPI PUSH2 0xAB7 DUP5 PUSH2 0xCCA DUP2 DUP7 SUB DUP3 PUSH2 0x13A8 JUMP JUMPDEST PUSH1 0x0 DUP1 DUP1 MSTORE SWAP3 POP PUSH32 0x290DECD9548B62A8D60345A988386FC84BA6BC95484008F6362F93160EF3E563 JUMPDEST DUP3 DUP5 LT PUSH2 0x124C JUMPI POP POP POP DUP2 ADD PUSH1 0x20 ADD PUSH2 0xCCA DUP3 PUSH2 0xCBA JUMP JUMPDEST DUP1 SLOAD PUSH1 0x20 DUP6 DUP8 ADD DUP2 ADD SWAP2 SWAP1 SWAP2 MSTORE SWAP1 SWAP4 ADD SWAP3 DUP2 ADD PUSH2 0x1234 JUMP JUMPDEST CALLVALUE PUSH2 0x747 JUMPI PUSH1 0x20 CALLDATASIZE PUSH1 0x3 NOT ADD SLT PUSH2 0x747 JUMPI PUSH1 0x4 CALLDATALOAD SWAP1 PUSH4 0xFFFFFFFF PUSH1 0xE0 SHL DUP3 AND DUP1 SWAP3 SUB PUSH2 0x747 JUMPI PUSH1 0x20 SWAP2 PUSH4 0x80AC58CD PUSH1 0xE0 SHL DUP2 EQ SWAP1 DUP2 ISZERO PUSH2 0x12BE JUMPI JUMPDEST DUP2 ISZERO PUSH2 0x12AD JUMPI JUMPDEST POP ISZERO ISZERO DUP2 MSTORE RETURN JUMPDEST PUSH4 0x1FFC9A7 PUSH1 0xE0 SHL EQ SWAP1 POP DUP4 PUSH2 0x12A6 JUMP JUMPDEST PUSH4 0x5B5E139F PUSH1 0xE0 SHL DUP2 EQ SWAP2 POP PUSH2 0x129F JUMP JUMPDEST SWAP2 SWAP1 DUP3 MLOAD SWAP3 DUP4 DUP3 MSTORE PUSH1 0x0 JUMPDEST DUP5 DUP2 LT PUSH2 0x12FB JUMPI POP POP DUP3 PUSH1 0x0 PUSH1 0x20 DUP1 SWAP5 SWAP6 DUP5 ADD ADD MSTORE PUSH1 0x1F DUP1 NOT SWAP2 ADD AND ADD ADD SWAP1 JUMP JUMPDEST PUSH1 0x20 DUP2 DUP4 ADD DUP2 ADD MLOAD DUP5 DUP4 ADD DUP3 ADD MSTORE ADD PUSH2 0x12DA JUMP JUMPDEST PUSH1 0x4 CALLDATALOAD SWAP1 PUSH1 0x1 PUSH1 0x1 PUSH1 0xA0 SHL SUB DUP3 AND DUP3 SUB PUSH2 0x747 JUMPI JUMP JUMPDEST PUSH1 0x24 CALLDATALOAD SWAP1 PUSH1 0x1 PUSH1 0x1 PUSH1 0xA0 SHL SUB DUP3 AND DUP3 SUB PUSH2 0x747 JUMPI JUMP JUMPDEST PUSH1 0x60 SWAP1 PUSH1 0x3 NOT ADD SLT PUSH2 0x747 JUMPI PUSH1 0x1 PUSH1 0x1 PUSH1 0xA0 SHL SUB SWAP1 PUSH1 0x4 CALLDATALOAD DUP3 DUP2 AND DUP2 SUB PUSH2 0x747 JUMPI SWAP2 PUSH1 0x24 CALLDATALOAD SWAP1 DUP2 AND DUP2 SUB PUSH2 0x747 JUMPI SWAP1 PUSH1 0x44 CALLDATALOAD SWAP1 JUMP JUMPDEST PUSH1 0xE0 DUP2 ADD SWAP1 DUP2 LT PUSH8 0xFFFFFFFFFFFFFFFF DUP3 GT OR PUSH2 0x470 JUMPI PUSH1 0x40 MSTORE JUMP JUMPDEST PUSH1 0x20 DUP2 ADD SWAP1 DUP2 LT PUSH8 0xFFFFFFFFFFFFFFFF DUP3 GT OR PUSH2 0x470 JUMPI PUSH1 0x40 MSTORE JUMP JUMPDEST SWAP1 PUSH1 0x1F DUP1 NOT SWAP2 ADD AND DUP2 ADD SWAP1 DUP2 LT PUSH8 0xFFFFFFFFFFFFFFFF DUP3 GT OR PUSH2 0x470 JUMPI PUSH1 0x40 MSTORE JUMP JUMPDEST PUSH8 0xFFFFFFFFFFFFFFFF DUP2 GT PUSH2 0x470 JUMPI PUSH1 0x1F ADD PUSH1 0x1F NOT AND PUSH1 0x20 ADD SWAP1 JUMP JUMPDEST SWAP3 SWAP2 SWAP3 PUSH2 0x13F2 DUP3 PUSH2 0x13CA JUMP JUMPDEST SWAP2 PUSH2 0x1400 PUSH1 0x40 MLOAD SWAP4 DUP5 PUSH2 0x13A8 JUMP JUMPDEST DUP3 SWAP5 DUP2 DUP5 MSTORE DUP2 DUP4 ADD GT PUSH2 0x747 JUMPI DUP3 DUP2 PUSH1 0x20 SWAP4 DUP5 PUSH1 0x0 SWAP7 ADD CALLDATACOPY ADD ADD MSTORE JUMP JUMPDEST SWAP2 DUP2 PUSH1 0x1F DUP5 ADD SLT ISZERO PUSH2 0x747 JUMPI DUP3 CALLDATALOAD SWAP2 PUSH8 0xFFFFFFFFFFFFFFFF DUP4 GT PUSH2 0x747 JUMPI PUSH1 0x20 DUP4 DUP2 DUP7 ADD SWAP6 ADD ADD GT PUSH2 0x747 JUMPI JUMP JUMPDEST PUSH1 0x6 SLOAD PUSH1 0x1 PUSH1 0x1 PUSH1 0xA0 SHL SUB AND CALLER SUB PUSH2 0x145F JUMPI JUMP JUMPDEST PUSH1 0x40 MLOAD PUSH4 0x118CDAA7 PUSH1 0xE0 SHL DUP2 MSTORE CALLER PUSH1 0x4 DUP3 ADD MSTORE PUSH1 0x24 SWAP1 REVERT JUMPDEST SWAP1 PUSH1 0x1 DUP3 DUP2 SHR SWAP3 AND DUP1 ISZERO PUSH2 0x14A7 JUMPI JUMPDEST PUSH1 0x20 DUP4 LT EQ PUSH2 0x1491 JUMPI JUMP JUMPDEST PUSH4 0x4E487B71 PUSH1 0xE0 SHL PUSH1 0x0 MSTORE PUSH1 0x22 PUSH1 0x4 MSTORE PUSH1 0x24 PUSH1 0x0 REVERT JUMPDEST SWAP2 PUSH1 0x7F AND SWAP2 PUSH2 0x1486 JUMP JUMPDEST SWAP1 PUSH1 0x40 MLOAD SWAP2 DUP3 PUSH1 0x0 DUP3 SLOAD SWAP3 PUSH2 0x14C5 DUP5 PUSH2 0x1477 JUMP JUMPDEST SWAP1 DUP2 DUP5 MSTORE PUSH1 0x1 SWAP5 DUP6 DUP2 AND SWAP1 DUP2 PUSH1 0x0 EQ PUSH2 0x1534 JUMPI POP PUSH1 0x1 EQ PUSH2 0x14F1 JUMPI JUMPDEST POP POP PUSH2 0x14EF SWAP3 POP SUB DUP4 PUSH2 0x13A8 JUMP JUMPDEST JUMP JUMPDEST SWAP1 SWAP4 SWAP2 POP PUSH1 0x0 MSTORE PUSH1 0x20 SWAP1 DUP2 PUSH1 0x0 KECCAK256 SWAP4 PUSH1 0x0 SWAP2 JUMPDEST DUP2 DUP4 LT PUSH2 0x151C JUMPI POP POP PUSH2 0x14EF SWAP4 POP DUP3 ADD ADD CODESIZE DUP1 PUSH2 0x14E1 JUMP JUMPDEST DUP6 SLOAD DUP9 DUP5 ADD DUP6 ADD MSTORE SWAP5 DUP6 ADD SWAP5 DUP8 SWAP5 POP SWAP2 DUP4 ADD SWAP2 PUSH2 0x1504 JUMP JUMPDEST SWAP2 POP POP PUSH2 0x14EF SWAP5 POP PUSH1 0x20 SWAP3 POP PUSH1 0xFF NOT AND DUP3 DUP5 ADD MSTORE ISZERO ISZERO PUSH1 0x5 SHL DUP3 ADD ADD CODESIZE DUP1 PUSH2 0x14E1 JUMP JUMPDEST PUSH1 0x1 PUSH1 0x1 PUSH1 0xA0 SHL SUB SWAP2 DUP3 AND SWAP3 SWAP1 SWAP2 DUP4 ISZERO PUSH2 0x16DD JUMPI PUSH1 0x0 SWAP3 DUP3 DUP5 MSTORE DUP3 PUSH1 0x20 SWAP6 PUSH1 0x2 DUP8 MSTORE PUSH1 0x40 SWAP7 DUP5 DUP9 DUP9 KECCAK256 SLOAD AND SWAP7 DUP8 SWAP2 CALLER ISZERO ISZERO DUP1 PUSH2 0x1647 JUMPI JUMPDEST POP SWAP1 PUSH1 0x2 PUSH32 0xDDF252AD1BE2C89B69C2B068FC378DAA952BA7F163C4A11628F55A4DF523B3EF SWAP3 DUP5 PUSH2 0x1614 JUMPI JUMPDEST DUP6 DUP4 MSTORE PUSH1 0x3 DUP2 MSTORE DUP12 DUP4 KECCAK256 DUP1 SLOAD PUSH1 0x1 ADD SWAP1 SSTORE DUP7 DUP4 MSTORE MSTORE DUP10 DUP2 KECCAK256 DUP1 SLOAD PUSH1 0x1 PUSH1 0x1 PUSH1 0xA0 SHL SUB NOT AND DUP6 OR SWAP1 SSTORE DUP1 LOG4 AND SWAP3 DUP4 DUP4 SUB PUSH2 0x15F3 JUMPI POP POP POP POP JUMP JUMPDEST PUSH1 0x64 SWAP5 POP MLOAD SWAP3 PUSH4 0x64283D7B PUSH1 0xE0 SHL DUP5 MSTORE PUSH1 0x4 DUP5 ADD MSTORE PUSH1 0x24 DUP4 ADD MSTORE PUSH1 0x44 DUP3 ADD MSTORE REVERT JUMPDEST PUSH1 0x0 DUP8 DUP2 MSTORE PUSH1 0x4 PUSH1 0x20 MSTORE PUSH1 0x40 SWAP1 KECCAK256 DUP1 SLOAD PUSH1 0x1 PUSH1 0x1 PUSH1 0xA0 SHL SUB NOT AND SWAP1 SSTORE DUP5 DUP4 MSTORE PUSH1 0x3 DUP2 MSTORE DUP12 DUP4 KECCAK256 DUP1 SLOAD PUSH1 0x0 NOT ADD SWAP1 SSTORE PUSH2 0x15BA JUMP JUMPDEST SWAP2 SWAP4 SWAP5 POP SWAP2 POP DUP1 PUSH2 0x169C JUMPI JUMPDEST ISZERO PUSH2 0x1663 JUMPI DUP6 SWAP3 SWAP2 DUP8 SWAP2 CODESIZE PUSH2 0x158E JUMP JUMPDEST DUP8 DUP7 DUP9 PUSH2 0x1680 JUMPI PUSH1 0x24 SWAP2 MLOAD SWAP1 PUSH4 0x7E273289 PUSH1 0xE0 SHL DUP3 MSTORE PUSH1 0x4 DUP3 ADD MSTORE REVERT JUMPDEST PUSH1 0x44 SWAP2 MLOAD SWAP1 PUSH4 0x177E802F PUSH1 0xE0 SHL DUP3 MSTORE CALLER PUSH1 0x4 DUP4 ADD MSTORE PUSH1 0x24 DUP3 ADD MSTORE REVERT JUMPDEST POP CALLER DUP8 EQ DUP1 ISZERO PUSH2 0x16C1 JUMPI JUMPDEST DUP1 PUSH2 0x1653 JUMPI POP DUP6 DUP3 MSTORE PUSH1 0x4 DUP2 MSTORE CALLER DUP6 DUP10 DUP5 KECCAK256 SLOAD AND EQ PUSH2 0x1653 JUMP JUMPDEST POP DUP7 DUP3 MSTORE PUSH1 0x5 DUP2 MSTORE DUP8 DUP3 KECCAK256 CALLER DUP4 MSTORE DUP2 MSTORE PUSH1 0xFF DUP9 DUP4 KECCAK256 SLOAD AND PUSH2 0x16A7 JUMP JUMPDEST PUSH1 0x40 MLOAD PUSH4 0x32505749 PUSH1 0xE1 SHL DUP2 MSTORE PUSH1 0x0 PUSH1 0x4 DUP3 ADD MSTORE PUSH1 0x24 SWAP1 REVERT JUMPDEST PUSH1 0x0 DUP2 DUP2 MSTORE PUSH1 0x2 PUSH1 0x20 MSTORE PUSH1 0x40 SWAP1 KECCAK256 SLOAD PUSH1 0x1 PUSH1 0x1 PUSH1 0xA0 SHL SUB AND SWAP1 DUP2 ISZERO PUSH2 0xF93 JUMPI POP SWAP1 JUMP JUMPDEST DUP2 EXTCODESIZE PUSH2 0x1726 JUMPI JUMPDEST POP POP POP POP JUMP JUMPDEST PUSH1 0x40 MLOAD PUSH4 0xA85BD01 PUSH1 0xE1 SHL DUP1 DUP3 MSTORE CALLER PUSH1 0x4 DUP4 ADD MSTORE PUSH1 0x1 PUSH1 0x1 PUSH1 0xA0 SHL SUB SWAP3 DUP4 AND PUSH1 0x24 DUP4 ADD MSTORE PUSH1 0x44 DUP3 ADD SWAP5 SWAP1 SWAP5 MSTORE PUSH1 0x80 PUSH1 0x64 DUP3 ADD MSTORE PUSH1 0x20 SWAP6 SWAP3 SWAP1 SWAP2 AND SWAP4 SWAP1 SWAP3 SWAP1 DUP4 SWAP1 PUSH2 0x1774 SWAP1 PUSH1 0x84 DUP4 ADD SWAP1 PUSH2 0x12CF JUMP JUMPDEST SUB SWAP3 DUP6 DUP2 PUSH1 0x0 SWAP6 DUP2 DUP8 DUP10 GAS CALL DUP5 SWAP2 DUP2 PUSH2 0x181D JUMPI JUMPDEST POP PUSH2 0x17E8 JUMPI POP POP POP RETURNDATASIZE PUSH1 0x0 EQ PUSH2 0x17E0 JUMPI RETURNDATASIZE PUSH2 0x17A2 DUP2 PUSH2 0x13CA JUMP JUMPDEST SWAP1 PUSH2 0x17B0 PUSH1 0x40 MLOAD SWAP3 DUP4 PUSH2 0x13A8 JUMP JUMPDEST DUP2 MSTORE DUP1 SWAP2 DUP5 RETURNDATASIZE SWAP3 ADD RETURNDATACOPY JUMPDEST DUP1 MLOAD SWAP3 DUP4 PUSH2 0x17DB JUMPI PUSH1 0x40 MLOAD PUSH4 0x32505749 PUSH1 0xE1 SHL DUP2 MSTORE PUSH1 0x4 DUP2 ADD DUP5 SWAP1 MSTORE PUSH1 0x24 SWAP1 REVERT JUMPDEST ADD SWAP1 POP REVERT JUMPDEST POP PUSH1 0x60 PUSH2 0x17BA JUMP JUMPDEST SWAP2 SWAP5 POP SWAP2 POP PUSH4 0xFFFFFFFF PUSH1 0xE0 SHL AND SUB PUSH2 0x1805 JUMPI POP CODESIZE DUP1 DUP1 DUP1 PUSH2 0x1720 JUMP JUMPDEST PUSH1 0x24 SWAP1 PUSH1 0x40 MLOAD SWAP1 PUSH4 0x32505749 PUSH1 0xE1 SHL DUP3 MSTORE PUSH1 0x4 DUP3 ADD MSTORE REVERT JUMPDEST SWAP1 SWAP2 POP DUP7 DUP2 DUP2 RETURNDATASIZE DUP4 GT PUSH2 0x185A JUMPI JUMPDEST PUSH2 0x1835 DUP2 DUP4 PUSH2 0x13A8 JUMP JUMPDEST DUP2 ADD SUB SLT PUSH2 0x1856 JUMPI MLOAD PUSH1 0x1 PUSH1 0x1 PUSH1 0xE0 SHL SUB NOT DUP2 AND DUP2 SUB PUSH2 0x1856 JUMPI SWAP1 CODESIZE PUSH2 0x1788 JUMP JUMPDEST DUP5 DUP1 REVERT JUMPDEST POP RETURNDATASIZE PUSH2 0x182B JUMP JUMPDEST SWAP1 DUP1 PUSH1 0x20 SWAP4 SWAP3 DUP2 DUP5 MSTORE DUP5 DUP5 ADD CALLDATACOPY PUSH1 0x0 DUP3 DUP3 ADD DUP5 ADD MSTORE PUSH1 0x1F ADD PUSH1 0x1F NOT AND ADD ADD SWAP1 JUMP INVALID LOG2 PUSH5 0x6970667358 0x22 SLT KECCAK256 DUP7 PUSH11 0x9C31041225352593A2B55F 0xA6 0xED MOD MSIZE SHR PUSH16 0x4B4883C8C9D8B99BA6FCA66B0264736F PUSH13 0x63430008140033000000000000 "},"methodIdentifiers":{"allTokenIds()":"e7619fad","approve(address,uint256)":"095ea7b3","balanceOf(address)":"70a08231","getApproved(uint256)":"081812fc","getCredit(uint256)":"da304e4d","isApprovedForAll(address,address)":"e985e9c5","mintCredit(address,uint256,string,string)":"fe5d816f","name()":"06fdde03","owner()":"8da5cb5b","ownerOf(uint256)":"6352211e","renounceOwnership()":"715018a6","retire(uint256)":"3790cf57","safeTransferFrom(address,address,uint256)":"42842e0e","safeTransferFrom(address,address,uint256,bytes)":"b88d4fde","setApprovalForAll(address,bool)":"a22cb465","supportsInterface(bytes4)":"01ffc9a7","symbol()":"95d89b41","tokenURI(uint256)":"c87b56dd","totalMinted()":"a2309ff8","transferFrom(address,address,uint256)":"23b872dd","transferOwnership(address)":"f2fde38b"}}}}}