{"contracts/StockySupplyChain.sol":{"StockySupplyChain":{"abi":[{"inputs":[],"stateMutability":"nonpayable","type":"constructor"},{"anonymous":false,"inputs":[{"indexed":true,"internalType":"string","name":"businessId","type":"string"},{"indexed":false,"internalType":"string","name":"name","type":"string"},{"indexed":false,"internalType":"address","name":"owner","type":"address"}],"name":"BusinessRegistered","type":"event"},{"anonymous":false,"inputs":[{"indexed":true,"internalType":"string","name":"productId","type":"string"},{"indexed":false,"internalType":"string","name":"businessId","type":"string"},{"indexed":false,"internalType":"address","name":"creator","type":"address"}],"name":"ProductRegistered","type":"event"},{"anonymous":false,"inputs":[{"indexed":true,"internalType":"string","name":"productId","type":"string"},{"indexed":false,"internalType":"string","name":"buyerId","type":"string"},{"indexed":false,"internalType":"uint256","name":"finalPrice","type":"uint256"}],"name":"ProductSold","type":"event"},{"anonymous":false,"inputs":[{"indexed":true,"internalType":"string","name":"productId","type":"string"},{"indexed":false,"internalType":"uint256","name":"newPrice","type":"uint256"},{"indexed":false,"internalType":"uint8","name":"discount","type":"uint8"}],"name":"ProductUpdated","type":"event"},{"anonymous":false,"inputs":[{"indexed":true,"internalType":"string","name":"transactionId","type":"string"}],"name":"TransactionCompleted","type":"event"},{"anonymous":false,"inputs":[{"indexed":true,"internalType":"string","name":"transactionId","type":"string"},{"indexed":false,"internalType":"string","name":"productId","type":"string"},{"indexed":false,"internalType":"uint256","name":"amount","type":"uint256"}],"name":"TransactionCreated","type":"event"},{"inputs":[{"internalType":"string","name":"","type":"string"}],"name":"businessIdToAddress","outputs":[{"internalType":"address","name":"","type":"address"}],"stateMutability":"view","type":"function"},{"inputs":[{"internalType":"uint256","name":"","type":"uint256"}],"name":"businessIds","outputs":[{"internalType":"string","name":"","type":"string"}],"stateMutability":"view","type":"function"},{"inputs":[{"internalType":"string","name":"","type":"string"}],"name":"businesses","outputs":[{"internalType":"string","name":"businessId","type":"string"},{"internalType":"string","name":"name","type":"string"},{"internalType":"string","name":"owner","type":"string"},{"internalType":"bool","name":"verified","type":"bool"},{"internalType":"uint256","name":"registrationDate","type":"uint256"},{"internalType":"uint256","name":"totalProducts","type":"uint256"}],"stateMutability":"view","type":"function"},{"inputs":[{"internalType":"string","name":"transactionId","type":"string"}],"name":"cancelTransaction","outputs":[],"stateMutability":"nonpayable","type":"function"},{"inputs":[{"internalType":"string","name":"transactionId","type":"string"}],"name":"completeTransaction","outputs":[],"stateMutability":"nonpayable","type":"function"},{"inputs":[{"internalType":"string","name":"transactionId","type":"string"},{"internalType":"string","name":"productId","type":"string"},{"internalType":"string","name":"buyerId","type":"string"},{"internalType":"uint256","name":"amount","type":"uint256"}],"name":"createTransaction","outputs":[],"stateMutability":"nonpayable","type":"function"},{"inputs":[],"name":"getAllBusinessIds","outputs":[{"internalType":"string[]","name":"","type":"string[]"}],"stateMutability":"view","type":"function"},{"inputs":[],"name":"getAllProductIds","outputs":[{"internalType":"string[]","name":"","type":"string[]"}],"stateMutability":"view","type":"function"},{"inputs":[{"internalType":"string","name":"businessId","type":"string"}],"name":"getBusiness","outputs":[{"internalType":"string","name":"name","type":"string"},{"internalType":"string","name":"ownerName","type":"string"},{"internalType":"bool","name":"verified","type":"bool"},{"internalType":"uint256","name":"registrationDate","type":"uint256"},{"internalType":"uint256","name":"totalProductsCount","type":"uint256"}],"stateMutability":"view","type":"function"},{"inputs":[],"name":"getPlatformStats","outputs":[{"internalType":"uint256","name":"totalProductsCount","type":"uint256"},{"internalType":"uint256","name":"totalBusinessesCount","type":"uint256"},{"internalType":"uint256","name":"totalTransactionsCount","type":"uint256"}],"stateMutability":"view","type":"function"},{"inputs":[{"internalType":"string","name":"productId","type":"string"}],"name":"getProduct","outputs":[{"internalType":"string","name":"name","type":"string"},{"internalType":"string","name":"businessId","type":"string"},{"internalType":"uint256","name":"originalPrice","type":"uint256"},{"internalType":"uint256","name":"currentPrice","type":"uint256"},{"internalType":"uint8","name":"discount","type":"uint8"},{"internalType":"enum StockySupplyChain.ProductStatus","name":"status","type":"uint8"},{"internalType":"uint256","name":"expiryDate","type":"uint256"},{"internalType":"string","name":"metadata","type":"string"}],"stateMutability":"view","type":"function"},{"inputs":[{"internalType":"string","name":"transactionId","type":"string"}],"name":"getTransaction","outputs":[{"internalType":"string","name":"productId","type":"string"},{"internalType":"string","name":"buyerId","type":"string"},{"internalType":"string","name":"sellerId","type":"string"},{"internalType":"uint256","name":"amount","type":"uint256"},{"internalType":"uint256","name":"timestamp","type":"uint256"},{"internalType":"enum StockySupplyChain.TransactionStatus","name":"status","type":"uint8"}],"stateMutability":"view","type":"function"},{"inputs":[{"internalType":"string","name":"productId","type":"string"}],"name":"markProductExpired","outputs":[],"stateMutability":"nonpayable","type":"function"},{"inputs":[],"name":"owner","outputs":[{"internalType":"address","name":"","type":"address"}],"stateMutability":"view","type":"function"},{"inputs":[{"internalType":"uint256","name":"","type":"uint256"}],"name":"productIds","outputs":[{"internalType":"string","name":"","type":"string"}],"stateMutability":"view","type":"function"},{"inputs":[{"internalType":"string","name":"","type":"string"}],"name":"products","outputs":[{"internalType":"string","name":"productId","type":"string"},{"internalType":"string","name":"name","type":"string"},{"internalType":"string","name":"businessId","type":"string"},{"internalType":"string","name":"batchNumber","type":"string"},{"internalType":"uint256","name":"manufacturedDate","type":"uint256"},{"internalType":"uint256","name":"expiryDate","type":"uint256"},{"internalType":"uint256","name":"originalPrice","type":"uint256"},{"internalType":"uint256","name":"currentPrice","type":"uint256"},{"internalType":"uint8","name":"discount","type":"uint8"},{"internalType":"enum StockySupplyChain.ProductStatus","name":"status","type":"uint8"},{"internalType":"address","name":"creator","type":"address"},{"internalType":"uint256","name":"timestamp","type":"uint256"},{"internalType":"string","name":"metadata","type":"string"}],"stateMutability":"view","type":"function"},{"inputs":[{"internalType":"string","name":"businessId","type":"string"},{"internalType":"string","name":"name","type":"string"},{"internalType":"string","name":"ownerName","type":"string"}],"name":"registerBusiness","outputs":[],"stateMutability":"nonpayable","type":"function"},{"inputs":[{"internalType":"string","name":"productId","type":"string"},{"internalType":"string","name":"name","type":"string"},{"internalType":"string","name":"businessId","type":"string"},{"internalType":"string","name":"batchNumber","type":"string"},{"internalType":"uint256","name":"manufacturedDate","type":"uint256"},{"internalType":"uint256","name":"expiryDate","type":"uint256"},{"internalType":"uint256","name":"originalPrice","type":"uint256"},{"internalType":"string","name":"metadata","type":"string"}],"name":"registerProduct","outputs":[],"stateMutability":"nonpayable","type":"function"},{"inputs":[],"name":"totalBusinesses","outputs":[{"internalType":"uint256","name":"","type":"uint256"}],"stateMutability":"view","type":"function"},{"inputs":[],"name":"totalProducts","outputs":[{"internalType":"uint256","name":"","type":"uint256"}],"stateMutability":"view","type":"function"},{"inputs":[],"name":"totalTransactions","outputs":[{"internalType":"uint256","name":"","type":"uint256"}],"stateMutability":"view","type":"function"},{"inputs":[{"internalType":"uint256","name":"","type":"uint256"}],"name":"transactionIds","outputs":[{"internalType":"string","name":"","type":"string"}],"stateMutability":"view","type":"function"},{"inputs":[{"internalType":"string","name":"","type":"string"}],"name":"transactions","outputs":[{"internalType":"string","name":"transactionId","type":"string"},{"internalType":"string","name":"productId","type":"string"},{"internalType":"string","name":"buyerId","type":"string"},{"internalType":"string","name":"sellerId","type":"string"},{"internalType":"uint256","name":"amount","type":"uint256"},{"internalType":"uint256","name":"timestamp","type":"uint256"},{"internalType":"enum StockySupplyChain.TransactionStatus","name":"status","type":"uint8"}],"stateMutability":"view","type":"function"},{"inputs":[{"internalType":"string","name":"productId","type":"string"},{"internalType":"uint256","name":"newPrice","type":"uint256"},{"internalType":"uint8","name":"discount","type":"uint8"}],"name":"updateProductPrice","outputs":[],"stateMutability":"nonpayable","type":"function"},{"inputs":[{"internalType":"address","name":"","type":"address"}],"name":"userToBusinessId","outputs":[{"internalType":"string","name":"","type":"string"}],"stateMutability":"view","type":"function"},{"inputs":[{"internalType":"string","name":"businessId","type":"string"}],"name":"verifyBusiness","outputs":[],"stateMutability":"nonpayable","type":"function"}],"evm":{"bytecode":{"linkReferences":{},"object":"6080806040523461003757600880546001600160a01b0319163317905560006009819055600a819055600b556122bd908161003d8239f35b600080fdfe608060405260048036101561001357600080fd5b60e0600035811c9081630186a42314611bc6578163022236f414611adf578163136d888314611ab05781632902a960146118415781632f2ffd881461170557816355ad5530146116695781635aec0efc1461145357816360d2043114611435578163663c01af146113995781636757876c146112b757816368111cce1461111357816368c8add81461103757816372c26bea14610f265781637cb484a214610ac4575080638438e7ea1461085a5780638da5cb5b1461083157806393a70214146107cb57806395a58774146104a95780639b9d326d1461048b5780639c6f88551461043b578063a7455e89146103fe578063ac2ccd07146102ef578063b45e1c4e14610218578063b9a60038146101fa578063cb51bba9146101aa5763e36f8dc51461013e57600080fd5b346101a55760203660031901126101a557356007548110156101a55761018d6101a19160076000527fa66cc928b5edb82af9bd49922954155ab7b0942694bea4ce44661d9a8736c68801611e5e565b604051918291602083526020830190611f04565b0390f35b600080fd5b50346101a55760203660031901126101a557356005548110156101a55761018d6101a19160056000527f036b6384b5eca791c62761152d0c79bb0604c104a5fb6f4eb0703f3154bb3db001611e5e565b346101a55760003660031901126101a5576020600b54604051908152f35b50346101a55760203660031901126101a5578035906001600160401b0382116101a55761026360206102506102bd9436908501611dab565b8160405193828580945193849201611e01565b810160018152030190209061027782611e5e565b9161028460018201611e5e565b906102d961029460028301611e5e565b6102cb600560ff600386015416968501549401549460405198899860c08a5260c08a0190611f04565b9088820360208a0152611f04565b908682036040880152611f04565b9215156060850152608084015260a08301520390f35b50346101a55760203660031901126101a5578035906001600160401b0382116101a55761032760206102506102bd9436908501611dab565b8101600281520301902060c06040519261034084611d6f565b61034983611e5e565b84526103e161035a60018501611e5e565b94602081019586526102cb61037160028701611e5e565b966040830197885261038560038801611e5e565b9460608401958652870154926080810193845260ff600660058a01549960a084019a8b520154169687916103b883611f29565b0152519651935191519551936103cd86611f29565b60405198899860c08a5260c08a0190611f04565b92606085015260808401526103f581611f29565b60a08301520390f35b50346101a55760203660031901126101a557356001600160a01b038116908190036101a55760005260036020526101a161018d6040600020611e5e565b50346101a55760203660031901126101a557356006548110156101a55761018d6101a19160066000527ff652222313e28459528d920b65115c16c04f3efc82aaedc97be59f3f377c0d3f01611e5e565b346101a55760003660031901126101a5576020600954604051908152f35b50346101a55760803660031901126101a5576001600160401b0381358181116101a5576104d99036908401611dab565b906024358181116101a5576104f19036908501611dab565b916044359182116101a55761050c6105429236908601611dab565b936064359461055a604051865161054960209783898095818d0195610532818389611e01565b8101600081520301902054611e24565b1515612173565b604051809381928a51928391611e01565b8101600081520301902060ff600882015460081c1661057881611f29565b80159081156107b7575b501561077b5760078101548710610737578380886106358861062b6000976106218d6106176106056105d4600260069d604080519e8f906105c282611d6f565b81528b81019788520197885201611e5e565b9660608c0197885260808c01998a5260a08c019a428c5260c08d019e8f528160405193828580945193849201611e01565b8101600281520301902099518a611fab565b5160018901611fab565b5160028701611fab565b5160038501611fab565b518583015551600582015501905161064c81611f29565b61065581611f29565b60ff8019835416911617905560075490600160401b82101561072257600182018060075582101561070d5750916106ef826106dc7f72fef583f955efc4ded46bda9ee563c8b8030eaa366e8ccb1f1cb50e967cd4cc96946107049660076000527fa66cc928b5edb82af9bd49922954155ab7b0942694bea4ce44661d9a8736c68801611fab565b6106e7600b546120ba565b600b556120df565b94604051938493604085526040850190611f04565b918301520390a2005b603290634e487b7160e01b6000525260246000fd5b604190634e487b7160e01b6000525260246000fd5b60405162461bcd60e51b8152808401869052601b60248201527f496e73756666696369656e74207061796d656e7420616d6f756e7400000000006044820152606490fd5b60405162461bcd60e51b8152808401869052601560248201527450726f64756374206e6f7420617661696c61626c6560581b6044820152606490fd5b600191506107c481611f29565b1438610582565b50346101a55760203660031901126101a5578035906001600160401b0382116101a5576107fd60209236908301611dab565b826108116040519283815193849201611e01565b81019182529081900382019020546040516001600160a01b039091168152f35b346101a55760003660031901126101a5576008546040516001600160a01b039091168152602090f35b50346101a557602090816003193601126101a55780356001600160401b0381116101a55761088b9036908301611dab565b6040518381835161089f8183858801611e01565b810160028152030190209260068401908154936108c860ff86166108c281611f29565b1561223b565b6001938487019360405184816108de81896121b8565b6000815203019020906040516108f781600285016121b8565b85815281900386019020546001600160a01b03163303610a745760ff1997881687179055600801805461ff001916610300179055610934906120df565b610970604051809381937fbee971bb104f3ed8cba2fcdbedd3fa3a03c64d7756751d36a297196a236d26f1600080a260028a01990154956121b8565b039020936040519360408552600096805461098a81611e24565b938460408901528382169182600014610a2f5750506001146109d6575b867f83c49c39693c7ac79995445d70c5c9d25fb6690a7ceb4721609dbf953dd55a3b87808b89898301520390a2005b6000908152838120939750925b828410610a1b57505050820160600193817f83c49c39693c7ac79995445d70c5c9d25fb6690a7ceb4721609dbf953dd55a3b846109a7565b8054868501606001529287019281016109e3565b1660608881019190915293151560051b870190930197508492507f83c49c39693c7ac79995445d70c5c9d25fb6690a7ceb4721609dbf953dd55a3b91508590506109a7565b60405162461bcd60e51b81528085018690526024808201527f4f6e6c792073656c6c65722063616e20636f6d706c657465207472616e7361636044820152633a34b7b760e11b6064820152608490fd5b82346101a5576101003660031901126101a5576001600160401b0381358181116101a557610af59036908401611dab565b91602480358381116101a557610b0e9036908401611dab565b946044358481116101a557610b269036908501611dab565b956064358581116101a557610b3e9036908601611dab565b9460a4359060c4359060e4359081116101a557610b5e9036908801611dab565b91604051978a519860208c0199610b7681838d611e01565b81018981528190036020019020546001600160a01b03163303610ed057610bc8610bc1610bb160208c8f604051938492839251928391611e01565b8101600181520301902054611e24565b1515612127565b610be461053260208c8160405193828580945193849201611e01565b610e945742821115610e3f579261018092610d4a969592600a9560405194610c0b86611d53565b8d865260208601528d60408601526060850152608435608085015260a08401528060c0840152858301526000610100830152600061012083015233610140830152426101608301528282015260405160208181610c6e8d83815193849201611e01565b8101600081520301902093610c84825186611fab565b610c95602083015160018701611fab565b610ca6604083015160028701611fab565b610cb7606083015160038701611fab565b60808201518886015560a0820151600586015560c0820151600686015581015160078501556008840160ff6101008301511681549061ff0061012085015191610cff83611f29565b610d0883611f29565b62010000600160b01b0361014087015160101b169369ffffffffffffffffffff60b01b16179160081b1617179055610160810151600985015501519101611fab565b60055491600160401b831015610e2c576001830180600555831015610e1957857fdc62d3d2ce3bcf04d8c0c001c3d1b9b793bc83b6a8d7de0cb99d77b4504cb5af610e14610e05886005610ddb60208b610dca858d866000527f036b6384b5eca791c62761152d0c79bb0604c104a5fb6f4eb0703f3154bb3db001611fab565b604051809381928b51928391611e01565b8101600181520301902001610df081546120ba565b9055610dfd6009546120ba565b6009556120df565b926040519182913390836120ff565b0390a2005b603290634e487b7160e01b600052526000fd5b604190634e487b7160e01b600052526000fd5b60405162461bcd60e51b81526020818a01526029818901527f50726f647563742063616e6e6f7420626520657870697265642061742072656760448201526834b9ba3930ba34b7b760b91b6064820152608490fd5b60405162461bcd60e51b81526020818a01526016818901527550726f6475637420616c72656164792065786973747360501b6044820152606490fd5b60405162461bcd60e51b81526020818a0152602a818901527f4f6e6c7920627573696e657373206f776e65722063616e2063616c6c207468696044820152693990333ab731ba34b7b760b11b6064820152608490fd5b82346101a557602090816003193601126101a55780356001600160401b0381116101a55782610f5b610f8a9236908501611dab565b60405190610f7961054282519385818186019661053281838a611e01565b604051938492839251928391611e01565b81016000815203019020916005830154421080159061100b575b15610fbc5760088301805461ff001916610200179055005b60405162461bcd60e51b815291820152602360248201527f50726f64756374206e6f742065787069726564206f7220756e617574686f72696044820152621e995960ea1b606482015260849150fd5b5060405161101c81600286016121b8565b83815281900382019020546001600160a01b03163314610fa4565b82346101a55760203660031901126101a55780356001600160401b0381116101a5576110669036908301611dab565b6008549091906001600160a01b031633036110bc5760036110a160208460405190610f79610bc1825193858181860196610bb181838a611e01565b8101600181520301902001600160ff19825416179055600080f35b60849060206040519162461bcd60e51b8352820152602a60248201527f4f6e6c7920636f6e7472616374206f776e65722063616e2063616c6c207468696044820152693990333ab731ba34b7b760b11b6064820152fd5b9050346101a55760203660031901126101a55781356001600160401b0381116101a5576111439036908401611dab565b604051818180935160208193019161115a92611e01565b8101600081520360200190206040519061117382611d53565b61117c81611e5e565b825261118a60018201611e5e565b602083019081529261119e60028301611e5e565b60408401908152946111b260038401611e5e565b6060850152820154608084015260058201549260a0810193845260068301549360c08201948552600784015493838301948552600881015490610100978885019160ff841683528360081c60ff169361012087019461121081611f29565b855260101c6001600160a01b0316610140870152600981015461016087015261123b90600a01611e5e565b946101800194855251985196519551905160ff1691519261125b84611f29565b5193519660405199898b9a8b528a0161127391611f04565b89810360208b015261128491611f04565b9560408901526060880152608087015261129d81611f29565b60a086015260c0850152838203908401526101a191611f04565b82346101a55760203660031901126101a5578035906001600160401b0382116101a5576112ef60206102506113779436908501611dab565b810160018152030190209060a06040519261130984611d22565b61131281611e5e565b845261138561132360018301611e5e565b6020860190815261133660028401611e5e565b95866040820152600560ff6003860154161515968760608401528501549485608084015201549485910152519460405196879660a0885260a0880190611f04565b908682036020880152611f04565b926040850152606084015260808301520390f35b82346101a55760003660031901126101a557600554906001600160401b03821161072257506040516020916113d3838260051b0183611d8a565b80825282820160056000527f036b6384b5eca791c62761152d0c79bb0604c104a5fb6f4eb0703f3154bb3db0936000915b83831061141957604051806101a18782611f49565b600182819261142789611e5e565b815201960192019194611404565b346101a55760003660031901126101a5576020600a54604051908152f35b82346101a55760603660031901126101a55780356001600160401b0381116101a5576114829036908301611dab565b602435906044359060ff82168092036101a557610542936114cb60405183516114ba602098838a8095818a0195610532818389611e01565b604051809381928751928391611e01565b81016000815203019020906040516114e681600285016121b8565b82815281900387019020546001600160a01b0316330361161957600682015485116115c6576064841161158257509161156184926008857fa332376864d3fea1442038835e06bb6af524b8d5ffebdbb05a2bed8fa1b9889197600760409801550180548460ff198216178255848061156d575b5050506120df565b948351928352820152a2005b6101009161ffff191617179055878084611559565b60405162461bcd60e51b8152908101869052601b60248201527f446973636f756e742063616e6e6f7420657863656564203130302500000000006044820152606490fd5b60405162461bcd60e51b8152908101869052602660248201527f4e65772070726963652063616e6e6f7420657863656564206f726967696e616c60448201526520707269636560d01b6064820152608490fd5b60405162461bcd60e51b8152908101869052602360248201527f4f6e6c792070726f64756374206f776e65722063616e2075706461746520707260448201526269636560e81b6064820152608490fd5b82346101a55760003660031901126101a557600654906001600160401b03821161072257506040516020916116a3838260051b0183611d8a565b80825282820160066000527ff652222313e28459528d920b65115c16c04f3efc82aaedc97be59f3f377c0d3f936000915b8383106116e957604051806101a18782611f49565b60018281926116f789611e5e565b8152019601920191946116d4565b82346101a5576020806003193601126101a55781356001600160401b0381116101a557816102506117399236908601611dab565b8101600281520301902091600683019060018383549561175f60ff88166108c281611f29565b61176f60405180948193016121b8565b60008152030190209260405161178881600287016121b8565b83815281900382019020546001600160a01b031633036117f3575050600260089360ff1916179055600581015442106000146117e35701805460ff8116156117da5750805461ff001916610100179055005b61ff0019169055005b01805461ff001916610200179055005b60405162461bcd60e51b815291820152602260248201527f4f6e6c792073656c6c65722063616e2063616e63656c207472616e736163746960448201526137b760f11b606482015260849150fd5b82346101a55760603660031901126101a5576001600160401b039080358281116101a5576118729036908301611dab565b906024358381116101a55761188a9036908301611dab565b926044359081116101a5576118a29036908301611dab565b604051908351906118c0602093848181890195610bb1818389611e01565b611a6c5733600052600383526118da604060002054611e24565b611a2857906119839291600586604051926118f484611d22565b818452858401908a825260408501908152611950606086019160008352610621608088019442865261061761193e8c8c60a08d019a60008c52604051938492839251928391611e01565b8101600181520301902099518a611fab565b600385019051151560ff8019835416911617905551878401555191015533600052600382526114ba856040600020611fab565b81018481520301902080546001600160a01b0319163317905560065490600160401b82101561072257600182018060065582101561070d5750610e0582611a157f683c95e74f23a58ebacad1072881d776869526afd974063423b60e665ae8e95294610e149460066000527ff652222313e28459528d920b65115c16c04f3efc82aaedc97be59f3f377c0d3f01611fab565b611a20600a546120ba565b600a556120df565b60405162461bcd60e51b8152808501849052601e60248201527f4164647265737320616c726561647920686173206120627573696e65737300006044820152606490fd5b60405162461bcd60e51b8152808501849052601760248201527f427573696e65737320616c7265616479206578697374730000000000000000006044820152606490fd5b346101a55760003660031901126101a5576060600954600a54600b549060405192835260208301526040820152f35b9050346101a55760203660031901126101a55781356001600160401b0381116101a5576020610250611b149236908601611dab565b8101600281520301902091611b2883611e5e565b92611b3560018201611e5e565b90611ba9611b4560028301611e5e565b93611b9b611b5560038501611e5e565b9184015495611b8d60ff600660058801549701541696611b7f6040519b8b8d9c8d528c0190611f04565b908a820360208c0152611f04565b9088820360408a0152611f04565b908682036060880152611f04565b92608085015260a0840152611bbd81611f29565b60c08301520390f35b82346101a55760203660031901126101a55780356001600160401b0381116101a557611bf59036908301611dab565b6040518181809351602081930191611c0c92611e01565b81016000815203602001902091611c2283611e5e565b91611c2f60018501611e5e565b93611c3c60028201611e5e565b92611c4960038301611e5e565b92820154926005830154916006840154906007850154916008860154948560081c60ff1694600988015497600a01611c8090611e5e565b996040519c8d9c8d6101a09081815201611c9991611f04565b8d810360208f0152611caa91611f04565b8c810360408e0152611cbb91611f04565b8b810360608d0152611ccc91611f04565b9760808b015260a08a015260c089015287015260ff8216610100870152611cf281611f29565b61012086015260101c6001600160a01b03166101408501526101608401528281036101808401526101a191611f04565b60c081019081106001600160401b03821117611d3d57604052565b634e487b7160e01b600052604160045260246000fd5b6101a081019081106001600160401b03821117611d3d57604052565b60e081019081106001600160401b03821117611d3d57604052565b90601f801991011681019081106001600160401b03821117611d3d57604052565b81601f820112156101a5578035906001600160401b038211611d3d5760405192611ddf601f8401601f191660200185611d8a565b828452602083830101116101a557816000926020809301838601378301015290565b60005b838110611e145750506000910152565b8181015183820152602001611e04565b90600182811c92168015611e54575b6020831014611e3e57565b634e487b7160e01b600052602260045260246000fd5b91607f1691611e33565b9060405191826000825492611e7284611e24565b908184526001948581169081600014611ee15750600114611e9e575b5050611e9c92500383611d8a565b565b9093915060005260209081600020936000915b818310611ec9575050611e9c93508201013880611e8e565b85548884018501529485019487945091830191611eb1565b915050611e9c94506020925060ff191682840152151560051b8201013880611e8e565b90602091611f1d81518092818552858086019101611e01565b601f01601f1916010190565b60041115611f3357565b634e487b7160e01b600052602160045260246000fd5b602080820190808352835180925260408301928160408460051b8301019501936000915b848310611f7d5750505050505090565b9091929394958480611f9b600193603f198682030187528a51611f04565b9801930193019194939290611f6d565b91909182516001600160401b038111611d3d57611fc88254611e24565b601f8111612072575b50602080601f831160011461200e575081929394600092612003575b50508160011b916000199060031b1c1916179055565b015190503880611fed565b90601f198316958460005282600020926000905b88821061205a57505083600195969710612041575b505050811b019055565b015160001960f88460031b161c19169055388080612037565b80600185968294968601518155019501930190612022565b600083815260208120601f840160051c810192602085106120b0575b601f0160051c01915b8281106120a5575050611fd1565b818155600101612097565b909250829061208e565b60001981146120c95760010190565b634e487b7160e01b600052601160045260246000fd5b6120f790602060405192828480945193849201611e01565b810103902090565b90612117602091949394604084526040840190611f04565b6001600160a01b03909416910152565b1561212e57565b60405162461bcd60e51b815260206004820152601760248201527f427573696e65737320646f6573206e6f742065786973740000000000000000006044820152606490fd5b1561217a57565b60405162461bcd60e51b8152602060048201526016602482015275141c9bd91d58dd08191bd95cc81b9bdd08195e1a5cdd60521b6044820152606490fd5b6000929181546121c781611e24565b9260019180831690811561222057506001146121e4575b50505050565b90919293945060005260209081600020906000915b85831061220f57505050500190388080806121de565b8054858401529183019181016121f9565b60ff19168452505050811515909102019150388080806121de565b1561224257565b60405162461bcd60e51b815260206004820152601760248201527f5472616e73616374696f6e206e6f742070656e64696e670000000000000000006044820152606490fdfea2646970667358221220464d7582ff5f8b81d896ebce1f9f117e4a3fd9f31c7a1ba0382c67c20d6024f064736f6c63430008140033","opcodes":"PUSH1 0x80 DUP1 PUSH1 0x40 MSTORE CALLVALUE PUSH2 0x37 JUMPI PUSH1 0x8 DUP1 SLOAD PUSH1 0x1 PUSH1 0x1 PUSH1 0xA0 SHL SUB NOT AND CALLER OR SWAP1 SSTORE PUSH1 0x0 PUSH1 0x9 DUP2 SWAP1 SSTORE PUSH1 0xA DUP2 SWAP1 SSTORE PUSH1 0xB SSTORE PUSH2 0x22BD SWAP1 DUP2 PUSH2 0x3D DUP3 CODECOPY RETURN JUMPDEST PUSH1 0x0 DUP1 REVERT INVALID PUSH1 0x80 PUSH1 0x40 MSTORE PUSH1 0x4 DUP1 CALLDATASIZE LT ISZERO PUSH2 0x13 JUMPI PUSH1 0x0 DUP1 REVERT JUMPDEST PUSH1 0xE0 PUSH1 0x0 CALLDATALOAD DUP2 SHR SWAP1 DUP2 PUSH4 0x186A423 EQ PUSH2 0x1BC6 JUMPI DUP2 PUSH4 0x22236F4 EQ PUSH2 0x1ADF JUMPI DUP2 PUSH4 0x136D8883 EQ PUSH2 0x1AB0 JUMPI DUP2 PUSH4 0x2902A960 EQ PUSH2 0x1841 JUMPI DUP2 PUSH4 0x2F2FFD88 EQ PUSH2 0x1705 JUMPI DUP2 PUSH4 0x55AD5530 EQ PUSH2 0x1669 JUMPI DUP2 PUSH4 0x5AEC0EFC EQ PUSH2 0x1453 JUMPI DUP2 PUSH4 0x60D20431 EQ PUSH2 0x1435 JUMPI DUP2 PUSH4 0x663C01AF EQ PUSH2 0x1399 JUMPI DUP2 PUSH4 0x6757876C EQ PUSH2 0x12B7 JUMPI DUP2 PUSH4 0x68111CCE EQ PUSH2 0x1113 JUMPI DUP2 PUSH4 0x68C8ADD8 EQ PUSH2 0x1037 JUMPI DUP2 PUSH4 0x72C26BEA EQ PUSH2 0xF26 JUMPI DUP2 PUSH4 0x7CB484A2 EQ PUSH2 0xAC4 JUMPI POP DUP1 PUSH4 0x8438E7EA EQ PUSH2 0x85A JUMPI DUP1 PUSH4 0x8DA5CB5B EQ PUSH2 0x831 JUMPI DUP1 PUSH4 0x93A70214 EQ PUSH2 0x7CB JUMPI DUP1 PUSH4 0x95A58774 EQ PUSH2 0x4A9 JUMPI DUP1 PUSH4 0x9B9D326D EQ PUSH2 0x48B JUMPI DUP1 PUSH4 0x9C6F8855 EQ PUSH2 0x43B JUMPI DUP1 PUSH4 0xA7455E89 EQ PUSH2 0x3FE JUMPI DUP1 PUSH4 0xAC2CCD07 EQ PUSH2 0x2EF JUMPI DUP1 PUSH4 0xB45E1C4E EQ PUSH2 0x218 JUMPI DUP1 PUSH4 0xB9A60038 EQ PUSH2 0x1FA JUMPI DUP1 PUSH4 0xCB51BBA9 EQ PUSH2 0x1AA JUMPI PUSH4 0xE36F8DC5 EQ PUSH2 0x13E JUMPI PUSH1 0x0 DUP1 REVERT JUMPDEST CALLVALUE PUSH2 0x1A5 JUMPI PUSH1 0x20 CALLDATASIZE PUSH1 0x3 NOT ADD SLT PUSH2 0x1A5 JUMPI CALLDATALOAD PUSH1 0x7 SLOAD DUP2 LT ISZERO PUSH2 0x1A5 JUMPI PUSH2 0x18D PUSH2 0x1A1 SWAP2 PUSH1 0x7 PUSH1 0x0 MSTORE PUSH32 0xA66CC928B5EDB82AF9BD49922954155AB7B0942694BEA4CE44661D9A8736C688 ADD PUSH2 0x1E5E JUMP JUMPDEST PUSH1 0x40 MLOAD SWAP2 DUP3 SWAP2 PUSH1 0x20 DUP4 MSTORE PUSH1 0x20 DUP4 ADD SWAP1 PUSH2 0x1F04 JUMP JUMPDEST SUB SWAP1 RETURN JUMPDEST PUSH1 0x0 DUP1 REVERT JUMPDEST POP CALLVALUE PUSH2 0x1A5 JUMPI PUSH1 0x20 CALLDATASIZE PUSH1 0x3 NOT ADD SLT PUSH2 0x1A5 JUMPI CALLDATALOAD PUSH1 0x5 SLOAD DUP2 LT ISZERO PUSH2 0x1A5 JUMPI PUSH2 0x18D PUSH2 0x1A1 SWAP2 PUSH1 0x5 PUSH1 0x0 MSTORE PUSH32 0x36B6384B5ECA791C62761152D0C79BB0604C104A5FB6F4EB0703F3154BB3DB0 ADD PUSH2 0x1E5E JUMP JUMPDEST CALLVALUE PUSH2 0x1A5 JUMPI PUSH1 0x0 CALLDATASIZE PUSH1 0x3 NOT ADD SLT PUSH2 0x1A5 JUMPI PUSH1 0x20 PUSH1 0xB SLOAD PUSH1 0x40 MLOAD SWAP1 DUP2 MSTORE RETURN JUMPDEST POP CALLVALUE PUSH2 0x1A5 JUMPI PUSH1 0x20 CALLDATASIZE PUSH1 0x3 NOT ADD SLT PUSH2 0x1A5 JUMPI DUP1 CALLDATALOAD SWAP1 PUSH1 0x1 PUSH1 0x1 PUSH1 0x40 SHL SUB DUP3 GT PUSH2 0x1A5 JUMPI PUSH2 0x263 PUSH1 0x20 PUSH2 0x250 PUSH2 0x2BD SWAP5 CALLDATASIZE SWAP1 DUP6 ADD PUSH2 0x1DAB JUMP JUMPDEST DUP2 PUSH1 0x40 MLOAD SWAP4 DUP3 DUP6 DUP1 SWAP5 MLOAD SWAP4 DUP5 SWAP3 ADD PUSH2 0x1E01 JUMP JUMPDEST DUP2 ADD PUSH1 0x1 DUP2 MSTORE SUB ADD SWAP1 KECCAK256 SWAP1 PUSH2 0x277 DUP3 PUSH2 0x1E5E JUMP JUMPDEST SWAP2 PUSH2 0x284 PUSH1 0x1 DUP3 ADD PUSH2 0x1E5E JUMP JUMPDEST SWAP1 PUSH2 0x2D9 PUSH2 0x294 PUSH1 0x2 DUP4 ADD PUSH2 0x1E5E JUMP JUMPDEST PUSH2 0x2CB PUSH1 0x5 PUSH1 0xFF PUSH1 0x3 DUP7 ADD SLOAD AND SWAP7 DUP6 ADD SLOAD SWAP5 ADD SLOAD SWAP5 PUSH1 0x40 MLOAD SWAP9 DUP10 SWAP9 PUSH1 0xC0 DUP11 MSTORE PUSH1 0xC0 DUP11 ADD SWAP1 PUSH2 0x1F04 JUMP JUMPDEST SWAP1 DUP9 DUP3 SUB PUSH1 0x20 DUP11 ADD MSTORE PUSH2 0x1F04 JUMP JUMPDEST SWAP1 DUP7 DUP3 SUB PUSH1 0x40 DUP9 ADD MSTORE PUSH2 0x1F04 JUMP JUMPDEST SWAP3 ISZERO ISZERO PUSH1 0x60 DUP6 ADD MSTORE PUSH1 0x80 DUP5 ADD MSTORE PUSH1 0xA0 DUP4 ADD MSTORE SUB SWAP1 RETURN JUMPDEST POP CALLVALUE PUSH2 0x1A5 JUMPI PUSH1 0x20 CALLDATASIZE PUSH1 0x3 NOT ADD SLT PUSH2 0x1A5 JUMPI DUP1 CALLDATALOAD SWAP1 PUSH1 0x1 PUSH1 0x1 PUSH1 0x40 SHL SUB DUP3 GT PUSH2 0x1A5 JUMPI PUSH2 0x327 PUSH1 0x20 PUSH2 0x250 PUSH2 0x2BD SWAP5 CALLDATASIZE SWAP1 DUP6 ADD PUSH2 0x1DAB JUMP JUMPDEST DUP2 ADD PUSH1 0x2 DUP2 MSTORE SUB ADD SWAP1 KECCAK256 PUSH1 0xC0 PUSH1 0x40 MLOAD SWAP3 PUSH2 0x340 DUP5 PUSH2 0x1D6F JUMP JUMPDEST PUSH2 0x349 DUP4 PUSH2 0x1E5E JUMP JUMPDEST DUP5 MSTORE PUSH2 0x3E1 PUSH2 0x35A PUSH1 0x1 DUP6 ADD PUSH2 0x1E5E JUMP JUMPDEST SWAP5 PUSH1 0x20 DUP2 ADD SWAP6 DUP7 MSTORE PUSH2 0x2CB PUSH2 0x371 PUSH1 0x2 DUP8 ADD PUSH2 0x1E5E JUMP JUMPDEST SWAP7 PUSH1 0x40 DUP4 ADD SWAP8 DUP9 MSTORE PUSH2 0x385 PUSH1 0x3 DUP9 ADD PUSH2 0x1E5E JUMP JUMPDEST SWAP5 PUSH1 0x60 DUP5 ADD SWAP6 DUP7 MSTORE DUP8 ADD SLOAD SWAP3 PUSH1 0x80 DUP2 ADD SWAP4 DUP5 MSTORE PUSH1 0xFF PUSH1 0x6 PUSH1 0x5 DUP11 ADD SLOAD SWAP10 PUSH1 0xA0 DUP5 ADD SWAP11 DUP12 MSTORE ADD SLOAD AND SWAP7 DUP8 SWAP2 PUSH2 0x3B8 DUP4 PUSH2 0x1F29 JUMP JUMPDEST ADD MSTORE MLOAD SWAP7 MLOAD SWAP4 MLOAD SWAP2 MLOAD SWAP6 MLOAD SWAP4 PUSH2 0x3CD DUP7 PUSH2 0x1F29 JUMP JUMPDEST PUSH1 0x40 MLOAD SWAP9 DUP10 SWAP9 PUSH1 0xC0 DUP11 MSTORE PUSH1 0xC0 DUP11 ADD SWAP1 PUSH2 0x1F04 JUMP JUMPDEST SWAP3 PUSH1 0x60 DUP6 ADD MSTORE PUSH1 0x80 DUP5 ADD MSTORE PUSH2 0x3F5 DUP2 PUSH2 0x1F29 JUMP JUMPDEST PUSH1 0xA0 DUP4 ADD MSTORE SUB SWAP1 RETURN JUMPDEST POP CALLVALUE PUSH2 0x1A5 JUMPI PUSH1 0x20 CALLDATASIZE PUSH1 0x3 NOT ADD SLT PUSH2 0x1A5 JUMPI CALLDATALOAD PUSH1 0x1 PUSH1 0x1 PUSH1 0xA0 SHL SUB DUP2 AND SWAP1 DUP2 SWAP1 SUB PUSH2 0x1A5 JUMPI PUSH1 0x0 MSTORE PUSH1 0x3 PUSH1 0x20 MSTORE PUSH2 0x1A1 PUSH2 0x18D PUSH1 0x40 PUSH1 0x0 KECCAK256 PUSH2 0x1E5E JUMP JUMPDEST POP CALLVALUE PUSH2 0x1A5 JUMPI PUSH1 0x20 CALLDATASIZE PUSH1 0x3 NOT ADD SLT PUSH2 0x1A5 JUMPI CALLDATALOAD PUSH1 0x6 SLOAD DUP2 LT ISZERO PUSH2 0x1A5 JUMPI PUSH2 0x18D PUSH2 0x1A1 SWAP2 PUSH1 0x6 PUSH1 0x0 MSTORE PUSH32 0xF652222313E28459528D920B65115C16C04F3EFC82AAEDC97BE59F3F377C0D3F ADD PUSH2 0x1E5E JUMP JUMPDEST CALLVALUE PUSH2 0x1A5 JUMPI PUSH1 0x0 CALLDATASIZE PUSH1 0x3 NOT ADD SLT PUSH2 0x1A5 JUMPI PUSH1 0x20 PUSH1 0x9 SLOAD PUSH1 0x40 MLOAD SWAP1 DUP2 MSTORE RETURN JUMPDEST POP CALLVALUE PUSH2 0x1A5 JUMPI PUSH1 0x80 CALLDATASIZE PUSH1 0x3 NOT ADD SLT PUSH2 0x1A5 JUMPI PUSH1 0x1 PUSH1 0x1 PUSH1 0x40 SHL SUB DUP2 CALLDATALOAD DUP2 DUP2 GT PUSH2 0x1A5 JUMPI PUSH2 0x4D9 SWAP1 CALLDATASIZE SWAP1 DUP5 ADD PUSH2 0x1DAB JUMP JUMPDEST SWAP1 PUSH1 0x24 CALLDATALOAD DUP2 DUP2 GT PUSH2 0x1A5 JUMPI PUSH2 0x4F1 SWAP1 CALLDATASIZE SWAP1 DUP6 ADD PUSH2 0x1DAB JUMP JUMPDEST SWAP2 PUSH1 0x44 CALLDATALOAD SWAP2 DUP3 GT PUSH2 0x1A5 JUMPI PUSH2 0x50C PUSH2 0x542 SWAP3 CALLDATASIZE SWAP1 DUP7 ADD PUSH2 0x1DAB JUMP JUMPDEST SWAP4 PUSH1 0x64 CALLDATALOAD SWAP5 PUSH2 0x55A PUSH1 0x40 MLOAD DUP7 MLOAD PUSH2 0x549 PUSH1 0x20 SWAP8 DUP4 DUP10 DUP1 SWAP6 DUP2 DUP14 ADD SWAP6 PUSH2 0x532 DUP2 DUP4 DUP10 PUSH2 0x1E01 JUMP JUMPDEST DUP2 ADD PUSH1 0x0 DUP2 MSTORE SUB ADD SWAP1 KECCAK256 SLOAD PUSH2 0x1E24 JUMP JUMPDEST ISZERO ISZERO PUSH2 0x2173 JUMP JUMPDEST PUSH1 0x40 MLOAD DUP1 SWAP4 DUP2 SWAP3 DUP11 MLOAD SWAP3 DUP4 SWAP2 PUSH2 0x1E01 JUMP JUMPDEST DUP2 ADD PUSH1 0x0 DUP2 MSTORE SUB ADD SWAP1 KECCAK256 PUSH1 0xFF PUSH1 0x8 DUP3 ADD SLOAD PUSH1 0x8 SHR AND PUSH2 0x578 DUP2 PUSH2 0x1F29 JUMP JUMPDEST DUP1 ISZERO SWAP1 DUP2 ISZERO PUSH2 0x7B7 JUMPI JUMPDEST POP ISZERO PUSH2 0x77B JUMPI PUSH1 0x7 DUP2 ADD SLOAD DUP8 LT PUSH2 0x737 JUMPI DUP4 DUP1 DUP9 PUSH2 0x635 DUP9 PUSH2 0x62B PUSH1 0x0 SWAP8 PUSH2 0x621 DUP14 PUSH2 0x617 PUSH2 0x605 PUSH2 0x5D4 PUSH1 0x2 PUSH1 0x6 SWAP14 PUSH1 0x40 DUP1 MLOAD SWAP15 DUP16 SWAP1 PUSH2 0x5C2 DUP3 PUSH2 0x1D6F JUMP JUMPDEST DUP2 MSTORE DUP12 DUP2 ADD SWAP8 DUP9 MSTORE ADD SWAP8 DUP9 MSTORE ADD PUSH2 0x1E5E JUMP JUMPDEST SWAP7 PUSH1 0x60 DUP13 ADD SWAP8 DUP9 MSTORE PUSH1 0x80 DUP13 ADD SWAP10 DUP11 MSTORE PUSH1 0xA0 DUP13 ADD SWAP11 TIMESTAMP DUP13 MSTORE PUSH1 0xC0 DUP14 ADD SWAP15 DUP16 MSTORE DUP2 PUSH1 0x40 MLOAD SWAP4 DUP3 DUP6 DUP1 SWAP5 MLOAD SWAP4 DUP5 SWAP3 ADD PUSH2 0x1E01 JUMP JUMPDEST DUP2 ADD PUSH1 0x2 DUP2 MSTORE SUB ADD SWAP1 KECCAK256 SWAP10 MLOAD DUP11 PUSH2 0x1FAB JUMP JUMPDEST MLOAD PUSH1 0x1 DUP10 ADD PUSH2 0x1FAB JUMP JUMPDEST MLOAD PUSH1 0x2 DUP8 ADD PUSH2 0x1FAB JUMP JUMPDEST MLOAD PUSH1 0x3 DUP6 ADD PUSH2 0x1FAB JUMP JUMPDEST MLOAD DUP6 DUP4 ADD SSTORE MLOAD PUSH1 0x5 DUP3 ADD SSTORE ADD SWAP1 MLOAD PUSH2 0x64C DUP2 PUSH2 0x1F29 JUMP JUMPDEST PUSH2 0x655 DUP2 PUSH2 0x1F29 JUMP JUMPDEST PUSH1 0xFF DUP1 NOT DUP4 SLOAD AND SWAP2 AND OR SWAP1 SSTORE PUSH1 0x7 SLOAD SWAP1 PUSH1 0x1 PUSH1 0x40 SHL DUP3 LT ISZERO PUSH2 0x722 JUMPI PUSH1 0x1 DUP3 ADD DUP1 PUSH1 0x7 SSTORE DUP3 LT ISZERO PUSH2 0x70D JUMPI POP SWAP2 PUSH2 0x6EF DUP3 PUSH2 0x6DC PUSH32 0x72FEF583F955EFC4DED46BDA9EE563C8B8030EAA366E8CCB1F1CB50E967CD4CC SWAP7 SWAP5 PUSH2 0x704 SWAP7 PUSH1 0x7 PUSH1 0x0 MSTORE PUSH32 0xA66CC928B5EDB82AF9BD49922954155AB7B0942694BEA4CE44661D9A8736C688 ADD PUSH2 0x1FAB JUMP JUMPDEST PUSH2 0x6E7 PUSH1 0xB SLOAD PUSH2 0x20BA JUMP JUMPDEST PUSH1 0xB SSTORE PUSH2 0x20DF JUMP JUMPDEST SWAP5 PUSH1 0x40 MLOAD SWAP4 DUP5 SWAP4 PUSH1 0x40 DUP6 MSTORE PUSH1 0x40 DUP6 ADD SWAP1 PUSH2 0x1F04 JUMP JUMPDEST SWAP2 DUP4 ADD MSTORE SUB SWAP1 LOG2 STOP JUMPDEST PUSH1 0x32 SWAP1 PUSH4 0x4E487B71 PUSH1 0xE0 SHL PUSH1 0x0 MSTORE MSTORE PUSH1 0x24 PUSH1 0x0 REVERT JUMPDEST PUSH1 0x41 SWAP1 PUSH4 0x4E487B71 PUSH1 0xE0 SHL PUSH1 0x0 MSTORE MSTORE PUSH1 0x24 PUSH1 0x0 REVERT JUMPDEST PUSH1 0x40 MLOAD PUSH3 0x461BCD PUSH1 0xE5 SHL DUP2 MSTORE DUP1 DUP5 ADD DUP7 SWAP1 MSTORE PUSH1 0x1B PUSH1 0x24 DUP3 ADD MSTORE PUSH32 0x496E73756666696369656E74207061796D656E7420616D6F756E740000000000 PUSH1 0x44 DUP3 ADD MSTORE PUSH1 0x64 SWAP1 REVERT JUMPDEST PUSH1 0x40 MLOAD PUSH3 0x461BCD PUSH1 0xE5 SHL DUP2 MSTORE DUP1 DUP5 ADD DUP7 SWAP1 MSTORE PUSH1 0x15 PUSH1 0x24 DUP3 ADD MSTORE PUSH21 0x50726F64756374206E6F7420617661696C61626C65 PUSH1 0x58 SHL PUSH1 0x44 DUP3 ADD MSTORE PUSH1 0x64 SWAP1 REVERT JUMPDEST PUSH1 0x1 SWAP2 POP PUSH2 0x7C4 DUP2 PUSH2 0x1F29 JUMP JUMPDEST EQ CODESIZE PUSH2 0x582 JUMP JUMPDEST POP CALLVALUE PUSH2 0x1A5 JUMPI PUSH1 0x20 CALLDATASIZE PUSH1 0x3 NOT ADD SLT PUSH2 0x1A5 JUMPI DUP1 CALLDATALOAD SWAP1 PUSH1 0x1 PUSH1 0x1 PUSH1 0x40 SHL SUB DUP3 GT PUSH2 0x1A5 JUMPI PUSH2 0x7FD PUSH1 0x20 SWAP3 CALLDATASIZE SWAP1 DUP4 ADD PUSH2 0x1DAB JUMP JUMPDEST DUP3 PUSH2 0x811 PUSH1 0x40 MLOAD SWAP3 DUP4 DUP2 MLOAD SWAP4 DUP5 SWAP3 ADD PUSH2 0x1E01 JUMP JUMPDEST DUP2 ADD SWAP2 DUP3 MSTORE SWAP1 DUP2 SWAP1 SUB DUP3 ADD SWAP1 KECCAK256 SLOAD PUSH1 0x40 MLOAD PUSH1 0x1 PUSH1 0x1 PUSH1 0xA0 SHL SUB SWAP1 SWAP2 AND DUP2 MSTORE RETURN JUMPDEST CALLVALUE PUSH2 0x1A5 JUMPI PUSH1 0x0 CALLDATASIZE PUSH1 0x3 NOT ADD SLT PUSH2 0x1A5 JUMPI PUSH1 0x8 SLOAD PUSH1 0x40 MLOAD PUSH1 0x1 PUSH1 0x1 PUSH1 0xA0 SHL SUB SWAP1 SWAP2 AND DUP2 MSTORE PUSH1 0x20 SWAP1 RETURN JUMPDEST POP CALLVALUE PUSH2 0x1A5 JUMPI PUSH1 0x20 SWAP1 DUP2 PUSH1 0x3 NOT CALLDATASIZE ADD SLT PUSH2 0x1A5 JUMPI DUP1 CALLDATALOAD PUSH1 0x1 PUSH1 0x1 PUSH1 0x40 SHL SUB DUP2 GT PUSH2 0x1A5 JUMPI PUSH2 0x88B SWAP1 CALLDATASIZE SWAP1 DUP4 ADD PUSH2 0x1DAB JUMP JUMPDEST PUSH1 0x40 MLOAD DUP4 DUP2 DUP4 MLOAD PUSH2 0x89F DUP2 DUP4 DUP6 DUP9 ADD PUSH2 0x1E01 JUMP JUMPDEST DUP2 ADD PUSH1 0x2 DUP2 MSTORE SUB ADD SWAP1 KECCAK256 SWAP3 PUSH1 0x6 DUP5 ADD SWAP1 DUP2 SLOAD SWAP4 PUSH2 0x8C8 PUSH1 0xFF DUP7 AND PUSH2 0x8C2 DUP2 PUSH2 0x1F29 JUMP JUMPDEST ISZERO PUSH2 0x223B JUMP JUMPDEST PUSH1 0x1 SWAP4 DUP5 DUP8 ADD SWAP4 PUSH1 0x40 MLOAD DUP5 DUP2 PUSH2 0x8DE DUP2 DUP10 PUSH2 0x21B8 JUMP JUMPDEST PUSH1 0x0 DUP2 MSTORE SUB ADD SWAP1 KECCAK256 SWAP1 PUSH1 0x40 MLOAD PUSH2 0x8F7 DUP2 PUSH1 0x2 DUP6 ADD PUSH2 0x21B8 JUMP JUMPDEST DUP6 DUP2 MSTORE DUP2 SWAP1 SUB DUP7 ADD SWAP1 KECCAK256 SLOAD PUSH1 0x1 PUSH1 0x1 PUSH1 0xA0 SHL SUB AND CALLER SUB PUSH2 0xA74 JUMPI PUSH1 0xFF NOT SWAP8 DUP9 AND DUP8 OR SWAP1 SSTORE PUSH1 0x8 ADD DUP1 SLOAD PUSH2 0xFF00 NOT AND PUSH2 0x300 OR SWAP1 SSTORE PUSH2 0x934 SWAP1 PUSH2 0x20DF JUMP JUMPDEST PUSH2 0x970 PUSH1 0x40 MLOAD DUP1 SWAP4 DUP2 SWAP4 PUSH32 0xBEE971BB104F3ED8CBA2FCDBEDD3FA3A03C64D7756751D36A297196A236D26F1 PUSH1 0x0 DUP1 LOG2 PUSH1 0x2 DUP11 ADD SWAP10 ADD SLOAD SWAP6 PUSH2 0x21B8 JUMP JUMPDEST SUB SWAP1 KECCAK256 SWAP4 PUSH1 0x40 MLOAD SWAP4 PUSH1 0x40 DUP6 MSTORE PUSH1 0x0 SWAP7 DUP1 SLOAD PUSH2 0x98A DUP2 PUSH2 0x1E24 JUMP JUMPDEST SWAP4 DUP5 PUSH1 0x40 DUP10 ADD MSTORE DUP4 DUP3 AND SWAP2 DUP3 PUSH1 0x0 EQ PUSH2 0xA2F JUMPI POP POP PUSH1 0x1 EQ PUSH2 0x9D6 JUMPI JUMPDEST DUP7 PUSH32 0x83C49C39693C7AC79995445D70C5C9D25FB6690A7CEB4721609DBF953DD55A3B DUP8 DUP1 DUP12 DUP10 DUP10 DUP4 ADD MSTORE SUB SWAP1 LOG2 STOP JUMPDEST PUSH1 0x0 SWAP1 DUP2 MSTORE DUP4 DUP2 KECCAK256 SWAP4 SWAP8 POP SWAP3 JUMPDEST DUP3 DUP5 LT PUSH2 0xA1B JUMPI POP POP POP DUP3 ADD PUSH1 0x60 ADD SWAP4 DUP2 PUSH32 0x83C49C39693C7AC79995445D70C5C9D25FB6690A7CEB4721609DBF953DD55A3B DUP5 PUSH2 0x9A7 JUMP JUMPDEST DUP1 SLOAD DUP7 DUP6 ADD PUSH1 0x60 ADD MSTORE SWAP3 DUP8 ADD SWAP3 DUP2 ADD PUSH2 0x9E3 JUMP JUMPDEST AND PUSH1 0x60 DUP9 DUP2 ADD SWAP2 SWAP1 SWAP2 MSTORE SWAP4 ISZERO ISZERO PUSH1 0x5 SHL DUP8 ADD SWAP1 SWAP4 ADD SWAP8 POP DUP5 SWAP3 POP PUSH32 0x83C49C39693C7AC79995445D70C5C9D25FB6690A7CEB4721609DBF953DD55A3B SWAP2 POP DUP6 SWAP1 POP PUSH2 0x9A7 JUMP JUMPDEST PUSH1 0x40 MLOAD PUSH3 0x461BCD PUSH1 0xE5 SHL DUP2 MSTORE DUP1 DUP6 ADD DUP7 SWAP1 MSTORE PUSH1 0x24 DUP1 DUP3 ADD MSTORE PUSH32 0x4F6E6C792073656C6C65722063616E20636F6D706C657465207472616E736163 PUSH1 0x44 DUP3 ADD MSTORE PUSH4 0x3A34B7B7 PUSH1 0xE1 SHL PUSH1 0x64 DUP3 ADD MSTORE PUSH1 0x84 SWAP1 REVERT JUMPDEST DUP3 CALLVALUE PUSH2 0x1A5 JUMPI PUSH2 0x100 CALLDATASIZE PUSH1 0x3 NOT ADD SLT PUSH2 0x1A5 JUMPI PUSH1 0x1 PUSH1 0x1 PUSH1 0x40 SHL SUB DUP2 CALLDATALOAD DUP2 DUP2 GT PUSH2 0x1A5 JUMPI PUSH2 0xAF5 SWAP1 CALLDATASIZE SWAP1 DUP5 ADD PUSH2 0x1DAB JUMP JUMPDEST SWAP2 PUSH1 0x24 DUP1 CALLDATALOAD DUP4 DUP2 GT PUSH2 0x1A5 JUMPI PUSH2 0xB0E SWAP1 CALLDATASIZE SWAP1 DUP5 ADD PUSH2 0x1DAB JUMP JUMPDEST SWAP5 PUSH1 0x44 CALLDATALOAD DUP5 DUP2 GT PUSH2 0x1A5 JUMPI PUSH2 0xB26 SWAP1 CALLDATASIZE SWAP1 DUP6 ADD PUSH2 0x1DAB JUMP JUMPDEST SWAP6 PUSH1 0x64 CALLDATALOAD DUP6 DUP2 GT PUSH2 0x1A5 JUMPI PUSH2 0xB3E SWAP1 CALLDATASIZE SWAP1 DUP7 ADD PUSH2 0x1DAB JUMP JUMPDEST SWAP5 PUSH1 0xA4 CALLDATALOAD SWAP1 PUSH1 0xC4 CALLDATALOAD SWAP1 PUSH1 0xE4 CALLDATALOAD SWAP1 DUP2 GT PUSH2 0x1A5 JUMPI PUSH2 0xB5E SWAP1 CALLDATASIZE SWAP1 DUP9 ADD PUSH2 0x1DAB JUMP JUMPDEST SWAP2 PUSH1 0x40 MLOAD SWAP8 DUP11 MLOAD SWAP9 PUSH1 0x20 DUP13 ADD SWAP10 PUSH2 0xB76 DUP2 DUP4 DUP14 PUSH2 0x1E01 JUMP JUMPDEST DUP2 ADD DUP10 DUP2 MSTORE DUP2 SWAP1 SUB PUSH1 0x20 ADD SWAP1 KECCAK256 SLOAD PUSH1 0x1 PUSH1 0x1 PUSH1 0xA0 SHL SUB AND CALLER SUB PUSH2 0xED0 JUMPI PUSH2 0xBC8 PUSH2 0xBC1 PUSH2 0xBB1 PUSH1 0x20 DUP13 DUP16 PUSH1 0x40 MLOAD SWAP4 DUP5 SWAP3 DUP4 SWAP3 MLOAD SWAP3 DUP4 SWAP2 PUSH2 0x1E01 JUMP JUMPDEST DUP2 ADD PUSH1 0x1 DUP2 MSTORE SUB ADD SWAP1 KECCAK256 SLOAD PUSH2 0x1E24 JUMP JUMPDEST ISZERO ISZERO PUSH2 0x2127 JUMP JUMPDEST PUSH2 0xBE4 PUSH2 0x532 PUSH1 0x20 DUP13 DUP2 PUSH1 0x40 MLOAD SWAP4 DUP3 DUP6 DUP1 SWAP5 MLOAD SWAP4 DUP5 SWAP3 ADD PUSH2 0x1E01 JUMP JUMPDEST PUSH2 0xE94 JUMPI TIMESTAMP DUP3 GT ISZERO PUSH2 0xE3F JUMPI SWAP3 PUSH2 0x180 SWAP3 PUSH2 0xD4A SWAP7 SWAP6 SWAP3 PUSH1 0xA SWAP6 PUSH1 0x40 MLOAD SWAP5 PUSH2 0xC0B DUP7 PUSH2 0x1D53 JUMP JUMPDEST DUP14 DUP7 MSTORE PUSH1 0x20 DUP7 ADD MSTORE DUP14 PUSH1 0x40 DUP7 ADD MSTORE PUSH1 0x60 DUP6 ADD MSTORE PUSH1 0x84 CALLDATALOAD PUSH1 0x80 DUP6 ADD MSTORE PUSH1 0xA0 DUP5 ADD MSTORE DUP1 PUSH1 0xC0 DUP5 ADD MSTORE DUP6 DUP4 ADD MSTORE PUSH1 0x0 PUSH2 0x100 DUP4 ADD MSTORE PUSH1 0x0 PUSH2 0x120 DUP4 ADD MSTORE CALLER PUSH2 0x140 DUP4 ADD MSTORE TIMESTAMP PUSH2 0x160 DUP4 ADD MSTORE DUP3 DUP3 ADD MSTORE PUSH1 0x40 MLOAD PUSH1 0x20 DUP2 DUP2 PUSH2 0xC6E DUP14 DUP4 DUP2 MLOAD SWAP4 DUP5 SWAP3 ADD PUSH2 0x1E01 JUMP JUMPDEST DUP2 ADD PUSH1 0x0 DUP2 MSTORE SUB ADD SWAP1 KECCAK256 SWAP4 PUSH2 0xC84 DUP3 MLOAD DUP7 PUSH2 0x1FAB JUMP JUMPDEST PUSH2 0xC95 PUSH1 0x20 DUP4 ADD MLOAD PUSH1 0x1 DUP8 ADD PUSH2 0x1FAB JUMP JUMPDEST PUSH2 0xCA6 PUSH1 0x40 DUP4 ADD MLOAD PUSH1 0x2 DUP8 ADD PUSH2 0x1FAB JUMP JUMPDEST PUSH2 0xCB7 PUSH1 0x60 DUP4 ADD MLOAD PUSH1 0x3 DUP8 ADD PUSH2 0x1FAB JUMP JUMPDEST PUSH1 0x80 DUP3 ADD MLOAD DUP9 DUP7 ADD SSTORE PUSH1 0xA0 DUP3 ADD MLOAD PUSH1 0x5 DUP7 ADD SSTORE PUSH1 0xC0 DUP3 ADD MLOAD PUSH1 0x6 DUP7 ADD SSTORE DUP2 ADD MLOAD PUSH1 0x7 DUP6 ADD SSTORE PUSH1 0x8 DUP5 ADD PUSH1 0xFF PUSH2 0x100 DUP4 ADD MLOAD AND DUP2 SLOAD SWAP1 PUSH2 0xFF00 PUSH2 0x120 DUP6 ADD MLOAD SWAP2 PUSH2 0xCFF DUP4 PUSH2 0x1F29 JUMP JUMPDEST PUSH2 0xD08 DUP4 PUSH2 0x1F29 JUMP JUMPDEST PUSH3 0x10000 PUSH1 0x1 PUSH1 0xB0 SHL SUB PUSH2 0x140 DUP8 ADD MLOAD PUSH1 0x10 SHL AND SWAP4 PUSH10 0xFFFFFFFFFFFFFFFFFFFF PUSH1 0xB0 SHL AND OR SWAP2 PUSH1 0x8 SHL AND OR OR SWAP1 SSTORE PUSH2 0x160 DUP2 ADD MLOAD PUSH1 0x9 DUP6 ADD SSTORE ADD MLOAD SWAP2 ADD PUSH2 0x1FAB JUMP JUMPDEST PUSH1 0x5 SLOAD SWAP2 PUSH1 0x1 PUSH1 0x40 SHL DUP4 LT ISZERO PUSH2 0xE2C JUMPI PUSH1 0x1 DUP4 ADD DUP1 PUSH1 0x5 SSTORE DUP4 LT ISZERO PUSH2 0xE19 JUMPI DUP6 PUSH32 0xDC62D3D2CE3BCF04D8C0C001C3D1B9B793BC83B6A8D7DE0CB99D77B4504CB5AF PUSH2 0xE14 PUSH2 0xE05 DUP9 PUSH1 0x5 PUSH2 0xDDB PUSH1 0x20 DUP12 PUSH2 0xDCA DUP6 DUP14 DUP7 PUSH1 0x0 MSTORE PUSH32 0x36B6384B5ECA791C62761152D0C79BB0604C104A5FB6F4EB0703F3154BB3DB0 ADD PUSH2 0x1FAB JUMP JUMPDEST PUSH1 0x40 MLOAD DUP1 SWAP4 DUP2 SWAP3 DUP12 MLOAD SWAP3 DUP4 SWAP2 PUSH2 0x1E01 JUMP JUMPDEST DUP2 ADD PUSH1 0x1 DUP2 MSTORE SUB ADD SWAP1 KECCAK256 ADD PUSH2 0xDF0 DUP2 SLOAD PUSH2 0x20BA JUMP JUMPDEST SWAP1 SSTORE PUSH2 0xDFD PUSH1 0x9 SLOAD PUSH2 0x20BA JUMP JUMPDEST PUSH1 0x9 SSTORE PUSH2 0x20DF JUMP JUMPDEST SWAP3 PUSH1 0x40 MLOAD SWAP2 DUP3 SWAP2 CALLER SWAP1 DUP4 PUSH2 0x20FF JUMP JUMPDEST SUB SWAP1 LOG2 STOP JUMPDEST PUSH1 0x32 SWAP1 PUSH4 0x4E487B71 PUSH1 0xE0 SHL PUSH1 0x0 MSTORE MSTORE PUSH1 0x0 REVERT JUMPDEST PUSH1 0x41 SWAP1 PUSH4 0x4E487B71 PUSH1 0xE0 SHL PUSH1 0x0 MSTORE MSTORE PUSH1 0x0 REVERT JUMPDEST PUSH1 0x40 MLOAD PUSH3 0x461BCD PUSH1 0xE5 SHL DUP2 MSTORE PUSH1 0x20 DUP2 DUP11 ADD MSTORE PUSH1 0x29 DUP2 DUP10 ADD MSTORE PUSH32 0x50726F647563742063616E6E6F74206265206578706972656420617420726567 PUSH1 0x44 DUP3 ADD MSTORE PUSH9 0x34B9BA3930BA34B7B7 PUSH1 0xB9 SHL PUSH1 0x64 DUP3 ADD MSTORE PUSH1 0x84 SWAP1 REVERT JUMPDEST PUSH1 0x40 MLOAD PUSH3 0x461BCD PUSH1 0xE5 SHL DUP2 MSTORE PUSH1 0x20 DUP2 DUP11 ADD MSTORE PUSH1 0x16 DUP2 DUP10 ADD MSTORE PUSH22 0x50726F6475637420616C726561647920657869737473 PUSH1 0x50 SHL PUSH1 0x44 DUP3 ADD MSTORE PUSH1 0x64 SWAP1 REVERT JUMPDEST PUSH1 0x40 MLOAD PUSH3 0x461BCD PUSH1 0xE5 SHL DUP2 MSTORE PUSH1 0x20 DUP2 DUP11 ADD MSTORE PUSH1 0x2A DUP2 DUP10 ADD MSTORE PUSH32 0x4F6E6C7920627573696E657373206F776E65722063616E2063616C6C20746869 PUSH1 0x44 DUP3 ADD MSTORE PUSH10 0x3990333AB731BA34B7B7 PUSH1 0xB1 SHL PUSH1 0x64 DUP3 ADD MSTORE PUSH1 0x84 SWAP1 REVERT JUMPDEST DUP3 CALLVALUE PUSH2 0x1A5 JUMPI PUSH1 0x20 SWAP1 DUP2 PUSH1 0x3 NOT CALLDATASIZE ADD SLT PUSH2 0x1A5 JUMPI DUP1 CALLDATALOAD PUSH1 0x1 PUSH1 0x1 PUSH1 0x40 SHL SUB DUP2 GT PUSH2 0x1A5 JUMPI DUP3 PUSH2 0xF5B PUSH2 0xF8A SWAP3 CALLDATASIZE SWAP1 DUP6 ADD PUSH2 0x1DAB JUMP JUMPDEST PUSH1 0x40 MLOAD SWAP1 PUSH2 0xF79 PUSH2 0x542 DUP3 MLOAD SWAP4 DUP6 DUP2 DUP2 DUP7 ADD SWAP7 PUSH2 0x532 DUP2 DUP4 DUP11 PUSH2 0x1E01 JUMP JUMPDEST PUSH1 0x40 MLOAD SWAP4 DUP5 SWAP3 DUP4 SWAP3 MLOAD SWAP3 DUP4 SWAP2 PUSH2 0x1E01 JUMP JUMPDEST DUP2 ADD PUSH1 0x0 DUP2 MSTORE SUB ADD SWAP1 KECCAK256 SWAP2 PUSH1 0x5 DUP4 ADD SLOAD TIMESTAMP LT DUP1 ISZERO SWAP1 PUSH2 0x100B JUMPI JUMPDEST ISZERO PUSH2 0xFBC JUMPI PUSH1 0x8 DUP4 ADD DUP1 SLOAD PUSH2 0xFF00 NOT AND PUSH2 0x200 OR SWAP1 SSTORE STOP JUMPDEST PUSH1 0x40 MLOAD PUSH3 0x461BCD PUSH1 0xE5 SHL DUP2 MSTORE SWAP2 DUP3 ADD MSTORE PUSH1 0x23 PUSH1 0x24 DUP3 ADD MSTORE PUSH32 0x50726F64756374206E6F742065787069726564206F7220756E617574686F7269 PUSH1 0x44 DUP3 ADD MSTORE PUSH3 0x1E9959 PUSH1 0xEA SHL PUSH1 0x64 DUP3 ADD MSTORE PUSH1 0x84 SWAP2 POP REVERT JUMPDEST POP PUSH1 0x40 MLOAD PUSH2 0x101C DUP2 PUSH1 0x2 DUP7 ADD PUSH2 0x21B8 JUMP JUMPDEST DUP4 DUP2 MSTORE DUP2 SWAP1 SUB DUP3 ADD SWAP1 KECCAK256 SLOAD PUSH1 0x1 PUSH1 0x1 PUSH1 0xA0 SHL SUB AND CALLER EQ PUSH2 0xFA4 JUMP JUMPDEST DUP3 CALLVALUE PUSH2 0x1A5 JUMPI PUSH1 0x20 CALLDATASIZE PUSH1 0x3 NOT ADD SLT PUSH2 0x1A5 JUMPI DUP1 CALLDATALOAD PUSH1 0x1 PUSH1 0x1 PUSH1 0x40 SHL SUB DUP2 GT PUSH2 0x1A5 JUMPI PUSH2 0x1066 SWAP1 CALLDATASIZE SWAP1 DUP4 ADD PUSH2 0x1DAB JUMP JUMPDEST PUSH1 0x8 SLOAD SWAP1 SWAP2 SWAP1 PUSH1 0x1 PUSH1 0x1 PUSH1 0xA0 SHL SUB AND CALLER SUB PUSH2 0x10BC JUMPI PUSH1 0x3 PUSH2 0x10A1 PUSH1 0x20 DUP5 PUSH1 0x40 MLOAD SWAP1 PUSH2 0xF79 PUSH2 0xBC1 DUP3 MLOAD SWAP4 DUP6 DUP2 DUP2 DUP7 ADD SWAP7 PUSH2 0xBB1 DUP2 DUP4 DUP11 PUSH2 0x1E01 JUMP JUMPDEST DUP2 ADD PUSH1 0x1 DUP2 MSTORE SUB ADD SWAP1 KECCAK256 ADD PUSH1 0x1 PUSH1 0xFF NOT DUP3 SLOAD AND OR SWAP1 SSTORE PUSH1 0x0 DUP1 RETURN JUMPDEST PUSH1 0x84 SWAP1 PUSH1 0x20 PUSH1 0x40 MLOAD SWAP2 PUSH3 0x461BCD PUSH1 0xE5 SHL DUP4 MSTORE DUP3 ADD MSTORE PUSH1 0x2A PUSH1 0x24 DUP3 ADD MSTORE PUSH32 0x4F6E6C7920636F6E7472616374206F776E65722063616E2063616C6C20746869 PUSH1 0x44 DUP3 ADD MSTORE PUSH10 0x3990333AB731BA34B7B7 PUSH1 0xB1 SHL PUSH1 0x64 DUP3 ADD MSTORE REVERT JUMPDEST SWAP1 POP CALLVALUE PUSH2 0x1A5 JUMPI PUSH1 0x20 CALLDATASIZE PUSH1 0x3 NOT ADD SLT PUSH2 0x1A5 JUMPI DUP2 CALLDATALOAD PUSH1 0x1 PUSH1 0x1 PUSH1 0x40 SHL SUB DUP2 GT PUSH2 0x1A5 JUMPI PUSH2 0x1143 SWAP1 CALLDATASIZE SWAP1 DUP5 ADD PUSH2 0x1DAB JUMP JUMPDEST PUSH1 0x40 MLOAD DUP2 DUP2 DUP1 SWAP4 MLOAD PUSH1 0x20 DUP2 SWAP4 ADD SWAP2 PUSH2 0x115A SWAP3 PUSH2 0x1E01 JUMP JUMPDEST DUP2 ADD PUSH1 0x0 DUP2 MSTORE SUB PUSH1 0x20 ADD SWAP1 KECCAK256 PUSH1 0x40 MLOAD SWAP1 PUSH2 0x1173 DUP3 PUSH2 0x1D53 JUMP JUMPDEST PUSH2 0x117C DUP2 PUSH2 0x1E5E JUMP JUMPDEST DUP3 MSTORE PUSH2 0x118A PUSH1 0x1 DUP3 ADD PUSH2 0x1E5E JUMP JUMPDEST PUSH1 0x20 DUP4 ADD SWAP1 DUP2 MSTORE SWAP3 PUSH2 0x119E PUSH1 0x2 DUP4 ADD PUSH2 0x1E5E JUMP JUMPDEST PUSH1 0x40 DUP5 ADD SWAP1 DUP2 MSTORE SWAP5 PUSH2 0x11B2 PUSH1 0x3 DUP5 ADD PUSH2 0x1E5E JUMP JUMPDEST PUSH1 0x60 DUP6 ADD MSTORE DUP3 ADD SLOAD PUSH1 0x80 DUP5 ADD MSTORE PUSH1 0x5 DUP3 ADD SLOAD SWAP3 PUSH1 0xA0 DUP2 ADD SWAP4 DUP5 MSTORE PUSH1 0x6 DUP4 ADD SLOAD SWAP4 PUSH1 0xC0 DUP3 ADD SWAP5 DUP6 MSTORE PUSH1 0x7 DUP5 ADD SLOAD SWAP4 DUP4 DUP4 ADD SWAP5 DUP6 MSTORE PUSH1 0x8 DUP2 ADD SLOAD SWAP1 PUSH2 0x100 SWAP8 DUP9 DUP6 ADD SWAP2 PUSH1 0xFF DUP5 AND DUP4 MSTORE DUP4 PUSH1 0x8 SHR PUSH1 0xFF AND SWAP4 PUSH2 0x120 DUP8 ADD SWAP5 PUSH2 0x1210 DUP2 PUSH2 0x1F29 JUMP JUMPDEST DUP6 MSTORE PUSH1 0x10 SHR PUSH1 0x1 PUSH1 0x1 PUSH1 0xA0 SHL SUB AND PUSH2 0x140 DUP8 ADD MSTORE PUSH1 0x9 DUP2 ADD SLOAD PUSH2 0x160 DUP8 ADD MSTORE PUSH2 0x123B SWAP1 PUSH1 0xA ADD PUSH2 0x1E5E JUMP JUMPDEST SWAP5 PUSH2 0x180 ADD SWAP5 DUP6 MSTORE MLOAD SWAP9 MLOAD SWAP7 MLOAD SWAP6 MLOAD SWAP1 MLOAD PUSH1 0xFF AND SWAP2 MLOAD SWAP3 PUSH2 0x125B DUP5 PUSH2 0x1F29 JUMP JUMPDEST MLOAD SWAP4 MLOAD SWAP7 PUSH1 0x40 MLOAD SWAP10 DUP10 DUP12 SWAP11 DUP12 MSTORE DUP11 ADD PUSH2 0x1273 SWAP2 PUSH2 0x1F04 JUMP JUMPDEST DUP10 DUP2 SUB PUSH1 0x20 DUP12 ADD MSTORE PUSH2 0x1284 SWAP2 PUSH2 0x1F04 JUMP JUMPDEST SWAP6 PUSH1 0x40 DUP10 ADD MSTORE PUSH1 0x60 DUP9 ADD MSTORE PUSH1 0x80 DUP8 ADD MSTORE PUSH2 0x129D DUP2 PUSH2 0x1F29 JUMP JUMPDEST PUSH1 0xA0 DUP7 ADD MSTORE PUSH1 0xC0 DUP6 ADD MSTORE DUP4 DUP3 SUB SWAP1 DUP5 ADD MSTORE PUSH2 0x1A1 SWAP2 PUSH2 0x1F04 JUMP JUMPDEST DUP3 CALLVALUE PUSH2 0x1A5 JUMPI PUSH1 0x20 CALLDATASIZE PUSH1 0x3 NOT ADD SLT PUSH2 0x1A5 JUMPI DUP1 CALLDATALOAD SWAP1 PUSH1 0x1 PUSH1 0x1 PUSH1 0x40 SHL SUB DUP3 GT PUSH2 0x1A5 JUMPI PUSH2 0x12EF PUSH1 0x20 PUSH2 0x250 PUSH2 0x1377 SWAP5 CALLDATASIZE SWAP1 DUP6 ADD PUSH2 0x1DAB JUMP JUMPDEST DUP2 ADD PUSH1 0x1 DUP2 MSTORE SUB ADD SWAP1 KECCAK256 SWAP1 PUSH1 0xA0 PUSH1 0x40 MLOAD SWAP3 PUSH2 0x1309 DUP5 PUSH2 0x1D22 JUMP JUMPDEST PUSH2 0x1312 DUP2 PUSH2 0x1E5E JUMP JUMPDEST DUP5 MSTORE PUSH2 0x1385 PUSH2 0x1323 PUSH1 0x1 DUP4 ADD PUSH2 0x1E5E JUMP JUMPDEST PUSH1 0x20 DUP7 ADD SWAP1 DUP2 MSTORE PUSH2 0x1336 PUSH1 0x2 DUP5 ADD PUSH2 0x1E5E JUMP JUMPDEST SWAP6 DUP7 PUSH1 0x40 DUP3 ADD MSTORE PUSH1 0x5 PUSH1 0xFF PUSH1 0x3 DUP7 ADD SLOAD AND ISZERO ISZERO SWAP7 DUP8 PUSH1 0x60 DUP5 ADD MSTORE DUP6 ADD SLOAD SWAP5 DUP6 PUSH1 0x80 DUP5 ADD MSTORE ADD SLOAD SWAP5 DUP6 SWAP2 ADD MSTORE MLOAD SWAP5 PUSH1 0x40 MLOAD SWAP7 DUP8 SWAP7 PUSH1 0xA0 DUP9 MSTORE PUSH1 0xA0 DUP9 ADD SWAP1 PUSH2 0x1F04 JUMP JUMPDEST SWAP1 DUP7 DUP3 SUB PUSH1 0x20 DUP9 ADD MSTORE PUSH2 0x1F04 JUMP JUMPDEST SWAP3 PUSH1 0x40 DUP6 ADD MSTORE PUSH1 0x60 DUP5 ADD MSTORE PUSH1 0x80 DUP4 ADD MSTORE SUB SWAP1 RETURN JUMPDEST DUP3 CALLVALUE PUSH2 0x1A5 JUMPI PUSH1 0x0 CALLDATASIZE PUSH1 0x3 NOT ADD SLT PUSH2 0x1A5 JUMPI PUSH1 0x5 SLOAD SWAP1 PUSH1 0x1 PUSH1 0x1 PUSH1 0x40 SHL SUB DUP3 GT PUSH2 0x722 JUMPI POP PUSH1 0x40 MLOAD PUSH1 0x20 SWAP2 PUSH2 0x13D3 DUP4 DUP3 PUSH1 0x5 SHL ADD DUP4 PUSH2 0x1D8A JUMP JUMPDEST DUP1 DUP3 MSTORE DUP3 DUP3 ADD PUSH1 0x5 PUSH1 0x0 MSTORE PUSH32 0x36B6384B5ECA791C62761152D0C79BB0604C104A5FB6F4EB0703F3154BB3DB0 SWAP4 PUSH1 0x0 SWAP2 JUMPDEST DUP4 DUP4 LT PUSH2 0x1419 JUMPI PUSH1 0x40 MLOAD DUP1 PUSH2 0x1A1 DUP8 DUP3 PUSH2 0x1F49 JUMP JUMPDEST PUSH1 0x1 DUP3 DUP2 SWAP3 PUSH2 0x1427 DUP10 PUSH2 0x1E5E JUMP JUMPDEST DUP2 MSTORE ADD SWAP7 ADD SWAP3 ADD SWAP2 SWAP5 PUSH2 0x1404 JUMP JUMPDEST CALLVALUE PUSH2 0x1A5 JUMPI PUSH1 0x0 CALLDATASIZE PUSH1 0x3 NOT ADD SLT PUSH2 0x1A5 JUMPI PUSH1 0x20 PUSH1 0xA SLOAD PUSH1 0x40 MLOAD SWAP1 DUP2 MSTORE RETURN JUMPDEST DUP3 CALLVALUE PUSH2 0x1A5 JUMPI PUSH1 0x60 CALLDATASIZE PUSH1 0x3 NOT ADD SLT PUSH2 0x1A5 JUMPI DUP1 CALLDATALOAD PUSH1 0x1 PUSH1 0x1 PUSH1 0x40 SHL SUB DUP2 GT PUSH2 0x1A5 JUMPI PUSH2 0x1482 SWAP1 CALLDATASIZE SWAP1 DUP4 ADD PUSH2 0x1DAB JUMP JUMPDEST PUSH1 0x24 CALLDATALOAD SWAP1 PUSH1 0x44 CALLDATALOAD SWAP1 PUSH1 0xFF DUP3 AND DUP1 SWAP3 SUB PUSH2 0x1A5 JUMPI PUSH2 0x542 SWAP4 PUSH2 0x14CB PUSH1 0x40 MLOAD DUP4 MLOAD PUSH2 0x14BA PUSH1 0x20 SWAP9 DUP4 DUP11 DUP1 SWAP6 DUP2 DUP11 ADD SWAP6 PUSH2 0x532 DUP2 DUP4 DUP10 PUSH2 0x1E01 JUMP JUMPDEST PUSH1 0x40 MLOAD DUP1 SWAP4 DUP2 SWAP3 DUP8 MLOAD SWAP3 DUP4 SWAP2 PUSH2 0x1E01 JUMP JUMPDEST DUP2 ADD PUSH1 0x0 DUP2 MSTORE SUB ADD SWAP1 KECCAK256 SWAP1 PUSH1 0x40 MLOAD PUSH2 0x14E6 DUP2 PUSH1 0x2 DUP6 ADD PUSH2 0x21B8 JUMP JUMPDEST DUP3 DUP2 MSTORE DUP2 SWAP1 SUB DUP8 ADD SWAP1 KECCAK256 SLOAD PUSH1 0x1 PUSH1 0x1 PUSH1 0xA0 SHL SUB AND CALLER SUB PUSH2 0x1619 JUMPI PUSH1 0x6 DUP3 ADD SLOAD DUP6 GT PUSH2 0x15C6 JUMPI PUSH1 0x64 DUP5 GT PUSH2 0x1582 JUMPI POP SWAP2 PUSH2 0x1561 DUP5 SWAP3 PUSH1 0x8 DUP6 PUSH32 0xA332376864D3FEA1442038835E06BB6AF524B8D5FFEBDBB05A2BED8FA1B98891 SWAP8 PUSH1 0x7 PUSH1 0x40 SWAP9 ADD SSTORE ADD DUP1 SLOAD DUP5 PUSH1 0xFF NOT DUP3 AND OR DUP3 SSTORE DUP5 DUP1 PUSH2 0x156D JUMPI JUMPDEST POP POP POP PUSH2 0x20DF JUMP JUMPDEST SWAP5 DUP4 MLOAD SWAP3 DUP4 MSTORE DUP3 ADD MSTORE LOG2 STOP JUMPDEST PUSH2 0x100 SWAP2 PUSH2 0xFFFF NOT AND OR OR SWAP1 SSTORE DUP8 DUP1 DUP5 PUSH2 0x1559 JUMP JUMPDEST PUSH1 0x40 MLOAD PUSH3 0x461BCD PUSH1 0xE5 SHL DUP2 MSTORE SWAP1 DUP2 ADD DUP7 SWAP1 MSTORE PUSH1 0x1B PUSH1 0x24 DUP3 ADD MSTORE PUSH32 0x446973636F756E742063616E6E6F742065786365656420313030250000000000 PUSH1 0x44 DUP3 ADD MSTORE PUSH1 0x64 SWAP1 REVERT JUMPDEST PUSH1 0x40 MLOAD PUSH3 0x461BCD PUSH1 0xE5 SHL DUP2 MSTORE SWAP1 DUP2 ADD DUP7 SWAP1 MSTORE PUSH1 0x26 PUSH1 0x24 DUP3 ADD MSTORE PUSH32 0x4E65772070726963652063616E6E6F7420657863656564206F726967696E616C PUSH1 0x44 DUP3 ADD MSTORE PUSH6 0x207072696365 PUSH1 0xD0 SHL PUSH1 0x64 DUP3 ADD MSTORE PUSH1 0x84 SWAP1 REVERT JUMPDEST PUSH1 0x40 MLOAD PUSH3 0x461BCD PUSH1 0xE5 SHL DUP2 MSTORE SWAP1 DUP2 ADD DUP7 SWAP1 MSTORE PUSH1 0x23 PUSH1 0x24 DUP3 ADD MSTORE PUSH32 0x4F6E6C792070726F64756374206F776E65722063616E20757064617465207072 PUSH1 0x44 DUP3 ADD MSTORE PUSH3 0x696365 PUSH1 0xE8 SHL PUSH1 0x64 DUP3 ADD MSTORE PUSH1 0x84 SWAP1 REVERT JUMPDEST DUP3 CALLVALUE PUSH2 0x1A5 JUMPI PUSH1 0x0 CALLDATASIZE PUSH1 0x3 NOT ADD SLT PUSH2 0x1A5 JUMPI PUSH1 0x6 SLOAD SWAP1 PUSH1 0x1 PUSH1 0x1 PUSH1 0x40 SHL SUB DUP3 GT PUSH2 0x722 JUMPI POP PUSH1 0x40 MLOAD PUSH1 0x20 SWAP2 PUSH2 0x16A3 DUP4 DUP3 PUSH1 0x5 SHL ADD DUP4 PUSH2 0x1D8A JUMP JUMPDEST DUP1 DUP3 MSTORE DUP3 DUP3 ADD PUSH1 0x6 PUSH1 0x0 MSTORE PUSH32 0xF652222313E28459528D920B65115C16C04F3EFC82AAEDC97BE59F3F377C0D3F SWAP4 PUSH1 0x0 SWAP2 JUMPDEST DUP4 DUP4 LT PUSH2 0x16E9 JUMPI PUSH1 0x40 MLOAD DUP1 PUSH2 0x1A1 DUP8 DUP3 PUSH2 0x1F49 JUMP JUMPDEST PUSH1 0x1 DUP3 DUP2 SWAP3 PUSH2 0x16F7 DUP10 PUSH2 0x1E5E JUMP JUMPDEST DUP2 MSTORE ADD SWAP7 ADD SWAP3 ADD SWAP2 SWAP5 PUSH2 0x16D4 JUMP JUMPDEST DUP3 CALLVALUE PUSH2 0x1A5 JUMPI PUSH1 0x20 DUP1 PUSH1 0x3 NOT CALLDATASIZE ADD SLT PUSH2 0x1A5 JUMPI DUP2 CALLDATALOAD PUSH1 0x1 PUSH1 0x1 PUSH1 0x40 SHL SUB DUP2 GT PUSH2 0x1A5 JUMPI DUP2 PUSH2 0x250 PUSH2 0x1739 SWAP3 CALLDATASIZE SWAP1 DUP7 ADD PUSH2 0x1DAB JUMP JUMPDEST DUP2 ADD PUSH1 0x2 DUP2 MSTORE SUB ADD SWAP1 KECCAK256 SWAP2 PUSH1 0x6 DUP4 ADD SWAP1 PUSH1 0x1 DUP4 DUP4 SLOAD SWAP6 PUSH2 0x175F PUSH1 0xFF DUP9 AND PUSH2 0x8C2 DUP2 PUSH2 0x1F29 JUMP JUMPDEST PUSH2 0x176F PUSH1 0x40 MLOAD DUP1 SWAP5 DUP2 SWAP4 ADD PUSH2 0x21B8 JUMP JUMPDEST PUSH1 0x0 DUP2 MSTORE SUB ADD SWAP1 KECCAK256 SWAP3 PUSH1 0x40 MLOAD PUSH2 0x1788 DUP2 PUSH1 0x2 DUP8 ADD PUSH2 0x21B8 JUMP JUMPDEST DUP4 DUP2 MSTORE DUP2 SWAP1 SUB DUP3 ADD SWAP1 KECCAK256 SLOAD PUSH1 0x1 PUSH1 0x1 PUSH1 0xA0 SHL SUB AND CALLER SUB PUSH2 0x17F3 JUMPI POP POP PUSH1 0x2 PUSH1 0x8 SWAP4 PUSH1 0xFF NOT AND OR SWAP1 SSTORE PUSH1 0x5 DUP2 ADD SLOAD TIMESTAMP LT PUSH1 0x0 EQ PUSH2 0x17E3 JUMPI ADD DUP1 SLOAD PUSH1 0xFF DUP2 AND ISZERO PUSH2 0x17DA JUMPI POP DUP1 SLOAD PUSH2 0xFF00 NOT AND PUSH2 0x100 OR SWAP1 SSTORE STOP JUMPDEST PUSH2 0xFF00 NOT AND SWAP1 SSTORE STOP JUMPDEST ADD DUP1 SLOAD PUSH2 0xFF00 NOT AND PUSH2 0x200 OR SWAP1 SSTORE STOP JUMPDEST PUSH1 0x40 MLOAD PUSH3 0x461BCD PUSH1 0xE5 SHL DUP2 MSTORE SWAP2 DUP3 ADD MSTORE PUSH1 0x22 PUSH1 0x24 DUP3 ADD MSTORE PUSH32 0x4F6E6C792073656C6C65722063616E2063616E63656C207472616E7361637469 PUSH1 0x44 DUP3 ADD MSTORE PUSH2 0x37B7 PUSH1 0xF1 SHL PUSH1 0x64 DUP3 ADD MSTORE PUSH1 0x84 SWAP2 POP REVERT JUMPDEST DUP3 CALLVALUE PUSH2 0x1A5 JUMPI PUSH1 0x60 CALLDATASIZE PUSH1 0x3 NOT ADD SLT PUSH2 0x1A5 JUMPI PUSH1 0x1 PUSH1 0x1 PUSH1 0x40 SHL SUB SWAP1 DUP1 CALLDATALOAD DUP3 DUP2 GT PUSH2 0x1A5 JUMPI PUSH2 0x1872 SWAP1 CALLDATASIZE SWAP1 DUP4 ADD PUSH2 0x1DAB JUMP JUMPDEST SWAP1 PUSH1 0x24 CALLDATALOAD DUP4 DUP2 GT PUSH2 0x1A5 JUMPI PUSH2 0x188A SWAP1 CALLDATASIZE SWAP1 DUP4 ADD PUSH2 0x1DAB JUMP JUMPDEST SWAP3 PUSH1 0x44 CALLDATALOAD SWAP1 DUP2 GT PUSH2 0x1A5 JUMPI PUSH2 0x18A2 SWAP1 CALLDATASIZE SWAP1 DUP4 ADD PUSH2 0x1DAB JUMP JUMPDEST PUSH1 0x40 MLOAD SWAP1 DUP4 MLOAD SWAP1 PUSH2 0x18C0 PUSH1 0x20 SWAP4 DUP5 DUP2 DUP2 DUP10 ADD SWAP6 PUSH2 0xBB1 DUP2 DUP4 DUP10 PUSH2 0x1E01 JUMP JUMPDEST PUSH2 0x1A6C JUMPI CALLER PUSH1 0x0 MSTORE PUSH1 0x3 DUP4 MSTORE PUSH2 0x18DA PUSH1 0x40 PUSH1 0x0 KECCAK256 SLOAD PUSH2 0x1E24 JUMP JUMPDEST PUSH2 0x1A28 JUMPI SWAP1 PUSH2 0x1983 SWAP3 SWAP2 PUSH1 0x5 DUP7 PUSH1 0x40 MLOAD SWAP3 PUSH2 0x18F4 DUP5 PUSH2 0x1D22 JUMP JUMPDEST DUP2 DUP5 MSTORE DUP6 DUP5 ADD SWAP1 DUP11 DUP3 MSTORE PUSH1 0x40 DUP6 ADD SWAP1 DUP2 MSTORE PUSH2 0x1950 PUSH1 0x60 DUP7 ADD SWAP2 PUSH1 0x0 DUP4 MSTORE PUSH2 0x621 PUSH1 0x80 DUP9 ADD SWAP5 TIMESTAMP DUP7 MSTORE PUSH2 0x617 PUSH2 0x193E DUP13 DUP13 PUSH1 0xA0 DUP14 ADD SWAP11 PUSH1 0x0 DUP13 MSTORE PUSH1 0x40 MLOAD SWAP4 DUP5 SWAP3 DUP4 SWAP3 MLOAD SWAP3 DUP4 SWAP2 PUSH2 0x1E01 JUMP JUMPDEST DUP2 ADD PUSH1 0x1 DUP2 MSTORE SUB ADD SWAP1 KECCAK256 SWAP10 MLOAD DUP11 PUSH2 0x1FAB JUMP JUMPDEST PUSH1 0x3 DUP6 ADD SWAP1 MLOAD ISZERO ISZERO PUSH1 0xFF DUP1 NOT DUP4 SLOAD AND SWAP2 AND OR SWAP1 SSTORE MLOAD DUP8 DUP5 ADD SSTORE MLOAD SWAP2 ADD SSTORE CALLER PUSH1 0x0 MSTORE PUSH1 0x3 DUP3 MSTORE PUSH2 0x14BA DUP6 PUSH1 0x40 PUSH1 0x0 KECCAK256 PUSH2 0x1FAB JUMP JUMPDEST DUP2 ADD DUP5 DUP2 MSTORE SUB ADD SWAP1 KECCAK256 DUP1 SLOAD PUSH1 0x1 PUSH1 0x1 PUSH1 0xA0 SHL SUB NOT AND CALLER OR SWAP1 SSTORE PUSH1 0x6 SLOAD SWAP1 PUSH1 0x1 PUSH1 0x40 SHL DUP3 LT ISZERO PUSH2 0x722 JUMPI PUSH1 0x1 DUP3 ADD DUP1 PUSH1 0x6 SSTORE DUP3 LT ISZERO PUSH2 0x70D JUMPI POP PUSH2 0xE05 DUP3 PUSH2 0x1A15 PUSH32 0x683C95E74F23A58EBACAD1072881D776869526AFD974063423B60E665AE8E952 SWAP5 PUSH2 0xE14 SWAP5 PUSH1 0x6 PUSH1 0x0 MSTORE PUSH32 0xF652222313E28459528D920B65115C16C04F3EFC82AAEDC97BE59F3F377C0D3F ADD PUSH2 0x1FAB JUMP JUMPDEST PUSH2 0x1A20 PUSH1 0xA SLOAD PUSH2 0x20BA JUMP JUMPDEST PUSH1 0xA SSTORE PUSH2 0x20DF JUMP JUMPDEST PUSH1 0x40 MLOAD PUSH3 0x461BCD PUSH1 0xE5 SHL DUP2 MSTORE DUP1 DUP6 ADD DUP5 SWAP1 MSTORE PUSH1 0x1E PUSH1 0x24 DUP3 ADD MSTORE PUSH32 0x4164647265737320616C726561647920686173206120627573696E6573730000 PUSH1 0x44 DUP3 ADD MSTORE PUSH1 0x64 SWAP1 REVERT JUMPDEST PUSH1 0x40 MLOAD PUSH3 0x461BCD PUSH1 0xE5 SHL DUP2 MSTORE DUP1 DUP6 ADD DUP5 SWAP1 MSTORE PUSH1 0x17 PUSH1 0x24 DUP3 ADD MSTORE PUSH32 0x427573696E65737320616C726561647920657869737473000000000000000000 PUSH1 0x44 DUP3 ADD MSTORE PUSH1 0x64 SWAP1 REVERT JUMPDEST CALLVALUE PUSH2 0x1A5 JUMPI PUSH1 0x0 CALLDATASIZE PUSH1 0x3 NOT ADD SLT PUSH2 0x1A5 JUMPI PUSH1 0x60 PUSH1 0x9 SLOAD PUSH1 0xA SLOAD PUSH1 0xB SLOAD SWAP1 PUSH1 0x40 MLOAD SWAP3 DUP4 MSTORE PUSH1 0x20 DUP4 ADD MSTORE PUSH1 0x40 DUP3 ADD MSTORE RETURN JUMPDEST SWAP1 POP CALLVALUE PUSH2 0x1A5 JUMPI PUSH1 0x20 CALLDATASIZE PUSH1 0x3 NOT ADD SLT PUSH2 0x1A5 JUMPI DUP2 CALLDATALOAD PUSH1 0x1 PUSH1 0x1 PUSH1 0x40 SHL SUB DUP2 GT PUSH2 0x1A5 JUMPI PUSH1 0x20 PUSH2 0x250 PUSH2 0x1B14 SWAP3 CALLDATASIZE SWAP1 DUP7 ADD PUSH2 0x1DAB JUMP JUMPDEST DUP2 ADD PUSH1 0x2 DUP2 MSTORE SUB ADD SWAP1 KECCAK256 SWAP2 PUSH2 0x1B28 DUP4 PUSH2 0x1E5E JUMP JUMPDEST SWAP3 PUSH2 0x1B35 PUSH1 0x1 DUP3 ADD PUSH2 0x1E5E JUMP JUMPDEST SWAP1 PUSH2 0x1BA9 PUSH2 0x1B45 PUSH1 0x2 DUP4 ADD PUSH2 0x1E5E JUMP JUMPDEST SWAP4 PUSH2 0x1B9B PUSH2 0x1B55 PUSH1 0x3 DUP6 ADD PUSH2 0x1E5E JUMP JUMPDEST SWAP2 DUP5 ADD SLOAD SWAP6 PUSH2 0x1B8D PUSH1 0xFF PUSH1 0x6 PUSH1 0x5 DUP9 ADD SLOAD SWAP8 ADD SLOAD AND SWAP7 PUSH2 0x1B7F PUSH1 0x40 MLOAD SWAP12 DUP12 DUP14 SWAP13 DUP14 MSTORE DUP13 ADD SWAP1 PUSH2 0x1F04 JUMP JUMPDEST SWAP1 DUP11 DUP3 SUB PUSH1 0x20 DUP13 ADD MSTORE PUSH2 0x1F04 JUMP JUMPDEST SWAP1 DUP9 DUP3 SUB PUSH1 0x40 DUP11 ADD MSTORE PUSH2 0x1F04 JUMP JUMPDEST SWAP1 DUP7 DUP3 SUB PUSH1 0x60 DUP9 ADD MSTORE PUSH2 0x1F04 JUMP JUMPDEST SWAP3 PUSH1 0x80 DUP6 ADD MSTORE PUSH1 0xA0 DUP5 ADD MSTORE PUSH2 0x1BBD DUP2 PUSH2 0x1F29 JUMP JUMPDEST PUSH1 0xC0 DUP4 ADD MSTORE SUB SWAP1 RETURN JUMPDEST DUP3 CALLVALUE PUSH2 0x1A5 JUMPI PUSH1 0x20 CALLDATASIZE PUSH1 0x3 NOT ADD SLT PUSH2 0x1A5 JUMPI DUP1 CALLDATALOAD PUSH1 0x1 PUSH1 0x1 PUSH1 0x40 SHL SUB DUP2 GT PUSH2 0x1A5 JUMPI PUSH2 0x1BF5 SWAP1 CALLDATASIZE SWAP1 DUP4 ADD PUSH2 0x1DAB JUMP JUMPDEST PUSH1 0x40 MLOAD DUP2 DUP2 DUP1 SWAP4 MLOAD PUSH1 0x20 DUP2 SWAP4 ADD SWAP2 PUSH2 0x1C0C SWAP3 PUSH2 0x1E01 JUMP JUMPDEST DUP2 ADD PUSH1 0x0 DUP2 MSTORE SUB PUSH1 0x20 ADD SWAP1 KECCAK256 SWAP2 PUSH2 0x1C22 DUP4 PUSH2 0x1E5E JUMP JUMPDEST SWAP2 PUSH2 0x1C2F PUSH1 0x1 DUP6 ADD PUSH2 0x1E5E JUMP JUMPDEST SWAP4 PUSH2 0x1C3C PUSH1 0x2 DUP3 ADD PUSH2 0x1E5E JUMP JUMPDEST SWAP3 PUSH2 0x1C49 PUSH1 0x3 DUP4 ADD PUSH2 0x1E5E JUMP JUMPDEST SWAP3 DUP3 ADD SLOAD SWAP3 PUSH1 0x5 DUP4 ADD SLOAD SWAP2 PUSH1 0x6 DUP5 ADD SLOAD SWAP1 PUSH1 0x7 DUP6 ADD SLOAD SWAP2 PUSH1 0x8 DUP7 ADD SLOAD SWAP5 DUP6 PUSH1 0x8 SHR PUSH1 0xFF AND SWAP5 PUSH1 0x9 DUP9 ADD SLOAD SWAP8 PUSH1 0xA ADD PUSH2 0x1C80 SWAP1 PUSH2 0x1E5E JUMP JUMPDEST SWAP10 PUSH1 0x40 MLOAD SWAP13 DUP14 SWAP13 DUP14 PUSH2 0x1A0 SWAP1 DUP2 DUP2 MSTORE ADD PUSH2 0x1C99 SWAP2 PUSH2 0x1F04 JUMP JUMPDEST DUP14 DUP2 SUB PUSH1 0x20 DUP16 ADD MSTORE PUSH2 0x1CAA SWAP2 PUSH2 0x1F04 JUMP JUMPDEST DUP13 DUP2 SUB PUSH1 0x40 DUP15 ADD MSTORE PUSH2 0x1CBB SWAP2 PUSH2 0x1F04 JUMP JUMPDEST DUP12 DUP2 SUB PUSH1 0x60 DUP14 ADD MSTORE PUSH2 0x1CCC SWAP2 PUSH2 0x1F04 JUMP JUMPDEST SWAP8 PUSH1 0x80 DUP12 ADD MSTORE PUSH1 0xA0 DUP11 ADD MSTORE PUSH1 0xC0 DUP10 ADD MSTORE DUP8 ADD MSTORE PUSH1 0xFF DUP3 AND PUSH2 0x100 DUP8 ADD MSTORE PUSH2 0x1CF2 DUP2 PUSH2 0x1F29 JUMP JUMPDEST PUSH2 0x120 DUP7 ADD MSTORE PUSH1 0x10 SHR PUSH1 0x1 PUSH1 0x1 PUSH1 0xA0 SHL SUB AND PUSH2 0x140 DUP6 ADD MSTORE PUSH2 0x160 DUP5 ADD MSTORE DUP3 DUP2 SUB PUSH2 0x180 DUP5 ADD MSTORE PUSH2 0x1A1 SWAP2 PUSH2 0x1F04 JUMP JUMPDEST PUSH1 0xC0 DUP2 ADD SWAP1 DUP2 LT PUSH1 0x1 PUSH1 0x1 PUSH1 0x40 SHL SUB DUP3 GT OR PUSH2 0x1D3D JUMPI PUSH1 0x40 MSTORE JUMP JUMPDEST PUSH4 0x4E487B71 PUSH1 0xE0 SHL PUSH1 0x0 MSTORE PUSH1 0x41 PUSH1 0x4 MSTORE PUSH1 0x24 PUSH1 0x0 REVERT JUMPDEST PUSH2 0x1A0 DUP2 ADD SWAP1 DUP2 LT PUSH1 0x1 PUSH1 0x1 PUSH1 0x40 SHL SUB DUP3 GT OR PUSH2 0x1D3D JUMPI PUSH1 0x40 MSTORE JUMP JUMPDEST PUSH1 0xE0 DUP2 ADD SWAP1 DUP2 LT PUSH1 0x1 PUSH1 0x1 PUSH1 0x40 SHL SUB DUP3 GT OR PUSH2 0x1D3D JUMPI PUSH1 0x40 MSTORE JUMP JUMPDEST SWAP1 PUSH1 0x1F DUP1 NOT SWAP2 ADD AND DUP2 ADD SWAP1 DUP2 LT PUSH1 0x1 PUSH1 0x1 PUSH1 0x40 SHL SUB DUP3 GT OR PUSH2 0x1D3D JUMPI PUSH1 0x40 MSTORE JUMP JUMPDEST DUP2 PUSH1 0x1F DUP3 ADD SLT ISZERO PUSH2 0x1A5 JUMPI DUP1 CALLDATALOAD SWAP1 PUSH1 0x1 PUSH1 0x1 PUSH1 0x40 SHL SUB DUP3 GT PUSH2 0x1D3D JUMPI PUSH1 0x40 MLOAD SWAP3 PUSH2 0x1DDF PUSH1 0x1F DUP5 ADD PUSH1 0x1F NOT AND PUSH1 0x20 ADD DUP6 PUSH2 0x1D8A JUMP JUMPDEST DUP3 DUP5 MSTORE PUSH1 0x20 DUP4 DUP4 ADD ADD GT PUSH2 0x1A5 JUMPI DUP2 PUSH1 0x0 SWAP3 PUSH1 0x20 DUP1 SWAP4 ADD DUP4 DUP7 ADD CALLDATACOPY DUP4 ADD ADD MSTORE SWAP1 JUMP JUMPDEST PUSH1 0x0 JUMPDEST DUP4 DUP2 LT PUSH2 0x1E14 JUMPI POP POP PUSH1 0x0 SWAP2 ADD MSTORE JUMP JUMPDEST DUP2 DUP2 ADD MLOAD DUP4 DUP3 ADD MSTORE PUSH1 0x20 ADD PUSH2 0x1E04 JUMP JUMPDEST SWAP1 PUSH1 0x1 DUP3 DUP2 SHR SWAP3 AND DUP1 ISZERO PUSH2 0x1E54 JUMPI JUMPDEST PUSH1 0x20 DUP4 LT EQ PUSH2 0x1E3E JUMPI JUMP JUMPDEST PUSH4 0x4E487B71 PUSH1 0xE0 SHL PUSH1 0x0 MSTORE PUSH1 0x22 PUSH1 0x4 MSTORE PUSH1 0x24 PUSH1 0x0 REVERT JUMPDEST SWAP2 PUSH1 0x7F AND SWAP2 PUSH2 0x1E33 JUMP JUMPDEST SWAP1 PUSH1 0x40 MLOAD SWAP2 DUP3 PUSH1 0x0 DUP3 SLOAD SWAP3 PUSH2 0x1E72 DUP5 PUSH2 0x1E24 JUMP JUMPDEST SWAP1 DUP2 DUP5 MSTORE PUSH1 0x1 SWAP5 DUP6 DUP2 AND SWAP1 DUP2 PUSH1 0x0 EQ PUSH2 0x1EE1 JUMPI POP PUSH1 0x1 EQ PUSH2 0x1E9E JUMPI JUMPDEST POP POP PUSH2 0x1E9C SWAP3 POP SUB DUP4 PUSH2 0x1D8A JUMP JUMPDEST JUMP JUMPDEST SWAP1 SWAP4 SWAP2 POP PUSH1 0x0 MSTORE PUSH1 0x20 SWAP1 DUP2 PUSH1 0x0 KECCAK256 SWAP4 PUSH1 0x0 SWAP2 JUMPDEST DUP2 DUP4 LT PUSH2 0x1EC9 JUMPI POP POP PUSH2 0x1E9C SWAP4 POP DUP3 ADD ADD CODESIZE DUP1 PUSH2 0x1E8E JUMP JUMPDEST DUP6 SLOAD DUP9 DUP5 ADD DUP6 ADD MSTORE SWAP5 DUP6 ADD SWAP5 DUP8 SWAP5 POP SWAP2 DUP4 ADD SWAP2 PUSH2 0x1EB1 JUMP JUMPDEST SWAP2 POP POP PUSH2 0x1E9C SWAP5 POP PUSH1 0x20 SWAP3 POP PUSH1 0xFF NOT AND DUP3 DUP5 ADD MSTORE ISZERO ISZERO PUSH1 0x5 SHL DUP3 ADD ADD CODESIZE DUP1 PUSH2 0x1E8E JUMP JUMPDEST SWAP1 PUSH1 0x20 SWAP2 PUSH2 0x1F1D DUP2 MLOAD DUP1 SWAP3 DUP2 DUP6 MSTORE DUP6 DUP1 DUP7 ADD SWAP2 ADD PUSH2 0x1E01 JUMP JUMPDEST PUSH1 0x1F ADD PUSH1 0x1F NOT AND ADD ADD SWAP1 JUMP JUMPDEST PUSH1 0x4 GT ISZERO PUSH2 0x1F33 JUMPI JUMP JUMPDEST PUSH4 0x4E487B71 PUSH1 0xE0 SHL PUSH1 0x0 MSTORE PUSH1 0x21 PUSH1 0x4 MSTORE PUSH1 0x24 PUSH1 0x0 REVERT JUMPDEST PUSH1 0x20 DUP1 DUP3 ADD SWAP1 DUP1 DUP4 MSTORE DUP4 MLOAD DUP1 SWAP3 MSTORE PUSH1 0x40 DUP4 ADD SWAP3 DUP2 PUSH1 0x40 DUP5 PUSH1 0x5 SHL DUP4 ADD ADD SWAP6 ADD SWAP4 PUSH1 0x0 SWAP2 JUMPDEST DUP5 DUP4 LT PUSH2 0x1F7D JUMPI POP POP POP POP POP POP SWAP1 JUMP JUMPDEST SWAP1 SWAP2 SWAP3 SWAP4 SWAP5 SWAP6 DUP5 DUP1 PUSH2 0x1F9B PUSH1 0x1 SWAP4 PUSH1 0x3F NOT DUP7 DUP3 SUB ADD DUP8 MSTORE DUP11 MLOAD PUSH2 0x1F04 JUMP JUMPDEST SWAP9 ADD SWAP4 ADD SWAP4 ADD SWAP2 SWAP5 SWAP4 SWAP3 SWAP1 PUSH2 0x1F6D JUMP JUMPDEST SWAP2 SWAP1 SWAP2 DUP3 MLOAD PUSH1 0x1 PUSH1 0x1 PUSH1 0x40 SHL SUB DUP2 GT PUSH2 0x1D3D JUMPI PUSH2 0x1FC8 DUP3 SLOAD PUSH2 0x1E24 JUMP JUMPDEST PUSH1 0x1F DUP2 GT PUSH2 0x2072 JUMPI JUMPDEST POP PUSH1 0x20 DUP1 PUSH1 0x1F DUP4 GT PUSH1 0x1 EQ PUSH2 0x200E JUMPI POP DUP2 SWAP3 SWAP4 SWAP5 PUSH1 0x0 SWAP3 PUSH2 0x2003 JUMPI JUMPDEST POP POP DUP2 PUSH1 0x1 SHL SWAP2 PUSH1 0x0 NOT SWAP1 PUSH1 0x3 SHL SHR NOT AND OR SWAP1 SSTORE JUMP JUMPDEST ADD MLOAD SWAP1 POP CODESIZE DUP1 PUSH2 0x1FED JUMP JUMPDEST SWAP1 PUSH1 0x1F NOT DUP4 AND SWAP6 DUP5 PUSH1 0x0 MSTORE DUP3 PUSH1 0x0 KECCAK256 SWAP3 PUSH1 0x0 SWAP1 JUMPDEST DUP9 DUP3 LT PUSH2 0x205A JUMPI POP POP DUP4 PUSH1 0x1 SWAP6 SWAP7 SWAP8 LT PUSH2 0x2041 JUMPI JUMPDEST POP POP POP DUP2 SHL ADD SWAP1 SSTORE JUMP JUMPDEST ADD MLOAD PUSH1 0x0 NOT PUSH1 0xF8 DUP5 PUSH1 0x3 SHL AND SHR NOT AND SWAP1 SSTORE CODESIZE DUP1 DUP1 PUSH2 0x2037 JUMP JUMPDEST DUP1 PUSH1 0x1 DUP6 SWAP7 DUP3 SWAP5 SWAP7 DUP7 ADD MLOAD DUP2 SSTORE ADD SWAP6 ADD SWAP4 ADD SWAP1 PUSH2 0x2022 JUMP JUMPDEST PUSH1 0x0 DUP4 DUP2 MSTORE PUSH1 0x20 DUP2 KECCAK256 PUSH1 0x1F DUP5 ADD PUSH1 0x5 SHR DUP2 ADD SWAP3 PUSH1 0x20 DUP6 LT PUSH2 0x20B0 JUMPI JUMPDEST PUSH1 0x1F ADD PUSH1 0x5 SHR ADD SWAP2 JUMPDEST DUP3 DUP2 LT PUSH2 0x20A5 JUMPI POP POP PUSH2 0x1FD1 JUMP JUMPDEST DUP2 DUP2 SSTORE PUSH1 0x1 ADD PUSH2 0x2097 JUMP JUMPDEST SWAP1 SWAP3 POP DUP3 SWAP1 PUSH2 0x208E JUMP JUMPDEST PUSH1 0x0 NOT DUP2 EQ PUSH2 0x20C9 JUMPI PUSH1 0x1 ADD SWAP1 JUMP JUMPDEST PUSH4 0x4E487B71 PUSH1 0xE0 SHL PUSH1 0x0 MSTORE PUSH1 0x11 PUSH1 0x4 MSTORE PUSH1 0x24 PUSH1 0x0 REVERT JUMPDEST PUSH2 0x20F7 SWAP1 PUSH1 0x20 PUSH1 0x40 MLOAD SWAP3 DUP3 DUP5 DUP1 SWAP5 MLOAD SWAP4 DUP5 SWAP3 ADD PUSH2 0x1E01 JUMP JUMPDEST DUP2 ADD SUB SWAP1 KECCAK256 SWAP1 JUMP JUMPDEST SWAP1 PUSH2 0x2117 PUSH1 0x20 SWAP2 SWAP5 SWAP4 SWAP5 PUSH1 0x40 DUP5 MSTORE PUSH1 0x40 DUP5 ADD SWAP1 PUSH2 0x1F04 JUMP JUMPDEST PUSH1 0x1 PUSH1 0x1 PUSH1 0xA0 SHL SUB SWAP1 SWAP5 AND SWAP2 ADD MSTORE JUMP JUMPDEST ISZERO PUSH2 0x212E JUMPI JUMP JUMPDEST PUSH1 0x40 MLOAD PUSH3 0x461BCD PUSH1 0xE5 SHL DUP2 MSTORE PUSH1 0x20 PUSH1 0x4 DUP3 ADD MSTORE PUSH1 0x17 PUSH1 0x24 DUP3 ADD MSTORE PUSH32 0x427573696E65737320646F6573206E6F74206578697374000000000000000000 PUSH1 0x44 DUP3 ADD MSTORE PUSH1 0x64 SWAP1 REVERT JUMPDEST ISZERO PUSH2 0x217A JUMPI JUMP JUMPDEST PUSH1 0x40 MLOAD PUSH3 0x461BCD PUSH1 0xE5 SHL DUP2 MSTORE PUSH1 0x20 PUSH1 0x4 DUP3 ADD MSTORE PUSH1 0x16 PUSH1 0x24 DUP3 ADD MSTORE PUSH22 0x141C9BD91D58DD08191BD95CC81B9BDD08195E1A5CDD PUSH1 0x52 SHL PUSH1 0x44 DUP3 ADD MSTORE PUSH1 0x64 SWAP1 REVERT JUMPDEST PUSH1 0x0 SWAP3 SWAP2 DUP2 SLOAD PUSH2 0x21C7 DUP2 PUSH2 0x1E24 JUMP JUMPDEST SWAP3 PUSH1 0x1 SWAP2 DUP1 DUP4 AND SWAP1 DUP2 ISZERO PUSH2 0x2220 JUMPI POP PUSH1 0x1 EQ PUSH2 0x21E4 JUMPI JUMPDEST POP POP POP POP JUMP JUMPDEST SWAP1 SWAP2 SWAP3 SWAP4 SWAP5 POP PUSH1 0x0 MSTORE PUSH1 0x20 SWAP1 DUP2 PUSH1 0x0 KECCAK256 SWAP1 PUSH1 0x0 SWAP2 JUMPDEST DUP6 DUP4 LT PUSH2 0x220F JUMPI POP POP POP POP ADD SWAP1 CODESIZE DUP1 DUP1 DUP1 PUSH2 0x21DE JUMP JUMPDEST DUP1 SLOAD DUP6 DUP5 ADD MSTORE SWAP2 DUP4 ADD SWAP2 DUP2 ADD PUSH2 0x21F9 JUMP JUMPDEST PUSH1 0xFF NOT AND DUP5 MSTORE POP POP POP DUP2 ISZERO ISZERO SWAP1 SWAP2 MUL ADD SWAP2 POP CODESIZE DUP1 DUP1 DUP1 PUSH2 0x21DE JUMP JUMPDEST ISZERO PUSH2 0x2242 JUMPI JUMP JUMPDEST PUSH1 0x40 MLOAD PUSH3 0x461BCD PUSH1 0xE5 SHL DUP2 MSTORE PUSH1 0x20 PUSH1 0x4 DUP3 ADD MSTORE PUSH1 0x17 PUSH1 0x24 DUP3 ADD MSTORE PUSH32 0x5472616E73616374696F6E206E6F742070656E64696E67000000000000000000 PUSH1 0x44 DUP3 ADD MSTORE PUSH1 0x64 SWAP1 REVERT INVALID LOG2 PUSH5 0x6970667358 0x22 SLT KECCAK256 CHAINID 0x4D PUSH22 0x82FF5F8B81D896EBCE1F9F117E4A3FD9F31C7A1BA038 0x2C PUSH8 0xC20D6024F064736F PUSH13 0x63430008140033000000000000 "},"methodIdentifiers":{"businessIdToAddress(string)":"93a70214","businessIds(uint256)":"9c6f8855","businesses(string)":"b45e1c4e","cancelTransaction(string)":"2f2ffd88","completeTransaction(string)":"8438e7ea","createTransaction(string,string,string,uint256)":"95a58774","getAllBusinessIds()":"55ad5530","getAllProductIds()":"663c01af","getBusiness(string)":"6757876c","getPlatformStats()":"136d8883","getProduct(string)":"68111cce","getTransaction(string)":"ac2ccd07","markProductExpired(string)":"72c26bea","owner()":"8da5cb5b","productIds(uint256)":"cb51bba9","products(string)":"0186a423","registerBusiness(string,string,string)":"2902a960","registerProduct(string,string,string,string,uint256,uint256,uint256,string)":"7cb484a2","totalBusinesses()":"60d20431","totalProducts()":"9b9d326d","totalTransactions()":"b9a60038","transactionIds(uint256)":"e36f8dc5","transactions(string)":"022236f4","updateProductPrice(string,uint256,uint8)":"5aec0efc","userToBusinessId(address)":"a7455e89","verifyBusiness(string)":"68c8add8"}}}}}