{"contracts/Minimal.sol":{"Minimal":{"abi":[{"inputs":[{"internalType":"uint256","name":"v","type":"uint256"}],"name":"set","outputs":[],"stateMutability":"nonpayable","type":"function"},{"inputs":[],"name":"value","outputs":[{"internalType":"uint256","name":"","type":"uint256"}],"stateMutability":"view","type":"function"}],"evm":{"bytecode":{"linkReferences":{},"object":"60808060405234601957600160005560a0908161001f8239f35b600080fdfe6080806040526004361015601257600080fd5b600090813560e01c9081633fa4f24514604e57506360fe47b114603457600080fd5b34604b576020366003190112604b57600435815580f35b80fd5b90503460665781600319360112606657602091548152f35b5080fdfea2646970667358221220331bd3ebecceef8782fa3de9bd1b80248289289a64ef3e3ad44018c6bddcf4a764736f6c63430008140033","opcodes":"PUSH1 0x80 DUP1 PUSH1 0x40 MSTORE CALLVALUE PUSH1 0x19 JUMPI PUSH1 0x1 PUSH1 0x0 SSTORE PUSH1 0xA0 SWAP1 DUP2 PUSH2 0x1F DUP3 CODECOPY RETURN JUMPDEST PUSH1 0x0 DUP1 REVERT INVALID PUSH1 0x80 DUP1 PUSH1 0x40 MSTORE PUSH1 0x4 CALLDATASIZE LT ISZERO PUSH1 0x12 JUMPI PUSH1 0x0 DUP1 REVERT JUMPDEST PUSH1 0x0 SWAP1 DUP2 CALLDATALOAD PUSH1 0xE0 SHR SWAP1 DUP2 PUSH4 0x3FA4F245 EQ PUSH1 0x4E JUMPI POP PUSH4 0x60FE47B1 EQ PUSH1 0x34 JUMPI PUSH1 0x0 DUP1 REVERT JUMPDEST CALLVALUE PUSH1 0x4B JUMPI PUSH1 0x20 CALLDATASIZE PUSH1 0x3 NOT ADD SLT PUSH1 0x4B JUMPI PUSH1 0x4 CALLDATALOAD DUP2 SSTORE DUP1 RETURN JUMPDEST DUP1 REVERT JUMPDEST SWAP1 POP CALLVALUE PUSH1 0x66 JUMPI DUP2 PUSH1 0x3 NOT CALLDATASIZE ADD SLT PUSH1 0x66 JUMPI PUSH1 0x20 SWAP2 SLOAD DUP2 MSTORE RETURN JUMPDEST POP DUP1 REVERT INVALID LOG2 PUSH5 0x6970667358 0x22 SLT KECCAK256 CALLER SHL 0xD3 0xEB 0xEC 0xCE 0xEF DUP8 DUP3 STATICCALL RETURNDATASIZE 0xE9 0xBD SHL DUP1 0x24 DUP3 DUP10 0x28 SWAP11 PUSH5 0xEF3E3AD440 XOR 0xC6 0xBD 0xDC DELEGATECALL 0xA7 PUSH5 0x736F6C6343 STOP ADDMOD EQ STOP CALLER "},"methodIdentifiers":{"set(uint256)":"60fe47b1","value()":"3fa4f245"}}}}}