{
  "_format": "hh-sol-artifact-1",
  "contractName": "StockyCarbonCredits",
  "sourceName": "contracts/StockyCarbonCredits.sol",
  "abi": [
    {
      "inputs": [],
      "stateMutability": "nonpayable",
      "type": "constructor"
    },
    {
      "inputs": [
        {
          "internalType": "address",
          "name": "sender",
          "type": "address"
        },
        {
          "internalType": "uint256",
          "name": "tokenId",
          "type": "uint256"
        },
        {
          "internalType": "address",
          "name": "owner",
          "type": "address"
        }
      ],
      "name": "ERC721IncorrectOwner",
      "type": "error"
    },
    {
      "inputs": [
        {
          "internalType": "address",
          "name": "operator",
          "type": "address"
        },
        {
          "internalType": "uint256",
          "name": "tokenId",
          "type": "uint256"
        }
      ],
      "name": "ERC721InsufficientApproval",
      "type": "error"
    },
    {
      "inputs": [
        {
          "internalType": "address",
          "name": "approver",
          "type": "address"
        }
      ],
      "name": "ERC721InvalidApprover",
      "type": "error"
    },
    {
      "inputs": [
        {
          "internalType": "address",
          "name": "operator",
          "type": "address"
        }
      ],
      "name": "ERC721InvalidOperator",
      "type": "error"
    },
    {
      "inputs": [
        {
          "internalType": "address",
          "name": "owner",
          "type": "address"
        }
      ],
      "name": "ERC721InvalidOwner",
      "type": "error"
    },
    {
      "inputs": [
        {
          "internalType": "address",
          "name": "receiver",
          "type": "address"
        }
      ],
      "name": "ERC721InvalidReceiver",
      "type": "error"
    },
    {
      "inputs": [
        {
          "internalType": "address",
          "name": "sender",
          "type": "address"
        }
      ],
      "name": "ERC721InvalidSender",
      "type": "error"
    },
    {
      "inputs": [
        {
          "internalType": "uint256",
          "name": "tokenId",
          "type": "uint256"
        }
      ],
      "name": "ERC721NonexistentToken",
      "type": "error"
    },
    {
      "inputs": [
        {
          "internalType": "address",
          "name": "owner",
          "type": "address"
        }
      ],
      "name": "OwnableInvalidOwner",
      "type": "error"
    },
    {
      "inputs": [
        {
          "internalType": "address",
          "name": "account",
          "type": "address"
        }
      ],
      "name": "OwnableUnauthorizedAccount",
      "type": "error"
    },
    {
      "anonymous": false,
      "inputs": [
        {
          "indexed": true,
          "internalType": "address",
          "name": "owner",
          "type": "address"
        },
        {
          "indexed": true,
          "internalType": "address",
          "name": "approved",
          "type": "address"
        },
        {
          "indexed": true,
          "internalType": "uint256",
          "name": "tokenId",
          "type": "uint256"
        }
      ],
      "name": "Approval",
      "type": "event"
    },
    {
      "anonymous": false,
      "inputs": [
        {
          "indexed": true,
          "internalType": "address",
          "name": "owner",
          "type": "address"
        },
        {
          "indexed": true,
          "internalType": "address",
          "name": "operator",
          "type": "address"
        },
        {
          "indexed": false,
          "internalType": "bool",
          "name": "approved",
          "type": "bool"
        }
      ],
      "name": "ApprovalForAll",
      "type": "event"
    },
    {
      "anonymous": false,
      "inputs": [
        {
          "indexed": true,
          "internalType": "uint256",
          "name": "tokenId",
          "type": "uint256"
        },
        {
          "indexed": true,
          "internalType": "address",
          "name": "to",
          "type": "address"
        },
        {
          "indexed": false,
          "internalType": "uint256",
          "name": "amount",
          "type": "uint256"
        },
        {
          "indexed": false,
          "internalType": "string",
          "name": "projectId",
          "type": "string"
        },
        {
          "indexed": false,
          "internalType": "string",
          "name": "metadataURI",
          "type": "string"
        }
      ],
      "name": "CreditMinted",
      "type": "event"
    },
    {
      "anonymous": false,
      "inputs": [
        {
          "indexed": true,
          "internalType": "uint256",
          "name": "tokenId",
          "type": "uint256"
        },
        {
          "indexed": true,
          "internalType": "address",
          "name": "owner",
          "type": "address"
        },
        {
          "indexed": false,
          "internalType": "uint256",
          "name": "timestamp",
          "type": "uint256"
        }
      ],
      "name": "CreditRetired",
      "type": "event"
    },
    {
      "anonymous": false,
      "inputs": [
        {
          "indexed": true,
          "internalType": "address",
          "name": "previousOwner",
          "type": "address"
        },
        {
          "indexed": true,
          "internalType": "address",
          "name": "newOwner",
          "type": "address"
        }
      ],
      "name": "OwnershipTransferred",
      "type": "event"
    },
    {
      "anonymous": false,
      "inputs": [
        {
          "indexed": true,
          "internalType": "address",
          "name": "from",
          "type": "address"
        },
        {
          "indexed": true,
          "internalType": "address",
          "name": "to",
          "type": "address"
        },
        {
          "indexed": true,
          "internalType": "uint256",
          "name": "tokenId",
          "type": "uint256"
        }
      ],
      "name": "Transfer",
      "type": "event"
    },
    {
      "inputs": [],
      "name": "allTokenIds",
      "outputs": [
        {
          "internalType": "uint256[]",
          "name": "",
          "type": "uint256[]"
        }
      ],
      "stateMutability": "view",
      "type": "function"
    },
    {
      "inputs": [
        {
          "internalType": "address",
          "name": "to",
          "type": "address"
        },
        {
          "internalType": "uint256",
          "name": "tokenId",
          "type": "uint256"
        }
      ],
      "name": "approve",
      "outputs": [],
      "stateMutability": "nonpayable",
      "type": "function"
    },
    {
      "inputs": [
        {
          "internalType": "address",
          "name": "owner",
          "type": "address"
        }
      ],
      "name": "balanceOf",
      "outputs": [
        {
          "internalType": "uint256",
          "name": "",
          "type": "uint256"
        }
      ],
      "stateMutability": "view",
      "type": "function"
    },
    {
      "inputs": [
        {
          "internalType": "uint256",
          "name": "tokenId",
          "type": "uint256"
        }
      ],
      "name": "getApproved",
      "outputs": [
        {
          "internalType": "address",
          "name": "",
          "type": "address"
        }
      ],
      "stateMutability": "view",
      "type": "function"
    },
    {
      "inputs": [
        {
          "internalType": "uint256",
          "name": "tokenId",
          "type": "uint256"
        }
      ],
      "name": "getCredit",
      "outputs": [
        {
          "internalType": "uint256",
          "name": "amount",
          "type": "uint256"
        },
        {
          "internalType": "string",
          "name": "projectId",
          "type": "string"
        },
        {
          "internalType": "uint256",
          "name": "issuedAt",
          "type": "uint256"
        },
        {
          "internalType": "bool",
          "name": "retired",
          "type": "bool"
        },
        {
          "internalType": "uint256",
          "name": "retiredAt",
          "type": "uint256"
        },
        {
          "internalType": "string",
          "name": "metadataURI",
          "type": "string"
        }
      ],
      "stateMutability": "view",
      "type": "function"
    },
    {
      "inputs": [
        {
          "internalType": "address",
          "name": "owner",
          "type": "address"
        },
        {
          "internalType": "address",
          "name": "operator",
          "type": "address"
        }
      ],
      "name": "isApprovedForAll",
      "outputs": [
        {
          "internalType": "bool",
          "name": "",
          "type": "bool"
        }
      ],
      "stateMutability": "view",
      "type": "function"
    },
    {
      "inputs": [
        {
          "internalType": "address",
          "name": "to",
          "type": "address"
        },
        {
          "internalType": "uint256",
          "name": "amount",
          "type": "uint256"
        },
        {
          "internalType": "string",
          "name": "projectId",
          "type": "string"
        },
        {
          "internalType": "string",
          "name": "metadataURI",
          "type": "string"
        }
      ],
      "name": "mintCredit",
      "outputs": [
        {
          "internalType": "uint256",
          "name": "tokenId",
          "type": "uint256"
        }
      ],
      "stateMutability": "nonpayable",
      "type": "function"
    },
    {
      "inputs": [],
      "name": "name",
      "outputs": [
        {
          "internalType": "string",
          "name": "",
          "type": "string"
        }
      ],
      "stateMutability": "view",
      "type": "function"
    },
    {
      "inputs": [],
      "name": "owner",
      "outputs": [
        {
          "internalType": "address",
          "name": "",
          "type": "address"
        }
      ],
      "stateMutability": "view",
      "type": "function"
    },
    {
      "inputs": [
        {
          "internalType": "uint256",
          "name": "tokenId",
          "type": "uint256"
        }
      ],
      "name": "ownerOf",
      "outputs": [
        {
          "internalType": "address",
          "name": "",
          "type": "address"
        }
      ],
      "stateMutability": "view",
      "type": "function"
    },
    {
      "inputs": [],
      "name": "renounceOwnership",
      "outputs": [],
      "stateMutability": "nonpayable",
      "type": "function"
    },
    {
      "inputs": [
        {
          "internalType": "uint256",
          "name": "tokenId",
          "type": "uint256"
        }
      ],
      "name": "retire",
      "outputs": [],
      "stateMutability": "nonpayable",
      "type": "function"
    },
    {
      "inputs": [
        {
          "internalType": "address",
          "name": "from",
          "type": "address"
        },
        {
          "internalType": "address",
          "name": "to",
          "type": "address"
        },
        {
          "internalType": "uint256",
          "name": "tokenId",
          "type": "uint256"
        }
      ],
      "name": "safeTransferFrom",
      "outputs": [],
      "stateMutability": "nonpayable",
      "type": "function"
    },
    {
      "inputs": [
        {
          "internalType": "address",
          "name": "from",
          "type": "address"
        },
        {
          "internalType": "address",
          "name": "to",
          "type": "address"
        },
        {
          "internalType": "uint256",
          "name": "tokenId",
          "type": "uint256"
        },
        {
          "internalType": "bytes",
          "name": "data",
          "type": "bytes"
        }
      ],
      "name": "safeTransferFrom",
      "outputs": [],
      "stateMutability": "nonpayable",
      "type": "function"
    },
    {
      "inputs": [
        {
          "internalType": "address",
          "name": "operator",
          "type": "address"
        },
        {
          "internalType": "bool",
          "name": "approved",
          "type": "bool"
        }
      ],
      "name": "setApprovalForAll",
      "outputs": [],
      "stateMutability": "nonpayable",
      "type": "function"
    },
    {
      "inputs": [
        {
          "internalType": "bytes4",
          "name": "interfaceId",
          "type": "bytes4"
        }
      ],
      "name": "supportsInterface",
      "outputs": [
        {
          "internalType": "bool",
          "name": "",
          "type": "bool"
        }
      ],
      "stateMutability": "view",
      "type": "function"
    },
    {
      "inputs": [],
      "name": "symbol",
      "outputs": [
        {
          "internalType": "string",
          "name": "",
          "type": "string"
        }
      ],
      "stateMutability": "view",
      "type": "function"
    },
    {
      "inputs": [
        {
          "internalType": "uint256",
          "name": "tokenId",
          "type": "uint256"
        }
      ],
      "name": "tokenURI",
      "outputs": [
        {
          "internalType": "string",
          "name": "",
          "type": "string"
        }
      ],
      "stateMutability": "view",
      "type": "function"
    },
    {
      "inputs": [],
      "name": "totalMinted",
      "outputs": [
        {
          "internalType": "uint256",
          "name": "",
          "type": "uint256"
        }
      ],
      "stateMutability": "view",
      "type": "function"
    },
    {
      "inputs": [
        {
          "internalType": "address",
          "name": "from",
          "type": "address"
        },
        {
          "internalType": "address",
          "name": "to",
          "type": "address"
        },
        {
          "internalType": "uint256",
          "name": "tokenId",
          "type": "uint256"
        }
      ],
      "name": "transferFrom",
      "outputs": [],
      "stateMutability": "nonpayable",
      "type": "function"
    },
    {
      "inputs": [
        {
          "internalType": "address",
          "name": "newOwner",
          "type": "address"
        }
      ],
      "name": "transferOwnership",
      "outputs": [],
      "stateMutability": "nonpayable",
      "type": "function"
    }
  ],
  "bytecode": "0x60803462000389576001600160401b039060408181018381118382101762000373578152601482526020917f53746f636b7920436172626f6e20437265646974000000000000000000000000838201528151938285018581108282111762000373578352600385526253434360e81b84860152815181811162000373576000948554916001948584811c9416801562000368575b8385101462000354578190601f9485811162000301575b5083908583116001146200029d57899262000291575b5050600019600383901b1c191690851b1786555b86519283116200027d5783548481811c9116801562000272575b828210146200025e5782811162000216575b5080918311600114620001af575084958293949592620001a3575b5050600019600383901b1c191690821b1790555b33156200018b5760068054336001600160a01b03198216811790925591519290916001600160a01b0316907f8be0079c531659141344cd1fd0a4f28419497f9722a3daafe3b4186f6b6457e09080a36118b890816200038f8239f35b51631e4fbdf760e01b81526004810191909152602490fd5b0151905038806200011b565b90601f198316968487528287209287905b898210620001fe575050838596979810620001e4575b505050811b0190556200012f565b015160001960f88460031b161c19169055388080620001d6565b808785968294968601518155019501930190620001c0565b8487528187208380860160051c82019284871062000254575b0160051c019085905b8281106200024857505062000100565b88815501859062000238565b925081926200022f565b634e487b7160e01b87526022600452602487fd5b90607f1690620000ee565b634e487b7160e01b86526041600452602486fd5b015190503880620000c0565b898052848a208894509190601f1984168b5b87828210620002ea5750508411620002d0575b505050811b018655620000d4565b015160001960f88460031b161c19169055388080620002c2565b8385015186558b97909501949384019301620002af565b9091508880528389208580850160051c8201928686106200034a575b918991869594930160051c01915b8281106200033b575050620000aa565b8b81558594508991016200032b565b925081926200031d565b634e487b7160e01b88526022600452602488fd5b93607f169362000093565b634e487b7160e01b600052604160045260246000fd5b600080fdfe608080604052600436101561001357600080fd5b60003560e01c90816301ffc9a7146112645750806306fdde03146111c1578063081812fc14611183578063095ea7b31461109c57806323b872dd146110855780633790cf5714610e9b57806342842e0e14610e6d5780636352211e14610e3d57806370a0823114610de4578063715018a614610d875780638da5cb5b14610d5e57806395d89b4114610c7f578063a22cb46514610bd1578063a2309ff814610bb3578063b88d4fde14610b46578063c87b56dd14610af3578063da304e4d146109d6578063e7619fad14610920578063e985e9c5146108ca578063f2fde38b1461083c5763fe5d816f1461010657600080fd5b346107475760803660031901126107475761011f61130f565b60443567ffffffffffffffff81116107475761013f90369060040161141d565b9160643567ffffffffffffffff81116107475761016090369060040161141d565b9161016961144b565b6001600160a01b0381161561080357602435156107c957600954936001850185116107b357600185016009556040516101a18161138c565b6000808252600187018152600260205260409020546001600160a01b0316801515908161076d575b6001600160a01b0385166000818152600360209081526040808320805460019081019091558c018084526002909252822080546001600160a01b0319168417905592907fddf252ad1be2c89b69c2b068fc378daa952ba7f163c4a11628f55a4df523b3ef9080a461075457823b61060b575b5060405161024881611370565b600186018152602081019060243582526102633689856113e6565b6040820190815242606083015260006080830152600060a08301526102893688886113e6565b60c0830152600188016000526007602052604060002092825184555160018401555180519067ffffffffffffffff8211610470576102ca6002850154611477565b601f81116105c4575b50602090601f83116001146105515760c093929160009183610546575b50508160011b916000199060031b1c19161760028401555b6060810151600384015561033160808201511515600485019060ff801983541691151516179055565b60a08101516005840155015180519067ffffffffffffffff82116104705761035c6006840154611477565b601f81116104ff575b50602090601f8311600114610491576006929160009183610486575b50508160011b916000199060031b1c1916179101555b600854956801000000000000000087101561047057600187018060085587101561045a5761044c7f992f04ff6879e938d29b99899747750ac446ae3933f078654e8e26d884fe5a0a93602098600860005260018901907ff3f7a9fe364faab93b216da50a3214154f22a0a2b415b23a84c8169e8b636ee3015561042e604051948594602435865260608c8701526060860191611861565b83810360408501526001600160a01b03909116966001890196611861565b0390a3600160405191018152f35b634e487b7160e01b600052603260045260246000fd5b634e487b7160e01b600052604160045260246000fd5b015190503880610381565b90601f198316916006850160005260206000209260005b8181106104e7575091600193918560069694106104ce575b505050811b01910155610397565b015160001960f88460031b161c191690553880806104c0565b929360206001819287860151815501950193016104a8565b600684016000526020600020601f840160051c81016020851061053f575b601f830160051c82018110610533575050610365565b6000815560010161051d565b508061051d565b0151905038806102f0565b906002850160005260206000209160005b601f19851681106105ac575091839160019360c09695601f19811610610593575b505050811b016002840155610308565b015160001960f88460031b161c19169055388080610583565b91926020600181928685015181550194019201610562565b600285016000526020600020601f840160051c810160208510610604575b601f830160051c820181106105f85750506102d3565b600081556001016105e2565b50806105e2565b6040969594939296516020818061064e630a85bd0160e11b958683523360048401526000602484015260018b0160448401526080606484015260848301906112cf565b038160006001600160a01b038d165af16000918161070a575b506106cf57873d156106c7573d9061067e826113ca565b9161068c60405193846113a8565b82523d6000602084013e5b815191826106c057604051633250574960e11b81526001600160a01b0383166004820152602490fd5b9050602001fd5b606090610697565b63ffffffff60e09894959697981b16036106e9573861023b565b604051633250574960e11b81526001600160a01b0383166004820152602490fd5b9091506020813d60201161074c575b81610726602093836113a8565b8101031261074757516001600160e01b031981168103610747579038610667565b600080fd5b3d9150610719565b6040516339e3563760e11b815260006004820152602490fd5b61079860018901600052600460205260406000206bffffffffffffffffffffffff60a01b8154169055565b806000526003602052604060002060001981540190556101c9565b634e487b7160e01b600052601160045260246000fd5b60405162461bcd60e51b81526020600482015260126024820152710416d6f756e74206d757374206265203e20360741b6044820152606490fd5b60405162461bcd60e51b8152602060048201526011602482015270125b9d985b1a59081c9958da5c1a595b9d607a1b6044820152606490fd5b346107475760203660031901126107475761085561130f565b61085d61144b565b6001600160a01b039081169081156108b157600654826bffffffffffffffffffffffff60a01b821617600655167f8be0079c531659141344cd1fd0a4f28419497f9722a3daafe3b4186f6b6457e0600080a3005b604051631e4fbdf760e01b815260006004820152602490fd5b34610747576040366003190112610747576108e361130f565b6108eb611325565b9060018060a01b03809116600052600560205260406000209116600052602052602060ff604060002054166040519015158152f35b3461074757600036600319011261074757604051806008548083526020809301809160086000527ff3f7a9fe364faab93b216da50a3214154f22a0a2b415b23a84c8169e8b636ee39060005b868282106109c2578686610982828803836113a8565b604051928392818401908285525180915260408401929160005b8281106109ab57505050500390f35b83518552869550938101939281019260010161099c565b83548552909301926001928301920161096c565b346107475760203660031901126107475760043560005260076020526040600020604051610a0381611370565b81548152600182015460208201908152610a1f600284016114b1565b91604081019283526003840154936060820194855260ff60048201541691608081019215158352610a5e600660058401549360a08401948552016114b1565b9060c081019182525115610abb57610ab7935194519551925115159151905191610a9a604051978897885260c0602089015260c08801906112cf565b9360408701526060860152608085015283820360a08501526112cf565b0390f35b60405162461bcd60e51b815260206004820152601060248201526f10dc99591a5d081b9bdd08199bdd5b9960821b6044820152606490fd5b3461074757602036600319011261074757610b0f6004356116f6565b506000604051610b1e8161138c565b52610ab7604051610b2e8161138c565b600081526040519182916020835260208301906112cf565b3461074757608036600319011261074757610b5f61130f565b610b67611325565b906044356064359267ffffffffffffffff8411610747573660238501121561074757610ba0610bb19436906024816004013591016113e6565b92610bac838383611557565b611719565b005b34610747576000366003190112610747576020600854604051908152f35b3461074757604036600319011261074757610bea61130f565b6024359081151590818303610747576001600160a01b0316918215610c6657610c389033600052600560205260406000208460005260205260406000209060ff801983541691151516179055565b6040519081527f17307eab39ab6107e8899845ad3d59bd9653f200f220920489ca2b5937696c3160203392a3005b604051630b61174360e31b815260048101849052602490fd5b346107475760003660031901126107475760405160006001805490610ca382611477565b80855291818116908115610d375750600114610cde575b610ab784610cca818603826113a8565b6040519182916020835260208301906112cf565b600081815292507fb10e2d527612073b26eecdfd717e6a320cf44b4afac2b0732d9fcbe2b7fa0cf65b828410610d1f575050508101602001610cca82610cba565b80546020858701810191909152909301928101610d07565b60ff191660208087019190915292151560051b85019092019250610cca9150839050610cba565b34610747576000366003190112610747576006546040516001600160a01b039091168152602090f35b3461074757600036600319011261074757610da061144b565b600680546001600160a01b031981169091556000906001600160a01b03167f8be0079c531659141344cd1fd0a4f28419497f9722a3daafe3b4186f6b6457e08280a3005b34610747576020366003190112610747576001600160a01b03610e0561130f565b168015610e245760005260036020526020604060002054604051908152f35b6040516322718ad960e21b815260006004820152602490fd5b34610747576020366003190112610747576020610e5b6004356116f6565b6040516001600160a01b039091168152f35b3461074757610bb1610e7e3661133b565b9060405192610e8c8461138c565b60008452610bac838383611557565b34610747576020806003193601126107475760043580600052600782526040600020541561104c57610ecc816116f6565b6001600160a01b03903390821603611015578160005260078352604060002060048101805460ff8116610fde5760019060ff19161790556005429101558160005260028352604060002054168160008215928315610fab575b828252600286526040822080546001600160a01b03191690557fddf252ad1be2c89b69c2b068fc378daa952ba7f163c4a11628f55a4df523b3ef8280a4610f93577f480a76602f881eef8c7fd7402787f2e9065d323d5a6a120586b17a7b44c716ff604051924284523393a3005b60249060405190637e27328960e01b82526004820152fd5b600083815260046020526040902080546001600160a01b0319169055808252600386526040822082198154019055610f25565b60405162461bcd60e51b815260048101879052600f60248201526e105b1c9958591e481c995d1a5c9959608a1b6044820152606490fd5b60405162461bcd60e51b815260048101849052600f60248201526e2737ba103a37b5b2b71037bbb732b960891b6044820152606490fd5b60405162461bcd60e51b81526004810183905260116024820152702737b732bc34b9ba32b73a103a37b5b2b760791b6044820152606490fd5b3461074757610bb16110963661133b565b91611557565b34610747576040366003190112610747576110b561130f565b6024356110c1816116f6565b33151580611170575b80611143575b61112b576001600160a01b039283169282918491167f8c5be1e5ebec7d5bd14f71427d1e84f3dd0314c0f7b2291e5b200ac8c7c3b925600080a4600090815260046020526040902080546001600160a01b0319169091179055005b60405163a9fbf51f60e01b8152336004820152602490fd5b5060018060a01b038116600052600560205260406000203360005260205260ff60406000205416156110d0565b506001600160a01b0381163314156110ca565b34610747576020366003190112610747576004356111a0816116f6565b506000526004602052602060018060a01b0360406000205416604051908152f35b3461074757600036600319011261074757604051600080546111e281611477565b80845290600190818116908115610d37575060011461120b57610ab784610cca818603826113a8565b600080805292507f290decd9548b62a8d60345a988386fc84ba6bc95484008f6362f93160ef3e5635b82841061124c575050508101602001610cca82610cba565b80546020858701810191909152909301928101611234565b34610747576020366003190112610747576004359063ffffffff60e01b8216809203610747576020916380ac58cd60e01b81149081156112be575b81156112ad575b5015158152f35b6301ffc9a760e01b149050836112a6565b635b5e139f60e01b8114915061129f565b919082519283825260005b8481106112fb575050826000602080949584010152601f8019910116010190565b6020818301810151848301820152016112da565b600435906001600160a01b038216820361074757565b602435906001600160a01b038216820361074757565b6060906003190112610747576001600160a01b0390600435828116810361074757916024359081168103610747579060443590565b60e0810190811067ffffffffffffffff82111761047057604052565b6020810190811067ffffffffffffffff82111761047057604052565b90601f8019910116810190811067ffffffffffffffff82111761047057604052565b67ffffffffffffffff811161047057601f01601f191660200190565b9291926113f2826113ca565b9161140060405193846113a8565b829481845281830111610747578281602093846000960137010152565b9181601f840112156107475782359167ffffffffffffffff8311610747576020838186019501011161074757565b6006546001600160a01b0316330361145f57565b60405163118cdaa760e01b8152336004820152602490fd5b90600182811c921680156114a7575b602083101461149157565b634e487b7160e01b600052602260045260246000fd5b91607f1691611486565b90604051918260008254926114c584611477565b90818452600194858116908160001461153457506001146114f1575b50506114ef925003836113a8565b565b9093915060005260209081600020936000915b81831061151c5750506114ef935082010138806114e1565b85548884018501529485019487945091830191611504565b9150506114ef94506020925060ff191682840152151560051b82010138806114e1565b6001600160a01b0391821692909183156116dd57600092828452826020956002875260409684888820541696879133151580611647575b509060027fddf252ad1be2c89b69c2b068fc378daa952ba7f163c4a11628f55a4df523b3ef9284611614575b858352600381528b8320805460010190558683525289812080546001600160a01b0319168517905580a416928383036115f35750505050565b6064945051926364283d7b60e01b8452600484015260248301526044820152fd5b600087815260046020526040902080546001600160a01b0319169055848352600381528b832080546000190190556115ba565b9193945091508061169c575b156116635785929187913861158e565b878688611680576024915190637e27328960e01b82526004820152fd5b604491519063177e802f60e01b82523360048301526024820152fd5b5033871480156116c1575b806116535750858252600481523385898420541614611653565b5086825260058152878220338352815260ff88832054166116a7565b604051633250574960e11b815260006004820152602490fd5b6000818152600260205260409020546001600160a01b0316908115610f93575090565b813b611726575b50505050565b604051630a85bd0160e11b8082523360048301526001600160a01b039283166024830152604482019490945260806064820152602095929091169390929083906117749060848301906112cf565b039285816000958187895af184918161181d575b506117e8575050503d6000146117e0573d6117a2816113ca565b906117b060405192836113a8565b81528091843d92013e5b805192836117db57604051633250574960e11b815260048101849052602490fd5b019050fd5b5060606117ba565b919450915063ffffffff60e01b1603611805575038808080611720565b60249060405190633250574960e11b82526004820152fd5b9091508681813d831161185a575b61183581836113a8565b8101031261185657516001600160e01b031981168103611856579038611788565b8480fd5b503d61182b565b908060209392818452848401376000828201840152601f01601f191601019056fea2646970667358221220866a9c31041225352593a2b55fa6ed06591c6f4b4883c8c9d8b99ba6fca66b0264736f6c63430008140033",
  "linkReferences": {},
  "deployedLinkReferences": {}
}