{
  "_format": "hh-sol-artifact-1",
  "contractName": "StockyPayments",
  "sourceName": "contracts/StockyPayments.sol",
  "abi": [
    {
      "inputs": [],
      "stateMutability": "nonpayable",
      "type": "constructor"
    },
    {
      "anonymous": false,
      "inputs": [
        {
          "indexed": true,
          "internalType": "string",
          "name": "paymentId",
          "type": "string"
        },
        {
          "indexed": false,
          "internalType": "string",
          "name": "sellerId",
          "type": "string"
        },
        {
          "indexed": false,
          "internalType": "uint256",
          "name": "amount",
          "type": "uint256"
        }
      ],
      "name": "EscrowReleased",
      "type": "event"
    },
    {
      "anonymous": false,
      "inputs": [
        {
          "indexed": true,
          "internalType": "string",
          "name": "paymentId",
          "type": "string"
        },
        {
          "indexed": false,
          "internalType": "uint256",
          "name": "amount",
          "type": "uint256"
        }
      ],
      "name": "PaymentCompleted",
      "type": "event"
    },
    {
      "anonymous": false,
      "inputs": [
        {
          "indexed": true,
          "internalType": "string",
          "name": "paymentId",
          "type": "string"
        },
        {
          "indexed": false,
          "internalType": "string",
          "name": "orderId",
          "type": "string"
        },
        {
          "indexed": false,
          "internalType": "uint256",
          "name": "amount",
          "type": "uint256"
        }
      ],
      "name": "PaymentCreated",
      "type": "event"
    },
    {
      "anonymous": false,
      "inputs": [
        {
          "indexed": true,
          "internalType": "string",
          "name": "paymentId",
          "type": "string"
        }
      ],
      "name": "PaymentDisputed",
      "type": "event"
    },
    {
      "anonymous": false,
      "inputs": [
        {
          "indexed": true,
          "internalType": "string",
          "name": "paymentId",
          "type": "string"
        },
        {
          "indexed": false,
          "internalType": "uint256",
          "name": "releaseTime",
          "type": "uint256"
        }
      ],
      "name": "PaymentEscrowed",
      "type": "event"
    },
    {
      "anonymous": false,
      "inputs": [
        {
          "indexed": true,
          "internalType": "string",
          "name": "paymentId",
          "type": "string"
        },
        {
          "indexed": false,
          "internalType": "uint256",
          "name": "amount",
          "type": "uint256"
        }
      ],
      "name": "PaymentRefunded",
      "type": "event"
    },
    {
      "inputs": [
        {
          "internalType": "address",
          "name": "user",
          "type": "address"
        }
      ],
      "name": "addAuthorizedUser",
      "outputs": [],
      "stateMutability": "nonpayable",
      "type": "function"
    },
    {
      "inputs": [
        {
          "internalType": "address",
          "name": "",
          "type": "address"
        }
      ],
      "name": "authorizedUsers",
      "outputs": [
        {
          "internalType": "bool",
          "name": "",
          "type": "bool"
        }
      ],
      "stateMutability": "view",
      "type": "function"
    },
    {
      "inputs": [
        {
          "internalType": "string",
          "name": "paymentId",
          "type": "string"
        }
      ],
      "name": "autoReleaseEscrow",
      "outputs": [],
      "stateMutability": "nonpayable",
      "type": "function"
    },
    {
      "inputs": [
        {
          "internalType": "string",
          "name": "paymentId",
          "type": "string"
        }
      ],
      "name": "completePayment",
      "outputs": [],
      "stateMutability": "nonpayable",
      "type": "function"
    },
    {
      "inputs": [
        {
          "internalType": "string",
          "name": "paymentId",
          "type": "string"
        },
        {
          "internalType": "string",
          "name": "orderId",
          "type": "string"
        },
        {
          "internalType": "string",
          "name": "buyerId",
          "type": "string"
        },
        {
          "internalType": "string",
          "name": "sellerId",
          "type": "string"
        },
        {
          "internalType": "uint256",
          "name": "amount",
          "type": "uint256"
        }
      ],
      "name": "createPayment",
      "outputs": [],
      "stateMutability": "payable",
      "type": "function"
    },
    {
      "inputs": [
        {
          "internalType": "string",
          "name": "paymentId",
          "type": "string"
        }
      ],
      "name": "disputePayment",
      "outputs": [],
      "stateMutability": "nonpayable",
      "type": "function"
    },
    {
      "inputs": [],
      "name": "emergencyWithdraw",
      "outputs": [],
      "stateMutability": "nonpayable",
      "type": "function"
    },
    {
      "inputs": [
        {
          "internalType": "string",
          "name": "",
          "type": "string"
        }
      ],
      "name": "escrowBalances",
      "outputs": [
        {
          "internalType": "uint256",
          "name": "",
          "type": "uint256"
        }
      ],
      "stateMutability": "view",
      "type": "function"
    },
    {
      "inputs": [
        {
          "internalType": "string",
          "name": "paymentId",
          "type": "string"
        }
      ],
      "name": "escrowPayment",
      "outputs": [],
      "stateMutability": "nonpayable",
      "type": "function"
    },
    {
      "inputs": [],
      "name": "escrowPeriod",
      "outputs": [
        {
          "internalType": "uint256",
          "name": "",
          "type": "uint256"
        }
      ],
      "stateMutability": "view",
      "type": "function"
    },
    {
      "inputs": [],
      "name": "getAllPaymentIds",
      "outputs": [
        {
          "internalType": "string[]",
          "name": "",
          "type": "string[]"
        }
      ],
      "stateMutability": "view",
      "type": "function"
    },
    {
      "inputs": [
        {
          "internalType": "string",
          "name": "sellerId",
          "type": "string"
        }
      ],
      "name": "getEscrowBalance",
      "outputs": [
        {
          "internalType": "uint256",
          "name": "",
          "type": "uint256"
        }
      ],
      "stateMutability": "view",
      "type": "function"
    },
    {
      "inputs": [
        {
          "internalType": "string",
          "name": "paymentId",
          "type": "string"
        }
      ],
      "name": "getPayment",
      "outputs": [
        {
          "internalType": "string",
          "name": "orderId",
          "type": "string"
        },
        {
          "internalType": "string",
          "name": "buyerId",
          "type": "string"
        },
        {
          "internalType": "string",
          "name": "sellerId",
          "type": "string"
        },
        {
          "internalType": "uint256",
          "name": "amount",
          "type": "uint256"
        },
        {
          "internalType": "uint256",
          "name": "timestamp",
          "type": "uint256"
        },
        {
          "internalType": "enum StockyPayments.PaymentStatus",
          "name": "status",
          "type": "uint8"
        },
        {
          "internalType": "uint256",
          "name": "escrowReleaseTime",
          "type": "uint256"
        }
      ],
      "stateMutability": "view",
      "type": "function"
    },
    {
      "inputs": [],
      "name": "getPlatformStats",
      "outputs": [
        {
          "internalType": "uint256",
          "name": "totalPaymentsCount",
          "type": "uint256"
        },
        {
          "internalType": "uint256",
          "name": "platformFeePercentage",
          "type": "uint256"
        },
        {
          "internalType": "uint256",
          "name": "escrowPeriodSeconds",
          "type": "uint256"
        }
      ],
      "stateMutability": "view",
      "type": "function"
    },
    {
      "inputs": [],
      "name": "owner",
      "outputs": [
        {
          "internalType": "address",
          "name": "",
          "type": "address"
        }
      ],
      "stateMutability": "view",
      "type": "function"
    },
    {
      "inputs": [
        {
          "internalType": "uint256",
          "name": "",
          "type": "uint256"
        }
      ],
      "name": "paymentIds",
      "outputs": [
        {
          "internalType": "string",
          "name": "",
          "type": "string"
        }
      ],
      "stateMutability": "view",
      "type": "function"
    },
    {
      "inputs": [
        {
          "internalType": "string",
          "name": "",
          "type": "string"
        }
      ],
      "name": "payments",
      "outputs": [
        {
          "internalType": "string",
          "name": "paymentId",
          "type": "string"
        },
        {
          "internalType": "string",
          "name": "orderId",
          "type": "string"
        },
        {
          "internalType": "string",
          "name": "buyerId",
          "type": "string"
        },
        {
          "internalType": "string",
          "name": "sellerId",
          "type": "string"
        },
        {
          "internalType": "uint256",
          "name": "amount",
          "type": "uint256"
        },
        {
          "internalType": "uint256",
          "name": "timestamp",
          "type": "uint256"
        },
        {
          "internalType": "enum StockyPayments.PaymentStatus",
          "name": "status",
          "type": "uint8"
        },
        {
          "internalType": "uint256",
          "name": "escrowReleaseTime",
          "type": "uint256"
        }
      ],
      "stateMutability": "view",
      "type": "function"
    },
    {
      "inputs": [],
      "name": "platformFeePercent",
      "outputs": [
        {
          "internalType": "uint256",
          "name": "",
          "type": "uint256"
        }
      ],
      "stateMutability": "view",
      "type": "function"
    },
    {
      "inputs": [
        {
          "internalType": "string",
          "name": "paymentId",
          "type": "string"
        }
      ],
      "name": "refundPayment",
      "outputs": [],
      "stateMutability": "nonpayable",
      "type": "function"
    },
    {
      "inputs": [
        {
          "internalType": "address",
          "name": "user",
          "type": "address"
        }
      ],
      "name": "removeAuthorizedUser",
      "outputs": [],
      "stateMutability": "nonpayable",
      "type": "function"
    },
    {
      "inputs": [
        {
          "internalType": "uint256",
          "name": "periodInSeconds",
          "type": "uint256"
        }
      ],
      "name": "setEscrowPeriod",
      "outputs": [],
      "stateMutability": "nonpayable",
      "type": "function"
    },
    {
      "inputs": [
        {
          "internalType": "uint256",
          "name": "feePercent",
          "type": "uint256"
        }
      ],
      "name": "setPlatformFee",
      "outputs": [],
      "stateMutability": "nonpayable",
      "type": "function"
    },
    {
      "inputs": [],
      "name": "totalPayments",
      "outputs": [
        {
          "internalType": "uint256",
          "name": "",
          "type": "uint256"
        }
      ],
      "stateMutability": "view",
      "type": "function"
    },
    {
      "stateMutability": "payable",
      "type": "receive"
    }
  ],
  "bytecode": "0x608080604052346100535760fa60065562015180600755600480546001600160a01b031916339081179091556000908152600260205260408120805460ff191660011790556005556118f990816100598239f35b600080fdfe6080604081815260049081361015610022575b505050361561002057600080fd5b005b60009260e0908435821c9081625b4487146113465750806311b5a16d14610a9c57806312e8e2c3146112c7578063136d888314611297578063177d2a74146112495780631828983a14611209578063225bc08a146110b357806328569d2b14610f545780634291d6dc14610de05780634dd3426014610cd75780635863646014610af95780636719702314610a9c57806389fabc8014610a515780638c639a8514610a325780638da5cb5b14610a095780639ba6737c1461099c578063b46f08bb1461096d578063b6b895281461077f578063c69207a3146105f657848163db2e21bc146105a157508063debf8e2914610291578063f16b51c11461026e5763f9468713146101315750610012565b3461026a57602036600319011261026a5782356001600160401b038111610266576020610221949561016961017c93369089016113b5565b9082865194838680955193849201611410565b8201908152030190209061025f8351926101a18461019a81846114df565b0385611394565b8451966101bc886101b581600186016114df565b0389611394565b61024a8651916101da836101d381600288016114df565b0384611394565b61023c8851916101f1836101d38160038a016114df565b8501549860058601549461022f600760ff60068a0154169801549a83519e8f9e8f92610100808552840190611433565b916020818403910152611433565b918c8303908d0152611433565b9089820360608b0152611433565b95608088015260a087015260c0860190611575565b8301520390f35b8480fd5b8380fd5b84833461028d578160031936011261028d576020906007549051908152f35b5080fd5b5090929160a036600319011261059d576001600160401b03938135858111610266576102c090369084016113b5565b946024928335828111610599576102da90369083016113b5565b93604435838111610595576102f290369084016113b5565b926064359081116105955761030a90369084016113b5565b95608435963389526020946002865260ff878b2054168015610582575b610330906115f7565b8a61035a8b888a51809282865196019561034b818489611410565b820190815203019020546114a5565b61054757893410610505578988938d95938b8e948b88519961037b8b611362565b808b52818b01938452898b0194855260608b0195865260808b0196875260a08b019742895260c08c0199818b528c019a818c5251809481935180926103bf92611410565b82019081520301902097516103d49089611634565b516103e29060018901611634565b516103f09060028801611634565b516103fe9060038701611634565b518685015551600584015560068301905160058110156104f357906007929160ff8019835416911617905551910155600354680100000000000000008110156104e1578060016104519201600355611458565b6104d0578861045f91611634565b6005549160001983146104bf5750507f53bbf8776057c1a5986046c4cc42351f24709eb089d97ef0432390bc7ecdfb4794959660016104a19201600555611743565b946104b58351948486958652850190611433565b918301520390a280f35b634e487b7160e01b88526011905286fd5b50634e487b7160e01b875286825286fd5b50634e487b7160e01b87526041825286fd5b634e487b7160e01b8b5260218652848bfd5b875162461bcd60e51b8152808701889052601b818701527f496e73756666696369656e74207061796d656e7420616d6f756e7400000000006044820152606490fd5b875162461bcd60e51b8152808701889052601681870152755061796d656e7420616c72656164792065786973747360501b6044820152606490fd5b5084546001600160a01b03163314610327565b8780fd5b8680fd5b8280fd5b8381863461028d578160031936011261028d57548190819081906001600160a01b03166105cf338214611598565b47908282156105ed575bf1156105e3575080f35b51903d90823e3d90fd5b506108fc6105d9565b5091923461077c57602036600319011261077c5783356001600160401b03811161028d57602061062c61063e92369088016113b5565b81855193828580945193849201611410565b8101848152030190209180519061065482611362565b805161066b8161066481886114df565b0382611394565b8252805191610681836101d381600189016114df565b6020810192835281519261069c8461019a8160028a016114df565b8282019384528251906106bd826106b68160038b016114df565b0383611394565b6060830191825288870154926080810193845260058801549760a0820198895260ff6006820154169760058910156107695750899a5061074b9361073089979484600761073e958f9d60c06107609e9c99015201549b8c910152519651915193519a519685519d8e9d8e528d0190611433565b908b820360208d0152611433565b91898303908a0152611433565b946060870152608086015260a0850190611575565b60c08301520390f35b634e487b7160e01b815260218c52602490fd5b80fd5b8385843461028d5760208060031936011261059d5783356001600160401b03811161026a576107b190369086016113b5565b3384526002825260ff8385205416801561095a575b6107cf906115f7565b6108158284516108056107fe8551928481818901956107ef818389611410565b81018c815203019020546114a5565b1515611763565b8551809381928651928391611410565b8101878152030190206006810160ff81541660058110158061094757600182148092811561093b575b50156108f8576108e557966108a39261089d927fce3281d5d90ebcde67ad5ce7e7a3e962efb181f365d3ee7121394a22a983ed6b9798996108ac575b600260ff198254161790550154612710610896600654836118b0565b04906118a3565b91611743565b9351908152a280f35b600382016108de6108d66108bf836117cb565b54926108d18787015480951015611857565b6117cb565b9182546118a3565b905561087a565b634e487b7160e01b875260218852602487fd5b865162461bcd60e51b8152808a01879052601b60248201527f5061796d656e74206e6f7420696e2076616c69642073746174757300000000006044820152606490fd5b9150508790158a61083e565b634e487b7160e01b885260218952602488fd5b5084546001600160a01b031633146107c6565b5050503461028d57602036600319011261028d5761099560018060a01b038254163314611598565b3560075580f35b5050913461077c57602036600319011261077c57813560035481101561028d576109c590611458565b9290926109f75783516109f390856109e1826106b681896114df565b51918291602083526020830190611433565b0390f35b634e487b7160e01b8252819052602490fd5b5050903461059d578260031936011261059d575490516001600160a01b03909116815260209150f35b84833461028d578160031936011261028d576020906006549051908152f35b5050903461059d57602036600319011261059d5780356001600160a01b03818116929183900361026657610a889154163314611598565b825260026020528120805460ff1916905580f35b5050823461077c57602036600319011261077c578235906001600160401b03821161077c57506020610ad58194610ae7933691016113b5565b81845193828580945193849201611410565b81016001815203019020549051908152f35b5050903461059d576020908160031936011261026a5780356001600160401b03811161026657610b2c90369083016113b5565b610b6b838551610b5b6107fe855192848181890195610b4c818389611410565b81018d815203019020546114a5565b8651809381928651928391611410565b81018881520301902091600683019060ff8254166005811015610cc457600103610c895760078401544210610c465791610bf96108a39285947fce3281d5d90ebcde67ad5ce7e7a3e962efb181f365d3ee7121394a22a983ed6b9796019060038254960195610bdc6108d6886117cb565b9055600260ff1982541617905554612710610896600654836118b0565b927fc82e29ba0155114b2b45ec9183ab7909b7fd0d6676808752e363dbd9b9d0583d610c39610c2784611743565b9289519182918b83528b8301906114df565b87898301520390a2611743565b855162461bcd60e51b8152908101859052601b60248201527f457363726f7720706572696f64206e6f742079657420656e64656400000000006044820152606490fd5b855162461bcd60e51b815290810185905260156024820152745061796d656e74206e6f7420696e20657363726f7760581b6044820152606490fd5b634e487b7160e01b885260218252602488fd5b8285853461028d578160031936011261028d57600354906001600160401b038211610dcd5750825191602092610d12848460051b0182611394565b8281526003825283810192827fc2575a0e9e593c00f959f8c92f12db2869c3395a3b0502d05e2516446f71f85b855b838310610da257505050508451938085019181865251809252858501958260051b8601019392955b828710610d765785850386f35b909192938280610d92600193603f198a82030186528851611433565b9601920196019592919092610d69565b60018881928b9a97989a51610dbb8161066481896114df565b81520192019201919096949396610d41565b634e487b7160e01b835260419052602482fd5b5050903461059d576020908160031936011261026a5780356001600160401b03811161026657610e1390369083016113b5565b903385526002835260ff84862054168015610f41575b610e32906115f7565b610e62838551610e526107fe8651928481818a0195610b4c818389611410565b8651809381928751928391611410565b81018881520301902060068101805460ff81166005811015610f2e57610eeb57917ef58a264cc8fa10818564c95d1f2c8897831497a5acb8694295e64327b9d2049594939160016108a39460ff1916179055610ee2610eda6003610ec8600754426117a8565b946007850195865584015493016117cb565b9182546117a8565b90555491611743565b865162461bcd60e51b8152808501879052601d60248201527f5061796d656e74206e6f7420696e2070656e64696e67207374617475730000006044820152606490fd5b634e487b7160e01b895260218552602489fd5b5080546001600160a01b03163314610e29565b8385843461028d5760208060031936011261059d5783356001600160401b03811161026a57610f8690369086016113b5565b3384526002825260ff838520541680156110a0575b610fa4906115f7565b610fc48284516108056107fe8551928481818901956107ef818389611410565b8101878152030190206006810160ff8154166005811015806109475781158015611094575b15611051576108e557917f0ee7daba6a0ff4fdb4eaa2ff504e0a3e47c693428f603620aca8e11ab7ab03329596979160016108a39414611037575b805460ff19166003179055015491611743565b6003820161104a6108d66108bf836117cb565b9055611024565b865162461bcd60e51b8152808a01879052601a60248201527f5061796d656e742063616e6e6f7420626520726566756e6465640000000000006044820152606490fd5b50508660018214610fe9565b5084546001600160a01b03163314610f9b565b8285853461028d5760208060031936011261059d5781356001600160401b03811161026a576110e590369084016113b5565b913384526002825260ff858520541680156111f6575b611104906115f7565b60066111368387516111266107fe8851928481818c0195610b4c818389611410565b8851809381928951928391611410565b810188815203019020019182549060ff821660058110156111e357600103611192575061116b94955060ff1916179055611743565b7f91c26a99a0a4d117c4d67f42c08c4c42d13094fbef4b6a53a9dd88e5c22563868280a280f35b8260849188519162461bcd60e51b8352820152602660248201527f4f6e6c7920657363726f776564207061796d656e74732063616e2062652064696044820152651cdc1d5d195960d21b6064820152fd5b634e487b7160e01b875260218452602487fd5b5080546001600160a01b031633146110fb565b5050903461059d57602036600319011261059d57356001600160a01b0381169081900361059d57818360ff92602095526002855220541690519015158152f35b5050903461059d57602036600319011261059d5780356001600160a01b038181169291839003610266576112809154163314611598565b825260026020528120805460ff1916600117905580f35b84833461028d578160031936011261028d5760609060055490600654906007549181519384526020840152820152f35b5050903461059d57602036600319011261059d578035916112f260018060a01b038354163314611598565b6103e8831161130357505060065580f35b906020606492519162461bcd60e51b8352820152601e60248201527f506c6174666f726d206665652063616e6e6f74206578636565642031302500006044820152fd5b85903461028d578160031936011261028d576020906005548152f35b61010081019081106001600160401b0382111761137e57604052565b634e487b7160e01b600052604160045260246000fd5b90601f801991011681019081106001600160401b0382111761137e57604052565b81601f8201121561140b578035906001600160401b03821161137e57604051926113e9601f8401601f191660200185611394565b8284526020838301011161140b57816000926020809301838601378301015290565b600080fd5b60005b8381106114235750506000910152565b8181015183820152602001611413565b9060209161144c81518092818552858086019101611410565b601f01601f1916010190565b60035481101561148f5760036000527fc2575a0e9e593c00f959f8c92f12db2869c3395a3b0502d05e2516446f71f85b0190600090565b634e487b7160e01b600052603260045260246000fd5b90600182811c921680156114d5575b60208310146114bf57565b634e487b7160e01b600052602260045260246000fd5b91607f16916114b4565b90600092918054916114f0836114a5565b9182825260019384811690816000146115525750600114611512575b50505050565b90919394506000526020928360002092846000945b83861061153e57505050500101903880808061150c565b805485870183015294019385908201611527565b9294505050602093945060ff191683830152151560051b0101903880808061150c565b9060058210156115825752565b634e487b7160e01b600052602160045260246000fd5b1561159f57565b60405162461bcd60e51b815260206004820152602a60248201527f4f6e6c7920636f6e7472616374206f776e65722063616e2063616c6c207468696044820152693990333ab731ba34b7b760b11b6064820152608490fd5b156115fe57565b60405162461bcd60e51b815260206004820152600e60248201526d139bdd08185d5d1a1bdc9a5e995960921b6044820152606490fd5b91909182516001600160401b03811161137e5761165182546114a5565b601f81116116fb575b50602080601f831160011461169757508192939460009261168c575b50508160011b916000199060031b1c1916179055565b015190503880611676565b90601f198316958460005282600020926000905b8882106116e3575050836001959697106116ca575b505050811b019055565b015160001960f88460031b161c191690553880806116c0565b806001859682949686015181550195019301906116ab565b600083815260208120601f840160051c81019260208510611739575b601f0160051c01915b82811061172e57505061165a565b818155600101611720565b9092508290611717565b61175b90602060405192828480945193849201611410565b810103902090565b1561176a57565b60405162461bcd60e51b815260206004820152601660248201527514185e5b595b9d08191bd95cc81b9bdd08195e1a5cdd60521b6044820152606490fd5b919082018092116117b557565b634e487b7160e01b600052601160045260246000fd5b604051908160008254926117de846114a5565b90600194858116908160001461183f5750600114611805575b505060209281520301902090565b60009081526020808220959350905b82811061182b5750506020935082019092386117f7565b855487820152948301948694508101611814565b60ff19168552505080151502820190506020386117f7565b1561185e57565b60405162461bcd60e51b815260206004820152601b60248201527f496e73756666696369656e7420657363726f772062616c616e636500000000006044820152606490fd5b919082039182116117b557565b818102929181159184041417156117b55756fea2646970667358221220d19c8336df0815c11f6a227499ca9d129401b6916d705ef43a4c4c4045c2146064736f6c63430008140033",
  "linkReferences": {},
  "deployedLinkReferences": {}
}