{
  "_format": "hh-sol-artifact-1",
  "contractName": "StockySupplyChain",
  "sourceName": "contracts/StockySupplyChain.sol",
  "abi": [
    {
      "inputs": [],
      "stateMutability": "nonpayable",
      "type": "constructor"
    },
    {
      "anonymous": false,
      "inputs": [
        {
          "indexed": true,
          "internalType": "string",
          "name": "businessId",
          "type": "string"
        },
        {
          "indexed": false,
          "internalType": "string",
          "name": "name",
          "type": "string"
        },
        {
          "indexed": false,
          "internalType": "address",
          "name": "owner",
          "type": "address"
        }
      ],
      "name": "BusinessRegistered",
      "type": "event"
    },
    {
      "anonymous": false,
      "inputs": [
        {
          "indexed": true,
          "internalType": "string",
          "name": "productId",
          "type": "string"
        },
        {
          "indexed": false,
          "internalType": "string",
          "name": "businessId",
          "type": "string"
        },
        {
          "indexed": false,
          "internalType": "address",
          "name": "creator",
          "type": "address"
        }
      ],
      "name": "ProductRegistered",
      "type": "event"
    },
    {
      "anonymous": false,
      "inputs": [
        {
          "indexed": true,
          "internalType": "string",
          "name": "productId",
          "type": "string"
        },
        {
          "indexed": false,
          "internalType": "string",
          "name": "buyerId",
          "type": "string"
        },
        {
          "indexed": false,
          "internalType": "uint256",
          "name": "finalPrice",
          "type": "uint256"
        }
      ],
      "name": "ProductSold",
      "type": "event"
    },
    {
      "anonymous": false,
      "inputs": [
        {
          "indexed": true,
          "internalType": "string",
          "name": "productId",
          "type": "string"
        },
        {
          "indexed": false,
          "internalType": "uint256",
          "name": "newPrice",
          "type": "uint256"
        },
        {
          "indexed": false,
          "internalType": "uint8",
          "name": "discount",
          "type": "uint8"
        }
      ],
      "name": "ProductUpdated",
      "type": "event"
    },
    {
      "anonymous": false,
      "inputs": [
        {
          "indexed": true,
          "internalType": "string",
          "name": "transactionId",
          "type": "string"
        }
      ],
      "name": "TransactionCompleted",
      "type": "event"
    },
    {
      "anonymous": false,
      "inputs": [
        {
          "indexed": true,
          "internalType": "string",
          "name": "transactionId",
          "type": "string"
        },
        {
          "indexed": false,
          "internalType": "string",
          "name": "productId",
          "type": "string"
        },
        {
          "indexed": false,
          "internalType": "uint256",
          "name": "amount",
          "type": "uint256"
        }
      ],
      "name": "TransactionCreated",
      "type": "event"
    },
    {
      "inputs": [
        {
          "internalType": "string",
          "name": "",
          "type": "string"
        }
      ],
      "name": "businessIdToAddress",
      "outputs": [
        {
          "internalType": "address",
          "name": "",
          "type": "address"
        }
      ],
      "stateMutability": "view",
      "type": "function"
    },
    {
      "inputs": [
        {
          "internalType": "uint256",
          "name": "",
          "type": "uint256"
        }
      ],
      "name": "businessIds",
      "outputs": [
        {
          "internalType": "string",
          "name": "",
          "type": "string"
        }
      ],
      "stateMutability": "view",
      "type": "function"
    },
    {
      "inputs": [
        {
          "internalType": "string",
          "name": "",
          "type": "string"
        }
      ],
      "name": "businesses",
      "outputs": [
        {
          "internalType": "string",
          "name": "businessId",
          "type": "string"
        },
        {
          "internalType": "string",
          "name": "name",
          "type": "string"
        },
        {
          "internalType": "string",
          "name": "owner",
          "type": "string"
        },
        {
          "internalType": "bool",
          "name": "verified",
          "type": "bool"
        },
        {
          "internalType": "uint256",
          "name": "registrationDate",
          "type": "uint256"
        },
        {
          "internalType": "uint256",
          "name": "totalProducts",
          "type": "uint256"
        }
      ],
      "stateMutability": "view",
      "type": "function"
    },
    {
      "inputs": [
        {
          "internalType": "string",
          "name": "transactionId",
          "type": "string"
        }
      ],
      "name": "cancelTransaction",
      "outputs": [],
      "stateMutability": "nonpayable",
      "type": "function"
    },
    {
      "inputs": [
        {
          "internalType": "string",
          "name": "transactionId",
          "type": "string"
        }
      ],
      "name": "completeTransaction",
      "outputs": [],
      "stateMutability": "nonpayable",
      "type": "function"
    },
    {
      "inputs": [
        {
          "internalType": "string",
          "name": "transactionId",
          "type": "string"
        },
        {
          "internalType": "string",
          "name": "productId",
          "type": "string"
        },
        {
          "internalType": "string",
          "name": "buyerId",
          "type": "string"
        },
        {
          "internalType": "uint256",
          "name": "amount",
          "type": "uint256"
        }
      ],
      "name": "createTransaction",
      "outputs": [],
      "stateMutability": "nonpayable",
      "type": "function"
    },
    {
      "inputs": [],
      "name": "getAllBusinessIds",
      "outputs": [
        {
          "internalType": "string[]",
          "name": "",
          "type": "string[]"
        }
      ],
      "stateMutability": "view",
      "type": "function"
    },
    {
      "inputs": [],
      "name": "getAllProductIds",
      "outputs": [
        {
          "internalType": "string[]",
          "name": "",
          "type": "string[]"
        }
      ],
      "stateMutability": "view",
      "type": "function"
    },
    {
      "inputs": [
        {
          "internalType": "string",
          "name": "businessId",
          "type": "string"
        }
      ],
      "name": "getBusiness",
      "outputs": [
        {
          "internalType": "string",
          "name": "name",
          "type": "string"
        },
        {
          "internalType": "string",
          "name": "ownerName",
          "type": "string"
        },
        {
          "internalType": "bool",
          "name": "verified",
          "type": "bool"
        },
        {
          "internalType": "uint256",
          "name": "registrationDate",
          "type": "uint256"
        },
        {
          "internalType": "uint256",
          "name": "totalProductsCount",
          "type": "uint256"
        }
      ],
      "stateMutability": "view",
      "type": "function"
    },
    {
      "inputs": [],
      "name": "getPlatformStats",
      "outputs": [
        {
          "internalType": "uint256",
          "name": "totalProductsCount",
          "type": "uint256"
        },
        {
          "internalType": "uint256",
          "name": "totalBusinessesCount",
          "type": "uint256"
        },
        {
          "internalType": "uint256",
          "name": "totalTransactionsCount",
          "type": "uint256"
        }
      ],
      "stateMutability": "view",
      "type": "function"
    },
    {
      "inputs": [
        {
          "internalType": "string",
          "name": "productId",
          "type": "string"
        }
      ],
      "name": "getProduct",
      "outputs": [
        {
          "internalType": "string",
          "name": "name",
          "type": "string"
        },
        {
          "internalType": "string",
          "name": "businessId",
          "type": "string"
        },
        {
          "internalType": "uint256",
          "name": "originalPrice",
          "type": "uint256"
        },
        {
          "internalType": "uint256",
          "name": "currentPrice",
          "type": "uint256"
        },
        {
          "internalType": "uint8",
          "name": "discount",
          "type": "uint8"
        },
        {
          "internalType": "enum StockySupplyChain.ProductStatus",
          "name": "status",
          "type": "uint8"
        },
        {
          "internalType": "uint256",
          "name": "expiryDate",
          "type": "uint256"
        },
        {
          "internalType": "string",
          "name": "metadata",
          "type": "string"
        }
      ],
      "stateMutability": "view",
      "type": "function"
    },
    {
      "inputs": [
        {
          "internalType": "string",
          "name": "transactionId",
          "type": "string"
        }
      ],
      "name": "getTransaction",
      "outputs": [
        {
          "internalType": "string",
          "name": "productId",
          "type": "string"
        },
        {
          "internalType": "string",
          "name": "buyerId",
          "type": "string"
        },
        {
          "internalType": "string",
          "name": "sellerId",
          "type": "string"
        },
        {
          "internalType": "uint256",
          "name": "amount",
          "type": "uint256"
        },
        {
          "internalType": "uint256",
          "name": "timestamp",
          "type": "uint256"
        },
        {
          "internalType": "enum StockySupplyChain.TransactionStatus",
          "name": "status",
          "type": "uint8"
        }
      ],
      "stateMutability": "view",
      "type": "function"
    },
    {
      "inputs": [
        {
          "internalType": "string",
          "name": "productId",
          "type": "string"
        }
      ],
      "name": "markProductExpired",
      "outputs": [],
      "stateMutability": "nonpayable",
      "type": "function"
    },
    {
      "inputs": [],
      "name": "owner",
      "outputs": [
        {
          "internalType": "address",
          "name": "",
          "type": "address"
        }
      ],
      "stateMutability": "view",
      "type": "function"
    },
    {
      "inputs": [
        {
          "internalType": "uint256",
          "name": "",
          "type": "uint256"
        }
      ],
      "name": "productIds",
      "outputs": [
        {
          "internalType": "string",
          "name": "",
          "type": "string"
        }
      ],
      "stateMutability": "view",
      "type": "function"
    },
    {
      "inputs": [
        {
          "internalType": "string",
          "name": "",
          "type": "string"
        }
      ],
      "name": "products",
      "outputs": [
        {
          "internalType": "string",
          "name": "productId",
          "type": "string"
        },
        {
          "internalType": "string",
          "name": "name",
          "type": "string"
        },
        {
          "internalType": "string",
          "name": "businessId",
          "type": "string"
        },
        {
          "internalType": "string",
          "name": "batchNumber",
          "type": "string"
        },
        {
          "internalType": "uint256",
          "name": "manufacturedDate",
          "type": "uint256"
        },
        {
          "internalType": "uint256",
          "name": "expiryDate",
          "type": "uint256"
        },
        {
          "internalType": "uint256",
          "name": "originalPrice",
          "type": "uint256"
        },
        {
          "internalType": "uint256",
          "name": "currentPrice",
          "type": "uint256"
        },
        {
          "internalType": "uint8",
          "name": "discount",
          "type": "uint8"
        },
        {
          "internalType": "enum StockySupplyChain.ProductStatus",
          "name": "status",
          "type": "uint8"
        },
        {
          "internalType": "address",
          "name": "creator",
          "type": "address"
        },
        {
          "internalType": "uint256",
          "name": "timestamp",
          "type": "uint256"
        },
        {
          "internalType": "string",
          "name": "metadata",
          "type": "string"
        }
      ],
      "stateMutability": "view",
      "type": "function"
    },
    {
      "inputs": [
        {
          "internalType": "string",
          "name": "businessId",
          "type": "string"
        },
        {
          "internalType": "string",
          "name": "name",
          "type": "string"
        },
        {
          "internalType": "string",
          "name": "ownerName",
          "type": "string"
        }
      ],
      "name": "registerBusiness",
      "outputs": [],
      "stateMutability": "nonpayable",
      "type": "function"
    },
    {
      "inputs": [
        {
          "internalType": "string",
          "name": "productId",
          "type": "string"
        },
        {
          "internalType": "string",
          "name": "name",
          "type": "string"
        },
        {
          "internalType": "string",
          "name": "businessId",
          "type": "string"
        },
        {
          "internalType": "string",
          "name": "batchNumber",
          "type": "string"
        },
        {
          "internalType": "uint256",
          "name": "manufacturedDate",
          "type": "uint256"
        },
        {
          "internalType": "uint256",
          "name": "expiryDate",
          "type": "uint256"
        },
        {
          "internalType": "uint256",
          "name": "originalPrice",
          "type": "uint256"
        },
        {
          "internalType": "string",
          "name": "metadata",
          "type": "string"
        }
      ],
      "name": "registerProduct",
      "outputs": [],
      "stateMutability": "nonpayable",
      "type": "function"
    },
    {
      "inputs": [],
      "name": "totalBusinesses",
      "outputs": [
        {
          "internalType": "uint256",
          "name": "",
          "type": "uint256"
        }
      ],
      "stateMutability": "view",
      "type": "function"
    },
    {
      "inputs": [],
      "name": "totalProducts",
      "outputs": [
        {
          "internalType": "uint256",
          "name": "",
          "type": "uint256"
        }
      ],
      "stateMutability": "view",
      "type": "function"
    },
    {
      "inputs": [],
      "name": "totalTransactions",
      "outputs": [
        {
          "internalType": "uint256",
          "name": "",
          "type": "uint256"
        }
      ],
      "stateMutability": "view",
      "type": "function"
    },
    {
      "inputs": [
        {
          "internalType": "uint256",
          "name": "",
          "type": "uint256"
        }
      ],
      "name": "transactionIds",
      "outputs": [
        {
          "internalType": "string",
          "name": "",
          "type": "string"
        }
      ],
      "stateMutability": "view",
      "type": "function"
    },
    {
      "inputs": [
        {
          "internalType": "string",
          "name": "",
          "type": "string"
        }
      ],
      "name": "transactions",
      "outputs": [
        {
          "internalType": "string",
          "name": "transactionId",
          "type": "string"
        },
        {
          "internalType": "string",
          "name": "productId",
          "type": "string"
        },
        {
          "internalType": "string",
          "name": "buyerId",
          "type": "string"
        },
        {
          "internalType": "string",
          "name": "sellerId",
          "type": "string"
        },
        {
          "internalType": "uint256",
          "name": "amount",
          "type": "uint256"
        },
        {
          "internalType": "uint256",
          "name": "timestamp",
          "type": "uint256"
        },
        {
          "internalType": "enum StockySupplyChain.TransactionStatus",
          "name": "status",
          "type": "uint8"
        }
      ],
      "stateMutability": "view",
      "type": "function"
    },
    {
      "inputs": [
        {
          "internalType": "string",
          "name": "productId",
          "type": "string"
        },
        {
          "internalType": "uint256",
          "name": "newPrice",
          "type": "uint256"
        },
        {
          "internalType": "uint8",
          "name": "discount",
          "type": "uint8"
        }
      ],
      "name": "updateProductPrice",
      "outputs": [],
      "stateMutability": "nonpayable",
      "type": "function"
    },
    {
      "inputs": [
        {
          "internalType": "address",
          "name": "",
          "type": "address"
        }
      ],
      "name": "userToBusinessId",
      "outputs": [
        {
          "internalType": "string",
          "name": "",
          "type": "string"
        }
      ],
      "stateMutability": "view",
      "type": "function"
    },
    {
      "inputs": [
        {
          "internalType": "string",
          "name": "businessId",
          "type": "string"
        }
      ],
      "name": "verifyBusiness",
      "outputs": [],
      "stateMutability": "nonpayable",
      "type": "function"
    }
  ],
  "bytecode": "0x6080806040523461003757600880546001600160a01b0319163317905560006009819055600a819055600b556122bd908161003d8239f35b600080fdfe608060405260048036101561001357600080fd5b60e0600035811c9081630186a42314611bc6578163022236f414611adf578163136d888314611ab05781632902a960146118415781632f2ffd881461170557816355ad5530146116695781635aec0efc1461145357816360d2043114611435578163663c01af146113995781636757876c146112b757816368111cce1461111357816368c8add81461103757816372c26bea14610f265781637cb484a214610ac4575080638438e7ea1461085a5780638da5cb5b1461083157806393a70214146107cb57806395a58774146104a95780639b9d326d1461048b5780639c6f88551461043b578063a7455e89146103fe578063ac2ccd07146102ef578063b45e1c4e14610218578063b9a60038146101fa578063cb51bba9146101aa5763e36f8dc51461013e57600080fd5b346101a55760203660031901126101a557356007548110156101a55761018d6101a19160076000527fa66cc928b5edb82af9bd49922954155ab7b0942694bea4ce44661d9a8736c68801611e5e565b604051918291602083526020830190611f04565b0390f35b600080fd5b50346101a55760203660031901126101a557356005548110156101a55761018d6101a19160056000527f036b6384b5eca791c62761152d0c79bb0604c104a5fb6f4eb0703f3154bb3db001611e5e565b346101a55760003660031901126101a5576020600b54604051908152f35b50346101a55760203660031901126101a5578035906001600160401b0382116101a55761026360206102506102bd9436908501611dab565b8160405193828580945193849201611e01565b810160018152030190209061027782611e5e565b9161028460018201611e5e565b906102d961029460028301611e5e565b6102cb600560ff600386015416968501549401549460405198899860c08a5260c08a0190611f04565b9088820360208a0152611f04565b908682036040880152611f04565b9215156060850152608084015260a08301520390f35b50346101a55760203660031901126101a5578035906001600160401b0382116101a55761032760206102506102bd9436908501611dab565b8101600281520301902060c06040519261034084611d6f565b61034983611e5e565b84526103e161035a60018501611e5e565b94602081019586526102cb61037160028701611e5e565b966040830197885261038560038801611e5e565b9460608401958652870154926080810193845260ff600660058a01549960a084019a8b520154169687916103b883611f29565b0152519651935191519551936103cd86611f29565b60405198899860c08a5260c08a0190611f04565b92606085015260808401526103f581611f29565b60a08301520390f35b50346101a55760203660031901126101a557356001600160a01b038116908190036101a55760005260036020526101a161018d6040600020611e5e565b50346101a55760203660031901126101a557356006548110156101a55761018d6101a19160066000527ff652222313e28459528d920b65115c16c04f3efc82aaedc97be59f3f377c0d3f01611e5e565b346101a55760003660031901126101a5576020600954604051908152f35b50346101a55760803660031901126101a5576001600160401b0381358181116101a5576104d99036908401611dab565b906024358181116101a5576104f19036908501611dab565b916044359182116101a55761050c6105429236908601611dab565b936064359461055a604051865161054960209783898095818d0195610532818389611e01565b8101600081520301902054611e24565b1515612173565b604051809381928a51928391611e01565b8101600081520301902060ff600882015460081c1661057881611f29565b80159081156107b7575b501561077b5760078101548710610737578380886106358861062b6000976106218d6106176106056105d4600260069d604080519e8f906105c282611d6f565b81528b81019788520197885201611e5e565b9660608c0197885260808c01998a5260a08c019a428c5260c08d019e8f528160405193828580945193849201611e01565b8101600281520301902099518a611fab565b5160018901611fab565b5160028701611fab565b5160038501611fab565b518583015551600582015501905161064c81611f29565b61065581611f29565b60ff8019835416911617905560075490600160401b82101561072257600182018060075582101561070d5750916106ef826106dc7f72fef583f955efc4ded46bda9ee563c8b8030eaa366e8ccb1f1cb50e967cd4cc96946107049660076000527fa66cc928b5edb82af9bd49922954155ab7b0942694bea4ce44661d9a8736c68801611fab565b6106e7600b546120ba565b600b556120df565b94604051938493604085526040850190611f04565b918301520390a2005b603290634e487b7160e01b6000525260246000fd5b604190634e487b7160e01b6000525260246000fd5b60405162461bcd60e51b8152808401869052601b60248201527f496e73756666696369656e74207061796d656e7420616d6f756e7400000000006044820152606490fd5b60405162461bcd60e51b8152808401869052601560248201527450726f64756374206e6f7420617661696c61626c6560581b6044820152606490fd5b600191506107c481611f29565b1438610582565b50346101a55760203660031901126101a5578035906001600160401b0382116101a5576107fd60209236908301611dab565b826108116040519283815193849201611e01565b81019182529081900382019020546040516001600160a01b039091168152f35b346101a55760003660031901126101a5576008546040516001600160a01b039091168152602090f35b50346101a557602090816003193601126101a55780356001600160401b0381116101a55761088b9036908301611dab565b6040518381835161089f8183858801611e01565b810160028152030190209260068401908154936108c860ff86166108c281611f29565b1561223b565b6001938487019360405184816108de81896121b8565b6000815203019020906040516108f781600285016121b8565b85815281900386019020546001600160a01b03163303610a745760ff1997881687179055600801805461ff001916610300179055610934906120df565b610970604051809381937fbee971bb104f3ed8cba2fcdbedd3fa3a03c64d7756751d36a297196a236d26f1600080a260028a01990154956121b8565b039020936040519360408552600096805461098a81611e24565b938460408901528382169182600014610a2f5750506001146109d6575b867f83c49c39693c7ac79995445d70c5c9d25fb6690a7ceb4721609dbf953dd55a3b87808b89898301520390a2005b6000908152838120939750925b828410610a1b57505050820160600193817f83c49c39693c7ac79995445d70c5c9d25fb6690a7ceb4721609dbf953dd55a3b846109a7565b8054868501606001529287019281016109e3565b1660608881019190915293151560051b870190930197508492507f83c49c39693c7ac79995445d70c5c9d25fb6690a7ceb4721609dbf953dd55a3b91508590506109a7565b60405162461bcd60e51b81528085018690526024808201527f4f6e6c792073656c6c65722063616e20636f6d706c657465207472616e7361636044820152633a34b7b760e11b6064820152608490fd5b82346101a5576101003660031901126101a5576001600160401b0381358181116101a557610af59036908401611dab565b91602480358381116101a557610b0e9036908401611dab565b946044358481116101a557610b269036908501611dab565b956064358581116101a557610b3e9036908601611dab565b9460a4359060c4359060e4359081116101a557610b5e9036908801611dab565b91604051978a519860208c0199610b7681838d611e01565b81018981528190036020019020546001600160a01b03163303610ed057610bc8610bc1610bb160208c8f604051938492839251928391611e01565b8101600181520301902054611e24565b1515612127565b610be461053260208c8160405193828580945193849201611e01565b610e945742821115610e3f579261018092610d4a969592600a9560405194610c0b86611d53565b8d865260208601528d60408601526060850152608435608085015260a08401528060c0840152858301526000610100830152600061012083015233610140830152426101608301528282015260405160208181610c6e8d83815193849201611e01565b8101600081520301902093610c84825186611fab565b610c95602083015160018701611fab565b610ca6604083015160028701611fab565b610cb7606083015160038701611fab565b60808201518886015560a0820151600586015560c0820151600686015581015160078501556008840160ff6101008301511681549061ff0061012085015191610cff83611f29565b610d0883611f29565b62010000600160b01b0361014087015160101b169369ffffffffffffffffffff60b01b16179160081b1617179055610160810151600985015501519101611fab565b60055491600160401b831015610e2c576001830180600555831015610e1957857fdc62d3d2ce3bcf04d8c0c001c3d1b9b793bc83b6a8d7de0cb99d77b4504cb5af610e14610e05886005610ddb60208b610dca858d866000527f036b6384b5eca791c62761152d0c79bb0604c104a5fb6f4eb0703f3154bb3db001611fab565b604051809381928b51928391611e01565b8101600181520301902001610df081546120ba565b9055610dfd6009546120ba565b6009556120df565b926040519182913390836120ff565b0390a2005b603290634e487b7160e01b600052526000fd5b604190634e487b7160e01b600052526000fd5b60405162461bcd60e51b81526020818a01526029818901527f50726f647563742063616e6e6f7420626520657870697265642061742072656760448201526834b9ba3930ba34b7b760b91b6064820152608490fd5b60405162461bcd60e51b81526020818a01526016818901527550726f6475637420616c72656164792065786973747360501b6044820152606490fd5b60405162461bcd60e51b81526020818a0152602a818901527f4f6e6c7920627573696e657373206f776e65722063616e2063616c6c207468696044820152693990333ab731ba34b7b760b11b6064820152608490fd5b82346101a557602090816003193601126101a55780356001600160401b0381116101a55782610f5b610f8a9236908501611dab565b60405190610f7961054282519385818186019661053281838a611e01565b604051938492839251928391611e01565b81016000815203019020916005830154421080159061100b575b15610fbc5760088301805461ff001916610200179055005b60405162461bcd60e51b815291820152602360248201527f50726f64756374206e6f742065787069726564206f7220756e617574686f72696044820152621e995960ea1b606482015260849150fd5b5060405161101c81600286016121b8565b83815281900382019020546001600160a01b03163314610fa4565b82346101a55760203660031901126101a55780356001600160401b0381116101a5576110669036908301611dab565b6008549091906001600160a01b031633036110bc5760036110a160208460405190610f79610bc1825193858181860196610bb181838a611e01565b8101600181520301902001600160ff19825416179055600080f35b60849060206040519162461bcd60e51b8352820152602a60248201527f4f6e6c7920636f6e7472616374206f776e65722063616e2063616c6c207468696044820152693990333ab731ba34b7b760b11b6064820152fd5b9050346101a55760203660031901126101a55781356001600160401b0381116101a5576111439036908401611dab565b604051818180935160208193019161115a92611e01565b8101600081520360200190206040519061117382611d53565b61117c81611e5e565b825261118a60018201611e5e565b602083019081529261119e60028301611e5e565b60408401908152946111b260038401611e5e565b6060850152820154608084015260058201549260a0810193845260068301549360c08201948552600784015493838301948552600881015490610100978885019160ff841683528360081c60ff169361012087019461121081611f29565b855260101c6001600160a01b0316610140870152600981015461016087015261123b90600a01611e5e565b946101800194855251985196519551905160ff1691519261125b84611f29565b5193519660405199898b9a8b528a0161127391611f04565b89810360208b015261128491611f04565b9560408901526060880152608087015261129d81611f29565b60a086015260c0850152838203908401526101a191611f04565b82346101a55760203660031901126101a5578035906001600160401b0382116101a5576112ef60206102506113779436908501611dab565b810160018152030190209060a06040519261130984611d22565b61131281611e5e565b845261138561132360018301611e5e565b6020860190815261133660028401611e5e565b95866040820152600560ff6003860154161515968760608401528501549485608084015201549485910152519460405196879660a0885260a0880190611f04565b908682036020880152611f04565b926040850152606084015260808301520390f35b82346101a55760003660031901126101a557600554906001600160401b03821161072257506040516020916113d3838260051b0183611d8a565b80825282820160056000527f036b6384b5eca791c62761152d0c79bb0604c104a5fb6f4eb0703f3154bb3db0936000915b83831061141957604051806101a18782611f49565b600182819261142789611e5e565b815201960192019194611404565b346101a55760003660031901126101a5576020600a54604051908152f35b82346101a55760603660031901126101a55780356001600160401b0381116101a5576114829036908301611dab565b602435906044359060ff82168092036101a557610542936114cb60405183516114ba602098838a8095818a0195610532818389611e01565b604051809381928751928391611e01565b81016000815203019020906040516114e681600285016121b8565b82815281900387019020546001600160a01b0316330361161957600682015485116115c6576064841161158257509161156184926008857fa332376864d3fea1442038835e06bb6af524b8d5ffebdbb05a2bed8fa1b9889197600760409801550180548460ff198216178255848061156d575b5050506120df565b948351928352820152a2005b6101009161ffff191617179055878084611559565b60405162461bcd60e51b8152908101869052601b60248201527f446973636f756e742063616e6e6f7420657863656564203130302500000000006044820152606490fd5b60405162461bcd60e51b8152908101869052602660248201527f4e65772070726963652063616e6e6f7420657863656564206f726967696e616c60448201526520707269636560d01b6064820152608490fd5b60405162461bcd60e51b8152908101869052602360248201527f4f6e6c792070726f64756374206f776e65722063616e2075706461746520707260448201526269636560e81b6064820152608490fd5b82346101a55760003660031901126101a557600654906001600160401b03821161072257506040516020916116a3838260051b0183611d8a565b80825282820160066000527ff652222313e28459528d920b65115c16c04f3efc82aaedc97be59f3f377c0d3f936000915b8383106116e957604051806101a18782611f49565b60018281926116f789611e5e565b8152019601920191946116d4565b82346101a5576020806003193601126101a55781356001600160401b0381116101a557816102506117399236908601611dab565b8101600281520301902091600683019060018383549561175f60ff88166108c281611f29565b61176f60405180948193016121b8565b60008152030190209260405161178881600287016121b8565b83815281900382019020546001600160a01b031633036117f3575050600260089360ff1916179055600581015442106000146117e35701805460ff8116156117da5750805461ff001916610100179055005b61ff0019169055005b01805461ff001916610200179055005b60405162461bcd60e51b815291820152602260248201527f4f6e6c792073656c6c65722063616e2063616e63656c207472616e736163746960448201526137b760f11b606482015260849150fd5b82346101a55760603660031901126101a5576001600160401b039080358281116101a5576118729036908301611dab565b906024358381116101a55761188a9036908301611dab565b926044359081116101a5576118a29036908301611dab565b604051908351906118c0602093848181890195610bb1818389611e01565b611a6c5733600052600383526118da604060002054611e24565b611a2857906119839291600586604051926118f484611d22565b818452858401908a825260408501908152611950606086019160008352610621608088019442865261061761193e8c8c60a08d019a60008c52604051938492839251928391611e01565b8101600181520301902099518a611fab565b600385019051151560ff8019835416911617905551878401555191015533600052600382526114ba856040600020611fab565b81018481520301902080546001600160a01b0319163317905560065490600160401b82101561072257600182018060065582101561070d5750610e0582611a157f683c95e74f23a58ebacad1072881d776869526afd974063423b60e665ae8e95294610e149460066000527ff652222313e28459528d920b65115c16c04f3efc82aaedc97be59f3f377c0d3f01611fab565b611a20600a546120ba565b600a556120df565b60405162461bcd60e51b8152808501849052601e60248201527f4164647265737320616c726561647920686173206120627573696e65737300006044820152606490fd5b60405162461bcd60e51b8152808501849052601760248201527f427573696e65737320616c7265616479206578697374730000000000000000006044820152606490fd5b346101a55760003660031901126101a5576060600954600a54600b549060405192835260208301526040820152f35b9050346101a55760203660031901126101a55781356001600160401b0381116101a5576020610250611b149236908601611dab565b8101600281520301902091611b2883611e5e565b92611b3560018201611e5e565b90611ba9611b4560028301611e5e565b93611b9b611b5560038501611e5e565b9184015495611b8d60ff600660058801549701541696611b7f6040519b8b8d9c8d528c0190611f04565b908a820360208c0152611f04565b9088820360408a0152611f04565b908682036060880152611f04565b92608085015260a0840152611bbd81611f29565b60c08301520390f35b82346101a55760203660031901126101a55780356001600160401b0381116101a557611bf59036908301611dab565b6040518181809351602081930191611c0c92611e01565b81016000815203602001902091611c2283611e5e565b91611c2f60018501611e5e565b93611c3c60028201611e5e565b92611c4960038301611e5e565b92820154926005830154916006840154906007850154916008860154948560081c60ff1694600988015497600a01611c8090611e5e565b996040519c8d9c8d6101a09081815201611c9991611f04565b8d810360208f0152611caa91611f04565b8c810360408e0152611cbb91611f04565b8b810360608d0152611ccc91611f04565b9760808b015260a08a015260c089015287015260ff8216610100870152611cf281611f29565b61012086015260101c6001600160a01b03166101408501526101608401528281036101808401526101a191611f04565b60c081019081106001600160401b03821117611d3d57604052565b634e487b7160e01b600052604160045260246000fd5b6101a081019081106001600160401b03821117611d3d57604052565b60e081019081106001600160401b03821117611d3d57604052565b90601f801991011681019081106001600160401b03821117611d3d57604052565b81601f820112156101a5578035906001600160401b038211611d3d5760405192611ddf601f8401601f191660200185611d8a565b828452602083830101116101a557816000926020809301838601378301015290565b60005b838110611e145750506000910152565b8181015183820152602001611e04565b90600182811c92168015611e54575b6020831014611e3e57565b634e487b7160e01b600052602260045260246000fd5b91607f1691611e33565b9060405191826000825492611e7284611e24565b908184526001948581169081600014611ee15750600114611e9e575b5050611e9c92500383611d8a565b565b9093915060005260209081600020936000915b818310611ec9575050611e9c93508201013880611e8e565b85548884018501529485019487945091830191611eb1565b915050611e9c94506020925060ff191682840152151560051b8201013880611e8e565b90602091611f1d81518092818552858086019101611e01565b601f01601f1916010190565b60041115611f3357565b634e487b7160e01b600052602160045260246000fd5b602080820190808352835180925260408301928160408460051b8301019501936000915b848310611f7d5750505050505090565b9091929394958480611f9b600193603f198682030187528a51611f04565b9801930193019194939290611f6d565b91909182516001600160401b038111611d3d57611fc88254611e24565b601f8111612072575b50602080601f831160011461200e575081929394600092612003575b50508160011b916000199060031b1c1916179055565b015190503880611fed565b90601f198316958460005282600020926000905b88821061205a57505083600195969710612041575b505050811b019055565b015160001960f88460031b161c19169055388080612037565b80600185968294968601518155019501930190612022565b600083815260208120601f840160051c810192602085106120b0575b601f0160051c01915b8281106120a5575050611fd1565b818155600101612097565b909250829061208e565b60001981146120c95760010190565b634e487b7160e01b600052601160045260246000fd5b6120f790602060405192828480945193849201611e01565b810103902090565b90612117602091949394604084526040840190611f04565b6001600160a01b03909416910152565b1561212e57565b60405162461bcd60e51b815260206004820152601760248201527f427573696e65737320646f6573206e6f742065786973740000000000000000006044820152606490fd5b1561217a57565b60405162461bcd60e51b8152602060048201526016602482015275141c9bd91d58dd08191bd95cc81b9bdd08195e1a5cdd60521b6044820152606490fd5b6000929181546121c781611e24565b9260019180831690811561222057506001146121e4575b50505050565b90919293945060005260209081600020906000915b85831061220f57505050500190388080806121de565b8054858401529183019181016121f9565b60ff19168452505050811515909102019150388080806121de565b1561224257565b60405162461bcd60e51b815260206004820152601760248201527f5472616e73616374696f6e206e6f742070656e64696e670000000000000000006044820152606490fdfea2646970667358221220464d7582ff5f8b81d896ebce1f9f117e4a3fd9f31c7a1ba0382c67c20d6024f064736f6c63430008140033",
  "linkReferences": {},
  "deployedLinkReferences": {}
}