{
  "_format": "hh-sol-artifact-1",
  "contractName": "StockySimple",
  "sourceName": "contracts/StockySimple.sol",
  "abi": [
    {
      "inputs": [],
      "stateMutability": "nonpayable",
      "type": "constructor"
    },
    {
      "anonymous": false,
      "inputs": [
        {
          "indexed": true,
          "internalType": "string",
          "name": "businessId",
          "type": "string"
        },
        {
          "indexed": false,
          "internalType": "string",
          "name": "name",
          "type": "string"
        },
        {
          "indexed": false,
          "internalType": "address",
          "name": "owner",
          "type": "address"
        }
      ],
      "name": "BusinessRegistered",
      "type": "event"
    },
    {
      "anonymous": false,
      "inputs": [
        {
          "indexed": true,
          "internalType": "string",
          "name": "productId",
          "type": "string"
        },
        {
          "indexed": false,
          "internalType": "string",
          "name": "businessId",
          "type": "string"
        },
        {
          "indexed": false,
          "internalType": "address",
          "name": "creator",
          "type": "address"
        }
      ],
      "name": "ProductCreated",
      "type": "event"
    },
    {
      "anonymous": false,
      "inputs": [
        {
          "indexed": true,
          "internalType": "string",
          "name": "productId",
          "type": "string"
        },
        {
          "indexed": false,
          "internalType": "address",
          "name": "buyer",
          "type": "address"
        },
        {
          "indexed": false,
          "internalType": "uint256",
          "name": "price",
          "type": "uint256"
        }
      ],
      "name": "ProductSold",
      "type": "event"
    },
    {
      "inputs": [
        {
          "internalType": "uint256",
          "name": "",
          "type": "uint256"
        }
      ],
      "name": "businessList",
      "outputs": [
        {
          "internalType": "string",
          "name": "",
          "type": "string"
        }
      ],
      "stateMutability": "view",
      "type": "function"
    },
    {
      "inputs": [
        {
          "internalType": "string",
          "name": "",
          "type": "string"
        }
      ],
      "name": "businesses",
      "outputs": [
        {
          "internalType": "string",
          "name": "id",
          "type": "string"
        },
        {
          "internalType": "string",
          "name": "name",
          "type": "string"
        },
        {
          "internalType": "address",
          "name": "owner",
          "type": "address"
        },
        {
          "internalType": "bool",
          "name": "verified",
          "type": "bool"
        },
        {
          "internalType": "uint256",
          "name": "registrationDate",
          "type": "uint256"
        }
      ],
      "stateMutability": "view",
      "type": "function"
    },
    {
      "inputs": [
        {
          "internalType": "string",
          "name": "_productId",
          "type": "string"
        }
      ],
      "name": "buyProduct",
      "outputs": [],
      "stateMutability": "payable",
      "type": "function"
    },
    {
      "inputs": [
        {
          "internalType": "string",
          "name": "_productId",
          "type": "string"
        },
        {
          "internalType": "string",
          "name": "_name",
          "type": "string"
        },
        {
          "internalType": "string",
          "name": "_businessId",
          "type": "string"
        },
        {
          "internalType": "uint256",
          "name": "_price",
          "type": "uint256"
        }
      ],
      "name": "createProduct",
      "outputs": [],
      "stateMutability": "nonpayable",
      "type": "function"
    },
    {
      "inputs": [],
      "name": "getAllBusinesses",
      "outputs": [
        {
          "internalType": "string[]",
          "name": "",
          "type": "string[]"
        }
      ],
      "stateMutability": "view",
      "type": "function"
    },
    {
      "inputs": [],
      "name": "getAllProducts",
      "outputs": [
        {
          "internalType": "string[]",
          "name": "",
          "type": "string[]"
        }
      ],
      "stateMutability": "view",
      "type": "function"
    },
    {
      "inputs": [
        {
          "internalType": "string",
          "name": "_businessId",
          "type": "string"
        }
      ],
      "name": "getBusiness",
      "outputs": [
        {
          "internalType": "string",
          "name": "id",
          "type": "string"
        },
        {
          "internalType": "string",
          "name": "name",
          "type": "string"
        },
        {
          "internalType": "address",
          "name": "owner",
          "type": "address"
        },
        {
          "internalType": "bool",
          "name": "verified",
          "type": "bool"
        },
        {
          "internalType": "uint256",
          "name": "registrationDate",
          "type": "uint256"
        }
      ],
      "stateMutability": "view",
      "type": "function"
    },
    {
      "inputs": [
        {
          "internalType": "string",
          "name": "_productId",
          "type": "string"
        }
      ],
      "name": "getProduct",
      "outputs": [
        {
          "internalType": "string",
          "name": "id",
          "type": "string"
        },
        {
          "internalType": "string",
          "name": "name",
          "type": "string"
        },
        {
          "internalType": "string",
          "name": "businessId",
          "type": "string"
        },
        {
          "internalType": "uint256",
          "name": "price",
          "type": "uint256"
        },
        {
          "internalType": "uint256",
          "name": "timestamp",
          "type": "uint256"
        },
        {
          "internalType": "address",
          "name": "creator",
          "type": "address"
        },
        {
          "internalType": "bool",
          "name": "active",
          "type": "bool"
        }
      ],
      "stateMutability": "view",
      "type": "function"
    },
    {
      "inputs": [],
      "name": "owner",
      "outputs": [
        {
          "internalType": "address",
          "name": "",
          "type": "address"
        }
      ],
      "stateMutability": "view",
      "type": "function"
    },
    {
      "inputs": [
        {
          "internalType": "uint256",
          "name": "",
          "type": "uint256"
        }
      ],
      "name": "productList",
      "outputs": [
        {
          "internalType": "string",
          "name": "",
          "type": "string"
        }
      ],
      "stateMutability": "view",
      "type": "function"
    },
    {
      "inputs": [
        {
          "internalType": "string",
          "name": "",
          "type": "string"
        }
      ],
      "name": "products",
      "outputs": [
        {
          "internalType": "string",
          "name": "id",
          "type": "string"
        },
        {
          "internalType": "string",
          "name": "name",
          "type": "string"
        },
        {
          "internalType": "string",
          "name": "businessId",
          "type": "string"
        },
        {
          "internalType": "uint256",
          "name": "price",
          "type": "uint256"
        },
        {
          "internalType": "uint256",
          "name": "timestamp",
          "type": "uint256"
        },
        {
          "internalType": "address",
          "name": "creator",
          "type": "address"
        },
        {
          "internalType": "bool",
          "name": "active",
          "type": "bool"
        }
      ],
      "stateMutability": "view",
      "type": "function"
    },
    {
      "inputs": [
        {
          "internalType": "string",
          "name": "_businessId",
          "type": "string"
        },
        {
          "internalType": "string",
          "name": "_name",
          "type": "string"
        }
      ],
      "name": "registerBusiness",
      "outputs": [],
      "stateMutability": "nonpayable",
      "type": "function"
    },
    {
      "inputs": [],
      "name": "totalBusinesses",
      "outputs": [
        {
          "internalType": "uint256",
          "name": "",
          "type": "uint256"
        }
      ],
      "stateMutability": "view",
      "type": "function"
    },
    {
      "inputs": [],
      "name": "totalProducts",
      "outputs": [
        {
          "internalType": "uint256",
          "name": "",
          "type": "uint256"
        }
      ],
      "stateMutability": "view",
      "type": "function"
    },
    {
      "inputs": [
        {
          "internalType": "address",
          "name": "",
          "type": "address"
        }
      ],
      "name": "userBusiness",
      "outputs": [
        {
          "internalType": "string",
          "name": "",
          "type": "string"
        }
      ],
      "stateMutability": "view",
      "type": "function"
    },
    {
      "inputs": [
        {
          "internalType": "string",
          "name": "_businessId",
          "type": "string"
        }
      ],
      "name": "verifyBusiness",
      "outputs": [],
      "stateMutability": "nonpayable",
      "type": "function"
    }
  ],
  "bytecode": "0x6080806040523461002857600580546001600160a01b0319163317905561126d908161002e8239f35b600080fdfe60406080815260048036101561001457600080fd5b6000803560e01c80630186a42314610d1f57806302ee3a5214610c775780631b61040d146109bc578063364e022f146107ca578063528c87d2146107795780635d910ec11461055657806360d20431146105375780636757876c1461049057806368111cce146103b657806368c8add8146103065780638be80142146102b15780638da5cb5b14610288578063919a86c81461023457806398c461831461018e5780639b9d326d1461016b5763b45e1c4e146100cf57600080fd5b34610168576020366003190112610168578135906001600160401b038211610168575061010461011692602092369101610e30565b81845193828580945193849201610e8b565b8101600181520301902061016461012c82610ee8565b9261013960018401610ee8565b6002840154600390940154915194859460a081901c60ff16926001600160a01b039091169186611075565b0390f35b80fd5b50823461018a578160031936011261018a576020906006549051908152f35b5080fd5b50346101685780600319360112610168578154906001600160401b03821161022157918351926020906101c6828560051b0186610e0f565b8385529182527f8a35acfbc15ff81a39ae7d344fd709f28e8600b4aa8c65c6b64bfe7fe36bd19b8185015b848410610205578651806101648882611013565b600183819261021385610ee8565b8152019201930192906101f1565b634e487b7160e01b815260418352602490fd5b5091903461028457602036600319011261028457356001600160a01b03811690819003610284578183610271926101649552600260205220610ee8565b9051918291602083526020830190610f8e565b8280fd5b50823461018a578160031936011261018a5760055490516001600160a01b039091168152602090f35b5091903461028457602036600319011261028457803590805482101561030257906102719161016494527f8a35acfbc15ff81a39ae7d344fd709f28e8600b4aa8c65c6b64bfe7fe36bd19b01610ee8565b8380fd5b5091346102845760203660031901126102845781356001600160401b038111610302576103369036908401610e30565b6005549092906001600160a01b031633036103875750602060029281610366935193828580945193849201610e8b565b60019082019081520301902001805460ff60a01b1916600160a01b17905580f35b6020606492519162461bcd60e51b8352820152600a60248201526927b7363c9037bbb732b960b11b6044820152fd5b50346101685760203660031901126101685781356001600160401b03811161018a576020610164926103ee6104019336908701610e30565b9082875194838680955193849201610e8b565b8201908152030190209183519061041782610dc3565b61042084610ee8565b825261042e60018501610ee8565b936020830194855261044260028201610ee8565b91828785015260056003830154918260608701528301549283608087015201549260ff60018060a01b038516948560a088015260a01c161515948560c0820152519651975197889788610fb3565b5034610168576020366003190112610168578135906001600160401b03821161016857506101046104c692602092369101610e30565b810160018152030190209061016481516104df81610df4565b6104e884610ee8565b81526104f660018501610ee8565b938460208301526002810154600360ff60018060a01b03831692838887015260a01c1615159283606086015201549283608082015251945195869586611075565b50823461018a578160031936011261018a576020906007549051908152f35b50823461018a578060031936011261018a576001600160401b038335818111610302576105869036908601610e30565b906024359081116103025761059e9036908601610e30565b90825181516105ca6020928381818701946105ba818388610e8b565b8101600181520301902054610eae565b6107445790600291600386610670868a61063b8a61063161061f8a88519a6105f18c610df4565b878c52818c01948552898c019733895260608d0197885260808d019a428c5251938492839251928391610e8b565b810160018152030190209851896110bb565b51600188016110bb565b90518786018054925160ff60a01b90151560a01b166001600160a01b039092166001600160a81b031990931692909217179055565b5191015533865252610684818486206110bb565b8454600160401b811015610731576001810180875581101561071e579161070b826106f8610718947f683c95e74f23a58ebacad1072881d776869526afd974063423b60e665ae8e952968a8a527f8a35acfbc15ff81a39ae7d344fd709f28e8600b4aa8c65c6b64bfe7fe36bd19b016110bb565b6107036007546111ca565b6007556111ef565b935191829133908361120f565b0390a280f35b634e487b7160e01b855260328652602485fd5b634e487b7160e01b855260418652602485fd5b845162461bcd60e51b8152808801839052600f60248201526e427573696e6573732065786973747360881b6044820152606490fd5b5091903461028457602036600319011261028457356003548110156102845761027190600361016494527fc2575a0e9e593c00f959f8c92f12db2869c3395a3b0502d05e2516446f71f85b01610ee8565b5091602091826003193601126103025780356001600160401b0381116109b8576107f79036908301610e30565b9082518481845161080b8183858901610e8b565b81018881520301902090600582019081549060ff8260a01c16156109805760038401543410610946575060ff60a01b191690558251600290910180548692839290919061085782610eae565b9060019286848216918260001461092d5750506001146108f1575b5050825290819003850190206002015481908190819081906001600160a01b031634156108e7575b3491f1156108dd57906108cd7fd0597de7b4841220d83e82517ef6d92df0c5edab071069f65a89c2c66ca407aa926111ef565b928151903382523490820152a280f35b81513d85823e3d90fd5b6108fc915061089a565b909194809450528683208784915b8383106109185750939491830193508190506002610872565b8054858401528a9550910190889086016108ff565b60ff191686525050508015150282019250806002610872565b855162461bcd60e51b81529081018790526014602482015273125b9cdd59999a58da595b9d081c185e5b595b9d60621b6044820152606490fd5b855162461bcd60e51b8152908101879052601260248201527150726f64756374206e6f742061637469766560701b6044820152606490fd5b8480fd5b50919034610284576080366003190112610284576001600160401b039080358281116109b8576109ef9036908301610e30565b90602435838111610c7357610a079036908301610e30565b92604435908111610c7357610a1f9036908301610e30565b928451908451602090610a358185848a01610e8b565b8301600181526002848360018060a01b03968794030190200154163303610c3b578651610a7e8651918381818a0194610a6f818388610e8b565b81018d81520301902054610eae565b610c0757918893918893845192610a9484610dc3565b888452828401908152858401908a82526060850192606435845260808601944286528b60a088019a338c5260c089019a60018c525180948193518092610ad992610e8b565b8201908152030190209451610aee90866110bb565b51610afc90600186016110bb565b51610b0a90600285016110bb565b51600383015551858201556005019251166bffffffffffffffffffffffff60a01b835416178255511515610b55919081549060ff60a01b90151560a01b169060ff60a01b1916179055565b60035490600160401b821015610bf4576001820180600355821015610be157509161070b82610bce610718947f4478fdb5cca1a28d79052038c209db14519451af9c6bc6e753a2614e5ea43f1a9660038a527fc2575a0e9e593c00f959f8c92f12db2869c3395a3b0502d05e2516446f71f85b016110bb565b610bd96006546111ca565b6006556111ef565b634e487b7160e01b865260329052602485fd5b634e487b7160e01b865260419052602485fd5b875162461bcd60e51b8152808601839052600e60248201526d50726f647563742065786973747360901b6044820152606490fd5b8360649188519162461bcd60e51b8352820152601360248201527227b7363c90313ab9b4b732b9b99037bbb732b960691b6044820152fd5b8580fd5b50903461018a578160031936011261018a57600354906001600160401b038211610d0c57508251916020610cb0818460051b0185610e0f565b828452600382527fc2575a0e9e593c00f959f8c92f12db2869c3395a3b0502d05e2516446f71f85b8185015b848410610cf0578651806101648882611013565b6001838192610cfe85610ee8565b815201920193019290610cdc565b634e487b7160e01b835260419052602482fd5b508290346101685760203660031901126101685782356001600160401b03811161018a57602061016492610d59610d6c9336908801610e30565b9082865194838680955193849201610e8b565b82019081520301902091610d7f83610ee8565b610d8b60018501610ee8565b93610d9860028201610ee8565b956005600383015491830154920154935196879660ff8660a01c169560018060a01b03169488610fb3565b60e081019081106001600160401b03821117610dde57604052565b634e487b7160e01b600052604160045260246000fd5b60a081019081106001600160401b03821117610dde57604052565b90601f801991011681019081106001600160401b03821117610dde57604052565b81601f82011215610e86578035906001600160401b038211610dde5760405192610e64601f8401601f191660200185610e0f565b82845260208383010111610e8657816000926020809301838601378301015290565b600080fd5b60005b838110610e9e5750506000910152565b8181015183820152602001610e8e565b90600182811c92168015610ede575b6020831014610ec857565b634e487b7160e01b600052602260045260246000fd5b91607f1691610ebd565b9060405191826000825492610efc84610eae565b908184526001948581169081600014610f6b5750600114610f28575b5050610f2692500383610e0f565b565b9093915060005260209081600020936000915b818310610f53575050610f2693508201013880610f18565b85548884018501529485019487945091830191610f3b565b915050610f2694506020925060ff191682840152151560051b8201013880610f18565b90602091610fa781518092818552858086019101610e8b565b601f01601f1916010190565b9592610fe360c09693610fd5610ff1949b9a979b60e08b5260e08b0190610f8e565b9089820360208b0152610f8e565b908782036040890152610f8e565b606086019790975260808501526001600160a01b031660a08401521515910152565b602080820190808352835180925260408301928160408460051b8301019501936000915b8483106110475750505050505090565b9091929394958480611065600193603f198682030187528a51610f8e565b9801930193019194939290611037565b916110a0906110926080959897969360a0865260a0860190610f8e565b908482036020860152610f8e565b6001600160a01b039096166040830152151560608201520152565b91909182516001600160401b038111610dde576110d88254610eae565b601f8111611182575b50602080601f831160011461111e575081929394600092611113575b50508160011b916000199060031b1c1916179055565b0151905038806110fd565b90601f198316958460005282600020926000905b88821061116a57505083600195969710611151575b505050811b019055565b015160001960f88460031b161c19169055388080611147565b80600185968294968601518155019501930190611132565b600083815260208120601f840160051c810192602085106111c0575b601f0160051c01915b8281106111b55750506110e1565b8181556001016111a7565b909250829061119e565b60001981146111d95760010190565b634e487b7160e01b600052601160045260246000fd5b61120790602060405192828480945193849201610e8b565b810103902090565b90611227602091949394604084526040840190610f8e565b6001600160a01b0390941691015256fea2646970667358221220383704a846d29fd4cc29f5ece3e25b7293b542b0ba2ad13efb8e454bee86d70164736f6c63430008140033",
  "linkReferences": {},
  "deployedLinkReferences": {}
}