{"abi":[{"type":"constructor","inputs":[],"stateMutability":"nonpayable"},{"type":"function","name":"approve","inputs":[{"name":"to","type":"address","internalType":"address"},{"name":"tokenId","type":"uint256","internalType":"uint256"}],"outputs":[],"stateMutability":"nonpayable"},{"type":"function","name":"authorizedVerifiers","inputs":[{"name":"","type":"address","internalType":"address"}],"outputs":[{"name":"","type":"bool","internalType":"bool"}],"stateMutability":"view"},{"type":"function","name":"automatedCreditMinting","inputs":[{"name":"businessId","type":"string","internalType":"string"},{"name":"productId","type":"string","internalType":"string"},{"name":"foodCategory","type":"string","internalType":"string"},{"name":"weightInGrams","type":"uint256","internalType":"uint256"},{"name":"guardianTransactionId","type":"string","internalType":"string"},{"name":"businessAddress","type":"address","internalType":"address"}],"outputs":[{"name":"","type":"uint256","internalType":"uint256"}],"stateMutability":"nonpayable"},{"type":"function","name":"balanceOf","inputs":[{"name":"owner","type":"address","internalType":"address"}],"outputs":[{"name":"","type":"uint256","internalType":"uint256"}],"stateMutability":"view"},{"type":"function","name":"businessImpacts","inputs":[{"name":"","type":"string","internalType":"string"}],"outputs":[{"name":"totalCO2Saved","type":"uint256","internalType":"uint256"},{"name":"totalWasteReduced","type":"uint256","internalType":"uint256"},{"name":"totalCreditsGenerated","type":"uint256","internalType":"uint256"},{"name":"lastUpdateTimestamp","type":"uint256","internalType":"uint256"}],"stateMutability":"view"},{"type":"function","name":"calculateCO2Savings","inputs":[{"name":"foodCategory","type":"string","internalType":"string"},{"name":"weightInGrams","type":"uint256","internalType":"uint256"}],"outputs":[{"name":"","type":"uint256","internalType":"uint256"}],"stateMutability":"pure"},{"type":"function","name":"carbonCredits","inputs":[{"name":"","type":"uint256","internalType":"uint256"}],"outputs":[{"name":"tokenId","type":"uint256","internalType":"uint256"},{"name":"guardianTransactionId","type":"string","internalType":"string"},{"name":"mrvReportHash","type":"string","internalType":"string"},{"name":"co2Saved","type":"uint256","internalType":"uint256"},{"name":"wasteReduced","type":"uint256","internalType":"uint256"},{"name":"businessId","type":"string","internalType":"string"},{"name":"productId","type":"string","internalType":"string"},{"name":"timestamp","type":"uint256","internalType":"uint256"},{"name":"isVerified","type":"bool","internalType":"bool"},{"name":"verificationStandard","type":"string","internalType":"string"}],"stateMutability":"view"},{"type":"function","name":"completeGuardianVerification","inputs":[{"name":"tokenId","type":"uint256","internalType":"uint256"},{"name":"mrvReportHash","type":"string","internalType":"string"},{"name":"verified","type":"bool","internalType":"bool"}],"outputs":[],"stateMutability":"nonpayable"},{"type":"function","name":"getApproved","inputs":[{"name":"tokenId","type":"uint256","internalType":"uint256"}],"outputs":[{"name":"","type":"address","internalType":"address"}],"stateMutability":"view"},{"type":"function","name":"getBusinessImpact","inputs":[{"name":"businessId","type":"string","internalType":"string"}],"outputs":[{"name":"","type":"tuple","internalType":"struct StockyCarbonCredits.BusinessImpact","components":[{"name":"totalCO2Saved","type":"uint256","internalType":"uint256"},{"name":"totalWasteReduced","type":"uint256","internalType":"uint256"},{"name":"totalCreditsGenerated","type":"uint256","internalType":"uint256"},{"name":"lastUpdateTimestamp","type":"uint256","internalType":"uint256"}]}],"stateMutability":"view"},{"type":"function","name":"getCarbonCredit","inputs":[{"name":"tokenId","type":"uint256","internalType":"uint256"}],"outputs":[{"name":"","type":"tuple","internalType":"struct StockyCarbonCredits.CarbonCredit","components":[{"name":"tokenId","type":"uint256","internalType":"uint256"},{"name":"guardianTransactionId","type":"string","internalType":"string"},{"name":"mrvReportHash","type":"string","internalType":"string"},{"name":"co2Saved","type":"uint256","internalType":"uint256"},{"name":"wasteReduced","type":"uint256","internalType":"uint256"},{"name":"businessId","type":"string","internalType":"string"},{"name":"productId","type":"string","internalType":"string"},{"name":"timestamp","type":"uint256","internalType":"uint256"},{"name":"isVerified","type":"bool","internalType":"bool"},{"name":"verificationStandard","type":"string","internalType":"string"}]}],"stateMutability":"view"},{"type":"function","name":"getPlatformImpact","inputs":[],"outputs":[{"name":"totalCO2Saved","type":"uint256","internalType":"uint256"},{"name":"totalWasteReduced","type":"uint256","internalType":"uint256"},{"name":"totalCredits","type":"uint256","internalType":"uint256"},{"name":"totalBusinesses","type":"uint256","internalType":"uint256"}],"stateMutability":"view"},{"type":"function","name":"guardianPolicies","inputs":[{"name":"","type":"string","internalType":"string"}],"outputs":[{"name":"policyId","type":"string","internalType":"string"},{"name":"schemaId","type":"string","internalType":"string"},{"name":"verifier","type":"address","internalType":"address"},{"name":"isActive","type":"bool","internalType":"bool"}],"stateMutability":"view"},{"type":"function","name":"isApprovedForAll","inputs":[{"name":"owner","type":"address","internalType":"address"},{"name":"operator","type":"address","internalType":"address"}],"outputs":[{"name":"","type":"bool","internalType":"bool"}],"stateMutability":"view"},{"type":"function","name":"name","inputs":[],"outputs":[{"name":"","type":"string","internalType":"string"}],"stateMutability":"view"},{"type":"function","name":"owner","inputs":[],"outputs":[{"name":"","type":"address","internalType":"address"}],"stateMutability":"view"},{"type":"function","name":"ownerOf","inputs":[{"name":"tokenId","type":"uint256","internalType":"uint256"}],"outputs":[{"name":"","type":"address","internalType":"address"}],"stateMutability":"view"},{"type":"function","name":"registerGuardianPolicy","inputs":[{"name":"policyId","type":"string","internalType":"string"},{"name":"schemaId","type":"string","internalType":"string"},{"name":"verifier","type":"address","internalType":"address"}],"outputs":[],"stateMutability":"nonpayable"},{"type":"function","name":"renounceOwnership","inputs":[],"outputs":[],"stateMutability":"nonpayable"},{"type":"function","name":"safeTransferFrom","inputs":[{"name":"from","type":"address","internalType":"address"},{"name":"to","type":"address","internalType":"address"},{"name":"tokenId","type":"uint256","internalType":"uint256"}],"outputs":[],"stateMutability":"nonpayable"},{"type":"function","name":"safeTransferFrom","inputs":[{"name":"from","type":"address","internalType":"address"},{"name":"to","type":"address","internalType":"address"},{"name":"tokenId","type":"uint256","internalType":"uint256"},{"name":"data","type":"bytes","internalType":"bytes"}],"outputs":[],"stateMutability":"nonpayable"},{"type":"function","name":"setApprovalForAll","inputs":[{"name":"operator","type":"address","internalType":"address"},{"name":"approved","type":"bool","internalType":"bool"}],"outputs":[],"stateMutability":"nonpayable"},{"type":"function","name":"supportsInterface","inputs":[{"name":"interfaceId","type":"bytes4","internalType":"bytes4"}],"outputs":[{"name":"","type":"bool","internalType":"bool"}],"stateMutability":"view"},{"type":"function","name":"symbol","inputs":[],"outputs":[{"name":"","type":"string","internalType":"string"}],"stateMutability":"view"},{"type":"function","name":"tokenURI","inputs":[{"name":"tokenId","type":"uint256","internalType":"uint256"}],"outputs":[{"name":"","type":"string","internalType":"string"}],"stateMutability":"view"},{"type":"function","name":"transferFrom","inputs":[{"name":"from","type":"address","internalType":"address"},{"name":"to","type":"address","internalType":"address"},{"name":"tokenId","type":"uint256","internalType":"uint256"}],"outputs":[],"stateMutability":"nonpayable"},{"type":"function","name":"transferOwnership","inputs":[{"name":"newOwner","type":"address","internalType":"address"}],"outputs":[],"stateMutability":"nonpayable"},{"type":"event","name":"Approval","inputs":[{"name":"owner","type":"address","indexed":true,"internalType":"address"},{"name":"approved","type":"address","indexed":true,"internalType":"address"},{"name":"tokenId","type":"uint256","indexed":true,"internalType":"uint256"}],"anonymous":false},{"type":"event","name":"ApprovalForAll","inputs":[{"name":"owner","type":"address","indexed":true,"internalType":"address"},{"name":"operator","type":"address","indexed":true,"internalType":"address"},{"name":"approved","type":"bool","indexed":false,"internalType":"bool"}],"anonymous":false},{"type":"event","name":"BusinessImpactUpdated","inputs":[{"name":"businessId","type":"string","indexed":false,"internalType":"string"},{"name":"totalCO2Saved","type":"uint256","indexed":false,"internalType":"uint256"},{"name":"totalCreditsGenerated","type":"uint256","indexed":false,"internalType":"uint256"}],"anonymous":false},{"type":"event","name":"CarbonCreditMinted","inputs":[{"name":"tokenId","type":"uint256","indexed":true,"internalType":"uint256"},{"name":"businessId","type":"string","indexed":false,"internalType":"string"},{"name":"co2Saved","type":"uint256","indexed":false,"internalType":"uint256"},{"name":"guardianTransactionId","type":"string","indexed":false,"internalType":"string"}],"anonymous":false},{"type":"event","name":"GuardianVerificationCompleted","inputs":[{"name":"tokenId","type":"uint256","indexed":true,"internalType":"uint256"},{"name":"mrvReportHash","type":"string","indexed":false,"internalType":"string"},{"name":"verified","type":"bool","indexed":false,"internalType":"bool"}],"anonymous":false},{"type":"event","name":"OwnershipTransferred","inputs":[{"name":"previousOwner","type":"address","indexed":true,"internalType":"address"},{"name":"newOwner","type":"address","indexed":true,"internalType":"address"}],"anonymous":false},{"type":"event","name":"PolicyRegistered","inputs":[{"name":"policyId","type":"string","indexed":false,"internalType":"string"},{"name":"schemaId","type":"string","indexed":false,"internalType":"string"},{"name":"verifier","type":"address","indexed":false,"internalType":"address"}],"anonymous":false},{"type":"event","name":"Transfer","inputs":[{"name":"from","type":"address","indexed":true,"internalType":"address"},{"name":"to","type":"address","indexed":true,"internalType":"address"},{"name":"tokenId","type":"uint256","indexed":true,"internalType":"uint256"}],"anonymous":false},{"type":"error","name":"ERC721IncorrectOwner","inputs":[{"name":"sender","type":"address","internalType":"address"},{"name":"tokenId","type":"uint256","internalType":"uint256"},{"name":"owner","type":"address","internalType":"address"}]},{"type":"error","name":"ERC721InsufficientApproval","inputs":[{"name":"operator","type":"address","internalType":"address"},{"name":"tokenId","type":"uint256","internalType":"uint256"}]},{"type":"error","name":"ERC721InvalidApprover","inputs":[{"name":"approver","type":"address","internalType":"address"}]},{"type":"error","name":"ERC721InvalidOperator","inputs":[{"name":"operator","type":"address","internalType":"address"}]},{"type":"error","name":"ERC721InvalidOwner","inputs":[{"name":"owner","type":"address","internalType":"address"}]},{"type":"error","name":"ERC721InvalidReceiver","inputs":[{"name":"receiver","type":"address","internalType":"address"}]},{"type":"error","name":"ERC721InvalidSender","inputs":[{"name":"sender","type":"address","internalType":"address"}]},{"type":"error","name":"ERC721NonexistentToken","inputs":[{"name":"tokenId","type":"uint256","internalType":"uint256"}]},{"type":"error","name":"OwnableInvalidOwner","inputs":[{"name":"owner","type":"address","internalType":"address"}]},{"type":"error","name":"OwnableUnauthorizedAccount","inputs":[{"name":"account","type":"address","internalType":"address"}]}],"bytecode":{"object":"0x608060405234801562000010575f80fd5b50336040518060400160405280601581526020017f53746f636b7920436172626f6e204372656469747300000000000000000000008152506040518060400160405280600381526020016253434360e81b815250815f9081620000749190620001b7565b506001620000838282620001b7565b5050506001600160a01b038116620000b457604051631e4fbdf760e01b81525f600482015260240160405180910390fd5b620000bf81620000c6565b506200027f565b600680546001600160a01b038381166001600160a01b0319831681179093556040519116919082907f8be0079c531659141344cd1fd0a4f28419497f9722a3daafe3b4186f6b6457e0905f90a35050565b634e487b7160e01b5f52604160045260245ffd5b600181811c908216806200014057607f821691505b6020821081036200015f57634e487b7160e01b5f52602260045260245ffd5b50919050565b601f821115620001b2575f81815260208120601f850160051c810160208610156200018d5750805b601f850160051c820191505b81811015620001ae5782815560010162000199565b5050505b505050565b81516001600160401b03811115620001d357620001d362000117565b620001eb81620001e484546200012b565b8462000165565b602080601f83116001811462000221575f8415620002095750858301515b5f19600386901b1c1916600185901b178555620001ae565b5f85815260208120601f198616915b82811015620002515788860151825594840194600190910190840162000230565b50858210156200026f57878501515f19600388901b60f8161c191681555b5050505050600190811b01905550565b612bc0806200028d5f395ff3fe608060405234801561000f575f80fd5b50600436106101a1575f3560e01c806388ab5b81116100f3578063c28ca94f11610093578063d81fa9a11161006e578063d81fa9a11461042b578063e985e9c51461043e578063f2fde38b14610451578063f392243b14610464575f80fd5b8063c28ca94f146103c5578063c87b56dd14610405578063cffa321214610418575f80fd5b80639859392c116100ce5780639859392c1461035a5780639a8917161461037d578063a22cb4651461039f578063b88d4fde146103b2575f80fd5b806388ab5b81146103195780638da5cb5b1461034157806395d89b4114610352575f80fd5b806323b872dd1161015e5780635a7dd27c116101395780635a7dd27c146102c25780636352211e146102eb57806370a08231146102fe578063715018a614610311575f80fd5b806323b872dd1461027b57806342842e0e1461028e57806344815aed146102a1575f80fd5b806301ffc9a7146101a5578063060ada2a146101cd57806306fdde03146101e2578063081812fc146101f7578063095ea7b314610222578063192ad84f14610235575b5f80fd5b6101b86101b336600461219b565b610484565b60405190151581526020015b60405180910390f35b6101e06101db36600461227d565b6104d5565b005b6101ea6105db565b6040516101c49190612339565b61020a61020536600461234b565b61066a565b6040516001600160a01b0390911681526020016101c4565b6101e0610230366004612362565b610691565b61024861024336600461238a565b6106a0565b6040516101c491908151815260208083015190820152604080830151908201526060918201519181019190915260800190565b6101e06102893660046123bc565b61071e565b6101e061029c3660046123bc565b6107ac565b6102b46102af3660046123f5565b6107cb565b6040519081526020016101c4565b6102d56102d036600461234b565b610993565b6040516101c49a99989796959493929190612437565b61020a6102f936600461234b565b610c85565b6102b461030c3660046124cd565b610c8f565b6101e0610cd4565b610321610ce7565b6040805194855260208501939093529183015260608201526080016101c4565b6006546001600160a01b031661020a565b6101ea610d88565b61036d61036836600461238a565b610d97565b6040516101c494939291906124e6565b6101b861038b3660046124cd565b600b6020525f908152604090205460ff1681565b6101e06103ad36600461253b565b610ee6565b6101e06103c036600461256c565b610ef1565b6103216103d336600461238a565b805160208183018101805160098252928201919093012091528054600182015460028301546003909301549192909184565b6101ea61041336600461234b565b610f09565b6102b46104263660046125e3565b6112dc565b6101e06104393660046126a1565b61130c565b6101b861044c3660046126eb565b6113f5565b6101e061045f3660046124cd565b611422565b61047761047236600461234b565b61145f565b6040516101c49190612713565b5f6001600160e01b031982166380ac58cd60e01b14806104b457506001600160e01b03198216635b5e139f60e01b145b806104cf57506301ffc9a760e01b6001600160e01b03198316145b92915050565b6104dd611805565b60408051608081018252848152602081018490526001600160a01b03831681830152600160608201529051600a906105169086906127f1565b908152604051908190036020019020815181906105339082612889565b50602082015160018201906105489082612889565b50604082810151600290920180546060909401511515600160a01b026001600160a81b03199094166001600160a01b03938416179390931790925582165f908152600b602052819020805460ff19166001179055517f3c4d0f22bb157bca760ca2d69ddb2ec9fb1de084613b9ef18f1e9c5b4f27ab96906105ce90859085908590612945565b60405180910390a1505050565b60605f80546105e99061280c565b80601f01602080910402602001604051908101604052809291908181526020018280546106159061280c565b80156106605780601f1061063757610100808354040283529160200191610660565b820191905f5260205f20905b81548152906001019060200180831161064357829003601f168201915b5050505050905090565b5f61067482611832565b505f828152600460205260409020546001600160a01b03166104cf565b61069c82823361186a565b5050565b6106c760405180608001604052805f81526020015f81526020015f81526020015f81525090565b6009826040516106d791906127f1565b90815260200160405180910390206040518060800160405290815f820154815260200160018201548152602001600282015481526020016003820154815250509050919050565b6001600160a01b03821661074c57604051633250574960e11b81525f60048201526024015b60405180910390fd5b5f610758838333611877565b9050836001600160a01b0316816001600160a01b0316146107a6576040516364283d7b60e01b81526001600160a01b0380861660048301526024820184905282166044820152606401610743565b50505050565b6107c683838360405180602001604052805f815250610ef1565b505050565b60408051808201909152600681526546727569747360d01b6020918201528251908301205f9081907fd8e2e5ce888198db727cb318f056979ef56b3c50331846967632faf550b38c6b01610822575061044c610974565b60408051808201909152600a815269566567657461626c657360b01b6020918201528451908501207f0f371a6fdb8d07b5409a246638d398a52c816f4b9d0c694f56f4a417754552c7016108795750610384610974565b604080518082019091526005815264446169727960d81b6020918201528451908501207f8323cb06b4b2985c7e5080831ef18350c700a56003c00e9c1f3c039bb6828c3b016108cb5750610c80610974565b6040805180820190915260048152631359585d60e21b6020918201528451908501207fe8ce709191ba045cb6492628f0120f7e96a0d86efea36013da2b2fc1e4ed1f010161091c5750612134610974565b60408051808201909152600681526542616b65727960d01b6020918201528451908501207fa4fbcfa09de51b2ed01bd6b0ba35ee6c375cc539e178a211c7598cf0a4a2d99f0161096f57506105dc610974565b506105dc5b6103e86109818285612996565b61098b91906129ad565b949350505050565b60086020525f9081526040902080546001820180549192916109b49061280c565b80601f01602080910402602001604051908101604052809291908181526020018280546109e09061280c565b8015610a2b5780601f10610a0257610100808354040283529160200191610a2b565b820191905f5260205f20905b815481529060010190602001808311610a0e57829003601f168201915b505050505090806002018054610a409061280c565b80601f0160208091040260200160405190810160405280929190818152602001828054610a6c9061280c565b8015610ab75780601f10610a8e57610100808354040283529160200191610ab7565b820191905f5260205f20905b815481529060010190602001808311610a9a57829003601f168201915b505050505090806003015490806004015490806005018054610ad89061280c565b80601f0160208091040260200160405190810160405280929190818152602001828054610b049061280c565b8015610b4f5780601f10610b2657610100808354040283529160200191610b4f565b820191905f5260205f20905b815481529060010190602001808311610b3257829003601f168201915b505050505090806006018054610b649061280c565b80601f0160208091040260200160405190810160405280929190818152602001828054610b909061280c565b8015610bdb5780601f10610bb257610100808354040283529160200191610bdb565b820191905f5260205f20905b815481529060010190602001808311610bbe57829003601f168201915b50505050600783015460088401546009850180549495929460ff909216935090610c049061280c565b80601f0160208091040260200160405190810160405280929190818152602001828054610c309061280c565b8015610c7b5780601f10610c5257610100808354040283529160200191610c7b565b820191905f5260205f20905b815481529060010190602001808311610c5e57829003601f168201915b505050505090508a565b5f6104cf82611832565b5f6001600160a01b038216610cb9576040516322718ad960e21b81525f6004820152602401610743565b506001600160a01b03165f9081526003602052604090205490565b610cdc611805565b610ce55f611969565b565b5f805f80610cf460075490565b91505f5b82811015610d5c57610d09816119ba565b15610d4a575f81815260086020526040902060030154610d2990866129cc565b5f82815260086020526040902060040154909550610d4790856129cc565b93505b80610d54816129df565b915050610cf8565b505f8211610d6a575f610d80565b610d756005836129ad565b610d809060016129cc565b905090919293565b6060600180546105e99061280c565b8051602081830181018051600a82529282019190930120915280548190610dbd9061280c565b80601f0160208091040260200160405190810160405280929190818152602001828054610de99061280c565b8015610e345780601f10610e0b57610100808354040283529160200191610e34565b820191905f5260205f20905b815481529060010190602001808311610e1757829003601f168201915b505050505090806001018054610e499061280c565b80601f0160208091040260200160405190810160405280929190818152602001828054610e759061280c565b8015610ec05780601f10610e9757610100808354040283529160200191610ec0565b820191905f5260205f20905b815481529060010190602001808311610ea357829003601f168201915b505050600290930154919250506001600160a01b0381169060ff600160a01b9091041684565b61069c3383836119cc565b610efc84848461071e565b6107a63385858585611a6a565b6060610f14826119ba565b610f305760405162461bcd60e51b8152600401610743906129f7565b5f60085f8481526020019081526020015f20604051806101400160405290815f8201548152602001600182018054610f679061280c565b80601f0160208091040260200160405190810160405280929190818152602001828054610f939061280c565b8015610fde5780601f10610fb557610100808354040283529160200191610fde565b820191905f5260205f20905b815481529060010190602001808311610fc157829003601f168201915b50505050508152602001600282018054610ff79061280c565b80601f01602080910402602001604051908101604052809291908181526020018280546110239061280c565b801561106e5780601f106110455761010080835404028352916020019161106e565b820191905f5260205f20905b81548152906001019060200180831161105157829003601f168201915b50505050508152602001600382015481526020016004820154815260200160058201805461109b9061280c565b80601f01602080910402602001604051908101604052809291908181526020018280546110c79061280c565b80156111125780601f106110e957610100808354040283529160200191611112565b820191905f5260205f20905b8154815290600101906020018083116110f557829003601f168201915b5050505050815260200160068201805461112b9061280c565b80601f01602080910402602001604051908101604052809291908181526020018280546111579061280c565b80156111a25780601f10611179576101008083540402835291602001916111a2565b820191905f5260205f20905b81548152906001019060200180831161118557829003601f168201915b505050918352505060078201546020820152600882015460ff16151560408201526009820180546060909201916111d89061280c565b80601f01602080910402602001604051908101604052809291908181526020018280546112049061280c565b801561124f5780601f106112265761010080835404028352916020019161124f565b820191905f5260205f20905b81548152906001019060200180831161123257829003601f168201915b505050505081525050905061126383611b92565b8160200151826101000151611295576040518060400160405280600581526020016466616c736560d81b8152506112b3565b604051806040016040528060048152602001637472756560e01b8152505b6040516020016112c593929190612a25565b604051602081830303815290604052915050919050565b5f6112e5611805565b5f6112f086866107cb565b9050611300888883888888611c22565b98975050505050505050565b335f908152600b602052604090205460ff166113625760405162461bcd60e51b81526020600482015260156024820152742ab730baba3437b934bd32b2103b32b934b334b2b960591b6044820152606401610743565b61136b836119ba565b6113875760405162461bcd60e51b8152600401610743906129f7565b5f838152600860205260409020600281016113a28482612889565b5060088101805460ff191683151517905560405184907f9ca2e430cb59b97c3cdfe637b89ead245cbed81a3544b925f20e2dd8a5fede24906113e79086908690612acc565b60405180910390a250505050565b6001600160a01b039182165f90815260056020908152604080832093909416825291909152205460ff1690565b61142a611805565b6001600160a01b03811661145357604051631e4fbdf760e01b81525f6004820152602401610743565b61145c81611969565b50565b6114b26040518061014001604052805f815260200160608152602001606081526020015f81526020015f815260200160608152602001606081526020015f81526020015f15158152602001606081525090565b6114bb826119ba565b6114d75760405162461bcd60e51b8152600401610743906129f7565b60085f8381526020019081526020015f20604051806101400160405290815f820154815260200160018201805461150d9061280c565b80601f01602080910402602001604051908101604052809291908181526020018280546115399061280c565b80156115845780601f1061155b57610100808354040283529160200191611584565b820191905f5260205f20905b81548152906001019060200180831161156757829003601f168201915b5050505050815260200160028201805461159d9061280c565b80601f01602080910402602001604051908101604052809291908181526020018280546115c99061280c565b80156116145780601f106115eb57610100808354040283529160200191611614565b820191905f5260205f20905b8154815290600101906020018083116115f757829003601f168201915b5050505050815260200160038201548152602001600482015481526020016005820180546116419061280c565b80601f016020809104026020016040519081016040528092919081815260200182805461166d9061280c565b80156116b85780601f1061168f576101008083540402835291602001916116b8565b820191905f5260205f20905b81548152906001019060200180831161169b57829003601f168201915b505050505081526020016006820180546116d19061280c565b80601f01602080910402602001604051908101604052809291908181526020018280546116fd9061280c565b80156117485780601f1061171f57610100808354040283529160200191611748565b820191905f5260205f20905b81548152906001019060200180831161172b57829003601f168201915b505050918352505060078201546020820152600882015460ff161515604082015260098201805460609092019161177e9061280c565b80601f01602080910402602001604051908101604052809291908181526020018280546117aa9061280c565b80156117f55780601f106117cc576101008083540402835291602001916117f5565b820191905f5260205f20905b8154815290600101906020018083116117d857829003601f168201915b5050505050815250509050919050565b6006546001600160a01b03163314610ce55760405163118cdaa760e01b8152336004820152602401610743565b5f818152600260205260408120546001600160a01b0316806104cf57604051637e27328960e01b815260048101849052602401610743565b6107c68383836001611d25565b5f828152600260205260408120546001600160a01b03908116908316156118a3576118a3818486611e29565b6001600160a01b038116156118dd576118be5f855f80611d25565b6001600160a01b0381165f90815260036020526040902080545f190190555b6001600160a01b0385161561190b576001600160a01b0385165f908152600360205260409020805460010190555b5f8481526002602052604080822080546001600160a01b0319166001600160a01b0389811691821790925591518793918516917fddf252ad1be2c89b69c2b068fc378daa952ba7f163c4a11628f55a4df523b3ef91a4949350505050565b600680546001600160a01b038381166001600160a01b0319831681179093556040519116919082907f8be0079c531659141344cd1fd0a4f28419497f9722a3daafe3b4186f6b6457e0905f90a35050565b5f6119c460075490565b909110919050565b6001600160a01b0382166119fe57604051630b61174360e31b81526001600160a01b0383166004820152602401610743565b6001600160a01b038381165f81815260056020908152604080832094871680845294825291829020805460ff191686151590811790915591519182527f17307eab39ab6107e8899845ad3d59bd9653f200f220920489ca2b5937696c31910160405180910390a3505050565b6001600160a01b0383163b15611b8b57604051630a85bd0160e11b81526001600160a01b0384169063150b7a0290611aac908890889087908790600401612aef565b6020604051808303815f875af1925050508015611ae6575060408051601f3d908101601f19168201909252611ae391810190612b21565b60015b611b4d573d808015611b13576040519150601f19603f3d011682016040523d82523d5f602084013e611b18565b606091505b5080515f03611b4557604051633250574960e11b81526001600160a01b0385166004820152602401610743565b805160208201fd5b6001600160e01b03198116630a85bd0160e11b14611b8957604051633250574960e11b81526001600160a01b0385166004820152602401610743565b505b5050505050565b60605f611b9e83611e8d565b60010190505f8167ffffffffffffffff811115611bbd57611bbd6121bd565b6040519080825280601f01601f191660200182016040528015611be7576020820181803683370190505b5090508181016020015b5f19016f181899199a1a9b1b9c1cb0b131b232b360811b600a86061a8153600a8504945084611bf157509392505050565b5f611c2b611805565b5f611c3560075490565b9050611c45600780546001019055565b611c53818989898989611f64565b611c5e88878761201b565b611c688382612094565b807ecc02230299182ad93358aee371f052b1d02f70e2a49b90ed9139780ce06943898887604051611c9b93929190612b3c565b60405180910390a27fc8583e8d3e024bfd02631ea192873da16d458827a5c75b7b18fd2fd6f11217108860098a604051611cd591906127f1565b9081526040519081900360200181205490600990611cf4908d906127f1565b90815260405190819003602001812060020154611d12939291612b66565b60405180910390a1979650505050505050565b8080611d3957506001600160a01b03821615155b15611dfa575f611d4884611832565b90506001600160a01b03831615801590611d745750826001600160a01b0316816001600160a01b031614155b8015611d875750611d8581846113f5565b155b15611db05760405163a9fbf51f60e01b81526001600160a01b0384166004820152602401610743565b8115611df85783856001600160a01b0316826001600160a01b03167f8c5be1e5ebec7d5bd14f71427d1e84f3dd0314c0f7b2291e5b200ac8c7c3b92560405160405180910390a45b505b50505f90815260046020526040902080546001600160a01b0319166001600160a01b0392909216919091179055565b611e348383836120ad565b6107c6576001600160a01b038316611e6257604051637e27328960e01b815260048101829052602401610743565b60405163177e802f60e01b81526001600160a01b038316600482015260248101829052604401610743565b5f8072184f03e93ff9f4daa797ed6e38ed64bf6a1f0160401b8310611ecb5772184f03e93ff9f4daa797ed6e38ed64bf6a1f0160401b830492506040015b6d04ee2d6d415b85acef81000000008310611ef7576d04ee2d6d415b85acef8100000000830492506020015b662386f26fc100008310611f1557662386f26fc10000830492506010015b6305f5e1008310611f2d576305f5e100830492506008015b6127108310611f4157612710830492506004015b60648310611f53576064830492506002015b600a83106104cf5760010192915050565b5f86815260086020526040902086815560018101611f828382612889565b5060408051602081019091525f81526002820190611fa09082612889565b50600381018490556004810183905560058101611fbd8782612889565b5060068101611fcc8682612889565b5042600782015560088101805460ff1916905560408051808201909152600c81526b477561726469616e2d56435360a01b602082015260098201906120119082612889565b5050505050505050565b5f60098460405161202c91906127f1565b9081526020016040518091039020905082815f015f82825461204e91906129cc565b9250508190555081816001015f82825461206891906129cc565b925050819055506001816002015f82825461208391906129cc565b909155505042600390910155505050565b61069c828260405180602001604052805f81525061210e565b5f6001600160a01b0383161580159061098b5750826001600160a01b0316846001600160a01b031614806120e657506120e684846113f5565b8061098b5750505f908152600460205260409020546001600160a01b03918216911614919050565b6121188383612125565b6107c6335f858585611a6a565b6001600160a01b03821661214e57604051633250574960e11b81525f6004820152602401610743565b5f61215a83835f611877565b90506001600160a01b038116156107c6576040516339e3563760e11b81525f6004820152602401610743565b6001600160e01b03198116811461145c575f80fd5b5f602082840312156121ab575f80fd5b81356121b681612186565b9392505050565b634e487b7160e01b5f52604160045260245ffd5b5f67ffffffffffffffff808411156121eb576121eb6121bd565b604051601f8501601f19908116603f01168101908282118183101715612213576122136121bd565b8160405280935085815286868601111561222b575f80fd5b858560208301375f602087830101525050509392505050565b5f82601f830112612253575f80fd5b6121b6838335602085016121d1565b80356001600160a01b0381168114612278575f80fd5b919050565b5f805f6060848603121561228f575f80fd5b833567ffffffffffffffff808211156122a6575f80fd5b6122b287838801612244565b945060208601359150808211156122c7575f80fd5b506122d486828701612244565b9250506122e360408501612262565b90509250925092565b5f5b838110156123065781810151838201526020016122ee565b50505f910152565b5f81518084526123258160208601602086016122ec565b601f01601f19169290920160200192915050565b602081525f6121b6602083018461230e565b5f6020828403121561235b575f80fd5b5035919050565b5f8060408385031215612373575f80fd5b61237c83612262565b946020939093013593505050565b5f6020828403121561239a575f80fd5b813567ffffffffffffffff8111156123b0575f80fd5b61098b84828501612244565b5f805f606084860312156123ce575f80fd5b6123d784612262565b92506123e560208501612262565b9150604084013590509250925092565b5f8060408385031215612406575f80fd5b823567ffffffffffffffff81111561241c575f80fd5b61242885828601612244565b95602094909401359450505050565b5f6101408c83528060208401526124508184018d61230e565b90508281036040840152612464818c61230e565b905089606084015288608084015282810360a0840152612484818961230e565b905082810360c0840152612498818861230e565b90508560e08401528415156101008401528281036101208401526124bc818561230e565b9d9c50505050505050505050505050565b5f602082840312156124dd575f80fd5b6121b682612262565b608081525f6124f8608083018761230e565b828103602084015261250a818761230e565b6001600160a01b03959095166040840152505090151560609091015292915050565b80358015158114612278575f80fd5b5f806040838503121561254c575f80fd5b61255583612262565b91506125636020840161252c565b90509250929050565b5f805f806080858703121561257f575f80fd5b61258885612262565b935061259660208601612262565b925060408501359150606085013567ffffffffffffffff8111156125b8575f80fd5b8501601f810187136125c8575f80fd5b6125d7878235602084016121d1565b91505092959194509250565b5f805f805f8060c087890312156125f8575f80fd5b863567ffffffffffffffff8082111561260f575f80fd5b61261b8a838b01612244565b97506020890135915080821115612630575f80fd5b61263c8a838b01612244565b96506040890135915080821115612651575f80fd5b61265d8a838b01612244565b9550606089013594506080890135915080821115612679575f80fd5b5061268689828a01612244565b92505061269560a08801612262565b90509295509295509295565b5f805f606084860312156126b3575f80fd5b83359250602084013567ffffffffffffffff8111156126d0575f80fd5b6126dc86828701612244565b9250506122e36040850161252c565b5f80604083850312156126fc575f80fd5b61270583612262565b915061256360208401612262565b60208152815160208201525f602083015161014080604085015261273b61016085018361230e565b91506040850151601f1980868503016060870152612759848361230e565b935060608701516080870152608087015160a087015260a08701519150808685030160c087015261278a848361230e565b935060c08701519150808685030160e08701526127a7848361230e565b60e08801516101008881019190915288015190945091506101206127ce8188018415159052565b8701518685039091018387015290506127e7838261230e565b9695505050505050565b5f82516128028184602087016122ec565b9190910192915050565b600181811c9082168061282057607f821691505b60208210810361283e57634e487b7160e01b5f52602260045260245ffd5b50919050565b601f8211156107c6575f81815260208120601f850160051c8101602086101561286a5750805b601f850160051c820191505b81811015611b8957828155600101612876565b815167ffffffffffffffff8111156128a3576128a36121bd565b6128b7816128b1845461280c565b84612844565b602080601f8311600181146128ea575f84156128d35750858301515b5f19600386901b1c1916600185901b178555611b89565b5f85815260208120601f198616915b82811015612918578886015182559484019460019091019084016128f9565b508582101561293557878501515f19600388901b60f8161c191681555b5050505050600190811b01905550565b606081525f612957606083018661230e565b8281036020840152612969818661230e565b91505060018060a01b0383166040830152949350505050565b634e487b7160e01b5f52601160045260245ffd5b80820281158282048414176104cf576104cf612982565b5f826129c757634e487b7160e01b5f52601260045260245ffd5b500490565b808201808211156104cf576104cf612982565b5f600182016129f0576129f0612982565b5060010190565b602080825260149082015273151bdad95b88191bd95cc81b9bdd08195e1a5cdd60621b604082015260600190565b7f68747470733a2f2f73746f636b792e6170702f6170692f636172626f6e2d6372815264656469742f60d81b60208201525f8451612a6a8160258501602089016122ec565b693f677561726469616e3d60b01b6025918401918201528451612a9481602f8401602089016122ec565b692676657269666965643d60b01b602f92909101918201528351612abf8160398401602088016122ec565b0160390195945050505050565b604081525f612ade604083018561230e565b905082151560208301529392505050565b6001600160a01b03858116825284166020820152604081018390526080606082018190525f906127e79083018461230e565b5f60208284031215612b31575f80fd5b81516121b681612186565b606081525f612b4e606083018661230e565b84602084015282810360408401526127e7818561230e565b606081525f612b78606083018661230e565b6020830194909452506040015291905056fea2646970667358221220087f728e6ed780578f4e1090b95017f5375fb5832f311a91d37d3826d6a4408e64736f6c63430008140033","linkReferences":{}},"methodIdentifiers":{"approve(address,uint256)":"095ea7b3","authorizedVerifiers(address)":"9a891716","automatedCreditMinting(string,string,string,uint256,string,address)":"cffa3212","balanceOf(address)":"70a08231","businessImpacts(string)":"c28ca94f","calculateCO2Savings(string,uint256)":"44815aed","carbonCredits(uint256)":"5a7dd27c","completeGuardianVerification(uint256,string,bool)":"d81fa9a1","getApproved(uint256)":"081812fc","getBusinessImpact(string)":"192ad84f","getCarbonCredit(uint256)":"f392243b","getPlatformImpact()":"88ab5b81","guardianPolicies(string)":"9859392c","isApprovedForAll(address,address)":"e985e9c5","name()":"06fdde03","owner()":"8da5cb5b","ownerOf(uint256)":"6352211e","registerGuardianPolicy(string,string,address)":"060ada2a","renounceOwnership()":"715018a6","safeTransferFrom(address,address,uint256)":"42842e0e","safeTransferFrom(address,address,uint256,bytes)":"b88d4fde","setApprovalForAll(address,bool)":"a22cb465","supportsInterface(bytes4)":"01ffc9a7","symbol()":"95d89b41","tokenURI(uint256)":"c87b56dd","transferFrom(address,address,uint256)":"23b872dd","transferOwnership(address)":"f2fde38b"},"id":16}